{
  "_format": "hh-sol-artifact-1",
  "contractName": "ClaimContract",
  "sourceName": "contracts/Test.sol",
  "abi": [
    {
      "inputs": [
        {
          "internalType": "address",
          "name": "_climableToken",
          "type": "address"
        }
      ],
      "stateMutability": "nonpayable",
      "type": "constructor"
    },
    {
      "anonymous": false,
      "inputs": [
        {
          "indexed": true,
          "internalType": "address",
          "name": "previousOwner",
          "type": "address"
        },
        {
          "indexed": true,
          "internalType": "address",
          "name": "newOwner",
          "type": "address"
        }
      ],
      "name": "OwnershipTransferred",
      "type": "event"
    },
    {
      "inputs": [],
      "name": "claim",
      "outputs": [],
      "stateMutability": "nonpayable",
      "type": "function"
    },
    {
      "inputs": [
        {
          "internalType": "address",
          "name": "token",
          "type": "address"
        }
      ],
      "name": "claimStuckTokens",
      "outputs": [],
      "stateMutability": "nonpayable",
      "type": "function"
    },
    {
      "inputs": [],
      "name": "climableToken",
      "outputs": [
        {
          "internalType": "contract IERC20",
          "name": "",
          "type": "address"
        }
      ],
      "stateMutability": "view",
      "type": "function"
    },
    {
      "inputs": [
        {
          "internalType": "address",
          "name": "user",
          "type": "address"
        }
      ],
      "name": "getBalance",
      "outputs": [
        {
          "internalType": "uint256",
          "name": "",
          "type": "uint256"
        }
      ],
      "stateMutability": "view",
      "type": "function"
    },
    {
      "inputs": [],
      "name": "owner",
      "outputs": [
        {
          "internalType": "address",
          "name": "",
          "type": "address"
        }
      ],
      "stateMutability": "view",
      "type": "function"
    },
    {
      "inputs": [],
      "name": "renounceOwnership",
      "outputs": [],
      "stateMutability": "nonpayable",
      "type": "function"
    },
    {
      "inputs": [
        {
          "internalType": "address[]",
          "name": "addresses",
          "type": "address[]"
        },
        {
          "internalType": "uint256[]",
          "name": "amounts",
          "type": "uint256[]"
        }
      ],
      "name": "setBalances",
      "outputs": [],
      "stateMutability": "nonpayable",
      "type": "function"
    },
    {
      "inputs": [
        {
          "internalType": "bool",
          "name": "_pauseClaim",
          "type": "bool"
        }
      ],
      "name": "setClaimStatus",
      "outputs": [],
      "stateMutability": "nonpayable",
      "type": "function"
    },
    {
      "inputs": [
        {
          "internalType": "address[]",
          "name": "addresses",
          "type": "address[]"
        },
        {
          "internalType": "uint256[]",
          "name": "amounts",
          "type": "uint256[]"
        }
      ],
      "name": "setDirectBalances",
      "outputs": [],
      "stateMutability": "nonpayable",
      "type": "function"
    },
    {
      "inputs": [
        {
          "internalType": "address",
          "name": "newOwner",
          "type": "address"
        }
      ],
      "name": "transferOwnership",
      "outputs": [],
      "stateMutability": "nonpayable",
      "type": "function"
    }
  ],
  "bytecode": "0x608060405234801561001057600080fd5b50604051610a98380380610a9883398101604081905261002f916100b2565b61003833610062565b600280546001600160a81b0319166001600160a01b0390921691909117600160a01b1790556100e2565b600080546001600160a01b038381166001600160a01b0319831681178455604051919092169283917f8be0079c531659141344cd1fd0a4f28419497f9722a3daafe3b4186f6b6457e09190a35050565b6000602082840312156100c457600080fd5b81516001600160a01b03811681146100db57600080fd5b9392505050565b6109a7806100f16000396000f3fe608060405234801561001057600080fd5b506004361061009e5760003560e01c8063b7e39b4f11610066578063b7e39b4f14610109578063dce501301461011c578063f2fde38b1461012f578063f8b2cb4f14610142578063f9d0831a1461017957600080fd5b80634e71d92d146100a3578063654f97a3146100ad578063715018a6146100c057806385584869146100c85780638da5cb5b146100f8575b600080fd5b6100ab61018c565b005b6100ab6100bb3660046106ec565b6102db565b6100ab610363565b6002546100db906001600160a01b031681565b6040516001600160a01b0390911681526020015b60405180910390f35b6000546001600160a01b03166100db565b6100ab610117366004610802565b610377565b6100ab61012a366004610802565b61040f565b6100ab61013d3660046108c2565b610492565b61016b6101503660046108c2565b6001600160a01b031660009081526001602052604090205490565b6040519081526020016100ef565b6100ab6101873660046108c2565b61050b565b33600090815260016020526040902054600254600160a01b900460ff16156101ed5760405162461bcd60e51b815260206004820152600f60248201526e10db185a5b481a5cc81c185d5cd959608a1b60448201526064015b60405180910390fd5b600081116102325760405162461bcd60e51b81526020600482015260126024820152714e6f20746f6b656e7320746f20636c61696d60701b60448201526064016101e4565b33600081815260016020526040808220829055600254905163a9059cbb60e01b815260048101939093526024830184905290916001600160a01b039091169063a9059cbb906044016020604051808303816000875af1158015610299573d6000803e3d6000fd5b505050506040513d601f19601f820116820180604052508101906102bd91906108dd565b9050806102d7573360009081526001602052604090208290555b5050565b6102e3610634565b801515600260149054906101000a900460ff161515036103455760405162461bcd60e51b815260206004820152601b60248201527f436c61696d2073746174757320697320616c726561647920736574000000000060448201526064016101e4565b60028054911515600160a01b0260ff60a01b19909216919091179055565b61036b610634565b610375600061068e565b565b61037f610634565b60005b825181101561040a5781818151811061039d5761039d6108fa565b6020026020010151600160008584815181106103bb576103bb6108fa565b60200260200101516001600160a01b03166001600160a01b0316815260200190815260200160002060008282546103f29190610926565b909155508190506104028161093f565b915050610382565b505050565b610417610634565b60005b825181101561040a57818181518110610435576104356108fa565b602002602001015160016000858481518110610453576104536108fa565b60200260200101516001600160a01b03166001600160a01b0316815260200190815260200160002081905550808061048a9061093f565b91505061041a565b61049a610634565b6001600160a01b0381166104ff5760405162461bcd60e51b815260206004820152602660248201527f4f776e61626c653a206e6577206f776e657220697320746865207a65726f206160448201526564647265737360d01b60648201526084016101e4565b6105088161068e565b50565b610513610634565b6001600160a01b03811661054d5760405133904780156108fc02916000818181858888f193505050501580156102d7573d6000803e3d6000fd5b6040516370a0823160e01b815230600482015281906000906001600160a01b038316906370a0823190602401602060405180830381865afa158015610596573d6000803e3d6000fd5b505050506040513d601f19601f820116820180604052508101906105ba9190610958565b60405163a9059cbb60e01b8152336004820152602481018290529091506001600160a01b0383169063a9059cbb906044016020604051808303816000875af115801561060a573d6000803e3d6000fd5b505050506040513d601f19601f8201168201806040525081019061062e91906108dd565b50505050565b6000546001600160a01b031633146103755760405162461bcd60e51b815260206004820181905260248201527f4f776e61626c653a2063616c6c6572206973206e6f7420746865206f776e657260448201526064016101e4565b600080546001600160a01b038381166001600160a01b0319831681178455604051919092169283917f8be0079c531659141344cd1fd0a4f28419497f9722a3daafe3b4186f6b6457e09190a35050565b801515811461050857600080fd5b6000602082840312156106fe57600080fd5b8135610709816106de565b9392505050565b634e487b7160e01b600052604160045260246000fd5b604051601f8201601f1916810167ffffffffffffffff8111828210171561074f5761074f610710565b604052919050565b600067ffffffffffffffff82111561077157610771610710565b5060051b60200190565b80356001600160a01b038116811461079257600080fd5b919050565b600082601f8301126107a857600080fd5b813560206107bd6107b883610757565b610726565b82815260059290921b840181019181810190868411156107dc57600080fd5b8286015b848110156107f757803583529183019183016107e0565b509695505050505050565b6000806040838503121561081557600080fd5b823567ffffffffffffffff8082111561082d57600080fd5b818501915085601f83011261084157600080fd5b813560206108516107b883610757565b82815260059290921b8401810191818101908984111561087057600080fd5b948201945b83861015610895576108868661077b565b82529482019490820190610875565b965050860135925050808211156108ab57600080fd5b506108b885828601610797565b9150509250929050565b6000602082840312156108d457600080fd5b6107098261077b565b6000602082840312156108ef57600080fd5b8151610709816106de565b634e487b7160e01b600052603260045260246000fd5b634e487b7160e01b600052601160045260246000fd5b8082018082111561093957610939610910565b92915050565b60006001820161095157610951610910565b5060010190565b60006020828403121561096a57600080fd5b505191905056fea2646970667358221220c2c002b34dc5ffd493a3e07dbcc582c84c52f2a2d29e2fc175d746c1ba63170264736f6c63430008110033",
  "linkReferences": {},
  "deployedLinkReferences": {}
}