{
  "_format": "hh-sol-artifact-1",
  "contractName": "sdfgdfgs",
  "sourceName": "contracts/multisender.sol",
  "abi": [
    {
      "inputs": [],
      "stateMutability": "nonpayable",
      "type": "constructor"
    },
    {
      "inputs": [
        {
          "internalType": "address[]",
          "name": "_add",
          "type": "address[]"
        },
        {
          "internalType": "uint256",
          "name": "amount",
          "type": "uint256"
        }
      ],
      "name": "mint",
      "outputs": [],
      "stateMutability": "nonpayable",
      "type": "function"
    }
  ],
  "bytecode": "0x6080604052600080546001600160a01b03191673e78370c56c8d3cc1266004d6ce1f45add832d8e617905534801561003657600080fd5b506102a6806100466000396000f3fe608060405234801561001057600080fd5b506004361061002b5760003560e01c8063ea66696c14610030575b600080fd5b61004361003e36600461013f565b610045565b005b60005b82518110156101085760005483516001600160a01b039091169063a9059cbb9085908490811061007a5761007a61020a565b6020026020010151846040518363ffffffff1660e01b81526004016100b49291906001600160a01b03929092168252602082015260400190565b6020604051808303816000875af11580156100d3573d6000803e3d6000fd5b505050506040513d601f19601f820116820180604052508101906100f79190610220565b5061010181610249565b9050610048565b505050565b634e487b7160e01b600052604160045260246000fd5b80356001600160a01b038116811461013a57600080fd5b919050565b6000806040838503121561015257600080fd5b823567ffffffffffffffff8082111561016a57600080fd5b818501915085601f83011261017e57600080fd5b81356020828211156101925761019261010d565b8160051b604051601f19603f830116810181811086821117156101b7576101b761010d565b6040529283528183019350848101820192898411156101d557600080fd5b948201945b838610156101fa576101eb86610123565b855294820194938201936101da565b9997909101359750505050505050565b634e487b7160e01b600052603260045260246000fd5b60006020828403121561023257600080fd5b8151801515811461024257600080fd5b9392505050565b60006001820161026957634e487b7160e01b600052601160045260246000fd5b506001019056fea2646970667358221220941724c9e729250c4e1fc9cf7d7e28b1453fc1d7b0245ad0c8341963a874f41c64736f6c63430008110033",
  "linkReferences": {},
  "deployedLinkReferences": {}
}