{
  "_format": "hh-sol-artifact-1",
  "contractName": "COOKIE",
  "sourceName": "contracts/CookieSaleTokenProxy.sol",
  "abi": [
    {
      "anonymous": false,
      "inputs": [
        {
          "indexed": true,
          "internalType": "address",
          "name": "owner",
          "type": "address"
        },
        {
          "indexed": true,
          "internalType": "address",
          "name": "spender",
          "type": "address"
        },
        {
          "indexed": false,
          "internalType": "uint256",
          "name": "value",
          "type": "uint256"
        }
      ],
      "name": "Approval",
      "type": "event"
    },
    {
      "anonymous": false,
      "inputs": [
        {
          "indexed": false,
          "internalType": "uint256",
          "name": "amount",
          "type": "uint256"
        }
      ],
      "name": "BuybackAndBurn",
      "type": "event"
    },
    {
      "anonymous": false,
      "inputs": [
        {
          "indexed": false,
          "internalType": "address",
          "name": "buybackToken",
          "type": "address"
        }
      ],
      "name": "BuybackTokenChanged",
      "type": "event"
    },
    {
      "anonymous": false,
      "inputs": [
        {
          "indexed": false,
          "internalType": "address",
          "name": "developmentWallet",
          "type": "address"
        }
      ],
      "name": "DevelopmentWalletChanged",
      "type": "event"
    },
    {
      "anonymous": false,
      "inputs": [
        {
          "indexed": true,
          "internalType": "address",
          "name": "account",
          "type": "address"
        },
        {
          "indexed": false,
          "internalType": "bool",
          "name": "isExcluded",
          "type": "bool"
        }
      ],
      "name": "ExcludeFromFees",
      "type": "event"
    },
    {
      "anonymous": false,
      "inputs": [
        {
          "indexed": true,
          "internalType": "address",
          "name": "account",
          "type": "address"
        },
        {
          "indexed": false,
          "internalType": "bool",
          "name": "isExcluded",
          "type": "bool"
        }
      ],
      "name": "ExcludedFromMaxTransactionLimit",
      "type": "event"
    },
    {
      "anonymous": false,
      "inputs": [
        {
          "indexed": true,
          "internalType": "address",
          "name": "account",
          "type": "address"
        },
        {
          "indexed": false,
          "internalType": "bool",
          "name": "isExcluded",
          "type": "bool"
        }
      ],
      "name": "ExcludedFromMaxWalletLimit",
      "type": "event"
    },
    {
      "anonymous": false,
      "inputs": [
        {
          "indexed": true,
          "internalType": "uint256",
          "name": "newValue",
          "type": "uint256"
        },
        {
          "indexed": true,
          "internalType": "uint256",
          "name": "oldValue",
          "type": "uint256"
        }
      ],
      "name": "GasForProcessingUpdated",
      "type": "event"
    },
    {
      "anonymous": false,
      "inputs": [
        {
          "indexed": false,
          "internalType": "uint8",
          "name": "version",
          "type": "uint8"
        }
      ],
      "name": "Initialized",
      "type": "event"
    },
    {
      "anonymous": false,
      "inputs": [
        {
          "indexed": false,
          "internalType": "address",
          "name": "marketingWallet",
          "type": "address"
        }
      ],
      "name": "MarketingWalletChanged",
      "type": "event"
    },
    {
      "anonymous": false,
      "inputs": [
        {
          "indexed": false,
          "internalType": "uint256",
          "name": "maxTransferRateBuy",
          "type": "uint256"
        },
        {
          "indexed": false,
          "internalType": "uint256",
          "name": "maxTransferRateSell",
          "type": "uint256"
        }
      ],
      "name": "MaxTransactionLimitAmountChanged",
      "type": "event"
    },
    {
      "anonymous": false,
      "inputs": [
        {
          "indexed": false,
          "internalType": "bool",
          "name": "maxTransactionLimit",
          "type": "bool"
        }
      ],
      "name": "MaxTransactionLimitStateChanged",
      "type": "event"
    },
    {
      "anonymous": false,
      "inputs": [
        {
          "indexed": false,
          "internalType": "uint256",
          "name": "maxWalletLimitRate",
          "type": "uint256"
        }
      ],
      "name": "MaxWalletLimitAmountChanged",
      "type": "event"
    },
    {
      "anonymous": false,
      "inputs": [
        {
          "indexed": false,
          "internalType": "bool",
          "name": "maxWalletLimit",
          "type": "bool"
        }
      ],
      "name": "MaxWalletLimitStateChanged",
      "type": "event"
    },
    {
      "anonymous": false,
      "inputs": [
        {
          "indexed": true,
          "internalType": "address",
          "name": "previousOwner",
          "type": "address"
        },
        {
          "indexed": true,
          "internalType": "address",
          "name": "newOwner",
          "type": "address"
        }
      ],
      "name": "OwnershipTransferred",
      "type": "event"
    },
    {
      "anonymous": false,
      "inputs": [
        {
          "indexed": false,
          "internalType": "uint256",
          "name": "iterations",
          "type": "uint256"
        },
        {
          "indexed": false,
          "internalType": "uint256",
          "name": "claims",
          "type": "uint256"
        },
        {
          "indexed": false,
          "internalType": "uint256",
          "name": "lastProcessedIndex",
          "type": "uint256"
        },
        {
          "indexed": true,
          "internalType": "bool",
          "name": "automatic",
          "type": "bool"
        },
        {
          "indexed": false,
          "internalType": "uint256",
          "name": "gas",
          "type": "uint256"
        },
        {
          "indexed": true,
          "internalType": "address",
          "name": "processor",
          "type": "address"
        }
      ],
      "name": "ProcessedDividendTracker",
      "type": "event"
    },
    {
      "anonymous": false,
      "inputs": [
        {
          "indexed": false,
          "internalType": "uint256",
          "name": "amount",
          "type": "uint256"
        }
      ],
      "name": "SendDevelopment",
      "type": "event"
    },
    {
      "anonymous": false,
      "inputs": [
        {
          "indexed": false,
          "internalType": "uint256",
          "name": "amount",
          "type": "uint256"
        }
      ],
      "name": "SendDividends",
      "type": "event"
    },
    {
      "anonymous": false,
      "inputs": [
        {
          "indexed": false,
          "internalType": "uint256",
          "name": "bnbSend",
          "type": "uint256"
        }
      ],
      "name": "SendMarketing",
      "type": "event"
    },
    {
      "anonymous": false,
      "inputs": [
        {
          "indexed": true,
          "internalType": "address",
          "name": "pair",
          "type": "address"
        },
        {
          "indexed": true,
          "internalType": "bool",
          "name": "value",
          "type": "bool"
        }
      ],
      "name": "SetAutomatedMarketMakerPair",
      "type": "event"
    },
    {
      "anonymous": false,
      "inputs": [
        {
          "indexed": false,
          "internalType": "uint256",
          "name": "tokensSwapped",
          "type": "uint256"
        },
        {
          "indexed": false,
          "internalType": "uint256",
          "name": "bnbReceived",
          "type": "uint256"
        },
        {
          "indexed": false,
          "internalType": "uint256",
          "name": "tokensIntoLiqudity",
          "type": "uint256"
        }
      ],
      "name": "SwapAndLiquify",
      "type": "event"
    },
    {
      "anonymous": false,
      "inputs": [
        {
          "indexed": true,
          "internalType": "address",
          "name": "from",
          "type": "address"
        },
        {
          "indexed": true,
          "internalType": "address",
          "name": "to",
          "type": "address"
        },
        {
          "indexed": false,
          "internalType": "uint256",
          "name": "value",
          "type": "uint256"
        }
      ],
      "name": "Transfer",
      "type": "event"
    },
    {
      "anonymous": false,
      "inputs": [
        {
          "indexed": false,
          "internalType": "uint256",
          "name": "marketingFeeOnBuy",
          "type": "uint256"
        },
        {
          "indexed": false,
          "internalType": "uint256",
          "name": "developmentFeeOnBuy",
          "type": "uint256"
        },
        {
          "indexed": false,
          "internalType": "uint256",
          "name": "rewardFeeOnBuy",
          "type": "uint256"
        },
        {
          "indexed": false,
          "internalType": "uint256",
          "name": "liquidityFeeOnBuy",
          "type": "uint256"
        },
        {
          "indexed": false,
          "internalType": "uint256",
          "name": "buyBackOnBuy",
          "type": "uint256"
        }
      ],
      "name": "UpdateBuyFees",
      "type": "event"
    },
    {
      "anonymous": false,
      "inputs": [
        {
          "indexed": true,
          "internalType": "address",
          "name": "newAddress",
          "type": "address"
        },
        {
          "indexed": true,
          "internalType": "address",
          "name": "oldAddress",
          "type": "address"
        }
      ],
      "name": "UpdateDividendTracker",
      "type": "event"
    },
    {
      "anonymous": false,
      "inputs": [
        {
          "indexed": false,
          "internalType": "uint256",
          "name": "marketingFeeOnSell",
          "type": "uint256"
        },
        {
          "indexed": false,
          "internalType": "uint256",
          "name": "developmentFeeOnSell",
          "type": "uint256"
        },
        {
          "indexed": false,
          "internalType": "uint256",
          "name": "rewardFeeOnSell",
          "type": "uint256"
        },
        {
          "indexed": false,
          "internalType": "uint256",
          "name": "liquidityFeeOnSell",
          "type": "uint256"
        },
        {
          "indexed": false,
          "internalType": "uint256",
          "name": "buyBackOnSell",
          "type": "uint256"
        }
      ],
      "name": "UpdateSellFees",
      "type": "event"
    },
    {
      "anonymous": false,
      "inputs": [
        {
          "indexed": true,
          "internalType": "address",
          "name": "newAddress",
          "type": "address"
        },
        {
          "indexed": true,
          "internalType": "address",
          "name": "oldAddress",
          "type": "address"
        }
      ],
      "name": "UpdateUniswapV2Router",
      "type": "event"
    },
    {
      "inputs": [],
      "name": "accumulatedBuybackBNB",
      "outputs": [
        {
          "internalType": "uint256",
          "name": "",
          "type": "uint256"
        }
      ],
      "stateMutability": "view",
      "type": "function"
    },
    {
      "inputs": [
        {
          "internalType": "address",
          "name": "owner",
          "type": "address"
        },
        {
          "internalType": "address",
          "name": "spender",
          "type": "address"
        }
      ],
      "name": "allowance",
      "outputs": [
        {
          "internalType": "uint256",
          "name": "",
          "type": "uint256"
        }
      ],
      "stateMutability": "view",
      "type": "function"
    },
    {
      "inputs": [
        {
          "internalType": "address",
          "name": "spender",
          "type": "address"
        },
        {
          "internalType": "uint256",
          "name": "amount",
          "type": "uint256"
        }
      ],
      "name": "approve",
      "outputs": [
        {
          "internalType": "bool",
          "name": "",
          "type": "bool"
        }
      ],
      "stateMutability": "nonpayable",
      "type": "function"
    },
    {
      "inputs": [
        {
          "internalType": "address",
          "name": "",
          "type": "address"
        }
      ],
      "name": "automatedMarketMakerPairs",
      "outputs": [
        {
          "internalType": "bool",
          "name": "",
          "type": "bool"
        }
      ],
      "stateMutability": "view",
      "type": "function"
    },
    {
      "inputs": [
        {
          "internalType": "address",
          "name": "account",
          "type": "address"
        }
      ],
      "name": "balanceOf",
      "outputs": [
        {
          "internalType": "uint256",
          "name": "",
          "type": "uint256"
        }
      ],
      "stateMutability": "view",
      "type": "function"
    },
    {
      "inputs": [],
      "name": "bnbValueForBuyBurn",
      "outputs": [
        {
          "internalType": "uint256",
          "name": "",
          "type": "uint256"
        }
      ],
      "stateMutability": "view",
      "type": "function"
    },
    {
      "inputs": [],
      "name": "buyBackFeeOnBuy",
      "outputs": [
        {
          "internalType": "uint256",
          "name": "",
          "type": "uint256"
        }
      ],
      "stateMutability": "view",
      "type": "function"
    },
    {
      "inputs": [],
      "name": "buyBackFeeOnSell",
      "outputs": [
        {
          "internalType": "uint256",
          "name": "",
          "type": "uint256"
        }
      ],
      "stateMutability": "view",
      "type": "function"
    },
    {
      "inputs": [],
      "name": "buybackToken",
      "outputs": [
        {
          "internalType": "address",
          "name": "",
          "type": "address"
        }
      ],
      "stateMutability": "view",
      "type": "function"
    },
    {
      "inputs": [
        {
          "internalType": "address",
          "name": "_buybackToken",
          "type": "address"
        }
      ],
      "name": "changeBuybackToken",
      "outputs": [],
      "stateMutability": "nonpayable",
      "type": "function"
    },
    {
      "inputs": [
        {
          "internalType": "address",
          "name": "_developmentWallet",
          "type": "address"
        }
      ],
      "name": "changeDevelopmentWallet",
      "outputs": [],
      "stateMutability": "nonpayable",
      "type": "function"
    },
    {
      "inputs": [
        {
          "internalType": "address",
          "name": "_marketingWallet",
          "type": "address"
        }
      ],
      "name": "changeMarketingWallet",
      "outputs": [],
      "stateMutability": "nonpayable",
      "type": "function"
    },
    {
      "inputs": [],
      "name": "claim",
      "outputs": [],
      "stateMutability": "nonpayable",
      "type": "function"
    },
    {
      "inputs": [
        {
          "internalType": "address",
          "name": "claimee",
          "type": "address"
        }
      ],
      "name": "claimAddress",
      "outputs": [],
      "stateMutability": "nonpayable",
      "type": "function"
    },
    {
      "inputs": [
        {
          "internalType": "address",
          "name": "token",
          "type": "address"
        }
      ],
      "name": "claimStuckTokens",
      "outputs": [],
      "stateMutability": "nonpayable",
      "type": "function"
    },
    {
      "inputs": [],
      "name": "decimals",
      "outputs": [
        {
          "internalType": "uint8",
          "name": "",
          "type": "uint8"
        }
      ],
      "stateMutability": "view",
      "type": "function"
    },
    {
      "inputs": [
        {
          "internalType": "address",
          "name": "spender",
          "type": "address"
        },
        {
          "internalType": "uint256",
          "name": "subtractedValue",
          "type": "uint256"
        }
      ],
      "name": "decreaseAllowance",
      "outputs": [
        {
          "internalType": "bool",
          "name": "",
          "type": "bool"
        }
      ],
      "stateMutability": "nonpayable",
      "type": "function"
    },
    {
      "inputs": [],
      "name": "developmentFeeOnBuy",
      "outputs": [
        {
          "internalType": "uint256",
          "name": "",
          "type": "uint256"
        }
      ],
      "stateMutability": "view",
      "type": "function"
    },
    {
      "inputs": [],
      "name": "developmentFeeOnSell",
      "outputs": [
        {
          "internalType": "uint256",
          "name": "",
          "type": "uint256"
        }
      ],
      "stateMutability": "view",
      "type": "function"
    },
    {
      "inputs": [],
      "name": "developmentWallet",
      "outputs": [
        {
          "internalType": "address",
          "name": "",
          "type": "address"
        }
      ],
      "stateMutability": "view",
      "type": "function"
    },
    {
      "inputs": [],
      "name": "disableTrading",
      "outputs": [],
      "stateMutability": "nonpayable",
      "type": "function"
    },
    {
      "inputs": [
        {
          "internalType": "address",
          "name": "account",
          "type": "address"
        }
      ],
      "name": "dividendTokenBalanceOf",
      "outputs": [
        {
          "internalType": "uint256",
          "name": "",
          "type": "uint256"
        }
      ],
      "stateMutability": "view",
      "type": "function"
    },
    {
      "inputs": [],
      "name": "dividendTracker",
      "outputs": [
        {
          "internalType": "contract DividendTracker",
          "name": "",
          "type": "address"
        }
      ],
      "stateMutability": "view",
      "type": "function"
    },
    {
      "inputs": [],
      "name": "enableTrading",
      "outputs": [],
      "stateMutability": "nonpayable",
      "type": "function"
    },
    {
      "inputs": [],
      "name": "enableTradingWithAntiBot",
      "outputs": [],
      "stateMutability": "nonpayable",
      "type": "function"
    },
    {
      "inputs": [
        {
          "internalType": "bool",
          "name": "enable",
          "type": "bool"
        }
      ],
      "name": "enableWalletToWalletTransferWithoutFee",
      "outputs": [],
      "stateMutability": "nonpayable",
      "type": "function"
    },
    {
      "inputs": [
        {
          "internalType": "address",
          "name": "account",
          "type": "address"
        }
      ],
      "name": "excludeFromDividends",
      "outputs": [],
      "stateMutability": "nonpayable",
      "type": "function"
    },
    {
      "inputs": [
        {
          "internalType": "address",
          "name": "account",
          "type": "address"
        },
        {
          "internalType": "bool",
          "name": "excluded",
          "type": "bool"
        }
      ],
      "name": "excludeFromFees",
      "outputs": [],
      "stateMutability": "nonpayable",
      "type": "function"
    },
    {
      "inputs": [],
      "name": "gasForProcessing",
      "outputs": [
        {
          "internalType": "uint256",
          "name": "",
          "type": "uint256"
        }
      ],
      "stateMutability": "view",
      "type": "function"
    },
    {
      "inputs": [
        {
          "internalType": "address",
          "name": "account",
          "type": "address"
        }
      ],
      "name": "getAccountDividendsInfo",
      "outputs": [
        {
          "internalType": "address",
          "name": "",
          "type": "address"
        },
        {
          "internalType": "int256",
          "name": "",
          "type": "int256"
        },
        {
          "internalType": "int256",
          "name": "",
          "type": "int256"
        },
        {
          "internalType": "uint256",
          "name": "",
          "type": "uint256"
        },
        {
          "internalType": "uint256",
          "name": "",
          "type": "uint256"
        },
        {
          "internalType": "uint256",
          "name": "",
          "type": "uint256"
        },
        {
          "internalType": "uint256",
          "name": "",
          "type": "uint256"
        },
        {
          "internalType": "uint256",
          "name": "",
          "type": "uint256"
        }
      ],
      "stateMutability": "view",
      "type": "function"
    },
    {
      "inputs": [
        {
          "internalType": "uint256",
          "name": "index",
          "type": "uint256"
        }
      ],
      "name": "getAccountDividendsInfoAtIndex",
      "outputs": [
        {
          "internalType": "address",
          "name": "",
          "type": "address"
        },
        {
          "internalType": "int256",
          "name": "",
          "type": "int256"
        },
        {
          "internalType": "int256",
          "name": "",
          "type": "int256"
        },
        {
          "internalType": "uint256",
          "name": "",
          "type": "uint256"
        },
        {
          "internalType": "uint256",
          "name": "",
          "type": "uint256"
        },
        {
          "internalType": "uint256",
          "name": "",
          "type": "uint256"
        },
        {
          "internalType": "uint256",
          "name": "",
          "type": "uint256"
        },
        {
          "internalType": "uint256",
          "name": "",
          "type": "uint256"
        }
      ],
      "stateMutability": "view",
      "type": "function"
    },
    {
      "inputs": [],
      "name": "getClaimWait",
      "outputs": [
        {
          "internalType": "uint256",
          "name": "",
          "type": "uint256"
        }
      ],
      "stateMutability": "view",
      "type": "function"
    },
    {
      "inputs": [],
      "name": "getLastProcessedIndex",
      "outputs": [
        {
          "internalType": "uint256",
          "name": "",
          "type": "uint256"
        }
      ],
      "stateMutability": "view",
      "type": "function"
    },
    {
      "inputs": [],
      "name": "getNumberOfDividendTokenHolders",
      "outputs": [
        {
          "internalType": "uint256",
          "name": "",
          "type": "uint256"
        }
      ],
      "stateMutability": "view",
      "type": "function"
    },
    {
      "inputs": [],
      "name": "getTotalDividendsDistributed",
      "outputs": [
        {
          "internalType": "uint256",
          "name": "",
          "type": "uint256"
        }
      ],
      "stateMutability": "view",
      "type": "function"
    },
    {
      "inputs": [
        {
          "internalType": "address",
          "name": "spender",
          "type": "address"
        },
        {
          "internalType": "uint256",
          "name": "addedValue",
          "type": "uint256"
        }
      ],
      "name": "increaseAllowance",
      "outputs": [
        {
          "internalType": "bool",
          "name": "",
          "type": "bool"
        }
      ],
      "stateMutability": "nonpayable",
      "type": "function"
    },
    {
      "inputs": [],
      "name": "initialize",
      "outputs": [],
      "stateMutability": "nonpayable",
      "type": "function"
    },
    {
      "inputs": [
        {
          "internalType": "address",
          "name": "account",
          "type": "address"
        }
      ],
      "name": "isExcludedFromFees",
      "outputs": [
        {
          "internalType": "bool",
          "name": "",
          "type": "bool"
        }
      ],
      "stateMutability": "view",
      "type": "function"
    },
    {
      "inputs": [
        {
          "internalType": "address",
          "name": "account",
          "type": "address"
        }
      ],
      "name": "isExcludedFromMaxTransaction",
      "outputs": [
        {
          "internalType": "bool",
          "name": "",
          "type": "bool"
        }
      ],
      "stateMutability": "view",
      "type": "function"
    },
    {
      "inputs": [
        {
          "internalType": "address",
          "name": "account",
          "type": "address"
        }
      ],
      "name": "isExcludedFromMaxWalletLimit",
      "outputs": [
        {
          "internalType": "bool",
          "name": "",
          "type": "bool"
        }
      ],
      "stateMutability": "view",
      "type": "function"
    },
    {
      "inputs": [],
      "name": "launchTime",
      "outputs": [
        {
          "internalType": "uint256",
          "name": "",
          "type": "uint256"
        }
      ],
      "stateMutability": "view",
      "type": "function"
    },
    {
      "inputs": [],
      "name": "liquidityFeeOnBuy",
      "outputs": [
        {
          "internalType": "uint256",
          "name": "",
          "type": "uint256"
        }
      ],
      "stateMutability": "view",
      "type": "function"
    },
    {
      "inputs": [],
      "name": "liquidityFeeOnSell",
      "outputs": [
        {
          "internalType": "uint256",
          "name": "",
          "type": "uint256"
        }
      ],
      "stateMutability": "view",
      "type": "function"
    },
    {
      "inputs": [],
      "name": "marketingFeeOnBuy",
      "outputs": [
        {
          "internalType": "uint256",
          "name": "",
          "type": "uint256"
        }
      ],
      "stateMutability": "view",
      "type": "function"
    },
    {
      "inputs": [],
      "name": "marketingFeeOnSell",
      "outputs": [
        {
          "internalType": "uint256",
          "name": "",
          "type": "uint256"
        }
      ],
      "stateMutability": "view",
      "type": "function"
    },
    {
      "inputs": [],
      "name": "marketingWallet",
      "outputs": [
        {
          "internalType": "address",
          "name": "",
          "type": "address"
        }
      ],
      "stateMutability": "view",
      "type": "function"
    },
    {
      "inputs": [],
      "name": "maxTransactionAmountBuy",
      "outputs": [
        {
          "internalType": "uint256",
          "name": "",
          "type": "uint256"
        }
      ],
      "stateMutability": "view",
      "type": "function"
    },
    {
      "inputs": [],
      "name": "maxTransactionAmountSell",
      "outputs": [
        {
          "internalType": "uint256",
          "name": "",
          "type": "uint256"
        }
      ],
      "stateMutability": "view",
      "type": "function"
    },
    {
      "inputs": [],
      "name": "maxTransactionLimitEnabled",
      "outputs": [
        {
          "internalType": "bool",
          "name": "",
          "type": "bool"
        }
      ],
      "stateMutability": "view",
      "type": "function"
    },
    {
      "inputs": [],
      "name": "maxWalletAmount",
      "outputs": [
        {
          "internalType": "uint256",
          "name": "",
          "type": "uint256"
        }
      ],
      "stateMutability": "view",
      "type": "function"
    },
    {
      "inputs": [],
      "name": "maxWalletLimitEnabled",
      "outputs": [
        {
          "internalType": "bool",
          "name": "",
          "type": "bool"
        }
      ],
      "stateMutability": "view",
      "type": "function"
    },
    {
      "inputs": [],
      "name": "name",
      "outputs": [
        {
          "internalType": "string",
          "name": "",
          "type": "string"
        }
      ],
      "stateMutability": "view",
      "type": "function"
    },
    {
      "inputs": [],
      "name": "owner",
      "outputs": [
        {
          "internalType": "address",
          "name": "",
          "type": "address"
        }
      ],
      "stateMutability": "view",
      "type": "function"
    },
    {
      "inputs": [
        {
          "internalType": "uint256",
          "name": "gas",
          "type": "uint256"
        }
      ],
      "name": "processDividendTracker",
      "outputs": [],
      "stateMutability": "nonpayable",
      "type": "function"
    },
    {
      "inputs": [],
      "name": "renounceOwnership",
      "outputs": [],
      "stateMutability": "nonpayable",
      "type": "function"
    },
    {
      "inputs": [],
      "name": "rewardFeeOnBuy",
      "outputs": [
        {
          "internalType": "uint256",
          "name": "",
          "type": "uint256"
        }
      ],
      "stateMutability": "view",
      "type": "function"
    },
    {
      "inputs": [],
      "name": "rewardFeeOnSell",
      "outputs": [
        {
          "internalType": "uint256",
          "name": "",
          "type": "uint256"
        }
      ],
      "stateMutability": "view",
      "type": "function"
    },
    {
      "inputs": [],
      "name": "rewardToken",
      "outputs": [
        {
          "internalType": "address",
          "name": "",
          "type": "address"
        }
      ],
      "stateMutability": "view",
      "type": "function"
    },
    {
      "inputs": [
        {
          "internalType": "bool",
          "name": "_enabled",
          "type": "bool"
        }
      ],
      "name": "setAntibotEnabled",
      "outputs": [],
      "stateMutability": "nonpayable",
      "type": "function"
    },
    {
      "inputs": [
        {
          "internalType": "bool",
          "name": "enable",
          "type": "bool"
        }
      ],
      "name": "setEnableMaxTransactionLimit",
      "outputs": [],
      "stateMutability": "nonpayable",
      "type": "function"
    },
    {
      "inputs": [
        {
          "internalType": "bool",
          "name": "enable",
          "type": "bool"
        }
      ],
      "name": "setEnableMaxWalletLimit",
      "outputs": [],
      "stateMutability": "nonpayable",
      "type": "function"
    },
    {
      "inputs": [
        {
          "internalType": "address",
          "name": "account",
          "type": "address"
        },
        {
          "internalType": "bool",
          "name": "exclude",
          "type": "bool"
        }
      ],
      "name": "setExcludeFromMaxTransactionLimit",
      "outputs": [],
      "stateMutability": "nonpayable",
      "type": "function"
    },
    {
      "inputs": [
        {
          "internalType": "address",
          "name": "account",
          "type": "address"
        },
        {
          "internalType": "bool",
          "name": "exclude",
          "type": "bool"
        }
      ],
      "name": "setExcludeFromMaxWallet",
      "outputs": [],
      "stateMutability": "nonpayable",
      "type": "function"
    },
    {
      "inputs": [
        {
          "internalType": "uint256",
          "name": "index",
          "type": "uint256"
        }
      ],
      "name": "setLastProcessedIndex",
      "outputs": [],
      "stateMutability": "nonpayable",
      "type": "function"
    },
    {
      "inputs": [
        {
          "internalType": "uint256",
          "name": "_maxTransactionAmountBuy",
          "type": "uint256"
        },
        {
          "internalType": "uint256",
          "name": "_maxTransactionAmountSell",
          "type": "uint256"
        }
      ],
      "name": "setMaxTransactionAmounts",
      "outputs": [],
      "stateMutability": "nonpayable",
      "type": "function"
    },
    {
      "inputs": [
        {
          "internalType": "uint256",
          "name": "_maxWalletAmount",
          "type": "uint256"
        }
      ],
      "name": "setMaxWalletAmount",
      "outputs": [],
      "stateMutability": "nonpayable",
      "type": "function"
    },
    {
      "inputs": [
        {
          "internalType": "address[]",
          "name": "accounts",
          "type": "address[]"
        },
        {
          "internalType": "uint256",
          "name": "fee",
          "type": "uint256"
        }
      ],
      "name": "setSpecialFees",
      "outputs": [],
      "stateMutability": "nonpayable",
      "type": "function"
    },
    {
      "inputs": [
        {
          "internalType": "bool",
          "name": "_swapEnabled",
          "type": "bool"
        }
      ],
      "name": "setSwapEnabled",
      "outputs": [],
      "stateMutability": "nonpayable",
      "type": "function"
    },
    {
      "inputs": [
        {
          "internalType": "uint256",
          "name": "newAmount",
          "type": "uint256"
        }
      ],
      "name": "setSwapTokensAtAmount",
      "outputs": [],
      "stateMutability": "nonpayable",
      "type": "function"
    },
    {
      "inputs": [
        {
          "internalType": "bool",
          "name": "_swapWithLimit",
          "type": "bool"
        }
      ],
      "name": "setSwapWithLimit",
      "outputs": [],
      "stateMutability": "nonpayable",
      "type": "function"
    },
    {
      "inputs": [
        {
          "internalType": "uint256",
          "name": "_bnbValueForBuyBurn",
          "type": "uint256"
        }
      ],
      "name": "setbnbValueForBuyBurn",
      "outputs": [],
      "stateMutability": "nonpayable",
      "type": "function"
    },
    {
      "inputs": [
        {
          "internalType": "address",
          "name": "",
          "type": "address"
        }
      ],
      "name": "specialFees",
      "outputs": [
        {
          "internalType": "uint256",
          "name": "",
          "type": "uint256"
        }
      ],
      "stateMutability": "view",
      "type": "function"
    },
    {
      "inputs": [],
      "name": "swapEnabled",
      "outputs": [
        {
          "internalType": "bool",
          "name": "",
          "type": "bool"
        }
      ],
      "stateMutability": "view",
      "type": "function"
    },
    {
      "inputs": [],
      "name": "swapTokensAtAmount",
      "outputs": [
        {
          "internalType": "uint256",
          "name": "",
          "type": "uint256"
        }
      ],
      "stateMutability": "view",
      "type": "function"
    },
    {
      "inputs": [],
      "name": "swapWithLimit",
      "outputs": [
        {
          "internalType": "bool",
          "name": "",
          "type": "bool"
        }
      ],
      "stateMutability": "view",
      "type": "function"
    },
    {
      "inputs": [],
      "name": "symbol",
      "outputs": [
        {
          "internalType": "string",
          "name": "",
          "type": "string"
        }
      ],
      "stateMutability": "view",
      "type": "function"
    },
    {
      "inputs": [
        {
          "internalType": "address",
          "name": "account",
          "type": "address"
        }
      ],
      "name": "totalRewardsEarned",
      "outputs": [
        {
          "internalType": "uint256",
          "name": "",
          "type": "uint256"
        }
      ],
      "stateMutability": "view",
      "type": "function"
    },
    {
      "inputs": [],
      "name": "totalSupply",
      "outputs": [
        {
          "internalType": "uint256",
          "name": "",
          "type": "uint256"
        }
      ],
      "stateMutability": "view",
      "type": "function"
    },
    {
      "inputs": [],
      "name": "tradingEnabled",
      "outputs": [
        {
          "internalType": "bool",
          "name": "",
          "type": "bool"
        }
      ],
      "stateMutability": "view",
      "type": "function"
    },
    {
      "inputs": [
        {
          "internalType": "address",
          "name": "to",
          "type": "address"
        },
        {
          "internalType": "uint256",
          "name": "amount",
          "type": "uint256"
        }
      ],
      "name": "transfer",
      "outputs": [
        {
          "internalType": "bool",
          "name": "",
          "type": "bool"
        }
      ],
      "stateMutability": "nonpayable",
      "type": "function"
    },
    {
      "inputs": [
        {
          "internalType": "address",
          "name": "from",
          "type": "address"
        },
        {
          "internalType": "address",
          "name": "to",
          "type": "address"
        },
        {
          "internalType": "uint256",
          "name": "amount",
          "type": "uint256"
        }
      ],
      "name": "transferFrom",
      "outputs": [
        {
          "internalType": "bool",
          "name": "",
          "type": "bool"
        }
      ],
      "stateMutability": "nonpayable",
      "type": "function"
    },
    {
      "inputs": [
        {
          "internalType": "address",
          "name": "newOwner",
          "type": "address"
        }
      ],
      "name": "transferOwnership",
      "outputs": [],
      "stateMutability": "nonpayable",
      "type": "function"
    },
    {
      "inputs": [],
      "name": "uniswapV2Pair",
      "outputs": [
        {
          "internalType": "address",
          "name": "",
          "type": "address"
        }
      ],
      "stateMutability": "view",
      "type": "function"
    },
    {
      "inputs": [],
      "name": "uniswapV2Router",
      "outputs": [
        {
          "internalType": "contract IUniswapV2Router02",
          "name": "",
          "type": "address"
        }
      ],
      "stateMutability": "view",
      "type": "function"
    },
    {
      "inputs": [
        {
          "internalType": "uint256",
          "name": "_marketingFeeOnBuy",
          "type": "uint256"
        },
        {
          "internalType": "uint256",
          "name": "_developmentFeeOnBuy",
          "type": "uint256"
        },
        {
          "internalType": "uint256",
          "name": "_rewardFeeOnBuy",
          "type": "uint256"
        },
        {
          "internalType": "uint256",
          "name": "_liquidityFeeOnBuy",
          "type": "uint256"
        },
        {
          "internalType": "uint256",
          "name": "_buybackFeeOnBuy",
          "type": "uint256"
        }
      ],
      "name": "updateBuyFees",
      "outputs": [],
      "stateMutability": "nonpayable",
      "type": "function"
    },
    {
      "inputs": [
        {
          "internalType": "uint256",
          "name": "claimWait",
          "type": "uint256"
        }
      ],
      "name": "updateClaimWait",
      "outputs": [],
      "stateMutability": "nonpayable",
      "type": "function"
    },
    {
      "inputs": [
        {
          "internalType": "address",
          "name": "newAddress",
          "type": "address"
        }
      ],
      "name": "updateDividendTracker",
      "outputs": [],
      "stateMutability": "nonpayable",
      "type": "function"
    },
    {
      "inputs": [
        {
          "internalType": "uint256",
          "name": "newValue",
          "type": "uint256"
        }
      ],
      "name": "updateGasForProcessing",
      "outputs": [],
      "stateMutability": "nonpayable",
      "type": "function"
    },
    {
      "inputs": [
        {
          "internalType": "uint256",
          "name": "newMinimumBalance",
          "type": "uint256"
        }
      ],
      "name": "updateMinimumBalanceForDividends",
      "outputs": [],
      "stateMutability": "nonpayable",
      "type": "function"
    },
    {
      "inputs": [
        {
          "internalType": "uint256",
          "name": "_marketingFeeOnSell",
          "type": "uint256"
        },
        {
          "internalType": "uint256",
          "name": "_developmentFeeOnSell",
          "type": "uint256"
        },
        {
          "internalType": "uint256",
          "name": "_rewardFeeOnSell",
          "type": "uint256"
        },
        {
          "internalType": "uint256",
          "name": "_liquidityFeeOnSell",
          "type": "uint256"
        },
        {
          "internalType": "uint256",
          "name": "_buyBackFeeOnSell",
          "type": "uint256"
        }
      ],
      "name": "updateSellFees",
      "outputs": [],
      "stateMutability": "nonpayable",
      "type": "function"
    },
    {
      "inputs": [
        {
          "internalType": "address",
          "name": "newAddress",
          "type": "address"
        }
      ],
      "name": "updateUniswapV2Router",
      "outputs": [],
      "stateMutability": "nonpayable",
      "type": "function"
    },
    {
      "inputs": [],
      "name": "walletToWalletTransferWithoutFee",
      "outputs": [
        {
          "internalType": "bool",
          "name": "",
          "type": "bool"
        }
      ],
      "stateMutability": "view",
      "type": "function"
    },
    {
      "inputs": [
        {
          "internalType": "address",
          "name": "account",
          "type": "address"
        }
      ],
      "name": "withdrawableDividendOf",
      "outputs": [
        {
          "internalType": "uint256",
          "name": "",
          "type": "uint256"
        }
      ],
      "stateMutability": "view",
      "type": "function"
    },
    {
      "stateMutability": "payable",
      "type": "receive"
    }
  ],
  "bytecode": "0x608060405234801561001057600080fd5b50614c80806100206000396000f3fe6080604052600436106105065760003560e01c8063700bb19111610297578063ad56c13c11610165578063e2f45605116100cc578063f2f3125f11610085578063f2f3125f14610f95578063f2fde38b14610fb5578063f7c618c114610fd5578063f81b684614610ff5578063f9d0831a14611022578063ff935af61461104257600080fd5b8063e2f4560514610eea578063e4f24cb014610f00578063e7841ec014610f20578063e98030c714610f35578063f170d7fd14610f55578063f27fd25414610f7557600080fd5b8063c02466681161011e578063c024666814610e3e578063c04a541414610e5e578063db9f2ed614610e7e578063dc4c7dbc14610e94578063dd62ed3e14610eaa578063e01af92c14610eca57600080fd5b8063ad56c13c14610d29578063aed970d514610d8e578063afa4f3b214610dae578063b62496f514610dce578063b6f7f68114610dfe578063bb85c6d114610e1e57600080fd5b80638da5cb5b11610209578063a26579ad116101c2578063a26579ad14610c65578063a457c2d714610c7a578063a8a69b9d14610c9a578063a8b9d24014610cd3578063a9059cbb14610cf3578063aa4bde2814610d1357600080fd5b80638da5cb5b14610bbc578063929f136014610bda57806395d89b4114610bfa578063988be11814610c0f5780639a679cf614610c2f5780639c1b8af514610c4f57600080fd5b8063790ca4131161025b578063790ca41314610b265780637b3c83b114610b3c5780638129fc1c14610b52578063871c128d14610b6757806388bdd9be14610b875780638a8c523c14610ba757600080fd5b8063700bb19114610a8557806370a0823114610aa5578063715018a614610adb57806375f0a87414610af0578063768b2a7314610b1057600080fd5b806331e79db0116103d457806349bd5a5e1161034657806359136fa5116102ff57806359136fa5146109ea5780635fc2e59614610a0057806364b0f65314610a1657806365b8dbc014610a2b5780636843cd8414610a4b5780636ddd171314610a6b57600080fd5b806349bd5a5e1461091c5780634ada218b1461093c5780634e71d92d1461095c5780634fbee193146109715780635654d0b3146109aa57806356a6cabf146109ca57600080fd5b80633f249df0116103985780633f249df01461087c57806341b37c8e1461089c57806341ec9942146108bc57806342efad2c146108d257806343807c7f146108e7578063488eb37f146108fd57600080fd5b806331e79db0146107e6578063328b2d9f1461080657806335d67daa1461081c578063395093511461083c5780633b364da81461085c57600080fd5b80631dac24d6116104785780632a6c7dba116104315780632a6c7dba146107455780632ba86bf2146107655780632c1f52161461077f5780632ce86fbf1461079f57806330bb4cff146107b5578063313ce567146107ca57600080fd5b80631dac24d61461069f57806321a9d82a146106b557806323b872dd146106cf57806325ecca87146106ef57806327a14fc214610705578063286b3aa01461072557600080fd5b8063150c880c116104ca578063150c880c146105db5780631529fbbf146105fd5780631694505e1461061757806317700f011461063c57806318160ddd1461065157806318d9ceae1461066657600080fd5b80630105d0fd14610512578063026390011461053b57806305452b871461057357806306fdde0314610589578063095ea7b3146105ab57600080fd5b3661050d57005b600080fd5b34801561051e57600080fd5b5061052860ba5481565b6040519081526020015b60405180910390f35b34801561054757600080fd5b5060a55461055b906001600160a01b031681565b6040516001600160a01b039091168152602001610532565b34801561057f57600080fd5b50610528609c5481565b34801561059557600080fd5b5061059e611062565b60405161053291906143b6565b3480156105b757600080fd5b506105cb6105c6366004614429565b6110f4565b6040519015158152602001610532565b3480156105e757600080fd5b506105fb6105f6366004614463565b61110e565b005b34801561060957600080fd5b5060a8546105cb9060ff1681565b34801561062357600080fd5b5060a85461055b9061010090046001600160a01b031681565b34801561064857600080fd5b506105fb611176565b34801561065d57600080fd5b50603554610528565b34801561067257600080fd5b506105cb61068136600461449c565b6001600160a01b0316600090815260b8602052604090205460ff1690565b3480156106ab57600080fd5b50610528609a5481565b3480156106c157600080fd5b5060b6546105cb9060ff1681565b3480156106db57600080fd5b506105cb6106ea3660046144c0565b61118c565b3480156106fb57600080fd5b5061052860995481565b34801561071157600080fd5b506105fb610720366004614501565b6111b0565b34801561073157600080fd5b506105fb610740366004614501565b61120a565b34801561075157600080fd5b506105fb61076036600461451a565b611274565b34801561077157600080fd5b5060b9546105cb9060ff1681565b34801561078b57600080fd5b5060b25461055b906001600160a01b031681565b3480156107ab57600080fd5b50610528609e5481565b3480156107c157600080fd5b506105286112c3565b3480156107d657600080fd5b5060405160128152602001610532565b3480156107f257600080fd5b506105fb61080136600461449c565b611336565b34801561081257600080fd5b50610528609f5481565b34801561082857600080fd5b506105fb61083736600461449c565b611370565b34801561084857600080fd5b506105cb610857366004614429565b6113c6565b34801561086857600080fd5b506105fb610877366004614501565b6113e8565b34801561088857600080fd5b506105fb61089736600461449c565b611421565b3480156108a857600080fd5b506105fb6108b736600461454d565b6114a4565b3480156108c857600080fd5b5061052860a75481565b3480156108de57600080fd5b506105fb61155b565b3480156108f357600080fd5b5061052860a05481565b34801561090957600080fd5b5060ac546105cb90610100900460ff1681565b34801561092857600080fd5b5060a95461055b906001600160a01b031681565b34801561094857600080fd5b5060ac546105cb9062010000900460ff1681565b34801561096857600080fd5b506105fb61157a565b34801561097d57600080fd5b506105cb61098c36600461449c565b6001600160a01b0316600090815260af602052604090205460ff1690565b3480156109b657600080fd5b506105fb6109c536600461451a565b6115f2565b3480156109d657600080fd5b506105fb6109e536600461451a565b61160d565b3480156109f657600080fd5b5061052860bb5481565b348015610a0c57600080fd5b5061052860975481565b348015610a2257600080fd5b5061052861165c565b348015610a3757600080fd5b506105fb610a4636600461449c565b6116a6565b348015610a5757600080fd5b50610528610a6636600461449c565b6118a9565b348015610a7757600080fd5b5060ac546105cb9060ff1681565b348015610a9157600080fd5b506105fb610aa0366004614501565b611919565b348015610ab157600080fd5b50610528610ac036600461449c565b6001600160a01b031660009081526033602052604090205490565b348015610ae757600080fd5b506105fb6119eb565b348015610afc57600080fd5b5060a35461055b906001600160a01b031681565b348015610b1c57600080fd5b50610528609b5481565b348015610b3257600080fd5b5061052860ad5481565b348015610b4857600080fd5b50610528609d5481565b348015610b5e57600080fd5b506105fb6119ff565b348015610b7357600080fd5b506105fb610b82366004614501565b612059565b348015610b9357600080fd5b506105fb610ba236600461449c565b612094565b348015610bb357600080fd5b506105fb6123bd565b348015610bc857600080fd5b506065546001600160a01b031661055b565b348015610be657600080fd5b506105fb610bf5366004614463565b6123d8565b348015610c0657600080fd5b5061059e612438565b348015610c1b57600080fd5b506105fb610c2a36600461451a565b612447565b348015610c3b57600080fd5b506105fb610c4a36600461449c565b612469565b348015610c5b57600080fd5b5061052860b45481565b348015610c7157600080fd5b506105286124bf565b348015610c8657600080fd5b506105cb610c95366004614429565b612509565b348015610ca657600080fd5b506105cb610cb536600461449c565b6001600160a01b0316600090815260b5602052604090205460ff1690565b348015610cdf57600080fd5b50610528610cee36600461449c565b612584565b348015610cff57600080fd5b506105cb610d0e366004614429565b6125b7565b348015610d1f57600080fd5b5061052860b75481565b348015610d3557600080fd5b50610d49610d4436600461449c565b6125c5565b604080516001600160a01b0390991689526020890197909752958701949094526060860192909252608085015260a084015260c083015260e082015261010001610532565b348015610d9a57600080fd5b506105fb610da9366004614501565b612660565b348015610dba57600080fd5b506105fb610dc9366004614501565b61266d565b348015610dda57600080fd5b506105cb610de936600461449c565b60b06020526000908152604090205460ff1681565b348015610e0a57600080fd5b506105fb610e19366004614618565b61267a565b348015610e2a57600080fd5b506105fb610e3936600461449c565b6126fb565b348015610e4a57600080fd5b506105fb610e59366004614463565b6127bb565b348015610e6a57600080fd5b5060a45461055b906001600160a01b031681565b348015610e8a57600080fd5b5061052860a65481565b348015610ea057600080fd5b5061052860985481565b348015610eb657600080fd5b50610528610ec536600461463a565b61281b565b348015610ed657600080fd5b506105fb610ee536600461451a565b612846565b348015610ef657600080fd5b5061052860ab5481565b348015610f0c57600080fd5b50610528610f1b36600461449c565b612861565b348015610f2c57600080fd5b50610528612894565b348015610f4157600080fd5b506105fb610f50366004614501565b6128de565b348015610f6157600080fd5b506105fb610f70366004614668565b612917565b348015610f8157600080fd5b50610d49610f90366004614501565b612a38565b348015610fa157600080fd5b506105fb610fb036600461451a565b612a7a565b348015610fc157600080fd5b506105fb610fd036600461449c565b612a95565b348015610fe157600080fd5b5060b35461055b906001600160a01b031681565b34801561100157600080fd5b5061052861101036600461449c565b60b16020526000908152604090205481565b34801561102e57600080fd5b506105fb61103d36600461449c565b612b0b565b34801561104e57600080fd5b506105fb61105d366004614668565b612c3d565b606060368054611071906146a3565b80601f016020809104026020016040519081016040528092919081815260200182805461109d906146a3565b80156110ea5780601f106110bf576101008083540402835291602001916110ea565b820191906000526020600020905b8154815290600101906020018083116110cd57829003601f168201915b5050505050905090565b600033611102818585612d53565b60019150505b92915050565b611116612e77565b6001600160a01b038216600081815260b86020908152604091829020805460ff191685151590811790915591519182527f8727c4afe988887760e8db0bbad9f9fcceee6428545956832f67c8fdbd589c1091015b60405180910390a25050565b61117e612e77565b60ac805462ff000019169055565b60003361119a858285612ed1565b6111a5858585612f45565b506001949350505050565b6111b8612e77565b6111c46012600a6147d7565b6111ce90826147e6565b60b78190556040519081527f21bc0ea3406acb92d4449ab33befb4ae82f873a22f3b6cf0e466b2710beb5942906020015b60405180910390a150565b611212612e77565b60b25460405163014359d560e51b8152600481018390526001600160a01b039091169063286b3aa0906024015b600060405180830381600087803b15801561125957600080fd5b505af115801561126d573d6000803e3d6000fd5b5050505050565b61127c612e77565b60b6805460ff191682151590811790915560405160ff909116151581527f670f884265aba2d05e7c26efbc42f8365effc4cb3fcfcefddba0c0b71a6231f1906020016111ff565b60b254604080516342d359d760e11b815290516000926001600160a01b0316916385a6b3ae9160048083019260209291908290030181865afa15801561130d573d6000803e3d6000fd5b505050506040513d601f19601f8201168201806040525081019061133191906147fd565b905090565b61133e612e77565b60b25460405163031e79db60e41b81526001600160a01b038381166004830152909116906331e79db09060240161123f565b611378612e77565b60a580546001600160a01b0319166001600160a01b0383169081179091556040519081527f2302fd511d668344736bde27f680d547a4c58e1169b9b22e24941082667f43f9906020016111ff565b6000336111028185856113d9838361281b565b6113e39190614816565b612d53565b6113f0612e77565b60b254604051630dcb2e8960e01b8152600481018390526001600160a01b0390911690630dcb2e899060240161123f565b611429612e77565b60b25460405163bc4c4b3760e01b81526001600160a01b038381166004830152600060248301529091169063bc4c4b37906044016020604051808303816000875af115801561147c573d6000803e3d6000fd5b505050506040513d601f19601f820116820180604052508101906114a09190614829565b5050565b6114ac612e77565b60648111156114f45760405162461bcd60e51b815260206004820152600f60248201526e08ccaca40d2e640e8dede40d0d2ced608b1b60448201526064015b60405180910390fd5b60005b8251811015611556578160b1600085848151811061151757611517614846565b60200260200101516001600160a01b03166001600160a01b0316815260200190815260200160002081905550808061154e9061485c565b9150506114f7565b505050565b611563612e77565b4260ad5560ac805462ff0000191662010000179055565b60b25460405163bc4c4b3760e01b8152336004820152600060248201526001600160a01b039091169063bc4c4b37906044016020604051808303816000875af11580156115cb573d6000803e3d6000fd5b505050506040513d601f19601f820116820180604052508101906115ef9190614829565b50565b6115fa612e77565b60a8805460ff1916911515919091179055565b611615612e77565b60b9805460ff191682151590811790915560405160ff909116151581527fe81be35e61864c26afd7a4655e99f321378d0aaae1e5af8ee67b658a7460f3cf906020016111ff565b60b254604080516304ddf6ef60e11b815290516000926001600160a01b0316916309bbedde9160048083019260209291908290030181865afa15801561130d573d6000803e3d6000fd5b6116ae612e77565b60a8546040516001600160a01b036101009092048216918316907f8fc842bbd331dfa973645f4ed48b11683d501ebf1352708d77a5da2ab49a576e90600090a38060a860016101000a8154816001600160a01b0302191690836001600160a01b03160217905550600060a860019054906101000a90046001600160a01b03166001600160a01b031663c45a01556040518163ffffffff1660e01b8152600401602060405180830381865afa15801561176a573d6000803e3d6000fd5b505050506040513d601f19601f8201168201806040525081019061178e9190614875565b6001600160a01b031663c9c653963060a860019054906101000a90046001600160a01b03166001600160a01b031663ad5c46486040518163ffffffff1660e01b8152600401602060405180830381865afa1580156117f0573d6000803e3d6000fd5b505050506040513d601f19601f820116820180604052508101906118149190614875565b6040516001600160e01b031960e085901b1681526001600160a01b039283166004820152911660248201526044016020604051808303816000875af1158015611861573d6000803e3d6000fd5b505050506040513d601f19601f820116820180604052508101906118859190614875565b60a980546001600160a01b0319166001600160a01b03929092169190911790555050565b60b2546040516370a0823160e01b81526001600160a01b03838116600483015260009216906370a08231906024015b602060405180830381865afa1580156118f5573d6000803e3d6000fd5b505050506040513d601f19601f8201168201806040525081019061110891906147fd565b60b2546040516001624d3b8760e01b0319815260048101839052600091829182916001600160a01b03169063ffb2c479906024016060604051808303816000875af115801561196c573d6000803e3d6000fd5b505050506040513d601f19601f820116820180604052508101906119909190614892565b604080518481526020810184905290810182905260608101889052929550909350915032906000907fc864333d6121033635ab41b29ae52f10a22cf4438c3e4f1c4c68518feb2f8a989060800160405180910390a350505050565b6119f3612e77565b6119fd6000613a45565b565b600054610100900460ff1615808015611a1f5750600054600160ff909116105b80611a395750303b158015611a39575060005460ff166001145b611a9c5760405162461bcd60e51b815260206004820152602e60248201527f496e697469616c697a61626c653a20636f6e747261637420697320616c72656160448201526d191e481a5b9a5d1a585b1a5e995960921b60648201526084016114eb565b6000805460ff191660011790558015611abf576000805461ff0019166101001790555b611ac7613a97565b611b116040518060400160405280600a815260200169436f6f6b696553616c6560b01b81525060405180604001604052806006815260200165434f4f4b494560d01b815250613ac6565b60b6805460ff19908116600190811790925560b980548216831790556003609781905560985560026099819055609a819055609b819055609c55609d829055609e829055609f82905560a0829055600960a181905560a25560a8805482168317905560ac805482168317905560ae8054909116909117905560aa80546001600160a01b031990811661dead1790915560a380548216733ab481bd7b55394ea86ad28793248e47a8c272ec17905560a48054821673076727113dd9e271856d70279628eaba4807c29817905560a58054821673ba5eab68a7203c9ff72e07b708991f07f55ef40e17905560b3805490911673bb4cdb9cbd36b01bd1cbaebf2de08d9173bc095c179055611c42730c935e43adc96c9a9b7b814d9a070164e1150a726a52b7d2dcc80cd2e4000000613af7565b611388611c4e60355490565b611c5891906148c0565b60ab5560c8611c6660355490565b611c7091906148c0565b60ba5560c8611c7e60355490565b611c8891906148c0565b60bb556103e8611c9760355490565b611ca290600b6147e6565b611cac91906148c0565b60b78190555060007310ed43c718714eb63d5aa57b78b54704e256024e90506000816001600160a01b031663c45a01556040518163ffffffff1660e01b8152600401602060405180830381865afa158015611d0b573d6000803e3d6000fd5b505050506040513d601f19601f82011682018060405250810190611d2f9190614875565b6001600160a01b031663c9c6539630846001600160a01b031663ad5c46486040518163ffffffff1660e01b8152600401602060405180830381865afa158015611d7c573d6000803e3d6000fd5b505050506040513d601f19601f82011682018060405250810190611da09190614875565b6040516001600160e01b031960e085901b1681526001600160a01b039283166004820152911660248201526044016020604051808303816000875af1158015611ded573d6000803e3d6000fd5b505050506040513d601f19601f82011682018060405250810190611e119190614875565b60a88054610100600160a81b0319166101006001600160a01b038681168202929092179283905560a980546001600160a01b031916858416179055929350611e5f9230920416600019612d53565b611e6a816001613bb8565b600160b86000611e826065546001600160a01b031690565b6001600160a01b03908116825260208083019390935260409182016000908120805495151560ff1996871617905560b89093527f5b6159cd199de16dab6bc1f9cf2699a959e881afa5a1b72f252de1690c2f070e805485166001908117909155308452828420805486168217905560aa5490911683529082208054909316811790925560b590611f1a6065546001600160a01b031690565b6001600160a01b03908116825260208083019390935260409182016000908120805495151560ff1996871617905560b59093527f2f55bc6e62ee99c7c60d946484e668adbae50632b5b53c97ceae65a4fd756740805485166001908117909155308452828420805486168217905560aa5490911683529082208054909316811790925560af90611fb26065546001600160a01b031690565b6001600160a01b03908116825260208083019390935260409182016000908120805495151560ff1996871617905560aa54909116815260af909252808220805484166001908117909155308352912080549092161790555050671bc16d674ec8000060a65580156115ef576000805461ff0019169055604051600181527f7f26b83ff96e1f2b6a682f133852f6798a09c465da95921460cefb3847402498906020016111ff565b612061612e77565b60b45460405182907f40d7e40e79af4e8e5a9b3c57030d8ea93f13d669c06d448c4d631d4ae7d23db790600090a360b455565b61209c612e77565b6000819050306001600160a01b0316816001600160a01b0316638da5cb5b6040518163ffffffff1660e01b8152600401602060405180830381865afa1580156120e9573d6000803e3d6000fd5b505050506040513d601f19601f8201168201806040525081019061210d9190614875565b6001600160a01b0316146121895760405162461bcd60e51b815260206004820152603c60248201527f546865206e6577206469766964656e6420747261636b6572206d75737420626560448201527f206f776e65642062792074686520746f6b656e20636f6e74726163740000000060648201526084016114eb565b60405163031e79db60e41b81526001600160a01b03821660048201819052906331e79db090602401600060405180830381600087803b1580156121cb57600080fd5b505af11580156121df573d6000803e3d6000fd5b505060405163031e79db60e41b81523060048201526001600160a01b03841692506331e79db09150602401600060405180830381600087803b15801561222457600080fd5b505af1158015612238573d6000803e3d6000fd5b505060aa5460405163031e79db60e41b81526001600160a01b03918216600482015290841692506331e79db09150602401600060405180830381600087803b15801561228357600080fd5b505af1158015612297573d6000803e3d6000fd5b505060a85460405163031e79db60e41b81526101009091046001600160a01b039081166004830152841692506331e79db09150602401600060405180830381600087803b1580156122e757600080fd5b505af11580156122fb573d6000803e3d6000fd5b505060a95460405163031e79db60e41b81526001600160a01b03918216600482015290841692506331e79db09150602401600060405180830381600087803b15801561234657600080fd5b505af115801561235a573d6000803e3d6000fd5b505060b2546040516001600160a01b03918216935090851691507f90c7d74461c613da5efa97d90740869367d74ab3aa5837aa4ae9a975f954b7a890600090a360b280546001600160a01b0319166001600160a01b039290921691909117905550565b6123c5612e77565b60ac805462ff0000191662010000179055565b6123e0612e77565b6001600160a01b038216600081815260b56020908152604091829020805460ff191685151590811790915591519182527f1d9a11e204b58ad56c619c61600e42167624659d218f0143f1f64956b0daae6c910161116a565b606060378054611071906146a3565b61244f612e77565b60ac80549115156101000261ff0019909216919091179055565b612471612e77565b60a480546001600160a01b0319166001600160a01b0383169081179091556040519081527f2e184dc34ab031d763441c588bd08760997797e8550c76fd439a20571233cc20906020016111ff565b60b25460408051631bc9e27b60e21b815290516000926001600160a01b031691636f2789ec9160048083019260209291908290030181865afa15801561130d573d6000803e3d6000fd5b60003381612517828661281b565b9050838110156125775760405162461bcd60e51b815260206004820152602560248201527f45524332303a2064656372656173656420616c6c6f77616e63652062656c6f77604482015264207a65726f60d81b60648201526084016114eb565b6111a58286868403612d53565b60b2546040516302a2e74960e61b81526001600160a01b038381166004830152600092169063a8b9d240906024016118d8565b600033611102818585612f45565b60b25460405163fbcbc0f160e01b81526001600160a01b038381166004830152600092839283928392839283928392839291169063fbcbc0f1906024015b61010060405180830381865afa158015612621573d6000803e3d6000fd5b505050506040513d601f19601f8201168201806040525081019061264591906148e2565b97509750975097509750975097509750919395975091939597565b612668612e77565b60a655565b612675612e77565b60ab55565b612682612e77565b61268e6012600a6147d7565b61269890836147e6565b60ba556126a76012600a6147d7565b6126b190826147e6565b60bb81905560ba546040517f8c8cbc911b80df94332ececb8eb0945274d76fa965600a0f01f42af3f8afb131926126ef928252602082015260400190565b60405180910390a15050565b612703612e77565b6001600160a01b03811661276d5760405162461bcd60e51b815260206004820152602b60248201527f4d61726b6574696e672077616c6c65742063616e6e6f7420626520746865207a60448201526a65726f206164647265737360a81b60648201526084016114eb565b60a380546001600160a01b0319166001600160a01b0383169081179091556040519081527fa964ba5c52d7e7bfcae4fb1ae4db9f211756d0e618e85fac5283b882a39e7a0b906020016111ff565b6127c3612e77565b6001600160a01b038216600081815260af6020908152604091829020805460ff191685151590811790915591519182527f9d8f7706ea1113d1a167b526eca956215946dd36cc7df39eb16180222d8b5df7910161116a565b6001600160a01b03918216600090815260346020908152604080832093909416825291909152205490565b61284e612e77565b60ac805460ff1916911515919091179055565b60b2546040516327ce014760e01b81526001600160a01b03838116600483015260009216906327ce0147906024016118d8565b60b2546040805163039e107b60e61b815290516000926001600160a01b03169163e7841ec09160048083019260209291908290030181865afa15801561130d573d6000803e3d6000fd5b6128e6612e77565b60b25460405163e98030c760e01b8152600481018390526001600160a01b039091169063e98030c79060240161123f565b61291f612e77565b601981838561292e888a614816565b6129389190614816565b6129429190614816565b61294c9190614816565b111561299a5760405162461bcd60e51b815260206004820152601a60248201527f46656573206d757374206265206c657373207468616e2032352500000000000060448201526064016114eb565b60978590556099849055609b839055609d829055609f8190558082846129c08789614816565b6129ca9190614816565b6129d49190614816565b6129de9190614816565b60a155604080518681526020810186905290810184905260608101839052608081018290527f36f734ef6334bb46ffb96a53ac28a5f80f907b4e1edb3c8af6dd32ba6e57f8589060a0015b60405180910390a15050505050565b60b254604051635183d6fd60e01b81526004810183905260009182918291829182918291829182916001600160a01b0390911690635183d6fd90602401612603565b612a82612e77565b60ae805460ff1916911515919091179055565b612a9d612e77565b6001600160a01b038116612b025760405162461bcd60e51b815260206004820152602660248201527f4f776e61626c653a206e6577206f776e657220697320746865207a65726f206160448201526564647265737360d01b60648201526084016114eb565b6115ef81613a45565b612b13612e77565b6001600160a01b038116612b565760405133904780156108fc02916000818181858888f19350505050158015612b4d573d6000803e3d6000fd5b50600060a75550565b6040516370a0823160e01b815230600482015281906000906001600160a01b038316906370a0823190602401602060405180830381865afa158015612b9f573d6000803e3d6000fd5b505050506040513d601f19601f82011682018060405250810190612bc391906147fd565b60405163a9059cbb60e01b8152336004820152602481018290529091506001600160a01b0383169063a9059cbb906044016020604051808303816000875af1158015612c13573d6000803e3d6000fd5b505050506040513d601f19601f82011682018060405250810190612c379190614829565b50505050565b612c45612e77565b6019818385612c54888a614816565b612c5e9190614816565b612c689190614816565b612c729190614816565b1115612cc05760405162461bcd60e51b815260206004820152601a60248201527f46656573206d757374206265206c657373207468616e2032352500000000000060448201526064016114eb565b6098859055609a849055609c839055609e82905560a0819055808284612ce68789614816565b612cf09190614816565b612cfa9190614816565b612d049190614816565b60a255604080518681526020810186905290810184905260608101839052608081018290527fa047973ee053932e622d31fe5ab89f310d1c9c947ac06a81f382d0d3df2b11029060a001612a29565b6001600160a01b038316612db55760405162461bcd60e51b8152602060048201526024808201527f45524332303a20617070726f76652066726f6d20746865207a65726f206164646044820152637265737360e01b60648201526084016114eb565b6001600160a01b038216612e165760405162461bcd60e51b815260206004820152602260248201527f45524332303a20617070726f766520746f20746865207a65726f206164647265604482015261737360f01b60648201526084016114eb565b6001600160a01b0383811660008181526034602090815260408083209487168084529482529182902085905590518481527f8c5be1e5ebec7d5bd14f71427d1e84f3dd0314c0f7b2291e5b200ac8c7c3b925910160405180910390a3505050565b6065546001600160a01b031633146119fd5760405162461bcd60e51b815260206004820181905260248201527f4f776e61626c653a2063616c6c6572206973206e6f7420746865206f776e657260448201526064016114eb565b6000612edd848461281b565b90506000198114612c375781811015612f385760405162461bcd60e51b815260206004820152601d60248201527f45524332303a20696e73756666696369656e7420616c6c6f77616e636500000060448201526064016114eb565b612c378484848403612d53565b6001600160a01b038316612f6b5760405162461bcd60e51b81526004016114eb9061494c565b6001600160a01b038216612f915760405162461bcd60e51b81526004016114eb90614991565b60ac5462010000900460ff1680612fc057506001600160a01b038316600090815260af602052604090205460ff165b80612fe357506001600160a01b038216600090815260af602052604090205460ff165b61302f5760405162461bcd60e51b815260206004820152601a60248201527f54726164696e67206973206e6f7420656e61626c65642079657400000000000060448201526064016114eb565b806000036130435761155683836000613c0c565b60b95460ff16156131255760a9546001600160a01b0384811691161480613077575060a9546001600160a01b038381169116145b801561309c57506001600160a01b038316600090815260b8602052604090205460ff16155b80156130c157506001600160a01b038216600090815260b8602052604090205460ff16155b156131255760a9546001600160a01b03908116908416036131035760ba548111156130fe5760405162461bcd60e51b81526004016114eb906149d4565b613125565b60bb548111156131255760405162461bcd60e51b81526004016114eb906149d4565b3060009081526033602052604090205460ab5460ac54908210159060ff16801561314c5750805b8015613162575060aa54600160a01b900460ff16155b801561318657506001600160a01b038416600090815260b0602052604090205460ff165b156135915760aa805460ff60a01b1916600160a01b17905560ac54610100900460ff16156131b45760ab5491505b600060a25460a1546131c69190614816565b905060006098546097546131da9190614816565b90506000609a546099546131ee9190614816565b90506000609c54609b546132029190614816565b90506000609e54609d546132169190614816565b9050600060a054609f5461322a9190614816565b905060008215613254578661323f848b6147e6565b61324991906148c0565b905061325481613d3d565b61325e818a614a31565b98506000828561326e888a614816565b6132789190614816565b6132829190614816565b905060008a1180156132945750600081115b1561357b576040805160028082526060820183524792600092919060208301908036833701905050905030816000815181106132d2576132d2614846565b60200260200101906001600160a01b031690816001600160a01b03168152505060a860019054906101000a90046001600160a01b03166001600160a01b031663ad5c46486040518163ffffffff1660e01b8152600401602060405180830381865afa158015613345573d6000803e3d6000fd5b505050506040513d601f19601f820116820180604052508101906133699190614875565b8160018151811061337c5761337c614846565b6001600160a01b03928316602091820292909201015260a85460405163791ac94760e01b81526101009091049091169063791ac947906133c9908f90600090869030904290600401614a88565b600060405180830381600087803b1580156133e357600080fd5b505af11580156133f7573d6000803e3d6000fd5b50505050600082476134099190614a31565b905089156134765760008461341e8c846147e6565b61342891906148c0565b60a354909150613441906001600160a01b031682613fb2565b6040518181527fddce3d5e4f18a9c2902704a38b56baadd81a9af59b8ded8a3220b6a6c1696b6b9060200160405180910390a1505b88156134e1576000846134898b846147e6565b61349391906148c0565b60a4549091506134ac906001600160a01b031682613fb2565b6040518181527f59d84613f081326a5e426b911b5b8f5d47462357c27f406b97469e818ed8856e9060200160405180910390a1505b871561350b576000846134f48a846147e6565b6134fe91906148c0565b9050613509816140cb565b505b85156135775760008461351e88846147e6565b61352891906148c0565b90508060a7600082825461353c9190614816565b909155505060a65460a75411156135755760a75447106135665761356160a7546141b6565b61356f565b61356f476141b6565b600060a7555b505b5050505b505060aa805460ff60a01b191690555050505050505b6001600160a01b038516600090815260af602052604081205460ff16806135d057506001600160a01b038516600090815260af602052604090205460ff165b80613610575060a85460ff1680156135f6575060a9546001600160a01b03878116911614155b8015613610575060a9546001600160a01b03868116911614155b80613624575060aa54600160a01b900460ff165b15613631575060006136fc565b60ae5460ff16801561364f575060ad5461364c601242614a31565b11155b1561365c575060636136fc565b60a9546001600160a01b03908116908716036136b9576001600160a01b038516600090815260b16020526040902054156136ae576001600160a01b038516600090815260b160205260409020546136b2565b60a1545b90506136fc565b6001600160a01b038616600090815260b16020526040902054156136f5576001600160a01b038616600090815260b160205260409020546136f9565b60a2545b90505b801561374f576000606461371083876147e6565b61371a91906148c0565b90506137268186614a31565b945061374d878360631461373a5730613747565b60a3546001600160a01b03165b83613c0c565b505b60b65460ff161561384a576001600160a01b038616600090815260b5602052604090205460ff1615801561379c57506001600160a01b038516600090815260b5602052604090205460ff16155b80156137b6575060a9546001600160a01b03868116911614155b1561384a576001600160a01b03851660009081526033602052604090205460b7546137e18683614816565b11156138485760405162461bcd60e51b815260206004820152603060248201527f4d617857616c6c65743a20526563697069656e7420657863656564732074686560448201526f081b585e15d85b1b195d105b5bdd5b9d60821b60648201526084016114eb565b505b613855868686613c0c565b60b2546001600160a01b031663e30443bc87613886816001600160a01b031660009081526033602052604090205490565b6040516001600160e01b031960e085901b1681526001600160a01b0390921660048301526024820152604401600060405180830381600087803b1580156138cc57600080fd5b505af19250505080156138dd575060015b5060b2546001600160a01b031663e30443bc8661390f816001600160a01b031660009081526033602052604090205490565b6040516001600160e01b031960e085901b1681526001600160a01b0390921660048301526024820152604401600060405180830381600087803b15801561395557600080fd5b505af1925050508015613966575060015b5060aa54600160a01b900460ff16613a3d5760b45460b2546040516001624d3b8760e01b03198152600481018390526001600160a01b039091169063ffb2c479906024016060604051808303816000875af19250505080156139e5575060408051601f3d908101601f191682019092526139e291810190614892565b60015b15613a3b5760408051848152602081018490529081018290526060810185905232906001907fc864333d6121033635ab41b29ae52f10a22cf4438c3e4f1c4c68518feb2f8a989060800160405180910390a35050505b505b505050505050565b606580546001600160a01b038381166001600160a01b0319831681179093556040519116919082907f8be0079c531659141344cd1fd0a4f28419497f9722a3daafe3b4186f6b6457e090600090a35050565b600054610100900460ff16613abe5760405162461bcd60e51b81526004016114eb90614ac4565b6119fd614346565b600054610100900460ff16613aed5760405162461bcd60e51b81526004016114eb90614ac4565b6114a08282614376565b6001600160a01b038216613b4d5760405162461bcd60e51b815260206004820152601f60248201527f45524332303a206d696e7420746f20746865207a65726f20616464726573730060448201526064016114eb565b8060356000828254613b5f9190614816565b90915550506001600160a01b0382166000818152603360209081526040808320805486019055518481527fddf252ad1be2c89b69c2b068fc378daa952ba7f163c4a11628f55a4df523b3ef910160405180910390a35050565b6001600160a01b038216600081815260b06020526040808220805460ff191685151590811790915590519092917fffa9187bf1f18bf477bd0ea1bcbb64e93b6a98132473929edfce215cd9b16fab91a35050565b6001600160a01b038316613c325760405162461bcd60e51b81526004016114eb9061494c565b6001600160a01b038216613c585760405162461bcd60e51b81526004016114eb90614991565b6001600160a01b03831660009081526033602052604090205481811015613cd05760405162461bcd60e51b815260206004820152602660248201527f45524332303a207472616e7366657220616d6f756e7420657863656564732062604482015265616c616e636560d01b60648201526084016114eb565b6001600160a01b0380851660008181526033602052604080822086860390559286168082529083902080548601905591517fddf252ad1be2c89b69c2b068fc378daa952ba7f163c4a11628f55a4df523b3ef90613d309086815260200190565b60405180910390a3612c37565b6000613d4a6002836148c0565b90506000613d588284614a31565b60408051600280825260608201835292935047926000926020830190803683370190505090503081600081518110613d9257613d92614846565b60200260200101906001600160a01b031690816001600160a01b03168152505060a860019054906101000a90046001600160a01b03166001600160a01b031663ad5c46486040518163ffffffff1660e01b8152600401602060405180830381865afa158015613e05573d6000803e3d6000fd5b505050506040513d601f19601f82011682018060405250810190613e299190614875565b81600181518110613e3c57613e3c614846565b6001600160a01b03928316602091820292909201015260a85460405163791ac94760e01b81526101009091049091169063791ac94790613e89908790600090869030904290600401614a88565b600060405180830381600087803b158015613ea357600080fd5b505af1158015613eb7573d6000803e3d6000fd5b5050505060008247613ec99190614a31565b60a85460aa5460405163f305d71960e01b81523060048201526024810188905260006044820181905260648201526001600160a01b0391821660848201524260a4820152929350610100909104169063f305d71990839060c40160606040518083038185885af1158015613f41573d6000803e3d6000fd5b50505050506040513d601f19601f82011682018060405250810190613f669190614892565b505060408051878152602081018490529081018690527f17bbfb9a6069321b6ded73bd96327c9e6b7212a5cd51ff219cd61370acafb561915060600160405180910390a1505050505050565b804710156140025760405162461bcd60e51b815260206004820152601d60248201527f416464726573733a20696e73756666696369656e742062616c616e636500000060448201526064016114eb565b6000826001600160a01b03168260405160006040518083038185875af1925050503d806000811461404f576040519150601f19603f3d011682016040523d82523d6000602084013e614054565b606091505b50509050806115565760405162461bcd60e51b815260206004820152603a60248201527f416464726573733a20756e61626c6520746f2073656e642076616c75652c207260448201527f6563697069656e74206d6179206861766520726576657274656400000000000060648201526084016114eb565b60b2546040516000916001600160a01b03169083908381818185875af1925050503d8060008114614118576040519150601f19603f3d011682016040523d82523d6000602084013e61411d565b606091505b5050905080156114a05760b254604051633243c79160e01b8152600481018490526001600160a01b0390911690633243c79190602401600060405180830381600087803b15801561416d57600080fd5b505af1158015614181573d6000803e3d6000fd5b505050507fb0cc2628d6d644cf6be9d8110e142297ac910d6d8026d795a99f272fd9ad60b1826040516126ef91815260200190565b60408051600280825260608201835260009260208301908036833701905050905060a860019054906101000a90046001600160a01b03166001600160a01b031663ad5c46486040518163ffffffff1660e01b8152600401602060405180830381865afa15801561422a573d6000803e3d6000fd5b505050506040513d601f19601f8201168201806040525081019061424e9190614875565b8160008151811061426157614261614846565b6001600160a01b03928316602091820292909201015260a55482519116908290600190811061429257614292614846565b6001600160a01b03928316602091820292909201015260a85460aa5460405163b6f9de9560e01b815261010090920483169263b6f9de959286926142e3926000928892909116904290600401614b0f565b6000604051808303818588803b1580156142fc57600080fd5b505af1158015614310573d6000803e3d6000fd5b50505050507ffcfa54313b92fceed71362d6bfec038726e592d2fa73d69c461986eeedf74400826040516126ef91815260200190565b600054610100900460ff1661436d5760405162461bcd60e51b81526004016114eb90614ac4565b6119fd33613a45565b600054610100900460ff1661439d5760405162461bcd60e51b81526004016114eb90614ac4565b60366143a98382614b8a565b5060376115568282614b8a565b600060208083528351808285015260005b818110156143e3578581018301518582016040015282016143c7565b506000604082860101526040601f19601f8301168501019250505092915050565b6001600160a01b03811681146115ef57600080fd5b803561442481614404565b919050565b6000806040838503121561443c57600080fd5b823561444781614404565b946020939093013593505050565b80151581146115ef57600080fd5b6000806040838503121561447657600080fd5b823561448181614404565b9150602083013561449181614455565b809150509250929050565b6000602082840312156144ae57600080fd5b81356144b981614404565b9392505050565b6000806000606084860312156144d557600080fd5b83356144e081614404565b925060208401356144f081614404565b929592945050506040919091013590565b60006020828403121561451357600080fd5b5035919050565b60006020828403121561452c57600080fd5b81356144b981614455565b634e487b7160e01b600052604160045260246000fd5b6000806040838503121561456057600080fd5b823567ffffffffffffffff8082111561457857600080fd5b818501915085601f83011261458c57600080fd5b81356020828211156145a0576145a0614537565b8160051b604051601f19603f830116810181811086821117156145c5576145c5614537565b6040529283528183019350848101820192898411156145e357600080fd5b948201945b83861015614608576145f986614419565b855294820194938201936145e8565b9997909101359750505050505050565b6000806040838503121561462b57600080fd5b50508035926020909101359150565b6000806040838503121561464d57600080fd5b823561465881614404565b9150602083013561449181614404565b600080600080600060a0868803121561468057600080fd5b505083359560208501359550604085013594606081013594506080013592509050565b600181811c908216806146b757607f821691505b6020821081036146d757634e487b7160e01b600052602260045260246000fd5b50919050565b634e487b7160e01b600052601160045260246000fd5b600181815b8085111561472e578160001904821115614714576147146146dd565b8085161561472157918102915b93841c93908002906146f8565b509250929050565b60008261474557506001611108565b8161475257506000611108565b816001811461476857600281146147725761478e565b6001915050611108565b60ff841115614783576147836146dd565b50506001821b611108565b5060208310610133831016604e8410600b84101617156147b1575081810a611108565b6147bb83836146f3565b80600019048211156147cf576147cf6146dd565b029392505050565b60006144b960ff841683614736565b8082028115828204841417611108576111086146dd565b60006020828403121561480f57600080fd5b5051919050565b80820180821115611108576111086146dd565b60006020828403121561483b57600080fd5b81516144b981614455565b634e487b7160e01b600052603260045260246000fd5b60006001820161486e5761486e6146dd565b5060010190565b60006020828403121561488757600080fd5b81516144b981614404565b6000806000606084860312156148a757600080fd5b8351925060208401519150604084015190509250925092565b6000826148dd57634e487b7160e01b600052601260045260246000fd5b500490565b600080600080600080600080610100898b0312156148ff57600080fd5b885161490a81614404565b809850506020890151965060408901519550606089015194506080890151935060a0890151925060c0890151915060e089015190509295985092959890939650565b60208082526025908201527f45524332303a207472616e736665722066726f6d20746865207a65726f206164604082015264647265737360d81b606082015260800190565b60208082526023908201527f45524332303a207472616e7366657220746f20746865207a65726f206164647260408201526265737360e81b606082015260800190565b6020808252603b908201527f416e74695768616c653a205472616e7366657220616d6f756e7420657863656560408201527f647320746865206d61785472616e73616374696f6e416d6f756e740000000000606082015260800190565b81810381811115611108576111086146dd565b600081518084526020808501945080840160005b83811015614a7d5781516001600160a01b031687529582019590820190600101614a58565b509495945050505050565b85815284602082015260a060408201526000614aa760a0830186614a44565b6001600160a01b0394909416606083015250608001529392505050565b6020808252602b908201527f496e697469616c697a61626c653a20636f6e7472616374206973206e6f74206960408201526a6e697469616c697a696e6760a81b606082015260800190565b848152608060208201526000614b286080830186614a44565b6001600160a01b03949094166040830152506060015292915050565b601f82111561155657600081815260208120601f850160051c81016020861015614b6b5750805b601f850160051c820191505b81811015613a3d57828155600101614b77565b815167ffffffffffffffff811115614ba457614ba4614537565b614bb881614bb284546146a3565b84614b44565b602080601f831160018114614bed5760008415614bd55750858301515b600019600386901b1c1916600185901b178555613a3d565b600085815260208120601f198616915b82811015614c1c57888601518255948401946001909101908401614bfd565b5085821015614c3a5787850151600019600388901b60f8161c191681555b5050505050600190811b0190555056fea26469706673582212205103e3500d34559c601492ac5cd4db268f74d7a0107aa254b1613b5310c188c064736f6c63430008110033",
  "linkReferences": {},
  "deployedLinkReferences": {}
}