{"contracts/CookieSaleTokenProxy.sol":{"COOKIE":{"abi":[{"anonymous":false,"inputs":[{"indexed":true,"internalType":"address","name":"owner","type":"address"},{"indexed":true,"internalType":"address","name":"spender","type":"address"},{"indexed":false,"internalType":"uint256","name":"value","type":"uint256"}],"name":"Approval","type":"event"},{"anonymous":false,"inputs":[{"indexed":false,"internalType":"uint256","name":"amount","type":"uint256"}],"name":"BuybackAndBurn","type":"event"},{"anonymous":false,"inputs":[{"indexed":false,"internalType":"address","name":"buybackToken","type":"address"}],"name":"BuybackTokenChanged","type":"event"},{"anonymous":false,"inputs":[{"indexed":false,"internalType":"address","name":"developmentWallet","type":"address"}],"name":"DevelopmentWalletChanged","type":"event"},{"anonymous":false,"inputs":[{"indexed":true,"internalType":"address","name":"account","type":"address"},{"indexed":false,"internalType":"bool","name":"isExcluded","type":"bool"}],"name":"ExcludeFromFees","type":"event"},{"anonymous":false,"inputs":[{"indexed":true,"internalType":"address","name":"account","type":"address"},{"indexed":false,"internalType":"bool","name":"isExcluded","type":"bool"}],"name":"ExcludedFromMaxTransactionLimit","type":"event"},{"anonymous":false,"inputs":[{"indexed":true,"internalType":"address","name":"account","type":"address"},{"indexed":false,"internalType":"bool","name":"isExcluded","type":"bool"}],"name":"ExcludedFromMaxWalletLimit","type":"event"},{"anonymous":false,"inputs":[{"indexed":true,"internalType":"uint256","name":"newValue","type":"uint256"},{"indexed":true,"internalType":"uint256","name":"oldValue","type":"uint256"}],"name":"GasForProcessingUpdated","type":"event"},{"anonymous":false,"inputs":[{"indexed":false,"internalType":"uint8","name":"version","type":"uint8"}],"name":"Initialized","type":"event"},{"anonymous":false,"inputs":[{"indexed":false,"internalType":"address","name":"marketingWallet","type":"address"}],"name":"MarketingWalletChanged","type":"event"},{"anonymous":false,"inputs":[{"indexed":false,"internalType":"uint256","name":"maxTransferRateBuy","type":"uint256"},{"indexed":false,"internalType":"uint256","name":"maxTransferRateSell","type":"uint256"}],"name":"MaxTransactionLimitAmountChanged","type":"event"},{"anonymous":false,"inputs":[{"indexed":false,"internalType":"bool","name":"maxTransactionLimit","type":"bool"}],"name":"MaxTransactionLimitStateChanged","type":"event"},{"anonymous":false,"inputs":[{"indexed":false,"internalType":"uint256","name":"maxWalletLimitRate","type":"uint256"}],"name":"MaxWalletLimitAmountChanged","type":"event"},{"anonymous":false,"inputs":[{"indexed":false,"internalType":"bool","name":"maxWalletLimit","type":"bool"}],"name":"MaxWalletLimitStateChanged","type":"event"},{"anonymous":false,"inputs":[{"indexed":true,"internalType":"address","name":"previousOwner","type":"address"},{"indexed":true,"internalType":"address","name":"newOwner","type":"address"}],"name":"OwnershipTransferred","type":"event"},{"anonymous":false,"inputs":[{"indexed":false,"internalType":"uint256","name":"iterations","type":"uint256"},{"indexed":false,"internalType":"uint256","name":"claims","type":"uint256"},{"indexed":false,"internalType":"uint256","name":"lastProcessedIndex","type":"uint256"},{"indexed":true,"internalType":"bool","name":"automatic","type":"bool"},{"indexed":false,"internalType":"uint256","name":"gas","type":"uint256"},{"indexed":true,"internalType":"address","name":"processor","type":"address"}],"name":"ProcessedDividendTracker","type":"event"},{"anonymous":false,"inputs":[{"indexed":false,"internalType":"uint256","name":"amount","type":"uint256"}],"name":"SendDevelopment","type":"event"},{"anonymous":false,"inputs":[{"indexed":false,"internalType":"uint256","name":"amount","type":"uint256"}],"name":"SendDividends","type":"event"},{"anonymous":false,"inputs":[{"indexed":false,"internalType":"uint256","name":"bnbSend","type":"uint256"}],"name":"SendMarketing","type":"event"},{"anonymous":false,"inputs":[{"indexed":true,"internalType":"address","name":"pair","type":"address"},{"indexed":true,"internalType":"bool","name":"value","type":"bool"}],"name":"SetAutomatedMarketMakerPair","type":"event"},{"anonymous":false,"inputs":[{"indexed":false,"internalType":"uint256","name":"tokensSwapped","type":"uint256"},{"indexed":false,"internalType":"uint256","name":"bnbReceived","type":"uint256"},{"indexed":false,"internalType":"uint256","name":"tokensIntoLiqudity","type":"uint256"}],"name":"SwapAndLiquify","type":"event"},{"anonymous":false,"inputs":[{"indexed":true,"internalType":"address","name":"from","type":"address"},{"indexed":true,"internalType":"address","name":"to","type":"address"},{"indexed":false,"internalType":"uint256","name":"value","type":"uint256"}],"name":"Transfer","type":"event"},{"anonymous":false,"inputs":[{"indexed":false,"internalType":"uint256","name":"marketingFeeOnBuy","type":"uint256"},{"indexed":false,"internalType":"uint256","name":"developmentFeeOnBuy","type":"uint256"},{"indexed":false,"internalType":"uint256","name":"rewardFeeOnBuy","type":"uint256"},{"indexed":false,"internalType":"uint256","name":"liquidityFeeOnBuy","type":"uint256"},{"indexed":false,"internalType":"uint256","name":"buyBackOnBuy","type":"uint256"}],"name":"UpdateBuyFees","type":"event"},{"anonymous":false,"inputs":[{"indexed":true,"internalType":"address","name":"newAddress","type":"address"},{"indexed":true,"internalType":"address","name":"oldAddress","type":"address"}],"name":"UpdateDividendTracker","type":"event"},{"anonymous":false,"inputs":[{"indexed":false,"internalType":"uint256","name":"marketingFeeOnSell","type":"uint256"},{"indexed":false,"internalType":"uint256","name":"developmentFeeOnSell","type":"uint256"},{"indexed":false,"internalType":"uint256","name":"rewardFeeOnSell","type":"uint256"},{"indexed":false,"internalType":"uint256","name":"liquidityFeeOnSell","type":"uint256"},{"indexed":false,"internalType":"uint256","name":"buyBackOnSell","type":"uint256"}],"name":"UpdateSellFees","type":"event"},{"anonymous":false,"inputs":[{"indexed":true,"internalType":"address","name":"newAddress","type":"address"},{"indexed":true,"internalType":"address","name":"oldAddress","type":"address"}],"name":"UpdateUniswapV2Router","type":"event"},{"inputs":[],"name":"accumulatedBuybackBNB","outputs":[{"internalType":"uint256","name":"","type":"uint256"}],"stateMutability":"view","type":"function"},{"inputs":[{"internalType":"address","name":"owner","type":"address"},{"internalType":"address","name":"spender","type":"address"}],"name":"allowance","outputs":[{"internalType":"uint256","name":"","type":"uint256"}],"stateMutability":"view","type":"function"},{"inputs":[{"internalType":"address","name":"spender","type":"address"},{"internalType":"uint256","name":"amount","type":"uint256"}],"name":"approve","outputs":[{"internalType":"bool","name":"","type":"bool"}],"stateMutability":"nonpayable","type":"function"},{"inputs":[{"internalType":"address","name":"","type":"address"}],"name":"automatedMarketMakerPairs","outputs":[{"internalType":"bool","name":"","type":"bool"}],"stateMutability":"view","type":"function"},{"inputs":[{"internalType":"address","name":"account","type":"address"}],"name":"balanceOf","outputs":[{"internalType":"uint256","name":"","type":"uint256"}],"stateMutability":"view","type":"function"},{"inputs":[],"name":"bnbValueForBuyBurn","outputs":[{"internalType":"uint256","name":"","type":"uint256"}],"stateMutability":"view","type":"function"},{"inputs":[],"name":"buyBackFeeOnBuy","outputs":[{"internalType":"uint256","name":"","type":"uint256"}],"stateMutability":"view","type":"function"},{"inputs":[],"name":"buyBackFeeOnSell","outputs":[{"internalType":"uint256","name":"","type":"uint256"}],"stateMutability":"view","type":"function"},{"inputs":[],"name":"buybackToken","outputs":[{"internalType":"address","name":"","type":"address"}],"stateMutability":"view","type":"function"},{"inputs":[{"internalType":"address","name":"_buybackToken","type":"address"}],"name":"changeBuybackToken","outputs":[],"stateMutability":"nonpayable","type":"function"},{"inputs":[{"internalType":"address","name":"_developmentWallet","type":"address"}],"name":"changeDevelopmentWallet","outputs":[],"stateMutability":"nonpayable","type":"function"},{"inputs":[{"internalType":"address","name":"_marketingWallet","type":"address"}],"name":"changeMarketingWallet","outputs":[],"stateMutability":"nonpayable","type":"function"},{"inputs":[],"name":"claim","outputs":[],"stateMutability":"nonpayable","type":"function"},{"inputs":[{"internalType":"address","name":"claimee","type":"address"}],"name":"claimAddress","outputs":[],"stateMutability":"nonpayable","type":"function"},{"inputs":[{"internalType":"address","name":"token","type":"address"}],"name":"claimStuckTokens","outputs":[],"stateMutability":"nonpayable","type":"function"},{"inputs":[],"name":"decimals","outputs":[{"internalType":"uint8","name":"","type":"uint8"}],"stateMutability":"view","type":"function"},{"inputs":[{"internalType":"address","name":"spender","type":"address"},{"internalType":"uint256","name":"subtractedValue","type":"uint256"}],"name":"decreaseAllowance","outputs":[{"internalType":"bool","name":"","type":"bool"}],"stateMutability":"nonpayable","type":"function"},{"inputs":[],"name":"developmentFeeOnBuy","outputs":[{"internalType":"uint256","name":"","type":"uint256"}],"stateMutability":"view","type":"function"},{"inputs":[],"name":"developmentFeeOnSell","outputs":[{"internalType":"uint256","name":"","type":"uint256"}],"stateMutability":"view","type":"function"},{"inputs":[],"name":"developmentWallet","outputs":[{"internalType":"address","name":"","type":"address"}],"stateMutability":"view","type":"function"},{"inputs":[],"name":"disableTrading","outputs":[],"stateMutability":"nonpayable","type":"function"},{"inputs":[{"internalType":"address","name":"account","type":"address"}],"name":"dividendTokenBalanceOf","outputs":[{"internalType":"uint256","name":"","type":"uint256"}],"stateMutability":"view","type":"function"},{"inputs":[],"name":"dividendTracker","outputs":[{"internalType":"contract DividendTracker","name":"","type":"address"}],"stateMutability":"view","type":"function"},{"inputs":[],"name":"enableTrading","outputs":[],"stateMutability":"nonpayable","type":"function"},{"inputs":[],"name":"enableTradingWithAntiBot","outputs":[],"stateMutability":"nonpayable","type":"function"},{"inputs":[{"internalType":"bool","name":"enable","type":"bool"}],"name":"enableWalletToWalletTransferWithoutFee","outputs":[],"stateMutability":"nonpayable","type":"function"},{"inputs":[{"internalType":"address","name":"account","type":"address"}],"name":"excludeFromDividends","outputs":[],"stateMutability":"nonpayable","type":"function"},{"inputs":[{"internalType":"address","name":"account","type":"address"},{"internalType":"bool","name":"excluded","type":"bool"}],"name":"excludeFromFees","outputs":[],"stateMutability":"nonpayable","type":"function"},{"inputs":[],"name":"gasForProcessing","outputs":[{"internalType":"uint256","name":"","type":"uint256"}],"stateMutability":"view","type":"function"},{"inputs":[{"internalType":"address","name":"account","type":"address"}],"name":"getAccountDividendsInfo","outputs":[{"internalType":"address","name":"","type":"address"},{"internalType":"int256","name":"","type":"int256"},{"internalType":"int256","name":"","type":"int256"},{"internalType":"uint256","name":"","type":"uint256"},{"internalType":"uint256","name":"","type":"uint256"},{"internalType":"uint256","name":"","type":"uint256"},{"internalType":"uint256","name":"","type":"uint256"},{"internalType":"uint256","name":"","type":"uint256"}],"stateMutability":"view","type":"function"},{"inputs":[{"internalType":"uint256","name":"index","type":"uint256"}],"name":"getAccountDividendsInfoAtIndex","outputs":[{"internalType":"address","name":"","type":"address"},{"internalType":"int256","name":"","type":"int256"},{"internalType":"int256","name":"","type":"int256"},{"internalType":"uint256","name":"","type":"uint256"},{"internalType":"uint256","name":"","type":"uint256"},{"internalType":"uint256","name":"","type":"uint256"},{"internalType":"uint256","name":"","type":"uint256"},{"internalType":"uint256","name":"","type":"uint256"}],"stateMutability":"view","type":"function"},{"inputs":[],"name":"getClaimWait","outputs":[{"internalType":"uint256","name":"","type":"uint256"}],"stateMutability":"view","type":"function"},{"inputs":[],"name":"getLastProcessedIndex","outputs":[{"internalType":"uint256","name":"","type":"uint256"}],"stateMutability":"view","type":"function"},{"inputs":[],"name":"getNumberOfDividendTokenHolders","outputs":[{"internalType":"uint256","name":"","type":"uint256"}],"stateMutability":"view","type":"function"},{"inputs":[],"name":"getTotalDividendsDistributed","outputs":[{"internalType":"uint256","name":"","type":"uint256"}],"stateMutability":"view","type":"function"},{"inputs":[{"internalType":"address","name":"spender","type":"address"},{"internalType":"uint256","name":"addedValue","type":"uint256"}],"name":"increaseAllowance","outputs":[{"internalType":"bool","name":"","type":"bool"}],"stateMutability":"nonpayable","type":"function"},{"inputs":[],"name":"initialize","outputs":[],"stateMutability":"nonpayable","type":"function"},{"inputs":[{"internalType":"address","name":"account","type":"address"}],"name":"isExcludedFromFees","outputs":[{"internalType":"bool","name":"","type":"bool"}],"stateMutability":"view","type":"function"},{"inputs":[{"internalType":"address","name":"account","type":"address"}],"name":"isExcludedFromMaxTransaction","outputs":[{"internalType":"bool","name":"","type":"bool"}],"stateMutability":"view","type":"function"},{"inputs":[{"internalType":"address","name":"account","type":"address"}],"name":"isExcludedFromMaxWalletLimit","outputs":[{"internalType":"bool","name":"","type":"bool"}],"stateMutability":"view","type":"function"},{"inputs":[],"name":"launchTime","outputs":[{"internalType":"uint256","name":"","type":"uint256"}],"stateMutability":"view","type":"function"},{"inputs":[],"name":"liquidityFeeOnBuy","outputs":[{"internalType":"uint256","name":"","type":"uint256"}],"stateMutability":"view","type":"function"},{"inputs":[],"name":"liquidityFeeOnSell","outputs":[{"internalType":"uint256","name":"","type":"uint256"}],"stateMutability":"view","type":"function"},{"inputs":[],"name":"marketingFeeOnBuy","outputs":[{"internalType":"uint256","name":"","type":"uint256"}],"stateMutability":"view","type":"function"},{"inputs":[],"name":"marketingFeeOnSell","outputs":[{"internalType":"uint256","name":"","type":"uint256"}],"stateMutability":"view","type":"function"},{"inputs":[],"name":"marketingWallet","outputs":[{"internalType":"address","name":"","type":"address"}],"stateMutability":"view","type":"function"},{"inputs":[],"name":"maxTransactionAmountBuy","outputs":[{"internalType":"uint256","name":"","type":"uint256"}],"stateMutability":"view","type":"function"},{"inputs":[],"name":"maxTransactionAmountSell","outputs":[{"internalType":"uint256","name":"","type":"uint256"}],"stateMutability":"view","type":"function"},{"inputs":[],"name":"maxTransactionLimitEnabled","outputs":[{"internalType":"bool","name":"","type":"bool"}],"stateMutability":"view","type":"function"},{"inputs":[],"name":"maxWalletAmount","outputs":[{"internalType":"uint256","name":"","type":"uint256"}],"stateMutability":"view","type":"function"},{"inputs":[],"name":"maxWalletLimitEnabled","outputs":[{"internalType":"bool","name":"","type":"bool"}],"stateMutability":"view","type":"function"},{"inputs":[],"name":"name","outputs":[{"internalType":"string","name":"","type":"string"}],"stateMutability":"view","type":"function"},{"inputs":[],"name":"owner","outputs":[{"internalType":"address","name":"","type":"address"}],"stateMutability":"view","type":"function"},{"inputs":[{"internalType":"uint256","name":"gas","type":"uint256"}],"name":"processDividendTracker","outputs":[],"stateMutability":"nonpayable","type":"function"},{"inputs":[],"name":"renounceOwnership","outputs":[],"stateMutability":"nonpayable","type":"function"},{"inputs":[],"name":"rewardFeeOnBuy","outputs":[{"internalType":"uint256","name":"","type":"uint256"}],"stateMutability":"view","type":"function"},{"inputs":[],"name":"rewardFeeOnSell","outputs":[{"internalType":"uint256","name":"","type":"uint256"}],"stateMutability":"view","type":"function"},{"inputs":[],"name":"rewardToken","outputs":[{"internalType":"address","name":"","type":"address"}],"stateMutability":"view","type":"function"},{"inputs":[{"internalType":"bool","name":"_enabled","type":"bool"}],"name":"setAntibotEnabled","outputs":[],"stateMutability":"nonpayable","type":"function"},{"inputs":[{"internalType":"bool","name":"enable","type":"bool"}],"name":"setEnableMaxTransactionLimit","outputs":[],"stateMutability":"nonpayable","type":"function"},{"inputs":[{"internalType":"bool","name":"enable","type":"bool"}],"name":"setEnableMaxWalletLimit","outputs":[],"stateMutability":"nonpayable","type":"function"},{"inputs":[{"internalType":"address","name":"account","type":"address"},{"internalType":"bool","name":"exclude","type":"bool"}],"name":"setExcludeFromMaxTransactionLimit","outputs":[],"stateMutability":"nonpayable","type":"function"},{"inputs":[{"internalType":"address","name":"account","type":"address"},{"internalType":"bool","name":"exclude","type":"bool"}],"name":"setExcludeFromMaxWallet","outputs":[],"stateMutability":"nonpayable","type":"function"},{"inputs":[{"internalType":"uint256","name":"index","type":"uint256"}],"name":"setLastProcessedIndex","outputs":[],"stateMutability":"nonpayable","type":"function"},{"inputs":[{"internalType":"uint256","name":"_maxTransactionAmountBuy","type":"uint256"},{"internalType":"uint256","name":"_maxTransactionAmountSell","type":"uint256"}],"name":"setMaxTransactionAmounts","outputs":[],"stateMutability":"nonpayable","type":"function"},{"inputs":[{"internalType":"uint256","name":"_maxWalletAmount","type":"uint256"}],"name":"setMaxWalletAmount","outputs":[],"stateMutability":"nonpayable","type":"function"},{"inputs":[{"internalType":"address[]","name":"accounts","type":"address[]"},{"internalType":"uint256","name":"fee","type":"uint256"}],"name":"setSpecialFees","outputs":[],"stateMutability":"nonpayable","type":"function"},{"inputs":[{"internalType":"bool","name":"_swapEnabled","type":"bool"}],"name":"setSwapEnabled","outputs":[],"stateMutability":"nonpayable","type":"function"},{"inputs":[{"internalType":"uint256","name":"newAmount","type":"uint256"}],"name":"setSwapTokensAtAmount","outputs":[],"stateMutability":"nonpayable","type":"function"},{"inputs":[{"internalType":"bool","name":"_swapWithLimit","type":"bool"}],"name":"setSwapWithLimit","outputs":[],"stateMutability":"nonpayable","type":"function"},{"inputs":[{"internalType":"uint256","name":"_bnbValueForBuyBurn","type":"uint256"}],"name":"setbnbValueForBuyBurn","outputs":[],"stateMutability":"nonpayable","type":"function"},{"inputs":[{"internalType":"address","name":"","type":"address"}],"name":"specialFees","outputs":[{"internalType":"uint256","name":"","type":"uint256"}],"stateMutability":"view","type":"function"},{"inputs":[],"name":"swapEnabled","outputs":[{"internalType":"bool","name":"","type":"bool"}],"stateMutability":"view","type":"function"},{"inputs":[],"name":"swapTokensAtAmount","outputs":[{"internalType":"uint256","name":"","type":"uint256"}],"stateMutability":"view","type":"function"},{"inputs":[],"name":"swapWithLimit","outputs":[{"internalType":"bool","name":"","type":"bool"}],"stateMutability":"view","type":"function"},{"inputs":[],"name":"symbol","outputs":[{"internalType":"string","name":"","type":"string"}],"stateMutability":"view","type":"function"},{"inputs":[{"internalType":"address","name":"account","type":"address"}],"name":"totalRewardsEarned","outputs":[{"internalType":"uint256","name":"","type":"uint256"}],"stateMutability":"view","type":"function"},{"inputs":[],"name":"totalSupply","outputs":[{"internalType":"uint256","name":"","type":"uint256"}],"stateMutability":"view","type":"function"},{"inputs":[],"name":"tradingEnabled","outputs":[{"internalType":"bool","name":"","type":"bool"}],"stateMutability":"view","type":"function"},{"inputs":[{"internalType":"address","name":"to","type":"address"},{"internalType":"uint256","name":"amount","type":"uint256"}],"name":"transfer","outputs":[{"internalType":"bool","name":"","type":"bool"}],"stateMutability":"nonpayable","type":"function"},{"inputs":[{"internalType":"address","name":"from","type":"address"},{"internalType":"address","name":"to","type":"address"},{"internalType":"uint256","name":"amount","type":"uint256"}],"name":"transferFrom","outputs":[{"internalType":"bool","name":"","type":"bool"}],"stateMutability":"nonpayable","type":"function"},{"inputs":[{"internalType":"address","name":"newOwner","type":"address"}],"name":"transferOwnership","outputs":[],"stateMutability":"nonpayable","type":"function"},{"inputs":[],"name":"uniswapV2Pair","outputs":[{"internalType":"address","name":"","type":"address"}],"stateMutability":"view","type":"function"},{"inputs":[],"name":"uniswapV2Router","outputs":[{"internalType":"contract IUniswapV2Router02","name":"","type":"address"}],"stateMutability":"view","type":"function"},{"inputs":[{"internalType":"uint256","name":"_marketingFeeOnBuy","type":"uint256"},{"internalType":"uint256","name":"_developmentFeeOnBuy","type":"uint256"},{"internalType":"uint256","name":"_rewardFeeOnBuy","type":"uint256"},{"internalType":"uint256","name":"_liquidityFeeOnBuy","type":"uint256"},{"internalType":"uint256","name":"_buybackFeeOnBuy","type":"uint256"}],"name":"updateBuyFees","outputs":[],"stateMutability":"nonpayable","type":"function"},{"inputs":[{"internalType":"uint256","name":"claimWait","type":"uint256"}],"name":"updateClaimWait","outputs":[],"stateMutability":"nonpayable","type":"function"},{"inputs":[{"internalType":"address","name":"newAddress","type":"address"}],"name":"updateDividendTracker","outputs":[],"stateMutability":"nonpayable","type":"function"},{"inputs":[{"internalType":"uint256","name":"newValue","type":"uint256"}],"name":"updateGasForProcessing","outputs":[],"stateMutability":"nonpayable","type":"function"},{"inputs":[{"internalType":"uint256","name":"newMinimumBalance","type":"uint256"}],"name":"updateMinimumBalanceForDividends","outputs":[],"stateMutability":"nonpayable","type":"function"},{"inputs":[{"internalType":"uint256","name":"_marketingFeeOnSell","type":"uint256"},{"internalType":"uint256","name":"_developmentFeeOnSell","type":"uint256"},{"internalType":"uint256","name":"_rewardFeeOnSell","type":"uint256"},{"internalType":"uint256","name":"_liquidityFeeOnSell","type":"uint256"},{"internalType":"uint256","name":"_buyBackFeeOnSell","type":"uint256"}],"name":"updateSellFees","outputs":[],"stateMutability":"nonpayable","type":"function"},{"inputs":[{"internalType":"address","name":"newAddress","type":"address"}],"name":"updateUniswapV2Router","outputs":[],"stateMutability":"nonpayable","type":"function"},{"inputs":[],"name":"walletToWalletTransferWithoutFee","outputs":[{"internalType":"bool","name":"","type":"bool"}],"stateMutability":"view","type":"function"},{"inputs":[{"internalType":"address","name":"account","type":"address"}],"name":"withdrawableDividendOf","outputs":[{"internalType":"uint256","name":"","type":"uint256"}],"stateMutability":"view","type":"function"},{"stateMutability":"payable","type":"receive"}],"evm":{"bytecode":{"linkReferences":{},"object":"608060405234801561001057600080fd5b50614c80806100206000396000f3fe6080604052600436106105065760003560e01c8063700bb19111610297578063ad56c13c11610165578063e2f45605116100cc578063f2f3125f11610085578063f2f3125f14610f95578063f2fde38b14610fb5578063f7c618c114610fd5578063f81b684614610ff5578063f9d0831a14611022578063ff935af61461104257600080fd5b8063e2f4560514610eea578063e4f24cb014610f00578063e7841ec014610f20578063e98030c714610f35578063f170d7fd14610f55578063f27fd25414610f7557600080fd5b8063c02466681161011e578063c024666814610e3e578063c04a541414610e5e578063db9f2ed614610e7e578063dc4c7dbc14610e94578063dd62ed3e14610eaa578063e01af92c14610eca57600080fd5b8063ad56c13c14610d29578063aed970d514610d8e578063afa4f3b214610dae578063b62496f514610dce578063b6f7f68114610dfe578063bb85c6d114610e1e57600080fd5b80638da5cb5b11610209578063a26579ad116101c2578063a26579ad14610c65578063a457c2d714610c7a578063a8a69b9d14610c9a578063a8b9d24014610cd3578063a9059cbb14610cf3578063aa4bde2814610d1357600080fd5b80638da5cb5b14610bbc578063929f136014610bda57806395d89b4114610bfa578063988be11814610c0f5780639a679cf614610c2f5780639c1b8af514610c4f57600080fd5b8063790ca4131161025b578063790ca41314610b265780637b3c83b114610b3c5780638129fc1c14610b52578063871c128d14610b6757806388bdd9be14610b875780638a8c523c14610ba757600080fd5b8063700bb19114610a8557806370a0823114610aa5578063715018a614610adb57806375f0a87414610af0578063768b2a7314610b1057600080fd5b806331e79db0116103d457806349bd5a5e1161034657806359136fa5116102ff57806359136fa5146109ea5780635fc2e59614610a0057806364b0f65314610a1657806365b8dbc014610a2b5780636843cd8414610a4b5780636ddd171314610a6b57600080fd5b806349bd5a5e1461091c5780634ada218b1461093c5780634e71d92d1461095c5780634fbee193146109715780635654d0b3146109aa57806356a6cabf146109ca57600080fd5b80633f249df0116103985780633f249df01461087c57806341b37c8e1461089c57806341ec9942146108bc57806342efad2c146108d257806343807c7f146108e7578063488eb37f146108fd57600080fd5b806331e79db0146107e6578063328b2d9f1461080657806335d67daa1461081c578063395093511461083c5780633b364da81461085c57600080fd5b80631dac24d6116104785780632a6c7dba116104315780632a6c7dba146107455780632ba86bf2146107655780632c1f52161461077f5780632ce86fbf1461079f57806330bb4cff146107b5578063313ce567146107ca57600080fd5b80631dac24d61461069f57806321a9d82a146106b557806323b872dd146106cf57806325ecca87146106ef57806327a14fc214610705578063286b3aa01461072557600080fd5b8063150c880c116104ca578063150c880c146105db5780631529fbbf146105fd5780631694505e1461061757806317700f011461063c57806318160ddd1461065157806318d9ceae1461066657600080fd5b80630105d0fd14610512578063026390011461053b57806305452b871461057357806306fdde0314610589578063095ea7b3146105ab57600080fd5b3661050d57005b600080fd5b34801561051e57600080fd5b5061052860ba5481565b6040519081526020015b60405180910390f35b34801561054757600080fd5b5060a55461055b906001600160a01b031681565b6040516001600160a01b039091168152602001610532565b34801561057f57600080fd5b50610528609c5481565b34801561059557600080fd5b5061059e611062565b60405161053291906143b6565b3480156105b757600080fd5b506105cb6105c6366004614429565b6110f4565b6040519015158152602001610532565b3480156105e757600080fd5b506105fb6105f6366004614463565b61110e565b005b34801561060957600080fd5b5060a8546105cb9060ff1681565b34801561062357600080fd5b5060a85461055b9061010090046001600160a01b031681565b34801561064857600080fd5b506105fb611176565b34801561065d57600080fd5b50603554610528565b34801561067257600080fd5b506105cb61068136600461449c565b6001600160a01b0316600090815260b8602052604090205460ff1690565b3480156106ab57600080fd5b50610528609a5481565b3480156106c157600080fd5b5060b6546105cb9060ff1681565b3480156106db57600080fd5b506105cb6106ea3660046144c0565b61118c565b3480156106fb57600080fd5b5061052860995481565b34801561071157600080fd5b506105fb610720366004614501565b6111b0565b34801561073157600080fd5b506105fb610740366004614501565b61120a565b34801561075157600080fd5b506105fb61076036600461451a565b611274565b34801561077157600080fd5b5060b9546105cb9060ff1681565b34801561078b57600080fd5b5060b25461055b906001600160a01b031681565b3480156107ab57600080fd5b50610528609e5481565b3480156107c157600080fd5b506105286112c3565b3480156107d657600080fd5b5060405160128152602001610532565b3480156107f257600080fd5b506105fb61080136600461449c565b611336565b34801561081257600080fd5b50610528609f5481565b34801561082857600080fd5b506105fb61083736600461449c565b611370565b34801561084857600080fd5b506105cb610857366004614429565b6113c6565b34801561086857600080fd5b506105fb610877366004614501565b6113e8565b34801561088857600080fd5b506105fb61089736600461449c565b611421565b3480156108a857600080fd5b506105fb6108b736600461454d565b6114a4565b3480156108c857600080fd5b5061052860a75481565b3480156108de57600080fd5b506105fb61155b565b3480156108f357600080fd5b5061052860a05481565b34801561090957600080fd5b5060ac546105cb90610100900460ff1681565b34801561092857600080fd5b5060a95461055b906001600160a01b031681565b34801561094857600080fd5b5060ac546105cb9062010000900460ff1681565b34801561096857600080fd5b506105fb61157a565b34801561097d57600080fd5b506105cb61098c36600461449c565b6001600160a01b0316600090815260af602052604090205460ff1690565b3480156109b657600080fd5b506105fb6109c536600461451a565b6115f2565b3480156109d657600080fd5b506105fb6109e536600461451a565b61160d565b3480156109f657600080fd5b5061052860bb5481565b348015610a0c57600080fd5b5061052860975481565b348015610a2257600080fd5b5061052861165c565b348015610a3757600080fd5b506105fb610a4636600461449c565b6116a6565b348015610a5757600080fd5b50610528610a6636600461449c565b6118a9565b348015610a7757600080fd5b5060ac546105cb9060ff1681565b348015610a9157600080fd5b506105fb610aa0366004614501565b611919565b348015610ab157600080fd5b50610528610ac036600461449c565b6001600160a01b031660009081526033602052604090205490565b348015610ae757600080fd5b506105fb6119eb565b348015610afc57600080fd5b5060a35461055b906001600160a01b031681565b348015610b1c57600080fd5b50610528609b5481565b348015610b3257600080fd5b5061052860ad5481565b348015610b4857600080fd5b50610528609d5481565b348015610b5e57600080fd5b506105fb6119ff565b348015610b7357600080fd5b506105fb610b82366004614501565b612059565b348015610b9357600080fd5b506105fb610ba236600461449c565b612094565b348015610bb357600080fd5b506105fb6123bd565b348015610bc857600080fd5b506065546001600160a01b031661055b565b348015610be657600080fd5b506105fb610bf5366004614463565b6123d8565b348015610c0657600080fd5b5061059e612438565b348015610c1b57600080fd5b506105fb610c2a36600461451a565b612447565b348015610c3b57600080fd5b506105fb610c4a36600461449c565b612469565b348015610c5b57600080fd5b5061052860b45481565b348015610c7157600080fd5b506105286124bf565b348015610c8657600080fd5b506105cb610c95366004614429565b612509565b348015610ca657600080fd5b506105cb610cb536600461449c565b6001600160a01b0316600090815260b5602052604090205460ff1690565b348015610cdf57600080fd5b50610528610cee36600461449c565b612584565b348015610cff57600080fd5b506105cb610d0e366004614429565b6125b7565b348015610d1f57600080fd5b5061052860b75481565b348015610d3557600080fd5b50610d49610d4436600461449c565b6125c5565b604080516001600160a01b0390991689526020890197909752958701949094526060860192909252608085015260a084015260c083015260e082015261010001610532565b348015610d9a57600080fd5b506105fb610da9366004614501565b612660565b348015610dba57600080fd5b506105fb610dc9366004614501565b61266d565b348015610dda57600080fd5b506105cb610de936600461449c565b60b06020526000908152604090205460ff1681565b348015610e0a57600080fd5b506105fb610e19366004614618565b61267a565b348015610e2a57600080fd5b506105fb610e3936600461449c565b6126fb565b348015610e4a57600080fd5b506105fb610e59366004614463565b6127bb565b348015610e6a57600080fd5b5060a45461055b906001600160a01b031681565b348015610e8a57600080fd5b5061052860a65481565b348015610ea057600080fd5b5061052860985481565b348015610eb657600080fd5b50610528610ec536600461463a565b61281b565b348015610ed657600080fd5b506105fb610ee536600461451a565b612846565b348015610ef657600080fd5b5061052860ab5481565b348015610f0c57600080fd5b50610528610f1b36600461449c565b612861565b348015610f2c57600080fd5b50610528612894565b348015610f4157600080fd5b506105fb610f50366004614501565b6128de565b348015610f6157600080fd5b506105fb610f70366004614668565b612917565b348015610f8157600080fd5b50610d49610f90366004614501565b612a38565b348015610fa157600080fd5b506105fb610fb036600461451a565b612a7a565b348015610fc157600080fd5b506105fb610fd036600461449c565b612a95565b348015610fe157600080fd5b5060b35461055b906001600160a01b031681565b34801561100157600080fd5b5061052861101036600461449c565b60b16020526000908152604090205481565b34801561102e57600080fd5b506105fb61103d36600461449c565b612b0b565b34801561104e57600080fd5b506105fb61105d366004614668565b612c3d565b606060368054611071906146a3565b80601f016020809104026020016040519081016040528092919081815260200182805461109d906146a3565b80156110ea5780601f106110bf576101008083540402835291602001916110ea565b820191906000526020600020905b8154815290600101906020018083116110cd57829003601f168201915b5050505050905090565b600033611102818585612d53565b60019150505b92915050565b611116612e77565b6001600160a01b038216600081815260b86020908152604091829020805460ff191685151590811790915591519182527f8727c4afe988887760e8db0bbad9f9fcceee6428545956832f67c8fdbd589c1091015b60405180910390a25050565b61117e612e77565b60ac805462ff000019169055565b60003361119a858285612ed1565b6111a5858585612f45565b506001949350505050565b6111b8612e77565b6111c46012600a6147d7565b6111ce90826147e6565b60b78190556040519081527f21bc0ea3406acb92d4449ab33befb4ae82f873a22f3b6cf0e466b2710beb5942906020015b60405180910390a150565b611212612e77565b60b25460405163014359d560e51b8152600481018390526001600160a01b039091169063286b3aa0906024015b600060405180830381600087803b15801561125957600080fd5b505af115801561126d573d6000803e3d6000fd5b5050505050565b61127c612e77565b60b6805460ff191682151590811790915560405160ff909116151581527f670f884265aba2d05e7c26efbc42f8365effc4cb3fcfcefddba0c0b71a6231f1906020016111ff565b60b254604080516342d359d760e11b815290516000926001600160a01b0316916385a6b3ae9160048083019260209291908290030181865afa15801561130d573d6000803e3d6000fd5b505050506040513d601f19601f8201168201806040525081019061133191906147fd565b905090565b61133e612e77565b60b25460405163031e79db60e41b81526001600160a01b038381166004830152909116906331e79db09060240161123f565b611378612e77565b60a580546001600160a01b0319166001600160a01b0383169081179091556040519081527f2302fd511d668344736bde27f680d547a4c58e1169b9b22e24941082667f43f9906020016111ff565b6000336111028185856113d9838361281b565b6113e39190614816565b612d53565b6113f0612e77565b60b254604051630dcb2e8960e01b8152600481018390526001600160a01b0390911690630dcb2e899060240161123f565b611429612e77565b60b25460405163bc4c4b3760e01b81526001600160a01b038381166004830152600060248301529091169063bc4c4b37906044016020604051808303816000875af115801561147c573d6000803e3d6000fd5b505050506040513d601f19601f820116820180604052508101906114a09190614829565b5050565b6114ac612e77565b60648111156114f45760405162461bcd60e51b815260206004820152600f60248201526e08ccaca40d2e640e8dede40d0d2ced608b1b60448201526064015b60405180910390fd5b60005b8251811015611556578160b1600085848151811061151757611517614846565b60200260200101516001600160a01b03166001600160a01b0316815260200190815260200160002081905550808061154e9061485c565b9150506114f7565b505050565b611563612e77565b4260ad5560ac805462ff0000191662010000179055565b60b25460405163bc4c4b3760e01b8152336004820152600060248201526001600160a01b039091169063bc4c4b37906044016020604051808303816000875af11580156115cb573d6000803e3d6000fd5b505050506040513d601f19601f820116820180604052508101906115ef9190614829565b50565b6115fa612e77565b60a8805460ff1916911515919091179055565b611615612e77565b60b9805460ff191682151590811790915560405160ff909116151581527fe81be35e61864c26afd7a4655e99f321378d0aaae1e5af8ee67b658a7460f3cf906020016111ff565b60b254604080516304ddf6ef60e11b815290516000926001600160a01b0316916309bbedde9160048083019260209291908290030181865afa15801561130d573d6000803e3d6000fd5b6116ae612e77565b60a8546040516001600160a01b036101009092048216918316907f8fc842bbd331dfa973645f4ed48b11683d501ebf1352708d77a5da2ab49a576e90600090a38060a860016101000a8154816001600160a01b0302191690836001600160a01b03160217905550600060a860019054906101000a90046001600160a01b03166001600160a01b031663c45a01556040518163ffffffff1660e01b8152600401602060405180830381865afa15801561176a573d6000803e3d6000fd5b505050506040513d601f19601f8201168201806040525081019061178e9190614875565b6001600160a01b031663c9c653963060a860019054906101000a90046001600160a01b03166001600160a01b031663ad5c46486040518163ffffffff1660e01b8152600401602060405180830381865afa1580156117f0573d6000803e3d6000fd5b505050506040513d601f19601f820116820180604052508101906118149190614875565b6040516001600160e01b031960e085901b1681526001600160a01b039283166004820152911660248201526044016020604051808303816000875af1158015611861573d6000803e3d6000fd5b505050506040513d601f19601f820116820180604052508101906118859190614875565b60a980546001600160a01b0319166001600160a01b03929092169190911790555050565b60b2546040516370a0823160e01b81526001600160a01b03838116600483015260009216906370a08231906024015b602060405180830381865afa1580156118f5573d6000803e3d6000fd5b505050506040513d601f19601f8201168201806040525081019061110891906147fd565b60b2546040516001624d3b8760e01b0319815260048101839052600091829182916001600160a01b03169063ffb2c479906024016060604051808303816000875af115801561196c573d6000803e3d6000fd5b505050506040513d601f19601f820116820180604052508101906119909190614892565b604080518481526020810184905290810182905260608101889052929550909350915032906000907fc864333d6121033635ab41b29ae52f10a22cf4438c3e4f1c4c68518feb2f8a989060800160405180910390a350505050565b6119f3612e77565b6119fd6000613a45565b565b600054610100900460ff1615808015611a1f5750600054600160ff909116105b80611a395750303b158015611a39575060005460ff166001145b611a9c5760405162461bcd60e51b815260206004820152602e60248201527f496e697469616c697a61626c653a20636f6e747261637420697320616c72656160448201526d191e481a5b9a5d1a585b1a5e995960921b60648201526084016114eb565b6000805460ff191660011790558015611abf576000805461ff0019166101001790555b611ac7613a97565b611b116040518060400160405280600a815260200169436f6f6b696553616c6560b01b81525060405180604001604052806006815260200165434f4f4b494560d01b815250613ac6565b60b6805460ff19908116600190811790925560b980548216831790556003609781905560985560026099819055609a819055609b819055609c55609d829055609e829055609f82905560a0829055600960a181905560a25560a8805482168317905560ac805482168317905560ae8054909116909117905560aa80546001600160a01b031990811661dead1790915560a380548216733ab481bd7b55394ea86ad28793248e47a8c272ec17905560a48054821673076727113dd9e271856d70279628eaba4807c29817905560a58054821673ba5eab68a7203c9ff72e07b708991f07f55ef40e17905560b3805490911673bb4cdb9cbd36b01bd1cbaebf2de08d9173bc095c179055611c42730c935e43adc96c9a9b7b814d9a070164e1150a726a52b7d2dcc80cd2e4000000613af7565b611388611c4e60355490565b611c5891906148c0565b60ab5560c8611c6660355490565b611c7091906148c0565b60ba5560c8611c7e60355490565b611c8891906148c0565b60bb556103e8611c9760355490565b611ca290600b6147e6565b611cac91906148c0565b60b78190555060007310ed43c718714eb63d5aa57b78b54704e256024e90506000816001600160a01b031663c45a01556040518163ffffffff1660e01b8152600401602060405180830381865afa158015611d0b573d6000803e3d6000fd5b505050506040513d601f19601f82011682018060405250810190611d2f9190614875565b6001600160a01b031663c9c6539630846001600160a01b031663ad5c46486040518163ffffffff1660e01b8152600401602060405180830381865afa158015611d7c573d6000803e3d6000fd5b505050506040513d601f19601f82011682018060405250810190611da09190614875565b6040516001600160e01b031960e085901b1681526001600160a01b039283166004820152911660248201526044016020604051808303816000875af1158015611ded573d6000803e3d6000fd5b505050506040513d601f19601f82011682018060405250810190611e119190614875565b60a88054610100600160a81b0319166101006001600160a01b038681168202929092179283905560a980546001600160a01b031916858416179055929350611e5f9230920416600019612d53565b611e6a816001613bb8565b600160b86000611e826065546001600160a01b031690565b6001600160a01b03908116825260208083019390935260409182016000908120805495151560ff1996871617905560b89093527f5b6159cd199de16dab6bc1f9cf2699a959e881afa5a1b72f252de1690c2f070e805485166001908117909155308452828420805486168217905560aa5490911683529082208054909316811790925560b590611f1a6065546001600160a01b031690565b6001600160a01b03908116825260208083019390935260409182016000908120805495151560ff1996871617905560b59093527f2f55bc6e62ee99c7c60d946484e668adbae50632b5b53c97ceae65a4fd756740805485166001908117909155308452828420805486168217905560aa5490911683529082208054909316811790925560af90611fb26065546001600160a01b031690565b6001600160a01b03908116825260208083019390935260409182016000908120805495151560ff1996871617905560aa54909116815260af909252808220805484166001908117909155308352912080549092161790555050671bc16d674ec8000060a65580156115ef576000805461ff0019169055604051600181527f7f26b83ff96e1f2b6a682f133852f6798a09c465da95921460cefb3847402498906020016111ff565b612061612e77565b60b45460405182907f40d7e40e79af4e8e5a9b3c57030d8ea93f13d669c06d448c4d631d4ae7d23db790600090a360b455565b61209c612e77565b6000819050306001600160a01b0316816001600160a01b0316638da5cb5b6040518163ffffffff1660e01b8152600401602060405180830381865afa1580156120e9573d6000803e3d6000fd5b505050506040513d601f19601f8201168201806040525081019061210d9190614875565b6001600160a01b0316146121895760405162461bcd60e51b815260206004820152603c60248201527f546865206e6577206469766964656e6420747261636b6572206d75737420626560448201527f206f776e65642062792074686520746f6b656e20636f6e74726163740000000060648201526084016114eb565b60405163031e79db60e41b81526001600160a01b03821660048201819052906331e79db090602401600060405180830381600087803b1580156121cb57600080fd5b505af11580156121df573d6000803e3d6000fd5b505060405163031e79db60e41b81523060048201526001600160a01b03841692506331e79db09150602401600060405180830381600087803b15801561222457600080fd5b505af1158015612238573d6000803e3d6000fd5b505060aa5460405163031e79db60e41b81526001600160a01b03918216600482015290841692506331e79db09150602401600060405180830381600087803b15801561228357600080fd5b505af1158015612297573d6000803e3d6000fd5b505060a85460405163031e79db60e41b81526101009091046001600160a01b039081166004830152841692506331e79db09150602401600060405180830381600087803b1580156122e757600080fd5b505af11580156122fb573d6000803e3d6000fd5b505060a95460405163031e79db60e41b81526001600160a01b03918216600482015290841692506331e79db09150602401600060405180830381600087803b15801561234657600080fd5b505af115801561235a573d6000803e3d6000fd5b505060b2546040516001600160a01b03918216935090851691507f90c7d74461c613da5efa97d90740869367d74ab3aa5837aa4ae9a975f954b7a890600090a360b280546001600160a01b0319166001600160a01b039290921691909117905550565b6123c5612e77565b60ac805462ff0000191662010000179055565b6123e0612e77565b6001600160a01b038216600081815260b56020908152604091829020805460ff191685151590811790915591519182527f1d9a11e204b58ad56c619c61600e42167624659d218f0143f1f64956b0daae6c910161116a565b606060378054611071906146a3565b61244f612e77565b60ac80549115156101000261ff0019909216919091179055565b612471612e77565b60a480546001600160a01b0319166001600160a01b0383169081179091556040519081527f2e184dc34ab031d763441c588bd08760997797e8550c76fd439a20571233cc20906020016111ff565b60b25460408051631bc9e27b60e21b815290516000926001600160a01b031691636f2789ec9160048083019260209291908290030181865afa15801561130d573d6000803e3d6000fd5b60003381612517828661281b565b9050838110156125775760405162461bcd60e51b815260206004820152602560248201527f45524332303a2064656372656173656420616c6c6f77616e63652062656c6f77604482015264207a65726f60d81b60648201526084016114eb565b6111a58286868403612d53565b60b2546040516302a2e74960e61b81526001600160a01b038381166004830152600092169063a8b9d240906024016118d8565b600033611102818585612f45565b60b25460405163fbcbc0f160e01b81526001600160a01b038381166004830152600092839283928392839283928392839291169063fbcbc0f1906024015b61010060405180830381865afa158015612621573d6000803e3d6000fd5b505050506040513d601f19601f8201168201806040525081019061264591906148e2565b97509750975097509750975097509750919395975091939597565b612668612e77565b60a655565b612675612e77565b60ab55565b612682612e77565b61268e6012600a6147d7565b61269890836147e6565b60ba556126a76012600a6147d7565b6126b190826147e6565b60bb81905560ba546040517f8c8cbc911b80df94332ececb8eb0945274d76fa965600a0f01f42af3f8afb131926126ef928252602082015260400190565b60405180910390a15050565b612703612e77565b6001600160a01b03811661276d5760405162461bcd60e51b815260206004820152602b60248201527f4d61726b6574696e672077616c6c65742063616e6e6f7420626520746865207a60448201526a65726f206164647265737360a81b60648201526084016114eb565b60a380546001600160a01b0319166001600160a01b0383169081179091556040519081527fa964ba5c52d7e7bfcae4fb1ae4db9f211756d0e618e85fac5283b882a39e7a0b906020016111ff565b6127c3612e77565b6001600160a01b038216600081815260af6020908152604091829020805460ff191685151590811790915591519182527f9d8f7706ea1113d1a167b526eca956215946dd36cc7df39eb16180222d8b5df7910161116a565b6001600160a01b03918216600090815260346020908152604080832093909416825291909152205490565b61284e612e77565b60ac805460ff1916911515919091179055565b60b2546040516327ce014760e01b81526001600160a01b03838116600483015260009216906327ce0147906024016118d8565b60b2546040805163039e107b60e61b815290516000926001600160a01b03169163e7841ec09160048083019260209291908290030181865afa15801561130d573d6000803e3d6000fd5b6128e6612e77565b60b25460405163e98030c760e01b8152600481018390526001600160a01b039091169063e98030c79060240161123f565b61291f612e77565b601981838561292e888a614816565b6129389190614816565b6129429190614816565b61294c9190614816565b111561299a5760405162461bcd60e51b815260206004820152601a60248201527f46656573206d757374206265206c657373207468616e2032352500000000000060448201526064016114eb565b60978590556099849055609b839055609d829055609f8190558082846129c08789614816565b6129ca9190614816565b6129d49190614816565b6129de9190614816565b60a155604080518681526020810186905290810184905260608101839052608081018290527f36f734ef6334bb46ffb96a53ac28a5f80f907b4e1edb3c8af6dd32ba6e57f8589060a0015b60405180910390a15050505050565b60b254604051635183d6fd60e01b81526004810183905260009182918291829182918291829182916001600160a01b0390911690635183d6fd90602401612603565b612a82612e77565b60ae805460ff1916911515919091179055565b612a9d612e77565b6001600160a01b038116612b025760405162461bcd60e51b815260206004820152602660248201527f4f776e61626c653a206e6577206f776e657220697320746865207a65726f206160448201526564647265737360d01b60648201526084016114eb565b6115ef81613a45565b612b13612e77565b6001600160a01b038116612b565760405133904780156108fc02916000818181858888f19350505050158015612b4d573d6000803e3d6000fd5b50600060a75550565b6040516370a0823160e01b815230600482015281906000906001600160a01b038316906370a0823190602401602060405180830381865afa158015612b9f573d6000803e3d6000fd5b505050506040513d601f19601f82011682018060405250810190612bc391906147fd565b60405163a9059cbb60e01b8152336004820152602481018290529091506001600160a01b0383169063a9059cbb906044016020604051808303816000875af1158015612c13573d6000803e3d6000fd5b505050506040513d601f19601f82011682018060405250810190612c379190614829565b50505050565b612c45612e77565b6019818385612c54888a614816565b612c5e9190614816565b612c689190614816565b612c729190614816565b1115612cc05760405162461bcd60e51b815260206004820152601a60248201527f46656573206d757374206265206c657373207468616e2032352500000000000060448201526064016114eb565b6098859055609a849055609c839055609e82905560a0819055808284612ce68789614816565b612cf09190614816565b612cfa9190614816565b612d049190614816565b60a255604080518681526020810186905290810184905260608101839052608081018290527fa047973ee053932e622d31fe5ab89f310d1c9c947ac06a81f382d0d3df2b11029060a001612a29565b6001600160a01b038316612db55760405162461bcd60e51b8152602060048201526024808201527f45524332303a20617070726f76652066726f6d20746865207a65726f206164646044820152637265737360e01b60648201526084016114eb565b6001600160a01b038216612e165760405162461bcd60e51b815260206004820152602260248201527f45524332303a20617070726f766520746f20746865207a65726f206164647265604482015261737360f01b60648201526084016114eb565b6001600160a01b0383811660008181526034602090815260408083209487168084529482529182902085905590518481527f8c5be1e5ebec7d5bd14f71427d1e84f3dd0314c0f7b2291e5b200ac8c7c3b925910160405180910390a3505050565b6065546001600160a01b031633146119fd5760405162461bcd60e51b815260206004820181905260248201527f4f776e61626c653a2063616c6c6572206973206e6f7420746865206f776e657260448201526064016114eb565b6000612edd848461281b565b90506000198114612c375781811015612f385760405162461bcd60e51b815260206004820152601d60248201527f45524332303a20696e73756666696369656e7420616c6c6f77616e636500000060448201526064016114eb565b612c378484848403612d53565b6001600160a01b038316612f6b5760405162461bcd60e51b81526004016114eb9061494c565b6001600160a01b038216612f915760405162461bcd60e51b81526004016114eb90614991565b60ac5462010000900460ff1680612fc057506001600160a01b038316600090815260af602052604090205460ff165b80612fe357506001600160a01b038216600090815260af602052604090205460ff165b61302f5760405162461bcd60e51b815260206004820152601a60248201527f54726164696e67206973206e6f7420656e61626c65642079657400000000000060448201526064016114eb565b806000036130435761155683836000613c0c565b60b95460ff16156131255760a9546001600160a01b0384811691161480613077575060a9546001600160a01b038381169116145b801561309c57506001600160a01b038316600090815260b8602052604090205460ff16155b80156130c157506001600160a01b038216600090815260b8602052604090205460ff16155b156131255760a9546001600160a01b03908116908416036131035760ba548111156130fe5760405162461bcd60e51b81526004016114eb906149d4565b613125565b60bb548111156131255760405162461bcd60e51b81526004016114eb906149d4565b3060009081526033602052604090205460ab5460ac54908210159060ff16801561314c5750805b8015613162575060aa54600160a01b900460ff16155b801561318657506001600160a01b038416600090815260b0602052604090205460ff165b156135915760aa805460ff60a01b1916600160a01b17905560ac54610100900460ff16156131b45760ab5491505b600060a25460a1546131c69190614816565b905060006098546097546131da9190614816565b90506000609a546099546131ee9190614816565b90506000609c54609b546132029190614816565b90506000609e54609d546132169190614816565b9050600060a054609f5461322a9190614816565b905060008215613254578661323f848b6147e6565b61324991906148c0565b905061325481613d3d565b61325e818a614a31565b98506000828561326e888a614816565b6132789190614816565b6132829190614816565b905060008a1180156132945750600081115b1561357b576040805160028082526060820183524792600092919060208301908036833701905050905030816000815181106132d2576132d2614846565b60200260200101906001600160a01b031690816001600160a01b03168152505060a860019054906101000a90046001600160a01b03166001600160a01b031663ad5c46486040518163ffffffff1660e01b8152600401602060405180830381865afa158015613345573d6000803e3d6000fd5b505050506040513d601f19601f820116820180604052508101906133699190614875565b8160018151811061337c5761337c614846565b6001600160a01b03928316602091820292909201015260a85460405163791ac94760e01b81526101009091049091169063791ac947906133c9908f90600090869030904290600401614a88565b600060405180830381600087803b1580156133e357600080fd5b505af11580156133f7573d6000803e3d6000fd5b50505050600082476134099190614a31565b905089156134765760008461341e8c846147e6565b61342891906148c0565b60a354909150613441906001600160a01b031682613fb2565b6040518181527fddce3d5e4f18a9c2902704a38b56baadd81a9af59b8ded8a3220b6a6c1696b6b9060200160405180910390a1505b88156134e1576000846134898b846147e6565b61349391906148c0565b60a4549091506134ac906001600160a01b031682613fb2565b6040518181527f59d84613f081326a5e426b911b5b8f5d47462357c27f406b97469e818ed8856e9060200160405180910390a1505b871561350b576000846134f48a846147e6565b6134fe91906148c0565b9050613509816140cb565b505b85156135775760008461351e88846147e6565b61352891906148c0565b90508060a7600082825461353c9190614816565b909155505060a65460a75411156135755760a75447106135665761356160a7546141b6565b61356f565b61356f476141b6565b600060a7555b505b5050505b505060aa805460ff60a01b191690555050505050505b6001600160a01b038516600090815260af602052604081205460ff16806135d057506001600160a01b038516600090815260af602052604090205460ff165b80613610575060a85460ff1680156135f6575060a9546001600160a01b03878116911614155b8015613610575060a9546001600160a01b03868116911614155b80613624575060aa54600160a01b900460ff165b15613631575060006136fc565b60ae5460ff16801561364f575060ad5461364c601242614a31565b11155b1561365c575060636136fc565b60a9546001600160a01b03908116908716036136b9576001600160a01b038516600090815260b16020526040902054156136ae576001600160a01b038516600090815260b160205260409020546136b2565b60a1545b90506136fc565b6001600160a01b038616600090815260b16020526040902054156136f5576001600160a01b038616600090815260b160205260409020546136f9565b60a2545b90505b801561374f576000606461371083876147e6565b61371a91906148c0565b90506137268186614a31565b945061374d878360631461373a5730613747565b60a3546001600160a01b03165b83613c0c565b505b60b65460ff161561384a576001600160a01b038616600090815260b5602052604090205460ff1615801561379c57506001600160a01b038516600090815260b5602052604090205460ff16155b80156137b6575060a9546001600160a01b03868116911614155b1561384a576001600160a01b03851660009081526033602052604090205460b7546137e18683614816565b11156138485760405162461bcd60e51b815260206004820152603060248201527f4d617857616c6c65743a20526563697069656e7420657863656564732074686560448201526f081b585e15d85b1b195d105b5bdd5b9d60821b60648201526084016114eb565b505b613855868686613c0c565b60b2546001600160a01b031663e30443bc87613886816001600160a01b031660009081526033602052604090205490565b6040516001600160e01b031960e085901b1681526001600160a01b0390921660048301526024820152604401600060405180830381600087803b1580156138cc57600080fd5b505af19250505080156138dd575060015b5060b2546001600160a01b031663e30443bc8661390f816001600160a01b031660009081526033602052604090205490565b6040516001600160e01b031960e085901b1681526001600160a01b0390921660048301526024820152604401600060405180830381600087803b15801561395557600080fd5b505af1925050508015613966575060015b5060aa54600160a01b900460ff16613a3d5760b45460b2546040516001624d3b8760e01b03198152600481018390526001600160a01b039091169063ffb2c479906024016060604051808303816000875af19250505080156139e5575060408051601f3d908101601f191682019092526139e291810190614892565b60015b15613a3b5760408051848152602081018490529081018290526060810185905232906001907fc864333d6121033635ab41b29ae52f10a22cf4438c3e4f1c4c68518feb2f8a989060800160405180910390a35050505b505b505050505050565b606580546001600160a01b038381166001600160a01b0319831681179093556040519116919082907f8be0079c531659141344cd1fd0a4f28419497f9722a3daafe3b4186f6b6457e090600090a35050565b600054610100900460ff16613abe5760405162461bcd60e51b81526004016114eb90614ac4565b6119fd614346565b600054610100900460ff16613aed5760405162461bcd60e51b81526004016114eb90614ac4565b6114a08282614376565b6001600160a01b038216613b4d5760405162461bcd60e51b815260206004820152601f60248201527f45524332303a206d696e7420746f20746865207a65726f20616464726573730060448201526064016114eb565b8060356000828254613b5f9190614816565b90915550506001600160a01b0382166000818152603360209081526040808320805486019055518481527fddf252ad1be2c89b69c2b068fc378daa952ba7f163c4a11628f55a4df523b3ef910160405180910390a35050565b6001600160a01b038216600081815260b06020526040808220805460ff191685151590811790915590519092917fffa9187bf1f18bf477bd0ea1bcbb64e93b6a98132473929edfce215cd9b16fab91a35050565b6001600160a01b038316613c325760405162461bcd60e51b81526004016114eb9061494c565b6001600160a01b038216613c585760405162461bcd60e51b81526004016114eb90614991565b6001600160a01b03831660009081526033602052604090205481811015613cd05760405162461bcd60e51b815260206004820152602660248201527f45524332303a207472616e7366657220616d6f756e7420657863656564732062604482015265616c616e636560d01b60648201526084016114eb565b6001600160a01b0380851660008181526033602052604080822086860390559286168082529083902080548601905591517fddf252ad1be2c89b69c2b068fc378daa952ba7f163c4a11628f55a4df523b3ef90613d309086815260200190565b60405180910390a3612c37565b6000613d4a6002836148c0565b90506000613d588284614a31565b60408051600280825260608201835292935047926000926020830190803683370190505090503081600081518110613d9257613d92614846565b60200260200101906001600160a01b031690816001600160a01b03168152505060a860019054906101000a90046001600160a01b03166001600160a01b031663ad5c46486040518163ffffffff1660e01b8152600401602060405180830381865afa158015613e05573d6000803e3d6000fd5b505050506040513d601f19601f82011682018060405250810190613e299190614875565b81600181518110613e3c57613e3c614846565b6001600160a01b03928316602091820292909201015260a85460405163791ac94760e01b81526101009091049091169063791ac94790613e89908790600090869030904290600401614a88565b600060405180830381600087803b158015613ea357600080fd5b505af1158015613eb7573d6000803e3d6000fd5b5050505060008247613ec99190614a31565b60a85460aa5460405163f305d71960e01b81523060048201526024810188905260006044820181905260648201526001600160a01b0391821660848201524260a4820152929350610100909104169063f305d71990839060c40160606040518083038185885af1158015613f41573d6000803e3d6000fd5b50505050506040513d601f19601f82011682018060405250810190613f669190614892565b505060408051878152602081018490529081018690527f17bbfb9a6069321b6ded73bd96327c9e6b7212a5cd51ff219cd61370acafb561915060600160405180910390a1505050505050565b804710156140025760405162461bcd60e51b815260206004820152601d60248201527f416464726573733a20696e73756666696369656e742062616c616e636500000060448201526064016114eb565b6000826001600160a01b03168260405160006040518083038185875af1925050503d806000811461404f576040519150601f19603f3d011682016040523d82523d6000602084013e614054565b606091505b50509050806115565760405162461bcd60e51b815260206004820152603a60248201527f416464726573733a20756e61626c6520746f2073656e642076616c75652c207260448201527f6563697069656e74206d6179206861766520726576657274656400000000000060648201526084016114eb565b60b2546040516000916001600160a01b03169083908381818185875af1925050503d8060008114614118576040519150601f19603f3d011682016040523d82523d6000602084013e61411d565b606091505b5050905080156114a05760b254604051633243c79160e01b8152600481018490526001600160a01b0390911690633243c79190602401600060405180830381600087803b15801561416d57600080fd5b505af1158015614181573d6000803e3d6000fd5b505050507fb0cc2628d6d644cf6be9d8110e142297ac910d6d8026d795a99f272fd9ad60b1826040516126ef91815260200190565b60408051600280825260608201835260009260208301908036833701905050905060a860019054906101000a90046001600160a01b03166001600160a01b031663ad5c46486040518163ffffffff1660e01b8152600401602060405180830381865afa15801561422a573d6000803e3d6000fd5b505050506040513d601f19601f8201168201806040525081019061424e9190614875565b8160008151811061426157614261614846565b6001600160a01b03928316602091820292909201015260a55482519116908290600190811061429257614292614846565b6001600160a01b03928316602091820292909201015260a85460aa5460405163b6f9de9560e01b815261010090920483169263b6f9de959286926142e3926000928892909116904290600401614b0f565b6000604051808303818588803b1580156142fc57600080fd5b505af1158015614310573d6000803e3d6000fd5b50505050507ffcfa54313b92fceed71362d6bfec038726e592d2fa73d69c461986eeedf74400826040516126ef91815260200190565b600054610100900460ff1661436d5760405162461bcd60e51b81526004016114eb90614ac4565b6119fd33613a45565b600054610100900460ff1661439d5760405162461bcd60e51b81526004016114eb90614ac4565b60366143a98382614b8a565b5060376115568282614b8a565b600060208083528351808285015260005b818110156143e3578581018301518582016040015282016143c7565b506000604082860101526040601f19601f8301168501019250505092915050565b6001600160a01b03811681146115ef57600080fd5b803561442481614404565b919050565b6000806040838503121561443c57600080fd5b823561444781614404565b946020939093013593505050565b80151581146115ef57600080fd5b6000806040838503121561447657600080fd5b823561448181614404565b9150602083013561449181614455565b809150509250929050565b6000602082840312156144ae57600080fd5b81356144b981614404565b9392505050565b6000806000606084860312156144d557600080fd5b83356144e081614404565b925060208401356144f081614404565b929592945050506040919091013590565b60006020828403121561451357600080fd5b5035919050565b60006020828403121561452c57600080fd5b81356144b981614455565b634e487b7160e01b600052604160045260246000fd5b6000806040838503121561456057600080fd5b823567ffffffffffffffff8082111561457857600080fd5b818501915085601f83011261458c57600080fd5b81356020828211156145a0576145a0614537565b8160051b604051601f19603f830116810181811086821117156145c5576145c5614537565b6040529283528183019350848101820192898411156145e357600080fd5b948201945b83861015614608576145f986614419565b855294820194938201936145e8565b9997909101359750505050505050565b6000806040838503121561462b57600080fd5b50508035926020909101359150565b6000806040838503121561464d57600080fd5b823561465881614404565b9150602083013561449181614404565b600080600080600060a0868803121561468057600080fd5b505083359560208501359550604085013594606081013594506080013592509050565b600181811c908216806146b757607f821691505b6020821081036146d757634e487b7160e01b600052602260045260246000fd5b50919050565b634e487b7160e01b600052601160045260246000fd5b600181815b8085111561472e578160001904821115614714576147146146dd565b8085161561472157918102915b93841c93908002906146f8565b509250929050565b60008261474557506001611108565b8161475257506000611108565b816001811461476857600281146147725761478e565b6001915050611108565b60ff841115614783576147836146dd565b50506001821b611108565b5060208310610133831016604e8410600b84101617156147b1575081810a611108565b6147bb83836146f3565b80600019048211156147cf576147cf6146dd565b029392505050565b60006144b960ff841683614736565b8082028115828204841417611108576111086146dd565b60006020828403121561480f57600080fd5b5051919050565b80820180821115611108576111086146dd565b60006020828403121561483b57600080fd5b81516144b981614455565b634e487b7160e01b600052603260045260246000fd5b60006001820161486e5761486e6146dd565b5060010190565b60006020828403121561488757600080fd5b81516144b981614404565b6000806000606084860312156148a757600080fd5b8351925060208401519150604084015190509250925092565b6000826148dd57634e487b7160e01b600052601260045260246000fd5b500490565b600080600080600080600080610100898b0312156148ff57600080fd5b885161490a81614404565b809850506020890151965060408901519550606089015194506080890151935060a0890151925060c0890151915060e089015190509295985092959890939650565b60208082526025908201527f45524332303a207472616e736665722066726f6d20746865207a65726f206164604082015264647265737360d81b606082015260800190565b60208082526023908201527f45524332303a207472616e7366657220746f20746865207a65726f206164647260408201526265737360e81b606082015260800190565b6020808252603b908201527f416e74695768616c653a205472616e7366657220616d6f756e7420657863656560408201527f647320746865206d61785472616e73616374696f6e416d6f756e740000000000606082015260800190565b81810381811115611108576111086146dd565b600081518084526020808501945080840160005b83811015614a7d5781516001600160a01b031687529582019590820190600101614a58565b509495945050505050565b85815284602082015260a060408201526000614aa760a0830186614a44565b6001600160a01b0394909416606083015250608001529392505050565b6020808252602b908201527f496e697469616c697a61626c653a20636f6e7472616374206973206e6f74206960408201526a6e697469616c697a696e6760a81b606082015260800190565b848152608060208201526000614b286080830186614a44565b6001600160a01b03949094166040830152506060015292915050565b601f82111561155657600081815260208120601f850160051c81016020861015614b6b5750805b601f850160051c820191505b81811015613a3d57828155600101614b77565b815167ffffffffffffffff811115614ba457614ba4614537565b614bb881614bb284546146a3565b84614b44565b602080601f831160018114614bed5760008415614bd55750858301515b600019600386901b1c1916600185901b178555613a3d565b600085815260208120601f198616915b82811015614c1c57888601518255948401946001909101908401614bfd565b5085821015614c3a5787850151600019600388901b60f8161c191681555b5050505050600190811b0190555056fea26469706673582212205103e3500d34559c601492ac5cd4db268f74d7a0107aa254b1613b5310c188c064736f6c63430008110033","opcodes":"PUSH1 0x80 PUSH1 0x40 MSTORE CALLVALUE DUP1 ISZERO PUSH2 0x10 JUMPI PUSH1 0x0 DUP1 REVERT JUMPDEST POP PUSH2 0x4C80 DUP1 PUSH2 0x20 PUSH1 0x0 CODECOPY PUSH1 0x0 RETURN INVALID PUSH1 0x80 PUSH1 0x40 MSTORE PUSH1 0x4 CALLDATASIZE LT PUSH2 0x506 JUMPI PUSH1 0x0 CALLDATALOAD PUSH1 0xE0 SHR DUP1 PUSH4 0x700BB191 GT PUSH2 0x297 JUMPI DUP1 PUSH4 0xAD56C13C GT PUSH2 0x165 JUMPI DUP1 PUSH4 0xE2F45605 GT PUSH2 0xCC JUMPI DUP1 PUSH4 0xF2F3125F GT PUSH2 0x85 JUMPI DUP1 PUSH4 0xF2F3125F EQ PUSH2 0xF95 JUMPI DUP1 PUSH4 0xF2FDE38B EQ PUSH2 0xFB5 JUMPI DUP1 PUSH4 0xF7C618C1 EQ PUSH2 0xFD5 JUMPI DUP1 PUSH4 0xF81B6846 EQ PUSH2 0xFF5 JUMPI DUP1 PUSH4 0xF9D0831A EQ PUSH2 0x1022 JUMPI DUP1 PUSH4 0xFF935AF6 EQ PUSH2 0x1042 JUMPI PUSH1 0x0 DUP1 REVERT JUMPDEST DUP1 PUSH4 0xE2F45605 EQ PUSH2 0xEEA JUMPI DUP1 PUSH4 0xE4F24CB0 EQ PUSH2 0xF00 JUMPI DUP1 PUSH4 0xE7841EC0 EQ PUSH2 0xF20 JUMPI DUP1 PUSH4 0xE98030C7 EQ PUSH2 0xF35 JUMPI DUP1 PUSH4 0xF170D7FD EQ PUSH2 0xF55 JUMPI DUP1 PUSH4 0xF27FD254 EQ PUSH2 0xF75 JUMPI PUSH1 0x0 DUP1 REVERT JUMPDEST DUP1 PUSH4 0xC0246668 GT PUSH2 0x11E JUMPI DUP1 PUSH4 0xC0246668 EQ PUSH2 0xE3E JUMPI DUP1 PUSH4 0xC04A5414 EQ PUSH2 0xE5E JUMPI DUP1 PUSH4 0xDB9F2ED6 EQ PUSH2 0xE7E JUMPI DUP1 PUSH4 0xDC4C7DBC EQ PUSH2 0xE94 JUMPI DUP1 PUSH4 0xDD62ED3E EQ PUSH2 0xEAA JUMPI DUP1 PUSH4 0xE01AF92C EQ PUSH2 0xECA JUMPI PUSH1 0x0 DUP1 REVERT JUMPDEST DUP1 PUSH4 0xAD56C13C EQ PUSH2 0xD29 JUMPI DUP1 PUSH4 0xAED970D5 EQ PUSH2 0xD8E JUMPI DUP1 PUSH4 0xAFA4F3B2 EQ PUSH2 0xDAE JUMPI DUP1 PUSH4 0xB62496F5 EQ PUSH2 0xDCE JUMPI DUP1 PUSH4 0xB6F7F681 EQ PUSH2 0xDFE JUMPI DUP1 PUSH4 0xBB85C6D1 EQ PUSH2 0xE1E JUMPI PUSH1 0x0 DUP1 REVERT JUMPDEST DUP1 PUSH4 0x8DA5CB5B GT PUSH2 0x209 JUMPI DUP1 PUSH4 0xA26579AD GT PUSH2 0x1C2 JUMPI DUP1 PUSH4 0xA26579AD EQ PUSH2 0xC65 JUMPI DUP1 PUSH4 0xA457C2D7 EQ PUSH2 0xC7A JUMPI DUP1 PUSH4 0xA8A69B9D EQ PUSH2 0xC9A JUMPI DUP1 PUSH4 0xA8B9D240 EQ PUSH2 0xCD3 JUMPI DUP1 PUSH4 0xA9059CBB EQ PUSH2 0xCF3 JUMPI DUP1 PUSH4 0xAA4BDE28 EQ PUSH2 0xD13 JUMPI PUSH1 0x0 DUP1 REVERT JUMPDEST DUP1 PUSH4 0x8DA5CB5B EQ PUSH2 0xBBC JUMPI DUP1 PUSH4 0x929F1360 EQ PUSH2 0xBDA JUMPI DUP1 PUSH4 0x95D89B41 EQ PUSH2 0xBFA JUMPI DUP1 PUSH4 0x988BE118 EQ PUSH2 0xC0F JUMPI DUP1 PUSH4 0x9A679CF6 EQ PUSH2 0xC2F JUMPI DUP1 PUSH4 0x9C1B8AF5 EQ PUSH2 0xC4F JUMPI PUSH1 0x0 DUP1 REVERT JUMPDEST DUP1 PUSH4 0x790CA413 GT PUSH2 0x25B JUMPI DUP1 PUSH4 0x790CA413 EQ PUSH2 0xB26 JUMPI DUP1 PUSH4 0x7B3C83B1 EQ PUSH2 0xB3C JUMPI DUP1 PUSH4 0x8129FC1C EQ PUSH2 0xB52 JUMPI DUP1 PUSH4 0x871C128D EQ PUSH2 0xB67 JUMPI DUP1 PUSH4 0x88BDD9BE EQ PUSH2 0xB87 JUMPI DUP1 PUSH4 0x8A8C523C EQ PUSH2 0xBA7 JUMPI PUSH1 0x0 DUP1 REVERT JUMPDEST DUP1 PUSH4 0x700BB191 EQ PUSH2 0xA85 JUMPI DUP1 PUSH4 0x70A08231 EQ PUSH2 0xAA5 JUMPI DUP1 PUSH4 0x715018A6 EQ PUSH2 0xADB JUMPI DUP1 PUSH4 0x75F0A874 EQ PUSH2 0xAF0 JUMPI DUP1 PUSH4 0x768B2A73 EQ PUSH2 0xB10 JUMPI PUSH1 0x0 DUP1 REVERT JUMPDEST DUP1 PUSH4 0x31E79DB0 GT PUSH2 0x3D4 JUMPI DUP1 PUSH4 0x49BD5A5E GT PUSH2 0x346 JUMPI DUP1 PUSH4 0x59136FA5 GT PUSH2 0x2FF JUMPI DUP1 PUSH4 0x59136FA5 EQ PUSH2 0x9EA JUMPI DUP1 PUSH4 0x5FC2E596 EQ PUSH2 0xA00 JUMPI DUP1 PUSH4 0x64B0F653 EQ PUSH2 0xA16 JUMPI DUP1 PUSH4 0x65B8DBC0 EQ PUSH2 0xA2B JUMPI DUP1 PUSH4 0x6843CD84 EQ PUSH2 0xA4B JUMPI DUP1 PUSH4 0x6DDD1713 EQ PUSH2 0xA6B JUMPI PUSH1 0x0 DUP1 REVERT JUMPDEST DUP1 PUSH4 0x49BD5A5E EQ PUSH2 0x91C JUMPI DUP1 PUSH4 0x4ADA218B EQ PUSH2 0x93C JUMPI DUP1 PUSH4 0x4E71D92D EQ PUSH2 0x95C JUMPI DUP1 PUSH4 0x4FBEE193 EQ PUSH2 0x971 JUMPI DUP1 PUSH4 0x5654D0B3 EQ PUSH2 0x9AA JUMPI DUP1 PUSH4 0x56A6CABF EQ PUSH2 0x9CA JUMPI PUSH1 0x0 DUP1 REVERT JUMPDEST DUP1 PUSH4 0x3F249DF0 GT PUSH2 0x398 JUMPI DUP1 PUSH4 0x3F249DF0 EQ PUSH2 0x87C JUMPI DUP1 PUSH4 0x41B37C8E EQ PUSH2 0x89C JUMPI DUP1 PUSH4 0x41EC9942 EQ PUSH2 0x8BC JUMPI DUP1 PUSH4 0x42EFAD2C EQ PUSH2 0x8D2 JUMPI DUP1 PUSH4 0x43807C7F EQ PUSH2 0x8E7 JUMPI DUP1 PUSH4 0x488EB37F EQ PUSH2 0x8FD JUMPI PUSH1 0x0 DUP1 REVERT JUMPDEST DUP1 PUSH4 0x31E79DB0 EQ PUSH2 0x7E6 JUMPI DUP1 PUSH4 0x328B2D9F EQ PUSH2 0x806 JUMPI DUP1 PUSH4 0x35D67DAA EQ PUSH2 0x81C JUMPI DUP1 PUSH4 0x39509351 EQ PUSH2 0x83C JUMPI DUP1 PUSH4 0x3B364DA8 EQ PUSH2 0x85C JUMPI PUSH1 0x0 DUP1 REVERT JUMPDEST DUP1 PUSH4 0x1DAC24D6 GT PUSH2 0x478 JUMPI DUP1 PUSH4 0x2A6C7DBA GT PUSH2 0x431 JUMPI DUP1 PUSH4 0x2A6C7DBA EQ PUSH2 0x745 JUMPI DUP1 PUSH4 0x2BA86BF2 EQ PUSH2 0x765 JUMPI DUP1 PUSH4 0x2C1F5216 EQ PUSH2 0x77F JUMPI DUP1 PUSH4 0x2CE86FBF EQ PUSH2 0x79F JUMPI DUP1 PUSH4 0x30BB4CFF EQ PUSH2 0x7B5 JUMPI DUP1 PUSH4 0x313CE567 EQ PUSH2 0x7CA JUMPI PUSH1 0x0 DUP1 REVERT JUMPDEST DUP1 PUSH4 0x1DAC24D6 EQ PUSH2 0x69F JUMPI DUP1 PUSH4 0x21A9D82A EQ PUSH2 0x6B5 JUMPI DUP1 PUSH4 0x23B872DD EQ PUSH2 0x6CF JUMPI DUP1 PUSH4 0x25ECCA87 EQ PUSH2 0x6EF JUMPI DUP1 PUSH4 0x27A14FC2 EQ PUSH2 0x705 JUMPI DUP1 PUSH4 0x286B3AA0 EQ PUSH2 0x725 JUMPI PUSH1 0x0 DUP1 REVERT JUMPDEST DUP1 PUSH4 0x150C880C GT PUSH2 0x4CA JUMPI DUP1 PUSH4 0x150C880C EQ PUSH2 0x5DB JUMPI DUP1 PUSH4 0x1529FBBF EQ PUSH2 0x5FD JUMPI DUP1 PUSH4 0x1694505E EQ PUSH2 0x617 JUMPI DUP1 PUSH4 0x17700F01 EQ PUSH2 0x63C JUMPI DUP1 PUSH4 0x18160DDD EQ PUSH2 0x651 JUMPI DUP1 PUSH4 0x18D9CEAE EQ PUSH2 0x666 JUMPI PUSH1 0x0 DUP1 REVERT JUMPDEST DUP1 PUSH4 0x105D0FD EQ PUSH2 0x512 JUMPI DUP1 PUSH4 0x2639001 EQ PUSH2 0x53B JUMPI DUP1 PUSH4 0x5452B87 EQ PUSH2 0x573 JUMPI DUP1 PUSH4 0x6FDDE03 EQ PUSH2 0x589 JUMPI DUP1 PUSH4 0x95EA7B3 EQ PUSH2 0x5AB JUMPI PUSH1 0x0 DUP1 REVERT JUMPDEST CALLDATASIZE PUSH2 0x50D JUMPI STOP JUMPDEST PUSH1 0x0 DUP1 REVERT JUMPDEST CALLVALUE DUP1 ISZERO PUSH2 0x51E JUMPI PUSH1 0x0 DUP1 REVERT JUMPDEST POP PUSH2 0x528 PUSH1 0xBA SLOAD DUP2 JUMP JUMPDEST PUSH1 0x40 MLOAD SWAP1 DUP2 MSTORE PUSH1 0x20 ADD JUMPDEST PUSH1 0x40 MLOAD DUP1 SWAP2 SUB SWAP1 RETURN JUMPDEST CALLVALUE DUP1 ISZERO PUSH2 0x547 JUMPI PUSH1 0x0 DUP1 REVERT JUMPDEST POP PUSH1 0xA5 SLOAD PUSH2 0x55B SWAP1 PUSH1 0x1 PUSH1 0x1 PUSH1 0xA0 SHL SUB AND DUP2 JUMP JUMPDEST PUSH1 0x40 MLOAD PUSH1 0x1 PUSH1 0x1 PUSH1 0xA0 SHL SUB SWAP1 SWAP2 AND DUP2 MSTORE PUSH1 0x20 ADD PUSH2 0x532 JUMP JUMPDEST CALLVALUE DUP1 ISZERO PUSH2 0x57F JUMPI PUSH1 0x0 DUP1 REVERT JUMPDEST POP PUSH2 0x528 PUSH1 0x9C SLOAD DUP2 JUMP JUMPDEST CALLVALUE DUP1 ISZERO PUSH2 0x595 JUMPI PUSH1 0x0 DUP1 REVERT JUMPDEST POP PUSH2 0x59E PUSH2 0x1062 JUMP JUMPDEST PUSH1 0x40 MLOAD PUSH2 0x532 SWAP2 SWAP1 PUSH2 0x43B6 JUMP JUMPDEST CALLVALUE DUP1 ISZERO PUSH2 0x5B7 JUMPI PUSH1 0x0 DUP1 REVERT JUMPDEST POP PUSH2 0x5CB PUSH2 0x5C6 CALLDATASIZE PUSH1 0x4 PUSH2 0x4429 JUMP JUMPDEST PUSH2 0x10F4 JUMP JUMPDEST PUSH1 0x40 MLOAD SWAP1 ISZERO ISZERO DUP2 MSTORE PUSH1 0x20 ADD PUSH2 0x532 JUMP JUMPDEST CALLVALUE DUP1 ISZERO PUSH2 0x5E7 JUMPI PUSH1 0x0 DUP1 REVERT JUMPDEST POP PUSH2 0x5FB PUSH2 0x5F6 CALLDATASIZE PUSH1 0x4 PUSH2 0x4463 JUMP JUMPDEST PUSH2 0x110E JUMP JUMPDEST STOP JUMPDEST CALLVALUE DUP1 ISZERO PUSH2 0x609 JUMPI PUSH1 0x0 DUP1 REVERT JUMPDEST POP PUSH1 0xA8 SLOAD PUSH2 0x5CB SWAP1 PUSH1 0xFF AND DUP2 JUMP JUMPDEST CALLVALUE DUP1 ISZERO PUSH2 0x623 JUMPI PUSH1 0x0 DUP1 REVERT JUMPDEST POP PUSH1 0xA8 SLOAD PUSH2 0x55B SWAP1 PUSH2 0x100 SWAP1 DIV PUSH1 0x1 PUSH1 0x1 PUSH1 0xA0 SHL SUB AND DUP2 JUMP JUMPDEST CALLVALUE DUP1 ISZERO PUSH2 0x648 JUMPI PUSH1 0x0 DUP1 REVERT JUMPDEST POP PUSH2 0x5FB PUSH2 0x1176 JUMP JUMPDEST CALLVALUE DUP1 ISZERO PUSH2 0x65D JUMPI PUSH1 0x0 DUP1 REVERT JUMPDEST POP PUSH1 0x35 SLOAD PUSH2 0x528 JUMP JUMPDEST CALLVALUE DUP1 ISZERO PUSH2 0x672 JUMPI PUSH1 0x0 DUP1 REVERT JUMPDEST POP PUSH2 0x5CB PUSH2 0x681 CALLDATASIZE PUSH1 0x4 PUSH2 0x449C JUMP JUMPDEST PUSH1 0x1 PUSH1 0x1 PUSH1 0xA0 SHL SUB AND PUSH1 0x0 SWAP1 DUP2 MSTORE PUSH1 0xB8 PUSH1 0x20 MSTORE PUSH1 0x40 SWAP1 KECCAK256 SLOAD PUSH1 0xFF AND SWAP1 JUMP JUMPDEST CALLVALUE DUP1 ISZERO PUSH2 0x6AB JUMPI PUSH1 0x0 DUP1 REVERT JUMPDEST POP PUSH2 0x528 PUSH1 0x9A SLOAD DUP2 JUMP JUMPDEST CALLVALUE DUP1 ISZERO PUSH2 0x6C1 JUMPI PUSH1 0x0 DUP1 REVERT JUMPDEST POP PUSH1 0xB6 SLOAD PUSH2 0x5CB SWAP1 PUSH1 0xFF AND DUP2 JUMP JUMPDEST CALLVALUE DUP1 ISZERO PUSH2 0x6DB JUMPI PUSH1 0x0 DUP1 REVERT JUMPDEST POP PUSH2 0x5CB PUSH2 0x6EA CALLDATASIZE PUSH1 0x4 PUSH2 0x44C0 JUMP JUMPDEST PUSH2 0x118C JUMP JUMPDEST CALLVALUE DUP1 ISZERO PUSH2 0x6FB JUMPI PUSH1 0x0 DUP1 REVERT JUMPDEST POP PUSH2 0x528 PUSH1 0x99 SLOAD DUP2 JUMP JUMPDEST CALLVALUE DUP1 ISZERO PUSH2 0x711 JUMPI PUSH1 0x0 DUP1 REVERT JUMPDEST POP PUSH2 0x5FB PUSH2 0x720 CALLDATASIZE PUSH1 0x4 PUSH2 0x4501 JUMP JUMPDEST PUSH2 0x11B0 JUMP JUMPDEST CALLVALUE DUP1 ISZERO PUSH2 0x731 JUMPI PUSH1 0x0 DUP1 REVERT JUMPDEST POP PUSH2 0x5FB PUSH2 0x740 CALLDATASIZE PUSH1 0x4 PUSH2 0x4501 JUMP JUMPDEST PUSH2 0x120A JUMP JUMPDEST CALLVALUE DUP1 ISZERO PUSH2 0x751 JUMPI PUSH1 0x0 DUP1 REVERT JUMPDEST POP PUSH2 0x5FB PUSH2 0x760 CALLDATASIZE PUSH1 0x4 PUSH2 0x451A JUMP JUMPDEST PUSH2 0x1274 JUMP JUMPDEST CALLVALUE DUP1 ISZERO PUSH2 0x771 JUMPI PUSH1 0x0 DUP1 REVERT JUMPDEST POP PUSH1 0xB9 SLOAD PUSH2 0x5CB SWAP1 PUSH1 0xFF AND DUP2 JUMP JUMPDEST CALLVALUE DUP1 ISZERO PUSH2 0x78B JUMPI PUSH1 0x0 DUP1 REVERT JUMPDEST POP PUSH1 0xB2 SLOAD PUSH2 0x55B SWAP1 PUSH1 0x1 PUSH1 0x1 PUSH1 0xA0 SHL SUB AND DUP2 JUMP JUMPDEST CALLVALUE DUP1 ISZERO PUSH2 0x7AB JUMPI PUSH1 0x0 DUP1 REVERT JUMPDEST POP PUSH2 0x528 PUSH1 0x9E SLOAD DUP2 JUMP JUMPDEST CALLVALUE DUP1 ISZERO PUSH2 0x7C1 JUMPI PUSH1 0x0 DUP1 REVERT JUMPDEST POP PUSH2 0x528 PUSH2 0x12C3 JUMP JUMPDEST CALLVALUE DUP1 ISZERO PUSH2 0x7D6 JUMPI PUSH1 0x0 DUP1 REVERT JUMPDEST POP PUSH1 0x40 MLOAD PUSH1 0x12 DUP2 MSTORE PUSH1 0x20 ADD PUSH2 0x532 JUMP JUMPDEST CALLVALUE DUP1 ISZERO PUSH2 0x7F2 JUMPI PUSH1 0x0 DUP1 REVERT JUMPDEST POP PUSH2 0x5FB PUSH2 0x801 CALLDATASIZE PUSH1 0x4 PUSH2 0x449C JUMP JUMPDEST PUSH2 0x1336 JUMP JUMPDEST CALLVALUE DUP1 ISZERO PUSH2 0x812 JUMPI PUSH1 0x0 DUP1 REVERT JUMPDEST POP PUSH2 0x528 PUSH1 0x9F SLOAD DUP2 JUMP JUMPDEST CALLVALUE DUP1 ISZERO PUSH2 0x828 JUMPI PUSH1 0x0 DUP1 REVERT JUMPDEST POP PUSH2 0x5FB PUSH2 0x837 CALLDATASIZE PUSH1 0x4 PUSH2 0x449C JUMP JUMPDEST PUSH2 0x1370 JUMP JUMPDEST CALLVALUE DUP1 ISZERO PUSH2 0x848 JUMPI PUSH1 0x0 DUP1 REVERT JUMPDEST POP PUSH2 0x5CB PUSH2 0x857 CALLDATASIZE PUSH1 0x4 PUSH2 0x4429 JUMP JUMPDEST PUSH2 0x13C6 JUMP JUMPDEST CALLVALUE DUP1 ISZERO PUSH2 0x868 JUMPI PUSH1 0x0 DUP1 REVERT JUMPDEST POP PUSH2 0x5FB PUSH2 0x877 CALLDATASIZE PUSH1 0x4 PUSH2 0x4501 JUMP JUMPDEST PUSH2 0x13E8 JUMP JUMPDEST CALLVALUE DUP1 ISZERO PUSH2 0x888 JUMPI PUSH1 0x0 DUP1 REVERT JUMPDEST POP PUSH2 0x5FB PUSH2 0x897 CALLDATASIZE PUSH1 0x4 PUSH2 0x449C JUMP JUMPDEST PUSH2 0x1421 JUMP JUMPDEST CALLVALUE DUP1 ISZERO PUSH2 0x8A8 JUMPI PUSH1 0x0 DUP1 REVERT JUMPDEST POP PUSH2 0x5FB PUSH2 0x8B7 CALLDATASIZE PUSH1 0x4 PUSH2 0x454D JUMP JUMPDEST PUSH2 0x14A4 JUMP JUMPDEST CALLVALUE DUP1 ISZERO PUSH2 0x8C8 JUMPI PUSH1 0x0 DUP1 REVERT JUMPDEST POP PUSH2 0x528 PUSH1 0xA7 SLOAD DUP2 JUMP JUMPDEST CALLVALUE DUP1 ISZERO PUSH2 0x8DE JUMPI PUSH1 0x0 DUP1 REVERT JUMPDEST POP PUSH2 0x5FB PUSH2 0x155B JUMP JUMPDEST CALLVALUE DUP1 ISZERO PUSH2 0x8F3 JUMPI PUSH1 0x0 DUP1 REVERT JUMPDEST POP PUSH2 0x528 PUSH1 0xA0 SLOAD DUP2 JUMP JUMPDEST CALLVALUE DUP1 ISZERO PUSH2 0x909 JUMPI PUSH1 0x0 DUP1 REVERT JUMPDEST POP PUSH1 0xAC SLOAD PUSH2 0x5CB SWAP1 PUSH2 0x100 SWAP1 DIV PUSH1 0xFF AND DUP2 JUMP JUMPDEST CALLVALUE DUP1 ISZERO PUSH2 0x928 JUMPI PUSH1 0x0 DUP1 REVERT JUMPDEST POP PUSH1 0xA9 SLOAD PUSH2 0x55B SWAP1 PUSH1 0x1 PUSH1 0x1 PUSH1 0xA0 SHL SUB AND DUP2 JUMP JUMPDEST CALLVALUE DUP1 ISZERO PUSH2 0x948 JUMPI PUSH1 0x0 DUP1 REVERT JUMPDEST POP PUSH1 0xAC SLOAD PUSH2 0x5CB SWAP1 PUSH3 0x10000 SWAP1 DIV PUSH1 0xFF AND DUP2 JUMP JUMPDEST CALLVALUE DUP1 ISZERO PUSH2 0x968 JUMPI PUSH1 0x0 DUP1 REVERT JUMPDEST POP PUSH2 0x5FB PUSH2 0x157A JUMP JUMPDEST CALLVALUE DUP1 ISZERO PUSH2 0x97D JUMPI PUSH1 0x0 DUP1 REVERT JUMPDEST POP PUSH2 0x5CB PUSH2 0x98C CALLDATASIZE PUSH1 0x4 PUSH2 0x449C JUMP JUMPDEST PUSH1 0x1 PUSH1 0x1 PUSH1 0xA0 SHL SUB AND PUSH1 0x0 SWAP1 DUP2 MSTORE PUSH1 0xAF PUSH1 0x20 MSTORE PUSH1 0x40 SWAP1 KECCAK256 SLOAD PUSH1 0xFF AND SWAP1 JUMP JUMPDEST CALLVALUE DUP1 ISZERO PUSH2 0x9B6 JUMPI PUSH1 0x0 DUP1 REVERT JUMPDEST POP PUSH2 0x5FB PUSH2 0x9C5 CALLDATASIZE PUSH1 0x4 PUSH2 0x451A JUMP JUMPDEST PUSH2 0x15F2 JUMP JUMPDEST CALLVALUE DUP1 ISZERO PUSH2 0x9D6 JUMPI PUSH1 0x0 DUP1 REVERT JUMPDEST POP PUSH2 0x5FB PUSH2 0x9E5 CALLDATASIZE PUSH1 0x4 PUSH2 0x451A JUMP JUMPDEST PUSH2 0x160D JUMP JUMPDEST CALLVALUE DUP1 ISZERO PUSH2 0x9F6 JUMPI PUSH1 0x0 DUP1 REVERT JUMPDEST POP PUSH2 0x528 PUSH1 0xBB SLOAD DUP2 JUMP JUMPDEST CALLVALUE DUP1 ISZERO PUSH2 0xA0C JUMPI PUSH1 0x0 DUP1 REVERT JUMPDEST POP PUSH2 0x528 PUSH1 0x97 SLOAD DUP2 JUMP JUMPDEST CALLVALUE DUP1 ISZERO PUSH2 0xA22 JUMPI PUSH1 0x0 DUP1 REVERT JUMPDEST POP PUSH2 0x528 PUSH2 0x165C JUMP JUMPDEST CALLVALUE DUP1 ISZERO PUSH2 0xA37 JUMPI PUSH1 0x0 DUP1 REVERT JUMPDEST POP PUSH2 0x5FB PUSH2 0xA46 CALLDATASIZE PUSH1 0x4 PUSH2 0x449C JUMP JUMPDEST PUSH2 0x16A6 JUMP JUMPDEST CALLVALUE DUP1 ISZERO PUSH2 0xA57 JUMPI PUSH1 0x0 DUP1 REVERT JUMPDEST POP PUSH2 0x528 PUSH2 0xA66 CALLDATASIZE PUSH1 0x4 PUSH2 0x449C JUMP JUMPDEST PUSH2 0x18A9 JUMP JUMPDEST CALLVALUE DUP1 ISZERO PUSH2 0xA77 JUMPI PUSH1 0x0 DUP1 REVERT JUMPDEST POP PUSH1 0xAC SLOAD PUSH2 0x5CB SWAP1 PUSH1 0xFF AND DUP2 JUMP JUMPDEST CALLVALUE DUP1 ISZERO PUSH2 0xA91 JUMPI PUSH1 0x0 DUP1 REVERT JUMPDEST POP PUSH2 0x5FB PUSH2 0xAA0 CALLDATASIZE PUSH1 0x4 PUSH2 0x4501 JUMP JUMPDEST PUSH2 0x1919 JUMP JUMPDEST CALLVALUE DUP1 ISZERO PUSH2 0xAB1 JUMPI PUSH1 0x0 DUP1 REVERT JUMPDEST POP PUSH2 0x528 PUSH2 0xAC0 CALLDATASIZE PUSH1 0x4 PUSH2 0x449C JUMP JUMPDEST PUSH1 0x1 PUSH1 0x1 PUSH1 0xA0 SHL SUB AND PUSH1 0x0 SWAP1 DUP2 MSTORE PUSH1 0x33 PUSH1 0x20 MSTORE PUSH1 0x40 SWAP1 KECCAK256 SLOAD SWAP1 JUMP JUMPDEST CALLVALUE DUP1 ISZERO PUSH2 0xAE7 JUMPI PUSH1 0x0 DUP1 REVERT JUMPDEST POP PUSH2 0x5FB PUSH2 0x19EB JUMP JUMPDEST CALLVALUE DUP1 ISZERO PUSH2 0xAFC JUMPI PUSH1 0x0 DUP1 REVERT JUMPDEST POP PUSH1 0xA3 SLOAD PUSH2 0x55B SWAP1 PUSH1 0x1 PUSH1 0x1 PUSH1 0xA0 SHL SUB AND DUP2 JUMP JUMPDEST CALLVALUE DUP1 ISZERO PUSH2 0xB1C JUMPI PUSH1 0x0 DUP1 REVERT JUMPDEST POP PUSH2 0x528 PUSH1 0x9B SLOAD DUP2 JUMP JUMPDEST CALLVALUE DUP1 ISZERO PUSH2 0xB32 JUMPI PUSH1 0x0 DUP1 REVERT JUMPDEST POP PUSH2 0x528 PUSH1 0xAD SLOAD DUP2 JUMP JUMPDEST CALLVALUE DUP1 ISZERO PUSH2 0xB48 JUMPI PUSH1 0x0 DUP1 REVERT JUMPDEST POP PUSH2 0x528 PUSH1 0x9D SLOAD DUP2 JUMP JUMPDEST CALLVALUE DUP1 ISZERO PUSH2 0xB5E JUMPI PUSH1 0x0 DUP1 REVERT JUMPDEST POP PUSH2 0x5FB PUSH2 0x19FF JUMP JUMPDEST CALLVALUE DUP1 ISZERO PUSH2 0xB73 JUMPI PUSH1 0x0 DUP1 REVERT JUMPDEST POP PUSH2 0x5FB PUSH2 0xB82 CALLDATASIZE PUSH1 0x4 PUSH2 0x4501 JUMP JUMPDEST PUSH2 0x2059 JUMP JUMPDEST CALLVALUE DUP1 ISZERO PUSH2 0xB93 JUMPI PUSH1 0x0 DUP1 REVERT JUMPDEST POP PUSH2 0x5FB PUSH2 0xBA2 CALLDATASIZE PUSH1 0x4 PUSH2 0x449C JUMP JUMPDEST PUSH2 0x2094 JUMP JUMPDEST CALLVALUE DUP1 ISZERO PUSH2 0xBB3 JUMPI PUSH1 0x0 DUP1 REVERT JUMPDEST POP PUSH2 0x5FB PUSH2 0x23BD JUMP JUMPDEST CALLVALUE DUP1 ISZERO PUSH2 0xBC8 JUMPI PUSH1 0x0 DUP1 REVERT JUMPDEST POP PUSH1 0x65 SLOAD PUSH1 0x1 PUSH1 0x1 PUSH1 0xA0 SHL SUB AND PUSH2 0x55B JUMP JUMPDEST CALLVALUE DUP1 ISZERO PUSH2 0xBE6 JUMPI PUSH1 0x0 DUP1 REVERT JUMPDEST POP PUSH2 0x5FB PUSH2 0xBF5 CALLDATASIZE PUSH1 0x4 PUSH2 0x4463 JUMP JUMPDEST PUSH2 0x23D8 JUMP JUMPDEST CALLVALUE DUP1 ISZERO PUSH2 0xC06 JUMPI PUSH1 0x0 DUP1 REVERT JUMPDEST POP PUSH2 0x59E PUSH2 0x2438 JUMP JUMPDEST CALLVALUE DUP1 ISZERO PUSH2 0xC1B JUMPI PUSH1 0x0 DUP1 REVERT JUMPDEST POP PUSH2 0x5FB PUSH2 0xC2A CALLDATASIZE PUSH1 0x4 PUSH2 0x451A JUMP JUMPDEST PUSH2 0x2447 JUMP JUMPDEST CALLVALUE DUP1 ISZERO PUSH2 0xC3B JUMPI PUSH1 0x0 DUP1 REVERT JUMPDEST POP PUSH2 0x5FB PUSH2 0xC4A CALLDATASIZE PUSH1 0x4 PUSH2 0x449C JUMP JUMPDEST PUSH2 0x2469 JUMP JUMPDEST CALLVALUE DUP1 ISZERO PUSH2 0xC5B JUMPI PUSH1 0x0 DUP1 REVERT JUMPDEST POP PUSH2 0x528 PUSH1 0xB4 SLOAD DUP2 JUMP JUMPDEST CALLVALUE DUP1 ISZERO PUSH2 0xC71 JUMPI PUSH1 0x0 DUP1 REVERT JUMPDEST POP PUSH2 0x528 PUSH2 0x24BF JUMP JUMPDEST CALLVALUE DUP1 ISZERO PUSH2 0xC86 JUMPI PUSH1 0x0 DUP1 REVERT JUMPDEST POP PUSH2 0x5CB PUSH2 0xC95 CALLDATASIZE PUSH1 0x4 PUSH2 0x4429 JUMP JUMPDEST PUSH2 0x2509 JUMP JUMPDEST CALLVALUE DUP1 ISZERO PUSH2 0xCA6 JUMPI PUSH1 0x0 DUP1 REVERT JUMPDEST POP PUSH2 0x5CB PUSH2 0xCB5 CALLDATASIZE PUSH1 0x4 PUSH2 0x449C JUMP JUMPDEST PUSH1 0x1 PUSH1 0x1 PUSH1 0xA0 SHL SUB AND PUSH1 0x0 SWAP1 DUP2 MSTORE PUSH1 0xB5 PUSH1 0x20 MSTORE PUSH1 0x40 SWAP1 KECCAK256 SLOAD PUSH1 0xFF AND SWAP1 JUMP JUMPDEST CALLVALUE DUP1 ISZERO PUSH2 0xCDF JUMPI PUSH1 0x0 DUP1 REVERT JUMPDEST POP PUSH2 0x528 PUSH2 0xCEE CALLDATASIZE PUSH1 0x4 PUSH2 0x449C JUMP JUMPDEST PUSH2 0x2584 JUMP JUMPDEST CALLVALUE DUP1 ISZERO PUSH2 0xCFF JUMPI PUSH1 0x0 DUP1 REVERT JUMPDEST POP PUSH2 0x5CB PUSH2 0xD0E CALLDATASIZE PUSH1 0x4 PUSH2 0x4429 JUMP JUMPDEST PUSH2 0x25B7 JUMP JUMPDEST CALLVALUE DUP1 ISZERO PUSH2 0xD1F JUMPI PUSH1 0x0 DUP1 REVERT JUMPDEST POP PUSH2 0x528 PUSH1 0xB7 SLOAD DUP2 JUMP JUMPDEST CALLVALUE DUP1 ISZERO PUSH2 0xD35 JUMPI PUSH1 0x0 DUP1 REVERT JUMPDEST POP PUSH2 0xD49 PUSH2 0xD44 CALLDATASIZE PUSH1 0x4 PUSH2 0x449C JUMP JUMPDEST PUSH2 0x25C5 JUMP JUMPDEST PUSH1 0x40 DUP1 MLOAD PUSH1 0x1 PUSH1 0x1 PUSH1 0xA0 SHL SUB SWAP1 SWAP10 AND DUP10 MSTORE PUSH1 0x20 DUP10 ADD SWAP8 SWAP1 SWAP8 MSTORE SWAP6 DUP8 ADD SWAP5 SWAP1 SWAP5 MSTORE PUSH1 0x60 DUP7 ADD SWAP3 SWAP1 SWAP3 MSTORE PUSH1 0x80 DUP6 ADD MSTORE PUSH1 0xA0 DUP5 ADD MSTORE PUSH1 0xC0 DUP4 ADD MSTORE PUSH1 0xE0 DUP3 ADD MSTORE PUSH2 0x100 ADD PUSH2 0x532 JUMP JUMPDEST CALLVALUE DUP1 ISZERO PUSH2 0xD9A JUMPI PUSH1 0x0 DUP1 REVERT JUMPDEST POP PUSH2 0x5FB PUSH2 0xDA9 CALLDATASIZE PUSH1 0x4 PUSH2 0x4501 JUMP JUMPDEST PUSH2 0x2660 JUMP JUMPDEST CALLVALUE DUP1 ISZERO PUSH2 0xDBA JUMPI PUSH1 0x0 DUP1 REVERT JUMPDEST POP PUSH2 0x5FB PUSH2 0xDC9 CALLDATASIZE PUSH1 0x4 PUSH2 0x4501 JUMP JUMPDEST PUSH2 0x266D JUMP JUMPDEST CALLVALUE DUP1 ISZERO PUSH2 0xDDA JUMPI PUSH1 0x0 DUP1 REVERT JUMPDEST POP PUSH2 0x5CB PUSH2 0xDE9 CALLDATASIZE PUSH1 0x4 PUSH2 0x449C JUMP JUMPDEST PUSH1 0xB0 PUSH1 0x20 MSTORE PUSH1 0x0 SWAP1 DUP2 MSTORE PUSH1 0x40 SWAP1 KECCAK256 SLOAD PUSH1 0xFF AND DUP2 JUMP JUMPDEST CALLVALUE DUP1 ISZERO PUSH2 0xE0A JUMPI PUSH1 0x0 DUP1 REVERT JUMPDEST POP PUSH2 0x5FB PUSH2 0xE19 CALLDATASIZE PUSH1 0x4 PUSH2 0x4618 JUMP JUMPDEST PUSH2 0x267A JUMP JUMPDEST CALLVALUE DUP1 ISZERO PUSH2 0xE2A JUMPI PUSH1 0x0 DUP1 REVERT JUMPDEST POP PUSH2 0x5FB PUSH2 0xE39 CALLDATASIZE PUSH1 0x4 PUSH2 0x449C JUMP JUMPDEST PUSH2 0x26FB JUMP JUMPDEST CALLVALUE DUP1 ISZERO PUSH2 0xE4A JUMPI PUSH1 0x0 DUP1 REVERT JUMPDEST POP PUSH2 0x5FB PUSH2 0xE59 CALLDATASIZE PUSH1 0x4 PUSH2 0x4463 JUMP JUMPDEST PUSH2 0x27BB JUMP JUMPDEST CALLVALUE DUP1 ISZERO PUSH2 0xE6A JUMPI PUSH1 0x0 DUP1 REVERT JUMPDEST POP PUSH1 0xA4 SLOAD PUSH2 0x55B SWAP1 PUSH1 0x1 PUSH1 0x1 PUSH1 0xA0 SHL SUB AND DUP2 JUMP JUMPDEST CALLVALUE DUP1 ISZERO PUSH2 0xE8A JUMPI PUSH1 0x0 DUP1 REVERT JUMPDEST POP PUSH2 0x528 PUSH1 0xA6 SLOAD DUP2 JUMP JUMPDEST CALLVALUE DUP1 ISZERO PUSH2 0xEA0 JUMPI PUSH1 0x0 DUP1 REVERT JUMPDEST POP PUSH2 0x528 PUSH1 0x98 SLOAD DUP2 JUMP JUMPDEST CALLVALUE DUP1 ISZERO PUSH2 0xEB6 JUMPI PUSH1 0x0 DUP1 REVERT JUMPDEST POP PUSH2 0x528 PUSH2 0xEC5 CALLDATASIZE PUSH1 0x4 PUSH2 0x463A JUMP JUMPDEST PUSH2 0x281B JUMP JUMPDEST CALLVALUE DUP1 ISZERO PUSH2 0xED6 JUMPI PUSH1 0x0 DUP1 REVERT JUMPDEST POP PUSH2 0x5FB PUSH2 0xEE5 CALLDATASIZE PUSH1 0x4 PUSH2 0x451A JUMP JUMPDEST PUSH2 0x2846 JUMP JUMPDEST CALLVALUE DUP1 ISZERO PUSH2 0xEF6 JUMPI PUSH1 0x0 DUP1 REVERT JUMPDEST POP PUSH2 0x528 PUSH1 0xAB SLOAD DUP2 JUMP JUMPDEST CALLVALUE DUP1 ISZERO PUSH2 0xF0C JUMPI PUSH1 0x0 DUP1 REVERT JUMPDEST POP PUSH2 0x528 PUSH2 0xF1B CALLDATASIZE PUSH1 0x4 PUSH2 0x449C JUMP JUMPDEST PUSH2 0x2861 JUMP JUMPDEST CALLVALUE DUP1 ISZERO PUSH2 0xF2C JUMPI PUSH1 0x0 DUP1 REVERT JUMPDEST POP PUSH2 0x528 PUSH2 0x2894 JUMP JUMPDEST CALLVALUE DUP1 ISZERO PUSH2 0xF41 JUMPI PUSH1 0x0 DUP1 REVERT JUMPDEST POP PUSH2 0x5FB PUSH2 0xF50 CALLDATASIZE PUSH1 0x4 PUSH2 0x4501 JUMP JUMPDEST PUSH2 0x28DE JUMP JUMPDEST CALLVALUE DUP1 ISZERO PUSH2 0xF61 JUMPI PUSH1 0x0 DUP1 REVERT JUMPDEST POP PUSH2 0x5FB PUSH2 0xF70 CALLDATASIZE PUSH1 0x4 PUSH2 0x4668 JUMP JUMPDEST PUSH2 0x2917 JUMP JUMPDEST CALLVALUE DUP1 ISZERO PUSH2 0xF81 JUMPI PUSH1 0x0 DUP1 REVERT JUMPDEST POP PUSH2 0xD49 PUSH2 0xF90 CALLDATASIZE PUSH1 0x4 PUSH2 0x4501 JUMP JUMPDEST PUSH2 0x2A38 JUMP JUMPDEST CALLVALUE DUP1 ISZERO PUSH2 0xFA1 JUMPI PUSH1 0x0 DUP1 REVERT JUMPDEST POP PUSH2 0x5FB PUSH2 0xFB0 CALLDATASIZE PUSH1 0x4 PUSH2 0x451A JUMP JUMPDEST PUSH2 0x2A7A JUMP JUMPDEST CALLVALUE DUP1 ISZERO PUSH2 0xFC1 JUMPI PUSH1 0x0 DUP1 REVERT JUMPDEST POP PUSH2 0x5FB PUSH2 0xFD0 CALLDATASIZE PUSH1 0x4 PUSH2 0x449C JUMP JUMPDEST PUSH2 0x2A95 JUMP JUMPDEST CALLVALUE DUP1 ISZERO PUSH2 0xFE1 JUMPI PUSH1 0x0 DUP1 REVERT JUMPDEST POP PUSH1 0xB3 SLOAD PUSH2 0x55B SWAP1 PUSH1 0x1 PUSH1 0x1 PUSH1 0xA0 SHL SUB AND DUP2 JUMP JUMPDEST CALLVALUE DUP1 ISZERO PUSH2 0x1001 JUMPI PUSH1 0x0 DUP1 REVERT JUMPDEST POP PUSH2 0x528 PUSH2 0x1010 CALLDATASIZE PUSH1 0x4 PUSH2 0x449C JUMP JUMPDEST PUSH1 0xB1 PUSH1 0x20 MSTORE PUSH1 0x0 SWAP1 DUP2 MSTORE PUSH1 0x40 SWAP1 KECCAK256 SLOAD DUP2 JUMP JUMPDEST CALLVALUE DUP1 ISZERO PUSH2 0x102E JUMPI PUSH1 0x0 DUP1 REVERT JUMPDEST POP PUSH2 0x5FB PUSH2 0x103D CALLDATASIZE PUSH1 0x4 PUSH2 0x449C JUMP JUMPDEST PUSH2 0x2B0B JUMP JUMPDEST CALLVALUE DUP1 ISZERO PUSH2 0x104E JUMPI PUSH1 0x0 DUP1 REVERT JUMPDEST POP PUSH2 0x5FB PUSH2 0x105D CALLDATASIZE PUSH1 0x4 PUSH2 0x4668 JUMP JUMPDEST PUSH2 0x2C3D JUMP JUMPDEST PUSH1 0x60 PUSH1 0x36 DUP1 SLOAD PUSH2 0x1071 SWAP1 PUSH2 0x46A3 JUMP JUMPDEST DUP1 PUSH1 0x1F ADD PUSH1 0x20 DUP1 SWAP2 DIV MUL PUSH1 0x20 ADD PUSH1 0x40 MLOAD SWAP1 DUP2 ADD PUSH1 0x40 MSTORE DUP1 SWAP3 SWAP2 SWAP1 DUP2 DUP2 MSTORE PUSH1 0x20 ADD DUP3 DUP1 SLOAD PUSH2 0x109D SWAP1 PUSH2 0x46A3 JUMP JUMPDEST DUP1 ISZERO PUSH2 0x10EA JUMPI DUP1 PUSH1 0x1F LT PUSH2 0x10BF JUMPI PUSH2 0x100 DUP1 DUP4 SLOAD DIV MUL DUP4 MSTORE SWAP2 PUSH1 0x20 ADD SWAP2 PUSH2 0x10EA JUMP JUMPDEST DUP3 ADD SWAP2 SWAP1 PUSH1 0x0 MSTORE PUSH1 0x20 PUSH1 0x0 KECCAK256 SWAP1 JUMPDEST DUP2 SLOAD DUP2 MSTORE SWAP1 PUSH1 0x1 ADD SWAP1 PUSH1 0x20 ADD DUP1 DUP4 GT PUSH2 0x10CD JUMPI DUP3 SWAP1 SUB PUSH1 0x1F AND DUP3 ADD SWAP2 JUMPDEST POP POP POP POP POP SWAP1 POP SWAP1 JUMP JUMPDEST PUSH1 0x0 CALLER PUSH2 0x1102 DUP2 DUP6 DUP6 PUSH2 0x2D53 JUMP JUMPDEST PUSH1 0x1 SWAP2 POP POP JUMPDEST SWAP3 SWAP2 POP POP JUMP JUMPDEST PUSH2 0x1116 PUSH2 0x2E77 JUMP JUMPDEST PUSH1 0x1 PUSH1 0x1 PUSH1 0xA0 SHL SUB DUP3 AND PUSH1 0x0 DUP2 DUP2 MSTORE PUSH1 0xB8 PUSH1 0x20 SWAP1 DUP2 MSTORE PUSH1 0x40 SWAP2 DUP3 SWAP1 KECCAK256 DUP1 SLOAD PUSH1 0xFF NOT AND DUP6 ISZERO ISZERO SWAP1 DUP2 OR SWAP1 SWAP2 SSTORE SWAP2 MLOAD SWAP2 DUP3 MSTORE PUSH32 0x8727C4AFE988887760E8DB0BBAD9F9FCCEEE6428545956832F67C8FDBD589C10 SWAP2 ADD JUMPDEST PUSH1 0x40 MLOAD DUP1 SWAP2 SUB SWAP1 LOG2 POP POP JUMP JUMPDEST PUSH2 0x117E PUSH2 0x2E77 JUMP JUMPDEST PUSH1 0xAC DUP1 SLOAD PUSH3 0xFF0000 NOT AND SWAP1 SSTORE JUMP JUMPDEST PUSH1 0x0 CALLER PUSH2 0x119A DUP6 DUP3 DUP6 PUSH2 0x2ED1 JUMP JUMPDEST PUSH2 0x11A5 DUP6 DUP6 DUP6 PUSH2 0x2F45 JUMP JUMPDEST POP PUSH1 0x1 SWAP5 SWAP4 POP POP POP POP JUMP JUMPDEST PUSH2 0x11B8 PUSH2 0x2E77 JUMP JUMPDEST PUSH2 0x11C4 PUSH1 0x12 PUSH1 0xA PUSH2 0x47D7 JUMP JUMPDEST PUSH2 0x11CE SWAP1 DUP3 PUSH2 0x47E6 JUMP JUMPDEST PUSH1 0xB7 DUP2 SWAP1 SSTORE PUSH1 0x40 MLOAD SWAP1 DUP2 MSTORE PUSH32 0x21BC0EA3406ACB92D4449AB33BEFB4AE82F873A22F3B6CF0E466B2710BEB5942 SWAP1 PUSH1 0x20 ADD JUMPDEST PUSH1 0x40 MLOAD DUP1 SWAP2 SUB SWAP1 LOG1 POP JUMP JUMPDEST PUSH2 0x1212 PUSH2 0x2E77 JUMP JUMPDEST PUSH1 0xB2 SLOAD PUSH1 0x40 MLOAD PUSH4 0x14359D5 PUSH1 0xE5 SHL DUP2 MSTORE PUSH1 0x4 DUP2 ADD DUP4 SWAP1 MSTORE PUSH1 0x1 PUSH1 0x1 PUSH1 0xA0 SHL SUB SWAP1 SWAP2 AND SWAP1 PUSH4 0x286B3AA0 SWAP1 PUSH1 0x24 ADD JUMPDEST PUSH1 0x0 PUSH1 0x40 MLOAD DUP1 DUP4 SUB DUP2 PUSH1 0x0 DUP8 DUP1 EXTCODESIZE ISZERO DUP1 ISZERO PUSH2 0x1259 JUMPI PUSH1 0x0 DUP1 REVERT JUMPDEST POP GAS CALL ISZERO DUP1 ISZERO PUSH2 0x126D JUMPI RETURNDATASIZE PUSH1 0x0 DUP1 RETURNDATACOPY RETURNDATASIZE PUSH1 0x0 REVERT JUMPDEST POP POP POP POP POP JUMP JUMPDEST PUSH2 0x127C PUSH2 0x2E77 JUMP JUMPDEST PUSH1 0xB6 DUP1 SLOAD PUSH1 0xFF NOT AND DUP3 ISZERO ISZERO SWAP1 DUP2 OR SWAP1 SWAP2 SSTORE PUSH1 0x40 MLOAD PUSH1 0xFF SWAP1 SWAP2 AND ISZERO ISZERO DUP2 MSTORE PUSH32 0x670F884265ABA2D05E7C26EFBC42F8365EFFC4CB3FCFCEFDDBA0C0B71A6231F1 SWAP1 PUSH1 0x20 ADD PUSH2 0x11FF JUMP JUMPDEST PUSH1 0xB2 SLOAD PUSH1 0x40 DUP1 MLOAD PUSH4 0x42D359D7 PUSH1 0xE1 SHL DUP2 MSTORE SWAP1 MLOAD PUSH1 0x0 SWAP3 PUSH1 0x1 PUSH1 0x1 PUSH1 0xA0 SHL SUB AND SWAP2 PUSH4 0x85A6B3AE SWAP2 PUSH1 0x4 DUP1 DUP4 ADD SWAP3 PUSH1 0x20 SWAP3 SWAP2 SWAP1 DUP3 SWAP1 SUB ADD DUP2 DUP7 GAS STATICCALL ISZERO DUP1 ISZERO PUSH2 0x130D JUMPI RETURNDATASIZE PUSH1 0x0 DUP1 RETURNDATACOPY RETURNDATASIZE PUSH1 0x0 REVERT JUMPDEST POP POP POP POP PUSH1 0x40 MLOAD RETURNDATASIZE PUSH1 0x1F NOT PUSH1 0x1F DUP3 ADD AND DUP3 ADD DUP1 PUSH1 0x40 MSTORE POP DUP2 ADD SWAP1 PUSH2 0x1331 SWAP2 SWAP1 PUSH2 0x47FD JUMP JUMPDEST SWAP1 POP SWAP1 JUMP JUMPDEST PUSH2 0x133E PUSH2 0x2E77 JUMP JUMPDEST PUSH1 0xB2 SLOAD PUSH1 0x40 MLOAD PUSH4 0x31E79DB PUSH1 0xE4 SHL DUP2 MSTORE PUSH1 0x1 PUSH1 0x1 PUSH1 0xA0 SHL SUB DUP4 DUP2 AND PUSH1 0x4 DUP4 ADD MSTORE SWAP1 SWAP2 AND SWAP1 PUSH4 0x31E79DB0 SWAP1 PUSH1 0x24 ADD PUSH2 0x123F JUMP JUMPDEST PUSH2 0x1378 PUSH2 0x2E77 JUMP JUMPDEST PUSH1 0xA5 DUP1 SLOAD PUSH1 0x1 PUSH1 0x1 PUSH1 0xA0 SHL SUB NOT AND PUSH1 0x1 PUSH1 0x1 PUSH1 0xA0 SHL SUB DUP4 AND SWAP1 DUP2 OR SWAP1 SWAP2 SSTORE PUSH1 0x40 MLOAD SWAP1 DUP2 MSTORE PUSH32 0x2302FD511D668344736BDE27F680D547A4C58E1169B9B22E24941082667F43F9 SWAP1 PUSH1 0x20 ADD PUSH2 0x11FF JUMP JUMPDEST PUSH1 0x0 CALLER PUSH2 0x1102 DUP2 DUP6 DUP6 PUSH2 0x13D9 DUP4 DUP4 PUSH2 0x281B JUMP JUMPDEST PUSH2 0x13E3 SWAP2 SWAP1 PUSH2 0x4816 JUMP JUMPDEST PUSH2 0x2D53 JUMP JUMPDEST PUSH2 0x13F0 PUSH2 0x2E77 JUMP JUMPDEST PUSH1 0xB2 SLOAD PUSH1 0x40 MLOAD PUSH4 0xDCB2E89 PUSH1 0xE0 SHL DUP2 MSTORE PUSH1 0x4 DUP2 ADD DUP4 SWAP1 MSTORE PUSH1 0x1 PUSH1 0x1 PUSH1 0xA0 SHL SUB SWAP1 SWAP2 AND SWAP1 PUSH4 0xDCB2E89 SWAP1 PUSH1 0x24 ADD PUSH2 0x123F JUMP JUMPDEST PUSH2 0x1429 PUSH2 0x2E77 JUMP JUMPDEST PUSH1 0xB2 SLOAD PUSH1 0x40 MLOAD PUSH4 0xBC4C4B37 PUSH1 0xE0 SHL DUP2 MSTORE PUSH1 0x1 PUSH1 0x1 PUSH1 0xA0 SHL SUB DUP4 DUP2 AND PUSH1 0x4 DUP4 ADD MSTORE PUSH1 0x0 PUSH1 0x24 DUP4 ADD MSTORE SWAP1 SWAP2 AND SWAP1 PUSH4 0xBC4C4B37 SWAP1 PUSH1 0x44 ADD PUSH1 0x20 PUSH1 0x40 MLOAD DUP1 DUP4 SUB DUP2 PUSH1 0x0 DUP8 GAS CALL ISZERO DUP1 ISZERO PUSH2 0x147C JUMPI RETURNDATASIZE PUSH1 0x0 DUP1 RETURNDATACOPY RETURNDATASIZE PUSH1 0x0 REVERT JUMPDEST POP POP POP POP PUSH1 0x40 MLOAD RETURNDATASIZE PUSH1 0x1F NOT PUSH1 0x1F DUP3 ADD AND DUP3 ADD DUP1 PUSH1 0x40 MSTORE POP DUP2 ADD SWAP1 PUSH2 0x14A0 SWAP2 SWAP1 PUSH2 0x4829 JUMP JUMPDEST POP POP JUMP JUMPDEST PUSH2 0x14AC PUSH2 0x2E77 JUMP JUMPDEST PUSH1 0x64 DUP2 GT ISZERO PUSH2 0x14F4 JUMPI PUSH1 0x40 MLOAD PUSH3 0x461BCD PUSH1 0xE5 SHL DUP2 MSTORE PUSH1 0x20 PUSH1 0x4 DUP3 ADD MSTORE PUSH1 0xF PUSH1 0x24 DUP3 ADD MSTORE PUSH15 0x8CCACA40D2E640E8DEDE40D0D2CED PUSH1 0x8B SHL PUSH1 0x44 DUP3 ADD MSTORE PUSH1 0x64 ADD JUMPDEST PUSH1 0x40 MLOAD DUP1 SWAP2 SUB SWAP1 REVERT JUMPDEST PUSH1 0x0 JUMPDEST DUP3 MLOAD DUP2 LT ISZERO PUSH2 0x1556 JUMPI DUP2 PUSH1 0xB1 PUSH1 0x0 DUP6 DUP5 DUP2 MLOAD DUP2 LT PUSH2 0x1517 JUMPI PUSH2 0x1517 PUSH2 0x4846 JUMP JUMPDEST PUSH1 0x20 MUL PUSH1 0x20 ADD ADD MLOAD PUSH1 0x1 PUSH1 0x1 PUSH1 0xA0 SHL SUB AND PUSH1 0x1 PUSH1 0x1 PUSH1 0xA0 SHL SUB AND DUP2 MSTORE PUSH1 0x20 ADD SWAP1 DUP2 MSTORE PUSH1 0x20 ADD PUSH1 0x0 KECCAK256 DUP2 SWAP1 SSTORE POP DUP1 DUP1 PUSH2 0x154E SWAP1 PUSH2 0x485C JUMP JUMPDEST SWAP2 POP POP PUSH2 0x14F7 JUMP JUMPDEST POP POP POP JUMP JUMPDEST PUSH2 0x1563 PUSH2 0x2E77 JUMP JUMPDEST TIMESTAMP PUSH1 0xAD SSTORE PUSH1 0xAC DUP1 SLOAD PUSH3 0xFF0000 NOT AND PUSH3 0x10000 OR SWAP1 SSTORE JUMP JUMPDEST PUSH1 0xB2 SLOAD PUSH1 0x40 MLOAD PUSH4 0xBC4C4B37 PUSH1 0xE0 SHL DUP2 MSTORE CALLER PUSH1 0x4 DUP3 ADD MSTORE PUSH1 0x0 PUSH1 0x24 DUP3 ADD MSTORE PUSH1 0x1 PUSH1 0x1 PUSH1 0xA0 SHL SUB SWAP1 SWAP2 AND SWAP1 PUSH4 0xBC4C4B37 SWAP1 PUSH1 0x44 ADD PUSH1 0x20 PUSH1 0x40 MLOAD DUP1 DUP4 SUB DUP2 PUSH1 0x0 DUP8 GAS CALL ISZERO DUP1 ISZERO PUSH2 0x15CB JUMPI RETURNDATASIZE PUSH1 0x0 DUP1 RETURNDATACOPY RETURNDATASIZE PUSH1 0x0 REVERT JUMPDEST POP POP POP POP PUSH1 0x40 MLOAD RETURNDATASIZE PUSH1 0x1F NOT PUSH1 0x1F DUP3 ADD AND DUP3 ADD DUP1 PUSH1 0x40 MSTORE POP DUP2 ADD SWAP1 PUSH2 0x15EF SWAP2 SWAP1 PUSH2 0x4829 JUMP JUMPDEST POP JUMP JUMPDEST PUSH2 0x15FA PUSH2 0x2E77 JUMP JUMPDEST PUSH1 0xA8 DUP1 SLOAD PUSH1 0xFF NOT AND SWAP2 ISZERO ISZERO SWAP2 SWAP1 SWAP2 OR SWAP1 SSTORE JUMP JUMPDEST PUSH2 0x1615 PUSH2 0x2E77 JUMP JUMPDEST PUSH1 0xB9 DUP1 SLOAD PUSH1 0xFF NOT AND DUP3 ISZERO ISZERO SWAP1 DUP2 OR SWAP1 SWAP2 SSTORE PUSH1 0x40 MLOAD PUSH1 0xFF SWAP1 SWAP2 AND ISZERO ISZERO DUP2 MSTORE PUSH32 0xE81BE35E61864C26AFD7A4655E99F321378D0AAAE1E5AF8EE67B658A7460F3CF SWAP1 PUSH1 0x20 ADD PUSH2 0x11FF JUMP JUMPDEST PUSH1 0xB2 SLOAD PUSH1 0x40 DUP1 MLOAD PUSH4 0x4DDF6EF PUSH1 0xE1 SHL DUP2 MSTORE SWAP1 MLOAD PUSH1 0x0 SWAP3 PUSH1 0x1 PUSH1 0x1 PUSH1 0xA0 SHL SUB AND SWAP2 PUSH4 0x9BBEDDE SWAP2 PUSH1 0x4 DUP1 DUP4 ADD SWAP3 PUSH1 0x20 SWAP3 SWAP2 SWAP1 DUP3 SWAP1 SUB ADD DUP2 DUP7 GAS STATICCALL ISZERO DUP1 ISZERO PUSH2 0x130D JUMPI RETURNDATASIZE PUSH1 0x0 DUP1 RETURNDATACOPY RETURNDATASIZE PUSH1 0x0 REVERT JUMPDEST PUSH2 0x16AE PUSH2 0x2E77 JUMP JUMPDEST PUSH1 0xA8 SLOAD PUSH1 0x40 MLOAD PUSH1 0x1 PUSH1 0x1 PUSH1 0xA0 SHL SUB PUSH2 0x100 SWAP1 SWAP3 DIV DUP3 AND SWAP2 DUP4 AND SWAP1 PUSH32 0x8FC842BBD331DFA973645F4ED48B11683D501EBF1352708D77A5DA2AB49A576E SWAP1 PUSH1 0x0 SWAP1 LOG3 DUP1 PUSH1 0xA8 PUSH1 0x1 PUSH2 0x100 EXP DUP2 SLOAD DUP2 PUSH1 0x1 PUSH1 0x1 PUSH1 0xA0 SHL SUB MUL NOT AND SWAP1 DUP4 PUSH1 0x1 PUSH1 0x1 PUSH1 0xA0 SHL SUB AND MUL OR SWAP1 SSTORE POP PUSH1 0x0 PUSH1 0xA8 PUSH1 0x1 SWAP1 SLOAD SWAP1 PUSH2 0x100 EXP SWAP1 DIV PUSH1 0x1 PUSH1 0x1 PUSH1 0xA0 SHL SUB AND PUSH1 0x1 PUSH1 0x1 PUSH1 0xA0 SHL SUB AND PUSH4 0xC45A0155 PUSH1 0x40 MLOAD DUP2 PUSH4 0xFFFFFFFF AND PUSH1 0xE0 SHL DUP2 MSTORE PUSH1 0x4 ADD PUSH1 0x20 PUSH1 0x40 MLOAD DUP1 DUP4 SUB DUP2 DUP7 GAS STATICCALL ISZERO DUP1 ISZERO PUSH2 0x176A JUMPI RETURNDATASIZE PUSH1 0x0 DUP1 RETURNDATACOPY RETURNDATASIZE PUSH1 0x0 REVERT JUMPDEST POP POP POP POP PUSH1 0x40 MLOAD RETURNDATASIZE PUSH1 0x1F NOT PUSH1 0x1F DUP3 ADD AND DUP3 ADD DUP1 PUSH1 0x40 MSTORE POP DUP2 ADD SWAP1 PUSH2 0x178E SWAP2 SWAP1 PUSH2 0x4875 JUMP JUMPDEST PUSH1 0x1 PUSH1 0x1 PUSH1 0xA0 SHL SUB AND PUSH4 0xC9C65396 ADDRESS PUSH1 0xA8 PUSH1 0x1 SWAP1 SLOAD SWAP1 PUSH2 0x100 EXP SWAP1 DIV PUSH1 0x1 PUSH1 0x1 PUSH1 0xA0 SHL SUB AND PUSH1 0x1 PUSH1 0x1 PUSH1 0xA0 SHL SUB AND PUSH4 0xAD5C4648 PUSH1 0x40 MLOAD DUP2 PUSH4 0xFFFFFFFF AND PUSH1 0xE0 SHL DUP2 MSTORE PUSH1 0x4 ADD PUSH1 0x20 PUSH1 0x40 MLOAD DUP1 DUP4 SUB DUP2 DUP7 GAS STATICCALL ISZERO DUP1 ISZERO PUSH2 0x17F0 JUMPI RETURNDATASIZE PUSH1 0x0 DUP1 RETURNDATACOPY RETURNDATASIZE PUSH1 0x0 REVERT JUMPDEST POP POP POP POP PUSH1 0x40 MLOAD RETURNDATASIZE PUSH1 0x1F NOT PUSH1 0x1F DUP3 ADD AND DUP3 ADD DUP1 PUSH1 0x40 MSTORE POP DUP2 ADD SWAP1 PUSH2 0x1814 SWAP2 SWAP1 PUSH2 0x4875 JUMP JUMPDEST PUSH1 0x40 MLOAD PUSH1 0x1 PUSH1 0x1 PUSH1 0xE0 SHL SUB NOT PUSH1 0xE0 DUP6 SWAP1 SHL AND DUP2 MSTORE PUSH1 0x1 PUSH1 0x1 PUSH1 0xA0 SHL SUB SWAP3 DUP4 AND PUSH1 0x4 DUP3 ADD MSTORE SWAP2 AND PUSH1 0x24 DUP3 ADD MSTORE PUSH1 0x44 ADD PUSH1 0x20 PUSH1 0x40 MLOAD DUP1 DUP4 SUB DUP2 PUSH1 0x0 DUP8 GAS CALL ISZERO DUP1 ISZERO PUSH2 0x1861 JUMPI RETURNDATASIZE PUSH1 0x0 DUP1 RETURNDATACOPY RETURNDATASIZE PUSH1 0x0 REVERT JUMPDEST POP POP POP POP PUSH1 0x40 MLOAD RETURNDATASIZE PUSH1 0x1F NOT PUSH1 0x1F DUP3 ADD AND DUP3 ADD DUP1 PUSH1 0x40 MSTORE POP DUP2 ADD SWAP1 PUSH2 0x1885 SWAP2 SWAP1 PUSH2 0x4875 JUMP JUMPDEST PUSH1 0xA9 DUP1 SLOAD PUSH1 0x1 PUSH1 0x1 PUSH1 0xA0 SHL SUB NOT AND PUSH1 0x1 PUSH1 0x1 PUSH1 0xA0 SHL SUB SWAP3 SWAP1 SWAP3 AND SWAP2 SWAP1 SWAP2 OR SWAP1 SSTORE POP POP JUMP JUMPDEST PUSH1 0xB2 SLOAD PUSH1 0x40 MLOAD PUSH4 0x70A08231 PUSH1 0xE0 SHL DUP2 MSTORE PUSH1 0x1 PUSH1 0x1 PUSH1 0xA0 SHL SUB DUP4 DUP2 AND PUSH1 0x4 DUP4 ADD MSTORE PUSH1 0x0 SWAP3 AND SWAP1 PUSH4 0x70A08231 SWAP1 PUSH1 0x24 ADD JUMPDEST PUSH1 0x20 PUSH1 0x40 MLOAD DUP1 DUP4 SUB DUP2 DUP7 GAS STATICCALL ISZERO DUP1 ISZERO PUSH2 0x18F5 JUMPI RETURNDATASIZE PUSH1 0x0 DUP1 RETURNDATACOPY RETURNDATASIZE PUSH1 0x0 REVERT JUMPDEST POP POP POP POP PUSH1 0x40 MLOAD RETURNDATASIZE PUSH1 0x1F NOT PUSH1 0x1F DUP3 ADD AND DUP3 ADD DUP1 PUSH1 0x40 MSTORE POP DUP2 ADD SWAP1 PUSH2 0x1108 SWAP2 SWAP1 PUSH2 0x47FD JUMP JUMPDEST PUSH1 0xB2 SLOAD PUSH1 0x40 MLOAD PUSH1 0x1 PUSH3 0x4D3B87 PUSH1 0xE0 SHL SUB NOT DUP2 MSTORE PUSH1 0x4 DUP2 ADD DUP4 SWAP1 MSTORE PUSH1 0x0 SWAP2 DUP3 SWAP2 DUP3 SWAP2 PUSH1 0x1 PUSH1 0x1 PUSH1 0xA0 SHL SUB AND SWAP1 PUSH4 0xFFB2C479 SWAP1 PUSH1 0x24 ADD PUSH1 0x60 PUSH1 0x40 MLOAD DUP1 DUP4 SUB DUP2 PUSH1 0x0 DUP8 GAS CALL ISZERO DUP1 ISZERO PUSH2 0x196C JUMPI RETURNDATASIZE PUSH1 0x0 DUP1 RETURNDATACOPY RETURNDATASIZE PUSH1 0x0 REVERT JUMPDEST POP POP POP POP PUSH1 0x40 MLOAD RETURNDATASIZE PUSH1 0x1F NOT PUSH1 0x1F DUP3 ADD AND DUP3 ADD DUP1 PUSH1 0x40 MSTORE POP DUP2 ADD SWAP1 PUSH2 0x1990 SWAP2 SWAP1 PUSH2 0x4892 JUMP JUMPDEST PUSH1 0x40 DUP1 MLOAD DUP5 DUP2 MSTORE PUSH1 0x20 DUP2 ADD DUP5 SWAP1 MSTORE SWAP1 DUP2 ADD DUP3 SWAP1 MSTORE PUSH1 0x60 DUP2 ADD DUP9 SWAP1 MSTORE SWAP3 SWAP6 POP SWAP1 SWAP4 POP SWAP2 POP ORIGIN SWAP1 PUSH1 0x0 SWAP1 PUSH32 0xC864333D6121033635AB41B29AE52F10A22CF4438C3E4F1C4C68518FEB2F8A98 SWAP1 PUSH1 0x80 ADD PUSH1 0x40 MLOAD DUP1 SWAP2 SUB SWAP1 LOG3 POP POP POP POP JUMP JUMPDEST PUSH2 0x19F3 PUSH2 0x2E77 JUMP JUMPDEST PUSH2 0x19FD PUSH1 0x0 PUSH2 0x3A45 JUMP JUMPDEST JUMP JUMPDEST PUSH1 0x0 SLOAD PUSH2 0x100 SWAP1 DIV PUSH1 0xFF AND ISZERO DUP1 DUP1 ISZERO PUSH2 0x1A1F JUMPI POP PUSH1 0x0 SLOAD PUSH1 0x1 PUSH1 0xFF SWAP1 SWAP2 AND LT JUMPDEST DUP1 PUSH2 0x1A39 JUMPI POP ADDRESS EXTCODESIZE ISZERO DUP1 ISZERO PUSH2 0x1A39 JUMPI POP PUSH1 0x0 SLOAD PUSH1 0xFF AND PUSH1 0x1 EQ JUMPDEST PUSH2 0x1A9C JUMPI PUSH1 0x40 MLOAD PUSH3 0x461BCD PUSH1 0xE5 SHL DUP2 MSTORE PUSH1 0x20 PUSH1 0x4 DUP3 ADD MSTORE PUSH1 0x2E PUSH1 0x24 DUP3 ADD MSTORE PUSH32 0x496E697469616C697A61626C653A20636F6E747261637420697320616C726561 PUSH1 0x44 DUP3 ADD MSTORE PUSH14 0x191E481A5B9A5D1A585B1A5E9959 PUSH1 0x92 SHL PUSH1 0x64 DUP3 ADD MSTORE PUSH1 0x84 ADD PUSH2 0x14EB JUMP JUMPDEST PUSH1 0x0 DUP1 SLOAD PUSH1 0xFF NOT AND PUSH1 0x1 OR SWAP1 SSTORE DUP1 ISZERO PUSH2 0x1ABF JUMPI PUSH1 0x0 DUP1 SLOAD PUSH2 0xFF00 NOT AND PUSH2 0x100 OR SWAP1 SSTORE JUMPDEST PUSH2 0x1AC7 PUSH2 0x3A97 JUMP JUMPDEST PUSH2 0x1B11 PUSH1 0x40 MLOAD DUP1 PUSH1 0x40 ADD PUSH1 0x40 MSTORE DUP1 PUSH1 0xA DUP2 MSTORE PUSH1 0x20 ADD PUSH10 0x436F6F6B696553616C65 PUSH1 0xB0 SHL DUP2 MSTORE POP PUSH1 0x40 MLOAD DUP1 PUSH1 0x40 ADD PUSH1 0x40 MSTORE DUP1 PUSH1 0x6 DUP2 MSTORE PUSH1 0x20 ADD PUSH6 0x434F4F4B4945 PUSH1 0xD0 SHL DUP2 MSTORE POP PUSH2 0x3AC6 JUMP JUMPDEST PUSH1 0xB6 DUP1 SLOAD PUSH1 0xFF NOT SWAP1 DUP2 AND PUSH1 0x1 SWAP1 DUP2 OR SWAP1 SWAP3 SSTORE PUSH1 0xB9 DUP1 SLOAD DUP3 AND DUP4 OR SWAP1 SSTORE PUSH1 0x3 PUSH1 0x97 DUP2 SWAP1 SSTORE PUSH1 0x98 SSTORE PUSH1 0x2 PUSH1 0x99 DUP2 SWAP1 SSTORE PUSH1 0x9A DUP2 SWAP1 SSTORE PUSH1 0x9B DUP2 SWAP1 SSTORE PUSH1 0x9C SSTORE PUSH1 0x9D DUP3 SWAP1 SSTORE PUSH1 0x9E DUP3 SWAP1 SSTORE PUSH1 0x9F DUP3 SWAP1 SSTORE PUSH1 0xA0 DUP3 SWAP1 SSTORE PUSH1 0x9 PUSH1 0xA1 DUP2 SWAP1 SSTORE PUSH1 0xA2 SSTORE PUSH1 0xA8 DUP1 SLOAD DUP3 AND DUP4 OR SWAP1 SSTORE PUSH1 0xAC DUP1 SLOAD DUP3 AND DUP4 OR SWAP1 SSTORE PUSH1 0xAE DUP1 SLOAD SWAP1 SWAP2 AND SWAP1 SWAP2 OR SWAP1 SSTORE PUSH1 0xAA DUP1 SLOAD PUSH1 0x1 PUSH1 0x1 PUSH1 0xA0 SHL SUB NOT SWAP1 DUP2 AND PUSH2 0xDEAD OR SWAP1 SWAP2 SSTORE PUSH1 0xA3 DUP1 SLOAD DUP3 AND PUSH20 0x3AB481BD7B55394EA86AD28793248E47A8C272EC OR SWAP1 SSTORE PUSH1 0xA4 DUP1 SLOAD DUP3 AND PUSH20 0x76727113DD9E271856D70279628EABA4807C298 OR SWAP1 SSTORE PUSH1 0xA5 DUP1 SLOAD DUP3 AND PUSH20 0xBA5EAB68A7203C9FF72E07B708991F07F55EF40E OR SWAP1 SSTORE PUSH1 0xB3 DUP1 SLOAD SWAP1 SWAP2 AND PUSH20 0xBB4CDB9CBD36B01BD1CBAEBF2DE08D9173BC095C OR SWAP1 SSTORE PUSH2 0x1C42 PUSH20 0xC935E43ADC96C9A9B7B814D9A070164E1150A72 PUSH11 0x52B7D2DCC80CD2E4000000 PUSH2 0x3AF7 JUMP JUMPDEST PUSH2 0x1388 PUSH2 0x1C4E PUSH1 0x35 SLOAD SWAP1 JUMP JUMPDEST PUSH2 0x1C58 SWAP2 SWAP1 PUSH2 0x48C0 JUMP JUMPDEST PUSH1 0xAB SSTORE PUSH1 0xC8 PUSH2 0x1C66 PUSH1 0x35 SLOAD SWAP1 JUMP JUMPDEST PUSH2 0x1C70 SWAP2 SWAP1 PUSH2 0x48C0 JUMP JUMPDEST PUSH1 0xBA SSTORE PUSH1 0xC8 PUSH2 0x1C7E PUSH1 0x35 SLOAD SWAP1 JUMP JUMPDEST PUSH2 0x1C88 SWAP2 SWAP1 PUSH2 0x48C0 JUMP JUMPDEST PUSH1 0xBB SSTORE PUSH2 0x3E8 PUSH2 0x1C97 PUSH1 0x35 SLOAD SWAP1 JUMP JUMPDEST PUSH2 0x1CA2 SWAP1 PUSH1 0xB PUSH2 0x47E6 JUMP JUMPDEST PUSH2 0x1CAC SWAP2 SWAP1 PUSH2 0x48C0 JUMP JUMPDEST PUSH1 0xB7 DUP2 SWAP1 SSTORE POP PUSH1 0x0 PUSH20 0x10ED43C718714EB63D5AA57B78B54704E256024E SWAP1 POP PUSH1 0x0 DUP2 PUSH1 0x1 PUSH1 0x1 PUSH1 0xA0 SHL SUB AND PUSH4 0xC45A0155 PUSH1 0x40 MLOAD DUP2 PUSH4 0xFFFFFFFF AND PUSH1 0xE0 SHL DUP2 MSTORE PUSH1 0x4 ADD PUSH1 0x20 PUSH1 0x40 MLOAD DUP1 DUP4 SUB DUP2 DUP7 GAS STATICCALL ISZERO DUP1 ISZERO PUSH2 0x1D0B JUMPI RETURNDATASIZE PUSH1 0x0 DUP1 RETURNDATACOPY RETURNDATASIZE PUSH1 0x0 REVERT JUMPDEST POP POP POP POP PUSH1 0x40 MLOAD RETURNDATASIZE PUSH1 0x1F NOT PUSH1 0x1F DUP3 ADD AND DUP3 ADD DUP1 PUSH1 0x40 MSTORE POP DUP2 ADD SWAP1 PUSH2 0x1D2F SWAP2 SWAP1 PUSH2 0x4875 JUMP JUMPDEST PUSH1 0x1 PUSH1 0x1 PUSH1 0xA0 SHL SUB AND PUSH4 0xC9C65396 ADDRESS DUP5 PUSH1 0x1 PUSH1 0x1 PUSH1 0xA0 SHL SUB AND PUSH4 0xAD5C4648 PUSH1 0x40 MLOAD DUP2 PUSH4 0xFFFFFFFF AND PUSH1 0xE0 SHL DUP2 MSTORE PUSH1 0x4 ADD PUSH1 0x20 PUSH1 0x40 MLOAD DUP1 DUP4 SUB DUP2 DUP7 GAS STATICCALL ISZERO DUP1 ISZERO PUSH2 0x1D7C JUMPI RETURNDATASIZE PUSH1 0x0 DUP1 RETURNDATACOPY RETURNDATASIZE PUSH1 0x0 REVERT JUMPDEST POP POP POP POP PUSH1 0x40 MLOAD RETURNDATASIZE PUSH1 0x1F NOT PUSH1 0x1F DUP3 ADD AND DUP3 ADD DUP1 PUSH1 0x40 MSTORE POP DUP2 ADD SWAP1 PUSH2 0x1DA0 SWAP2 SWAP1 PUSH2 0x4875 JUMP JUMPDEST PUSH1 0x40 MLOAD PUSH1 0x1 PUSH1 0x1 PUSH1 0xE0 SHL SUB NOT PUSH1 0xE0 DUP6 SWAP1 SHL AND DUP2 MSTORE PUSH1 0x1 PUSH1 0x1 PUSH1 0xA0 SHL SUB SWAP3 DUP4 AND PUSH1 0x4 DUP3 ADD MSTORE SWAP2 AND PUSH1 0x24 DUP3 ADD MSTORE PUSH1 0x44 ADD PUSH1 0x20 PUSH1 0x40 MLOAD DUP1 DUP4 SUB DUP2 PUSH1 0x0 DUP8 GAS CALL ISZERO DUP1 ISZERO PUSH2 0x1DED JUMPI RETURNDATASIZE PUSH1 0x0 DUP1 RETURNDATACOPY RETURNDATASIZE PUSH1 0x0 REVERT JUMPDEST POP POP POP POP PUSH1 0x40 MLOAD RETURNDATASIZE PUSH1 0x1F NOT PUSH1 0x1F DUP3 ADD AND DUP3 ADD DUP1 PUSH1 0x40 MSTORE POP DUP2 ADD SWAP1 PUSH2 0x1E11 SWAP2 SWAP1 PUSH2 0x4875 JUMP JUMPDEST PUSH1 0xA8 DUP1 SLOAD PUSH2 0x100 PUSH1 0x1 PUSH1 0xA8 SHL SUB NOT AND PUSH2 0x100 PUSH1 0x1 PUSH1 0x1 PUSH1 0xA0 SHL SUB DUP7 DUP2 AND DUP3 MUL SWAP3 SWAP1 SWAP3 OR SWAP3 DUP4 SWAP1 SSTORE PUSH1 0xA9 DUP1 SLOAD PUSH1 0x1 PUSH1 0x1 PUSH1 0xA0 SHL SUB NOT AND DUP6 DUP5 AND OR SWAP1 SSTORE SWAP3 SWAP4 POP PUSH2 0x1E5F SWAP3 ADDRESS SWAP3 DIV AND PUSH1 0x0 NOT PUSH2 0x2D53 JUMP JUMPDEST PUSH2 0x1E6A DUP2 PUSH1 0x1 PUSH2 0x3BB8 JUMP JUMPDEST PUSH1 0x1 PUSH1 0xB8 PUSH1 0x0 PUSH2 0x1E82 PUSH1 0x65 SLOAD PUSH1 0x1 PUSH1 0x1 PUSH1 0xA0 SHL SUB AND SWAP1 JUMP JUMPDEST PUSH1 0x1 PUSH1 0x1 PUSH1 0xA0 SHL SUB SWAP1 DUP2 AND DUP3 MSTORE PUSH1 0x20 DUP1 DUP4 ADD SWAP4 SWAP1 SWAP4 MSTORE PUSH1 0x40 SWAP2 DUP3 ADD PUSH1 0x0 SWAP1 DUP2 KECCAK256 DUP1 SLOAD SWAP6 ISZERO ISZERO PUSH1 0xFF NOT SWAP7 DUP8 AND OR SWAP1 SSTORE PUSH1 0xB8 SWAP1 SWAP4 MSTORE PUSH32 0x5B6159CD199DE16DAB6BC1F9CF2699A959E881AFA5A1B72F252DE1690C2F070E DUP1 SLOAD DUP6 AND PUSH1 0x1 SWAP1 DUP2 OR SWAP1 SWAP2 SSTORE ADDRESS DUP5 MSTORE DUP3 DUP5 KECCAK256 DUP1 SLOAD DUP7 AND DUP3 OR SWAP1 SSTORE PUSH1 0xAA SLOAD SWAP1 SWAP2 AND DUP4 MSTORE SWAP1 DUP3 KECCAK256 DUP1 SLOAD SWAP1 SWAP4 AND DUP2 OR SWAP1 SWAP3 SSTORE PUSH1 0xB5 SWAP1 PUSH2 0x1F1A PUSH1 0x65 SLOAD PUSH1 0x1 PUSH1 0x1 PUSH1 0xA0 SHL SUB AND SWAP1 JUMP JUMPDEST PUSH1 0x1 PUSH1 0x1 PUSH1 0xA0 SHL SUB SWAP1 DUP2 AND DUP3 MSTORE PUSH1 0x20 DUP1 DUP4 ADD SWAP4 SWAP1 SWAP4 MSTORE PUSH1 0x40 SWAP2 DUP3 ADD PUSH1 0x0 SWAP1 DUP2 KECCAK256 DUP1 SLOAD SWAP6 ISZERO ISZERO PUSH1 0xFF NOT SWAP7 DUP8 AND OR SWAP1 SSTORE PUSH1 0xB5 SWAP1 SWAP4 MSTORE PUSH32 0x2F55BC6E62EE99C7C60D946484E668ADBAE50632B5B53C97CEAE65A4FD756740 DUP1 SLOAD DUP6 AND PUSH1 0x1 SWAP1 DUP2 OR SWAP1 SWAP2 SSTORE ADDRESS DUP5 MSTORE DUP3 DUP5 KECCAK256 DUP1 SLOAD DUP7 AND DUP3 OR SWAP1 SSTORE PUSH1 0xAA SLOAD SWAP1 SWAP2 AND DUP4 MSTORE SWAP1 DUP3 KECCAK256 DUP1 SLOAD SWAP1 SWAP4 AND DUP2 OR SWAP1 SWAP3 SSTORE PUSH1 0xAF SWAP1 PUSH2 0x1FB2 PUSH1 0x65 SLOAD PUSH1 0x1 PUSH1 0x1 PUSH1 0xA0 SHL SUB AND SWAP1 JUMP JUMPDEST PUSH1 0x1 PUSH1 0x1 PUSH1 0xA0 SHL SUB SWAP1 DUP2 AND DUP3 MSTORE PUSH1 0x20 DUP1 DUP4 ADD SWAP4 SWAP1 SWAP4 MSTORE PUSH1 0x40 SWAP2 DUP3 ADD PUSH1 0x0 SWAP1 DUP2 KECCAK256 DUP1 SLOAD SWAP6 ISZERO ISZERO PUSH1 0xFF NOT SWAP7 DUP8 AND OR SWAP1 SSTORE PUSH1 0xAA SLOAD SWAP1 SWAP2 AND DUP2 MSTORE PUSH1 0xAF SWAP1 SWAP3 MSTORE DUP1 DUP3 KECCAK256 DUP1 SLOAD DUP5 AND PUSH1 0x1 SWAP1 DUP2 OR SWAP1 SWAP2 SSTORE ADDRESS DUP4 MSTORE SWAP2 KECCAK256 DUP1 SLOAD SWAP1 SWAP3 AND OR SWAP1 SSTORE POP POP PUSH8 0x1BC16D674EC80000 PUSH1 0xA6 SSTORE DUP1 ISZERO PUSH2 0x15EF JUMPI PUSH1 0x0 DUP1 SLOAD PUSH2 0xFF00 NOT AND SWAP1 SSTORE PUSH1 0x40 MLOAD PUSH1 0x1 DUP2 MSTORE PUSH32 0x7F26B83FF96E1F2B6A682F133852F6798A09C465DA95921460CEFB3847402498 SWAP1 PUSH1 0x20 ADD PUSH2 0x11FF JUMP JUMPDEST PUSH2 0x2061 PUSH2 0x2E77 JUMP JUMPDEST PUSH1 0xB4 SLOAD PUSH1 0x40 MLOAD DUP3 SWAP1 PUSH32 0x40D7E40E79AF4E8E5A9B3C57030D8EA93F13D669C06D448C4D631D4AE7D23DB7 SWAP1 PUSH1 0x0 SWAP1 LOG3 PUSH1 0xB4 SSTORE JUMP JUMPDEST PUSH2 0x209C PUSH2 0x2E77 JUMP JUMPDEST PUSH1 0x0 DUP2 SWAP1 POP ADDRESS PUSH1 0x1 PUSH1 0x1 PUSH1 0xA0 SHL SUB AND DUP2 PUSH1 0x1 PUSH1 0x1 PUSH1 0xA0 SHL SUB AND PUSH4 0x8DA5CB5B PUSH1 0x40 MLOAD DUP2 PUSH4 0xFFFFFFFF AND PUSH1 0xE0 SHL DUP2 MSTORE PUSH1 0x4 ADD PUSH1 0x20 PUSH1 0x40 MLOAD DUP1 DUP4 SUB DUP2 DUP7 GAS STATICCALL ISZERO DUP1 ISZERO PUSH2 0x20E9 JUMPI RETURNDATASIZE PUSH1 0x0 DUP1 RETURNDATACOPY RETURNDATASIZE PUSH1 0x0 REVERT JUMPDEST POP POP POP POP PUSH1 0x40 MLOAD RETURNDATASIZE PUSH1 0x1F NOT PUSH1 0x1F DUP3 ADD AND DUP3 ADD DUP1 PUSH1 0x40 MSTORE POP DUP2 ADD SWAP1 PUSH2 0x210D SWAP2 SWAP1 PUSH2 0x4875 JUMP JUMPDEST PUSH1 0x1 PUSH1 0x1 PUSH1 0xA0 SHL SUB AND EQ PUSH2 0x2189 JUMPI PUSH1 0x40 MLOAD PUSH3 0x461BCD PUSH1 0xE5 SHL DUP2 MSTORE PUSH1 0x20 PUSH1 0x4 DUP3 ADD MSTORE PUSH1 0x3C PUSH1 0x24 DUP3 ADD MSTORE PUSH32 0x546865206E6577206469766964656E6420747261636B6572206D757374206265 PUSH1 0x44 DUP3 ADD MSTORE PUSH32 0x206F776E65642062792074686520746F6B656E20636F6E747261637400000000 PUSH1 0x64 DUP3 ADD MSTORE PUSH1 0x84 ADD PUSH2 0x14EB JUMP JUMPDEST PUSH1 0x40 MLOAD PUSH4 0x31E79DB PUSH1 0xE4 SHL DUP2 MSTORE PUSH1 0x1 PUSH1 0x1 PUSH1 0xA0 SHL SUB DUP3 AND PUSH1 0x4 DUP3 ADD DUP2 SWAP1 MSTORE SWAP1 PUSH4 0x31E79DB0 SWAP1 PUSH1 0x24 ADD PUSH1 0x0 PUSH1 0x40 MLOAD DUP1 DUP4 SUB DUP2 PUSH1 0x0 DUP8 DUP1 EXTCODESIZE ISZERO DUP1 ISZERO PUSH2 0x21CB JUMPI PUSH1 0x0 DUP1 REVERT JUMPDEST POP GAS CALL ISZERO DUP1 ISZERO PUSH2 0x21DF JUMPI RETURNDATASIZE PUSH1 0x0 DUP1 RETURNDATACOPY RETURNDATASIZE PUSH1 0x0 REVERT JUMPDEST POP POP PUSH1 0x40 MLOAD PUSH4 0x31E79DB PUSH1 0xE4 SHL DUP2 MSTORE ADDRESS PUSH1 0x4 DUP3 ADD MSTORE PUSH1 0x1 PUSH1 0x1 PUSH1 0xA0 SHL SUB DUP5 AND SWAP3 POP PUSH4 0x31E79DB0 SWAP2 POP PUSH1 0x24 ADD PUSH1 0x0 PUSH1 0x40 MLOAD DUP1 DUP4 SUB DUP2 PUSH1 0x0 DUP8 DUP1 EXTCODESIZE ISZERO DUP1 ISZERO PUSH2 0x2224 JUMPI PUSH1 0x0 DUP1 REVERT JUMPDEST POP GAS CALL ISZERO DUP1 ISZERO PUSH2 0x2238 JUMPI RETURNDATASIZE PUSH1 0x0 DUP1 RETURNDATACOPY RETURNDATASIZE PUSH1 0x0 REVERT JUMPDEST POP POP PUSH1 0xAA SLOAD PUSH1 0x40 MLOAD PUSH4 0x31E79DB PUSH1 0xE4 SHL DUP2 MSTORE PUSH1 0x1 PUSH1 0x1 PUSH1 0xA0 SHL SUB SWAP2 DUP3 AND PUSH1 0x4 DUP3 ADD MSTORE SWAP1 DUP5 AND SWAP3 POP PUSH4 0x31E79DB0 SWAP2 POP PUSH1 0x24 ADD PUSH1 0x0 PUSH1 0x40 MLOAD DUP1 DUP4 SUB DUP2 PUSH1 0x0 DUP8 DUP1 EXTCODESIZE ISZERO DUP1 ISZERO PUSH2 0x2283 JUMPI PUSH1 0x0 DUP1 REVERT JUMPDEST POP GAS CALL ISZERO DUP1 ISZERO PUSH2 0x2297 JUMPI RETURNDATASIZE PUSH1 0x0 DUP1 RETURNDATACOPY RETURNDATASIZE PUSH1 0x0 REVERT JUMPDEST POP POP PUSH1 0xA8 SLOAD PUSH1 0x40 MLOAD PUSH4 0x31E79DB PUSH1 0xE4 SHL DUP2 MSTORE PUSH2 0x100 SWAP1 SWAP2 DIV PUSH1 0x1 PUSH1 0x1 PUSH1 0xA0 SHL SUB SWAP1 DUP2 AND PUSH1 0x4 DUP4 ADD MSTORE DUP5 AND SWAP3 POP PUSH4 0x31E79DB0 SWAP2 POP PUSH1 0x24 ADD PUSH1 0x0 PUSH1 0x40 MLOAD DUP1 DUP4 SUB DUP2 PUSH1 0x0 DUP8 DUP1 EXTCODESIZE ISZERO DUP1 ISZERO PUSH2 0x22E7 JUMPI PUSH1 0x0 DUP1 REVERT JUMPDEST POP GAS CALL ISZERO DUP1 ISZERO PUSH2 0x22FB JUMPI RETURNDATASIZE PUSH1 0x0 DUP1 RETURNDATACOPY RETURNDATASIZE PUSH1 0x0 REVERT JUMPDEST POP POP PUSH1 0xA9 SLOAD PUSH1 0x40 MLOAD PUSH4 0x31E79DB PUSH1 0xE4 SHL DUP2 MSTORE PUSH1 0x1 PUSH1 0x1 PUSH1 0xA0 SHL SUB SWAP2 DUP3 AND PUSH1 0x4 DUP3 ADD MSTORE SWAP1 DUP5 AND SWAP3 POP PUSH4 0x31E79DB0 SWAP2 POP PUSH1 0x24 ADD PUSH1 0x0 PUSH1 0x40 MLOAD DUP1 DUP4 SUB DUP2 PUSH1 0x0 DUP8 DUP1 EXTCODESIZE ISZERO DUP1 ISZERO PUSH2 0x2346 JUMPI PUSH1 0x0 DUP1 REVERT JUMPDEST POP GAS CALL ISZERO DUP1 ISZERO PUSH2 0x235A JUMPI RETURNDATASIZE PUSH1 0x0 DUP1 RETURNDATACOPY RETURNDATASIZE PUSH1 0x0 REVERT JUMPDEST POP POP PUSH1 0xB2 SLOAD PUSH1 0x40 MLOAD PUSH1 0x1 PUSH1 0x1 PUSH1 0xA0 SHL SUB SWAP2 DUP3 AND SWAP4 POP SWAP1 DUP6 AND SWAP2 POP PUSH32 0x90C7D74461C613DA5EFA97D90740869367D74AB3AA5837AA4AE9A975F954B7A8 SWAP1 PUSH1 0x0 SWAP1 LOG3 PUSH1 0xB2 DUP1 SLOAD PUSH1 0x1 PUSH1 0x1 PUSH1 0xA0 SHL SUB NOT AND PUSH1 0x1 PUSH1 0x1 PUSH1 0xA0 SHL SUB SWAP3 SWAP1 SWAP3 AND SWAP2 SWAP1 SWAP2 OR SWAP1 SSTORE POP JUMP JUMPDEST PUSH2 0x23C5 PUSH2 0x2E77 JUMP JUMPDEST PUSH1 0xAC DUP1 SLOAD PUSH3 0xFF0000 NOT AND PUSH3 0x10000 OR SWAP1 SSTORE JUMP JUMPDEST PUSH2 0x23E0 PUSH2 0x2E77 JUMP JUMPDEST PUSH1 0x1 PUSH1 0x1 PUSH1 0xA0 SHL SUB DUP3 AND PUSH1 0x0 DUP2 DUP2 MSTORE PUSH1 0xB5 PUSH1 0x20 SWAP1 DUP2 MSTORE PUSH1 0x40 SWAP2 DUP3 SWAP1 KECCAK256 DUP1 SLOAD PUSH1 0xFF NOT AND DUP6 ISZERO ISZERO SWAP1 DUP2 OR SWAP1 SWAP2 SSTORE SWAP2 MLOAD SWAP2 DUP3 MSTORE PUSH32 0x1D9A11E204B58AD56C619C61600E42167624659D218F0143F1F64956B0DAAE6C SWAP2 ADD PUSH2 0x116A JUMP JUMPDEST PUSH1 0x60 PUSH1 0x37 DUP1 SLOAD PUSH2 0x1071 SWAP1 PUSH2 0x46A3 JUMP JUMPDEST PUSH2 0x244F PUSH2 0x2E77 JUMP JUMPDEST PUSH1 0xAC DUP1 SLOAD SWAP2 ISZERO ISZERO PUSH2 0x100 MUL PUSH2 0xFF00 NOT SWAP1 SWAP3 AND SWAP2 SWAP1 SWAP2 OR SWAP1 SSTORE JUMP JUMPDEST PUSH2 0x2471 PUSH2 0x2E77 JUMP JUMPDEST PUSH1 0xA4 DUP1 SLOAD PUSH1 0x1 PUSH1 0x1 PUSH1 0xA0 SHL SUB NOT AND PUSH1 0x1 PUSH1 0x1 PUSH1 0xA0 SHL SUB DUP4 AND SWAP1 DUP2 OR SWAP1 SWAP2 SSTORE PUSH1 0x40 MLOAD SWAP1 DUP2 MSTORE PUSH32 0x2E184DC34AB031D763441C588BD08760997797E8550C76FD439A20571233CC20 SWAP1 PUSH1 0x20 ADD PUSH2 0x11FF JUMP JUMPDEST PUSH1 0xB2 SLOAD PUSH1 0x40 DUP1 MLOAD PUSH4 0x1BC9E27B PUSH1 0xE2 SHL DUP2 MSTORE SWAP1 MLOAD PUSH1 0x0 SWAP3 PUSH1 0x1 PUSH1 0x1 PUSH1 0xA0 SHL SUB AND SWAP2 PUSH4 0x6F2789EC SWAP2 PUSH1 0x4 DUP1 DUP4 ADD SWAP3 PUSH1 0x20 SWAP3 SWAP2 SWAP1 DUP3 SWAP1 SUB ADD DUP2 DUP7 GAS STATICCALL ISZERO DUP1 ISZERO PUSH2 0x130D JUMPI RETURNDATASIZE PUSH1 0x0 DUP1 RETURNDATACOPY RETURNDATASIZE PUSH1 0x0 REVERT JUMPDEST PUSH1 0x0 CALLER DUP2 PUSH2 0x2517 DUP3 DUP7 PUSH2 0x281B JUMP JUMPDEST SWAP1 POP DUP4 DUP2 LT ISZERO PUSH2 0x2577 JUMPI PUSH1 0x40 MLOAD PUSH3 0x461BCD PUSH1 0xE5 SHL DUP2 MSTORE PUSH1 0x20 PUSH1 0x4 DUP3 ADD MSTORE PUSH1 0x25 PUSH1 0x24 DUP3 ADD MSTORE PUSH32 0x45524332303A2064656372656173656420616C6C6F77616E63652062656C6F77 PUSH1 0x44 DUP3 ADD MSTORE PUSH5 0x207A65726F PUSH1 0xD8 SHL PUSH1 0x64 DUP3 ADD MSTORE PUSH1 0x84 ADD PUSH2 0x14EB JUMP JUMPDEST PUSH2 0x11A5 DUP3 DUP7 DUP7 DUP5 SUB PUSH2 0x2D53 JUMP JUMPDEST PUSH1 0xB2 SLOAD PUSH1 0x40 MLOAD PUSH4 0x2A2E749 PUSH1 0xE6 SHL DUP2 MSTORE PUSH1 0x1 PUSH1 0x1 PUSH1 0xA0 SHL SUB DUP4 DUP2 AND PUSH1 0x4 DUP4 ADD MSTORE PUSH1 0x0 SWAP3 AND SWAP1 PUSH4 0xA8B9D240 SWAP1 PUSH1 0x24 ADD PUSH2 0x18D8 JUMP JUMPDEST PUSH1 0x0 CALLER PUSH2 0x1102 DUP2 DUP6 DUP6 PUSH2 0x2F45 JUMP JUMPDEST PUSH1 0xB2 SLOAD PUSH1 0x40 MLOAD PUSH4 0xFBCBC0F1 PUSH1 0xE0 SHL DUP2 MSTORE PUSH1 0x1 PUSH1 0x1 PUSH1 0xA0 SHL SUB DUP4 DUP2 AND PUSH1 0x4 DUP4 ADD MSTORE PUSH1 0x0 SWAP3 DUP4 SWAP3 DUP4 SWAP3 DUP4 SWAP3 DUP4 SWAP3 DUP4 SWAP3 DUP4 SWAP3 DUP4 SWAP3 SWAP2 AND SWAP1 PUSH4 0xFBCBC0F1 SWAP1 PUSH1 0x24 ADD JUMPDEST PUSH2 0x100 PUSH1 0x40 MLOAD DUP1 DUP4 SUB DUP2 DUP7 GAS STATICCALL ISZERO DUP1 ISZERO PUSH2 0x2621 JUMPI RETURNDATASIZE PUSH1 0x0 DUP1 RETURNDATACOPY RETURNDATASIZE PUSH1 0x0 REVERT JUMPDEST POP POP POP POP PUSH1 0x40 MLOAD RETURNDATASIZE PUSH1 0x1F NOT PUSH1 0x1F DUP3 ADD AND DUP3 ADD DUP1 PUSH1 0x40 MSTORE POP DUP2 ADD SWAP1 PUSH2 0x2645 SWAP2 SWAP1 PUSH2 0x48E2 JUMP JUMPDEST SWAP8 POP SWAP8 POP SWAP8 POP SWAP8 POP SWAP8 POP SWAP8 POP SWAP8 POP SWAP8 POP SWAP2 SWAP4 SWAP6 SWAP8 POP SWAP2 SWAP4 SWAP6 SWAP8 JUMP JUMPDEST PUSH2 0x2668 PUSH2 0x2E77 JUMP JUMPDEST PUSH1 0xA6 SSTORE JUMP JUMPDEST PUSH2 0x2675 PUSH2 0x2E77 JUMP JUMPDEST PUSH1 0xAB SSTORE JUMP JUMPDEST PUSH2 0x2682 PUSH2 0x2E77 JUMP JUMPDEST PUSH2 0x268E PUSH1 0x12 PUSH1 0xA PUSH2 0x47D7 JUMP JUMPDEST PUSH2 0x2698 SWAP1 DUP4 PUSH2 0x47E6 JUMP JUMPDEST PUSH1 0xBA SSTORE PUSH2 0x26A7 PUSH1 0x12 PUSH1 0xA PUSH2 0x47D7 JUMP JUMPDEST PUSH2 0x26B1 SWAP1 DUP3 PUSH2 0x47E6 JUMP JUMPDEST PUSH1 0xBB DUP2 SWAP1 SSTORE PUSH1 0xBA SLOAD PUSH1 0x40 MLOAD PUSH32 0x8C8CBC911B80DF94332ECECB8EB0945274D76FA965600A0F01F42AF3F8AFB131 SWAP3 PUSH2 0x26EF SWAP3 DUP3 MSTORE PUSH1 0x20 DUP3 ADD MSTORE PUSH1 0x40 ADD SWAP1 JUMP JUMPDEST PUSH1 0x40 MLOAD DUP1 SWAP2 SUB SWAP1 LOG1 POP POP JUMP JUMPDEST PUSH2 0x2703 PUSH2 0x2E77 JUMP JUMPDEST PUSH1 0x1 PUSH1 0x1 PUSH1 0xA0 SHL SUB DUP2 AND PUSH2 0x276D JUMPI PUSH1 0x40 MLOAD PUSH3 0x461BCD PUSH1 0xE5 SHL DUP2 MSTORE PUSH1 0x20 PUSH1 0x4 DUP3 ADD MSTORE PUSH1 0x2B PUSH1 0x24 DUP3 ADD MSTORE PUSH32 0x4D61726B6574696E672077616C6C65742063616E6E6F7420626520746865207A PUSH1 0x44 DUP3 ADD MSTORE PUSH11 0x65726F2061646472657373 PUSH1 0xA8 SHL PUSH1 0x64 DUP3 ADD MSTORE PUSH1 0x84 ADD PUSH2 0x14EB JUMP JUMPDEST PUSH1 0xA3 DUP1 SLOAD PUSH1 0x1 PUSH1 0x1 PUSH1 0xA0 SHL SUB NOT AND PUSH1 0x1 PUSH1 0x1 PUSH1 0xA0 SHL SUB DUP4 AND SWAP1 DUP2 OR SWAP1 SWAP2 SSTORE PUSH1 0x40 MLOAD SWAP1 DUP2 MSTORE PUSH32 0xA964BA5C52D7E7BFCAE4FB1AE4DB9F211756D0E618E85FAC5283B882A39E7A0B SWAP1 PUSH1 0x20 ADD PUSH2 0x11FF JUMP JUMPDEST PUSH2 0x27C3 PUSH2 0x2E77 JUMP JUMPDEST PUSH1 0x1 PUSH1 0x1 PUSH1 0xA0 SHL SUB DUP3 AND PUSH1 0x0 DUP2 DUP2 MSTORE PUSH1 0xAF PUSH1 0x20 SWAP1 DUP2 MSTORE PUSH1 0x40 SWAP2 DUP3 SWAP1 KECCAK256 DUP1 SLOAD PUSH1 0xFF NOT AND DUP6 ISZERO ISZERO SWAP1 DUP2 OR SWAP1 SWAP2 SSTORE SWAP2 MLOAD SWAP2 DUP3 MSTORE PUSH32 0x9D8F7706EA1113D1A167B526ECA956215946DD36CC7DF39EB16180222D8B5DF7 SWAP2 ADD PUSH2 0x116A JUMP JUMPDEST PUSH1 0x1 PUSH1 0x1 PUSH1 0xA0 SHL SUB SWAP2 DUP3 AND PUSH1 0x0 SWAP1 DUP2 MSTORE PUSH1 0x34 PUSH1 0x20 SWAP1 DUP2 MSTORE PUSH1 0x40 DUP1 DUP4 KECCAK256 SWAP4 SWAP1 SWAP5 AND DUP3 MSTORE SWAP2 SWAP1 SWAP2 MSTORE KECCAK256 SLOAD SWAP1 JUMP JUMPDEST PUSH2 0x284E PUSH2 0x2E77 JUMP JUMPDEST PUSH1 0xAC DUP1 SLOAD PUSH1 0xFF NOT AND SWAP2 ISZERO ISZERO SWAP2 SWAP1 SWAP2 OR SWAP1 SSTORE JUMP JUMPDEST PUSH1 0xB2 SLOAD PUSH1 0x40 MLOAD PUSH4 0x27CE0147 PUSH1 0xE0 SHL DUP2 MSTORE PUSH1 0x1 PUSH1 0x1 PUSH1 0xA0 SHL SUB DUP4 DUP2 AND PUSH1 0x4 DUP4 ADD MSTORE PUSH1 0x0 SWAP3 AND SWAP1 PUSH4 0x27CE0147 SWAP1 PUSH1 0x24 ADD PUSH2 0x18D8 JUMP JUMPDEST PUSH1 0xB2 SLOAD PUSH1 0x40 DUP1 MLOAD PUSH4 0x39E107B PUSH1 0xE6 SHL DUP2 MSTORE SWAP1 MLOAD PUSH1 0x0 SWAP3 PUSH1 0x1 PUSH1 0x1 PUSH1 0xA0 SHL SUB AND SWAP2 PUSH4 0xE7841EC0 SWAP2 PUSH1 0x4 DUP1 DUP4 ADD SWAP3 PUSH1 0x20 SWAP3 SWAP2 SWAP1 DUP3 SWAP1 SUB ADD DUP2 DUP7 GAS STATICCALL ISZERO DUP1 ISZERO PUSH2 0x130D JUMPI RETURNDATASIZE PUSH1 0x0 DUP1 RETURNDATACOPY RETURNDATASIZE PUSH1 0x0 REVERT JUMPDEST PUSH2 0x28E6 PUSH2 0x2E77 JUMP JUMPDEST PUSH1 0xB2 SLOAD PUSH1 0x40 MLOAD PUSH4 0xE98030C7 PUSH1 0xE0 SHL DUP2 MSTORE PUSH1 0x4 DUP2 ADD DUP4 SWAP1 MSTORE PUSH1 0x1 PUSH1 0x1 PUSH1 0xA0 SHL SUB SWAP1 SWAP2 AND SWAP1 PUSH4 0xE98030C7 SWAP1 PUSH1 0x24 ADD PUSH2 0x123F JUMP JUMPDEST PUSH2 0x291F PUSH2 0x2E77 JUMP JUMPDEST PUSH1 0x19 DUP2 DUP4 DUP6 PUSH2 0x292E DUP9 DUP11 PUSH2 0x4816 JUMP JUMPDEST PUSH2 0x2938 SWAP2 SWAP1 PUSH2 0x4816 JUMP JUMPDEST PUSH2 0x2942 SWAP2 SWAP1 PUSH2 0x4816 JUMP JUMPDEST PUSH2 0x294C SWAP2 SWAP1 PUSH2 0x4816 JUMP JUMPDEST GT ISZERO PUSH2 0x299A JUMPI PUSH1 0x40 MLOAD PUSH3 0x461BCD PUSH1 0xE5 SHL DUP2 MSTORE PUSH1 0x20 PUSH1 0x4 DUP3 ADD MSTORE PUSH1 0x1A PUSH1 0x24 DUP3 ADD MSTORE PUSH32 0x46656573206D757374206265206C657373207468616E20323525000000000000 PUSH1 0x44 DUP3 ADD MSTORE PUSH1 0x64 ADD PUSH2 0x14EB JUMP JUMPDEST PUSH1 0x97 DUP6 SWAP1 SSTORE PUSH1 0x99 DUP5 SWAP1 SSTORE PUSH1 0x9B DUP4 SWAP1 SSTORE PUSH1 0x9D DUP3 SWAP1 SSTORE PUSH1 0x9F DUP2 SWAP1 SSTORE DUP1 DUP3 DUP5 PUSH2 0x29C0 DUP8 DUP10 PUSH2 0x4816 JUMP JUMPDEST PUSH2 0x29CA SWAP2 SWAP1 PUSH2 0x4816 JUMP JUMPDEST PUSH2 0x29D4 SWAP2 SWAP1 PUSH2 0x4816 JUMP JUMPDEST PUSH2 0x29DE SWAP2 SWAP1 PUSH2 0x4816 JUMP JUMPDEST PUSH1 0xA1 SSTORE PUSH1 0x40 DUP1 MLOAD DUP7 DUP2 MSTORE PUSH1 0x20 DUP2 ADD DUP7 SWAP1 MSTORE SWAP1 DUP2 ADD DUP5 SWAP1 MSTORE PUSH1 0x60 DUP2 ADD DUP4 SWAP1 MSTORE PUSH1 0x80 DUP2 ADD DUP3 SWAP1 MSTORE PUSH32 0x36F734EF6334BB46FFB96A53AC28A5F80F907B4E1EDB3C8AF6DD32BA6E57F858 SWAP1 PUSH1 0xA0 ADD JUMPDEST PUSH1 0x40 MLOAD DUP1 SWAP2 SUB SWAP1 LOG1 POP POP POP POP POP JUMP JUMPDEST PUSH1 0xB2 SLOAD PUSH1 0x40 MLOAD PUSH4 0x5183D6FD PUSH1 0xE0 SHL DUP2 MSTORE PUSH1 0x4 DUP2 ADD DUP4 SWAP1 MSTORE PUSH1 0x0 SWAP2 DUP3 SWAP2 DUP3 SWAP2 DUP3 SWAP2 DUP3 SWAP2 DUP3 SWAP2 DUP3 SWAP2 DUP3 SWAP2 PUSH1 0x1 PUSH1 0x1 PUSH1 0xA0 SHL SUB SWAP1 SWAP2 AND SWAP1 PUSH4 0x5183D6FD SWAP1 PUSH1 0x24 ADD PUSH2 0x2603 JUMP JUMPDEST PUSH2 0x2A82 PUSH2 0x2E77 JUMP JUMPDEST PUSH1 0xAE DUP1 SLOAD PUSH1 0xFF NOT AND SWAP2 ISZERO ISZERO SWAP2 SWAP1 SWAP2 OR SWAP1 SSTORE JUMP JUMPDEST PUSH2 0x2A9D PUSH2 0x2E77 JUMP JUMPDEST PUSH1 0x1 PUSH1 0x1 PUSH1 0xA0 SHL SUB DUP2 AND PUSH2 0x2B02 JUMPI PUSH1 0x40 MLOAD PUSH3 0x461BCD PUSH1 0xE5 SHL DUP2 MSTORE PUSH1 0x20 PUSH1 0x4 DUP3 ADD MSTORE PUSH1 0x26 PUSH1 0x24 DUP3 ADD MSTORE PUSH32 0x4F776E61626C653A206E6577206F776E657220697320746865207A65726F2061 PUSH1 0x44 DUP3 ADD MSTORE PUSH6 0x646472657373 PUSH1 0xD0 SHL PUSH1 0x64 DUP3 ADD MSTORE PUSH1 0x84 ADD PUSH2 0x14EB JUMP JUMPDEST PUSH2 0x15EF DUP2 PUSH2 0x3A45 JUMP JUMPDEST PUSH2 0x2B13 PUSH2 0x2E77 JUMP JUMPDEST PUSH1 0x1 PUSH1 0x1 PUSH1 0xA0 SHL SUB DUP2 AND PUSH2 0x2B56 JUMPI PUSH1 0x40 MLOAD CALLER SWAP1 SELFBALANCE DUP1 ISZERO PUSH2 0x8FC MUL SWAP2 PUSH1 0x0 DUP2 DUP2 DUP2 DUP6 DUP9 DUP9 CALL SWAP4 POP POP POP POP ISZERO DUP1 ISZERO PUSH2 0x2B4D JUMPI RETURNDATASIZE PUSH1 0x0 DUP1 RETURNDATACOPY RETURNDATASIZE PUSH1 0x0 REVERT JUMPDEST POP PUSH1 0x0 PUSH1 0xA7 SSTORE POP JUMP JUMPDEST PUSH1 0x40 MLOAD PUSH4 0x70A08231 PUSH1 0xE0 SHL DUP2 MSTORE ADDRESS PUSH1 0x4 DUP3 ADD MSTORE DUP2 SWAP1 PUSH1 0x0 SWAP1 PUSH1 0x1 PUSH1 0x1 PUSH1 0xA0 SHL SUB DUP4 AND SWAP1 PUSH4 0x70A08231 SWAP1 PUSH1 0x24 ADD PUSH1 0x20 PUSH1 0x40 MLOAD DUP1 DUP4 SUB DUP2 DUP7 GAS STATICCALL ISZERO DUP1 ISZERO PUSH2 0x2B9F JUMPI RETURNDATASIZE PUSH1 0x0 DUP1 RETURNDATACOPY RETURNDATASIZE PUSH1 0x0 REVERT JUMPDEST POP POP POP POP PUSH1 0x40 MLOAD RETURNDATASIZE PUSH1 0x1F NOT PUSH1 0x1F DUP3 ADD AND DUP3 ADD DUP1 PUSH1 0x40 MSTORE POP DUP2 ADD SWAP1 PUSH2 0x2BC3 SWAP2 SWAP1 PUSH2 0x47FD JUMP JUMPDEST PUSH1 0x40 MLOAD PUSH4 0xA9059CBB PUSH1 0xE0 SHL DUP2 MSTORE CALLER PUSH1 0x4 DUP3 ADD MSTORE PUSH1 0x24 DUP2 ADD DUP3 SWAP1 MSTORE SWAP1 SWAP2 POP PUSH1 0x1 PUSH1 0x1 PUSH1 0xA0 SHL SUB DUP4 AND SWAP1 PUSH4 0xA9059CBB SWAP1 PUSH1 0x44 ADD PUSH1 0x20 PUSH1 0x40 MLOAD DUP1 DUP4 SUB DUP2 PUSH1 0x0 DUP8 GAS CALL ISZERO DUP1 ISZERO PUSH2 0x2C13 JUMPI RETURNDATASIZE PUSH1 0x0 DUP1 RETURNDATACOPY RETURNDATASIZE PUSH1 0x0 REVERT JUMPDEST POP POP POP POP PUSH1 0x40 MLOAD RETURNDATASIZE PUSH1 0x1F NOT PUSH1 0x1F DUP3 ADD AND DUP3 ADD DUP1 PUSH1 0x40 MSTORE POP DUP2 ADD SWAP1 PUSH2 0x2C37 SWAP2 SWAP1 PUSH2 0x4829 JUMP JUMPDEST POP POP POP POP JUMP JUMPDEST PUSH2 0x2C45 PUSH2 0x2E77 JUMP JUMPDEST PUSH1 0x19 DUP2 DUP4 DUP6 PUSH2 0x2C54 DUP9 DUP11 PUSH2 0x4816 JUMP JUMPDEST PUSH2 0x2C5E SWAP2 SWAP1 PUSH2 0x4816 JUMP JUMPDEST PUSH2 0x2C68 SWAP2 SWAP1 PUSH2 0x4816 JUMP JUMPDEST PUSH2 0x2C72 SWAP2 SWAP1 PUSH2 0x4816 JUMP JUMPDEST GT ISZERO PUSH2 0x2CC0 JUMPI PUSH1 0x40 MLOAD PUSH3 0x461BCD PUSH1 0xE5 SHL DUP2 MSTORE PUSH1 0x20 PUSH1 0x4 DUP3 ADD MSTORE PUSH1 0x1A PUSH1 0x24 DUP3 ADD MSTORE PUSH32 0x46656573206D757374206265206C657373207468616E20323525000000000000 PUSH1 0x44 DUP3 ADD MSTORE PUSH1 0x64 ADD PUSH2 0x14EB JUMP JUMPDEST PUSH1 0x98 DUP6 SWAP1 SSTORE PUSH1 0x9A DUP5 SWAP1 SSTORE PUSH1 0x9C DUP4 SWAP1 SSTORE PUSH1 0x9E DUP3 SWAP1 SSTORE PUSH1 0xA0 DUP2 SWAP1 SSTORE DUP1 DUP3 DUP5 PUSH2 0x2CE6 DUP8 DUP10 PUSH2 0x4816 JUMP JUMPDEST PUSH2 0x2CF0 SWAP2 SWAP1 PUSH2 0x4816 JUMP JUMPDEST PUSH2 0x2CFA SWAP2 SWAP1 PUSH2 0x4816 JUMP JUMPDEST PUSH2 0x2D04 SWAP2 SWAP1 PUSH2 0x4816 JUMP JUMPDEST PUSH1 0xA2 SSTORE PUSH1 0x40 DUP1 MLOAD DUP7 DUP2 MSTORE PUSH1 0x20 DUP2 ADD DUP7 SWAP1 MSTORE SWAP1 DUP2 ADD DUP5 SWAP1 MSTORE PUSH1 0x60 DUP2 ADD DUP4 SWAP1 MSTORE PUSH1 0x80 DUP2 ADD DUP3 SWAP1 MSTORE PUSH32 0xA047973EE053932E622D31FE5AB89F310D1C9C947AC06A81F382D0D3DF2B1102 SWAP1 PUSH1 0xA0 ADD PUSH2 0x2A29 JUMP JUMPDEST PUSH1 0x1 PUSH1 0x1 PUSH1 0xA0 SHL SUB DUP4 AND PUSH2 0x2DB5 JUMPI PUSH1 0x40 MLOAD PUSH3 0x461BCD PUSH1 0xE5 SHL DUP2 MSTORE PUSH1 0x20 PUSH1 0x4 DUP3 ADD MSTORE PUSH1 0x24 DUP1 DUP3 ADD MSTORE PUSH32 0x45524332303A20617070726F76652066726F6D20746865207A65726F20616464 PUSH1 0x44 DUP3 ADD MSTORE PUSH4 0x72657373 PUSH1 0xE0 SHL PUSH1 0x64 DUP3 ADD MSTORE PUSH1 0x84 ADD PUSH2 0x14EB JUMP JUMPDEST PUSH1 0x1 PUSH1 0x1 PUSH1 0xA0 SHL SUB DUP3 AND PUSH2 0x2E16 JUMPI PUSH1 0x40 MLOAD PUSH3 0x461BCD PUSH1 0xE5 SHL DUP2 MSTORE PUSH1 0x20 PUSH1 0x4 DUP3 ADD MSTORE PUSH1 0x22 PUSH1 0x24 DUP3 ADD MSTORE PUSH32 0x45524332303A20617070726F766520746F20746865207A65726F206164647265 PUSH1 0x44 DUP3 ADD MSTORE PUSH2 0x7373 PUSH1 0xF0 SHL PUSH1 0x64 DUP3 ADD MSTORE PUSH1 0x84 ADD PUSH2 0x14EB JUMP JUMPDEST PUSH1 0x1 PUSH1 0x1 PUSH1 0xA0 SHL SUB DUP4 DUP2 AND PUSH1 0x0 DUP2 DUP2 MSTORE PUSH1 0x34 PUSH1 0x20 SWAP1 DUP2 MSTORE PUSH1 0x40 DUP1 DUP4 KECCAK256 SWAP5 DUP8 AND DUP1 DUP5 MSTORE SWAP5 DUP3 MSTORE SWAP2 DUP3 SWAP1 KECCAK256 DUP6 SWAP1 SSTORE SWAP1 MLOAD DUP5 DUP2 MSTORE PUSH32 0x8C5BE1E5EBEC7D5BD14F71427D1E84F3DD0314C0F7B2291E5B200AC8C7C3B925 SWAP2 ADD PUSH1 0x40 MLOAD DUP1 SWAP2 SUB SWAP1 LOG3 POP POP POP JUMP JUMPDEST PUSH1 0x65 SLOAD PUSH1 0x1 PUSH1 0x1 PUSH1 0xA0 SHL SUB AND CALLER EQ PUSH2 0x19FD JUMPI PUSH1 0x40 MLOAD PUSH3 0x461BCD PUSH1 0xE5 SHL DUP2 MSTORE PUSH1 0x20 PUSH1 0x4 DUP3 ADD DUP2 SWAP1 MSTORE PUSH1 0x24 DUP3 ADD MSTORE PUSH32 0x4F776E61626C653A2063616C6C6572206973206E6F7420746865206F776E6572 PUSH1 0x44 DUP3 ADD MSTORE PUSH1 0x64 ADD PUSH2 0x14EB JUMP JUMPDEST PUSH1 0x0 PUSH2 0x2EDD DUP5 DUP5 PUSH2 0x281B JUMP JUMPDEST SWAP1 POP PUSH1 0x0 NOT DUP2 EQ PUSH2 0x2C37 JUMPI DUP2 DUP2 LT ISZERO PUSH2 0x2F38 JUMPI PUSH1 0x40 MLOAD PUSH3 0x461BCD PUSH1 0xE5 SHL DUP2 MSTORE PUSH1 0x20 PUSH1 0x4 DUP3 ADD MSTORE PUSH1 0x1D PUSH1 0x24 DUP3 ADD MSTORE PUSH32 0x45524332303A20696E73756666696369656E7420616C6C6F77616E6365000000 PUSH1 0x44 DUP3 ADD MSTORE PUSH1 0x64 ADD PUSH2 0x14EB JUMP JUMPDEST PUSH2 0x2C37 DUP5 DUP5 DUP5 DUP5 SUB PUSH2 0x2D53 JUMP JUMPDEST PUSH1 0x1 PUSH1 0x1 PUSH1 0xA0 SHL SUB DUP4 AND PUSH2 0x2F6B JUMPI PUSH1 0x40 MLOAD PUSH3 0x461BCD PUSH1 0xE5 SHL DUP2 MSTORE PUSH1 0x4 ADD PUSH2 0x14EB SWAP1 PUSH2 0x494C JUMP JUMPDEST PUSH1 0x1 PUSH1 0x1 PUSH1 0xA0 SHL SUB DUP3 AND PUSH2 0x2F91 JUMPI PUSH1 0x40 MLOAD PUSH3 0x461BCD PUSH1 0xE5 SHL DUP2 MSTORE PUSH1 0x4 ADD PUSH2 0x14EB SWAP1 PUSH2 0x4991 JUMP JUMPDEST PUSH1 0xAC SLOAD PUSH3 0x10000 SWAP1 DIV PUSH1 0xFF AND DUP1 PUSH2 0x2FC0 JUMPI POP PUSH1 0x1 PUSH1 0x1 PUSH1 0xA0 SHL SUB DUP4 AND PUSH1 0x0 SWAP1 DUP2 MSTORE PUSH1 0xAF PUSH1 0x20 MSTORE PUSH1 0x40 SWAP1 KECCAK256 SLOAD PUSH1 0xFF AND JUMPDEST DUP1 PUSH2 0x2FE3 JUMPI POP PUSH1 0x1 PUSH1 0x1 PUSH1 0xA0 SHL SUB DUP3 AND PUSH1 0x0 SWAP1 DUP2 MSTORE PUSH1 0xAF PUSH1 0x20 MSTORE PUSH1 0x40 SWAP1 KECCAK256 SLOAD PUSH1 0xFF AND JUMPDEST PUSH2 0x302F JUMPI PUSH1 0x40 MLOAD PUSH3 0x461BCD PUSH1 0xE5 SHL DUP2 MSTORE PUSH1 0x20 PUSH1 0x4 DUP3 ADD MSTORE PUSH1 0x1A PUSH1 0x24 DUP3 ADD MSTORE PUSH32 0x54726164696E67206973206E6F7420656E61626C656420796574000000000000 PUSH1 0x44 DUP3 ADD MSTORE PUSH1 0x64 ADD PUSH2 0x14EB JUMP JUMPDEST DUP1 PUSH1 0x0 SUB PUSH2 0x3043 JUMPI PUSH2 0x1556 DUP4 DUP4 PUSH1 0x0 PUSH2 0x3C0C JUMP JUMPDEST PUSH1 0xB9 SLOAD PUSH1 0xFF AND ISZERO PUSH2 0x3125 JUMPI PUSH1 0xA9 SLOAD PUSH1 0x1 PUSH1 0x1 PUSH1 0xA0 SHL SUB DUP5 DUP2 AND SWAP2 AND EQ DUP1 PUSH2 0x3077 JUMPI POP PUSH1 0xA9 SLOAD PUSH1 0x1 PUSH1 0x1 PUSH1 0xA0 SHL SUB DUP4 DUP2 AND SWAP2 AND EQ JUMPDEST DUP1 ISZERO PUSH2 0x309C JUMPI POP PUSH1 0x1 PUSH1 0x1 PUSH1 0xA0 SHL SUB DUP4 AND PUSH1 0x0 SWAP1 DUP2 MSTORE PUSH1 0xB8 PUSH1 0x20 MSTORE PUSH1 0x40 SWAP1 KECCAK256 SLOAD PUSH1 0xFF AND ISZERO JUMPDEST DUP1 ISZERO PUSH2 0x30C1 JUMPI POP PUSH1 0x1 PUSH1 0x1 PUSH1 0xA0 SHL SUB DUP3 AND PUSH1 0x0 SWAP1 DUP2 MSTORE PUSH1 0xB8 PUSH1 0x20 MSTORE PUSH1 0x40 SWAP1 KECCAK256 SLOAD PUSH1 0xFF AND ISZERO JUMPDEST ISZERO PUSH2 0x3125 JUMPI PUSH1 0xA9 SLOAD PUSH1 0x1 PUSH1 0x1 PUSH1 0xA0 SHL SUB SWAP1 DUP2 AND SWAP1 DUP5 AND SUB PUSH2 0x3103 JUMPI PUSH1 0xBA SLOAD DUP2 GT ISZERO PUSH2 0x30FE JUMPI PUSH1 0x40 MLOAD PUSH3 0x461BCD PUSH1 0xE5 SHL DUP2 MSTORE PUSH1 0x4 ADD PUSH2 0x14EB SWAP1 PUSH2 0x49D4 JUMP JUMPDEST PUSH2 0x3125 JUMP JUMPDEST PUSH1 0xBB SLOAD DUP2 GT ISZERO PUSH2 0x3125 JUMPI PUSH1 0x40 MLOAD PUSH3 0x461BCD PUSH1 0xE5 SHL DUP2 MSTORE PUSH1 0x4 ADD PUSH2 0x14EB SWAP1 PUSH2 0x49D4 JUMP JUMPDEST ADDRESS PUSH1 0x0 SWAP1 DUP2 MSTORE PUSH1 0x33 PUSH1 0x20 MSTORE PUSH1 0x40 SWAP1 KECCAK256 SLOAD PUSH1 0xAB SLOAD PUSH1 0xAC SLOAD SWAP1 DUP3 LT ISZERO SWAP1 PUSH1 0xFF AND DUP1 ISZERO PUSH2 0x314C JUMPI POP DUP1 JUMPDEST DUP1 ISZERO PUSH2 0x3162 JUMPI POP PUSH1 0xAA SLOAD PUSH1 0x1 PUSH1 0xA0 SHL SWAP1 DIV PUSH1 0xFF AND ISZERO JUMPDEST DUP1 ISZERO PUSH2 0x3186 JUMPI POP PUSH1 0x1 PUSH1 0x1 PUSH1 0xA0 SHL SUB DUP5 AND PUSH1 0x0 SWAP1 DUP2 MSTORE PUSH1 0xB0 PUSH1 0x20 MSTORE PUSH1 0x40 SWAP1 KECCAK256 SLOAD PUSH1 0xFF AND JUMPDEST ISZERO PUSH2 0x3591 JUMPI PUSH1 0xAA DUP1 SLOAD PUSH1 0xFF PUSH1 0xA0 SHL NOT AND PUSH1 0x1 PUSH1 0xA0 SHL OR SWAP1 SSTORE PUSH1 0xAC SLOAD PUSH2 0x100 SWAP1 DIV PUSH1 0xFF AND ISZERO PUSH2 0x31B4 JUMPI PUSH1 0xAB SLOAD SWAP2 POP JUMPDEST PUSH1 0x0 PUSH1 0xA2 SLOAD PUSH1 0xA1 SLOAD PUSH2 0x31C6 SWAP2 SWAP1 PUSH2 0x4816 JUMP JUMPDEST SWAP1 POP PUSH1 0x0 PUSH1 0x98 SLOAD PUSH1 0x97 SLOAD PUSH2 0x31DA SWAP2 SWAP1 PUSH2 0x4816 JUMP JUMPDEST SWAP1 POP PUSH1 0x0 PUSH1 0x9A SLOAD PUSH1 0x99 SLOAD PUSH2 0x31EE SWAP2 SWAP1 PUSH2 0x4816 JUMP JUMPDEST SWAP1 POP PUSH1 0x0 PUSH1 0x9C SLOAD PUSH1 0x9B SLOAD PUSH2 0x3202 SWAP2 SWAP1 PUSH2 0x4816 JUMP JUMPDEST SWAP1 POP PUSH1 0x0 PUSH1 0x9E SLOAD PUSH1 0x9D SLOAD PUSH2 0x3216 SWAP2 SWAP1 PUSH2 0x4816 JUMP JUMPDEST SWAP1 POP PUSH1 0x0 PUSH1 0xA0 SLOAD PUSH1 0x9F SLOAD PUSH2 0x322A SWAP2 SWAP1 PUSH2 0x4816 JUMP JUMPDEST SWAP1 POP PUSH1 0x0 DUP3 ISZERO PUSH2 0x3254 JUMPI DUP7 PUSH2 0x323F DUP5 DUP12 PUSH2 0x47E6 JUMP JUMPDEST PUSH2 0x3249 SWAP2 SWAP1 PUSH2 0x48C0 JUMP JUMPDEST SWAP1 POP PUSH2 0x3254 DUP2 PUSH2 0x3D3D JUMP JUMPDEST PUSH2 0x325E DUP2 DUP11 PUSH2 0x4A31 JUMP JUMPDEST SWAP9 POP PUSH1 0x0 DUP3 DUP6 PUSH2 0x326E DUP9 DUP11 PUSH2 0x4816 JUMP JUMPDEST PUSH2 0x3278 SWAP2 SWAP1 PUSH2 0x4816 JUMP JUMPDEST PUSH2 0x3282 SWAP2 SWAP1 PUSH2 0x4816 JUMP JUMPDEST SWAP1 POP PUSH1 0x0 DUP11 GT DUP1 ISZERO PUSH2 0x3294 JUMPI POP PUSH1 0x0 DUP2 GT JUMPDEST ISZERO PUSH2 0x357B JUMPI PUSH1 0x40 DUP1 MLOAD PUSH1 0x2 DUP1 DUP3 MSTORE PUSH1 0x60 DUP3 ADD DUP4 MSTORE SELFBALANCE SWAP3 PUSH1 0x0 SWAP3 SWAP2 SWAP1 PUSH1 0x20 DUP4 ADD SWAP1 DUP1 CALLDATASIZE DUP4 CALLDATACOPY ADD SWAP1 POP POP SWAP1 POP ADDRESS DUP2 PUSH1 0x0 DUP2 MLOAD DUP2 LT PUSH2 0x32D2 JUMPI PUSH2 0x32D2 PUSH2 0x4846 JUMP JUMPDEST PUSH1 0x20 MUL PUSH1 0x20 ADD ADD SWAP1 PUSH1 0x1 PUSH1 0x1 PUSH1 0xA0 SHL SUB AND SWAP1 DUP2 PUSH1 0x1 PUSH1 0x1 PUSH1 0xA0 SHL SUB AND DUP2 MSTORE POP POP PUSH1 0xA8 PUSH1 0x1 SWAP1 SLOAD SWAP1 PUSH2 0x100 EXP SWAP1 DIV PUSH1 0x1 PUSH1 0x1 PUSH1 0xA0 SHL SUB AND PUSH1 0x1 PUSH1 0x1 PUSH1 0xA0 SHL SUB AND PUSH4 0xAD5C4648 PUSH1 0x40 MLOAD DUP2 PUSH4 0xFFFFFFFF AND PUSH1 0xE0 SHL DUP2 MSTORE PUSH1 0x4 ADD PUSH1 0x20 PUSH1 0x40 MLOAD DUP1 DUP4 SUB DUP2 DUP7 GAS STATICCALL ISZERO DUP1 ISZERO PUSH2 0x3345 JUMPI RETURNDATASIZE PUSH1 0x0 DUP1 RETURNDATACOPY RETURNDATASIZE PUSH1 0x0 REVERT JUMPDEST POP POP POP POP PUSH1 0x40 MLOAD RETURNDATASIZE PUSH1 0x1F NOT PUSH1 0x1F DUP3 ADD AND DUP3 ADD DUP1 PUSH1 0x40 MSTORE POP DUP2 ADD SWAP1 PUSH2 0x3369 SWAP2 SWAP1 PUSH2 0x4875 JUMP JUMPDEST DUP2 PUSH1 0x1 DUP2 MLOAD DUP2 LT PUSH2 0x337C JUMPI PUSH2 0x337C PUSH2 0x4846 JUMP JUMPDEST PUSH1 0x1 PUSH1 0x1 PUSH1 0xA0 SHL SUB SWAP3 DUP4 AND PUSH1 0x20 SWAP2 DUP3 MUL SWAP3 SWAP1 SWAP3 ADD ADD MSTORE PUSH1 0xA8 SLOAD PUSH1 0x40 MLOAD PUSH4 0x791AC947 PUSH1 0xE0 SHL DUP2 MSTORE PUSH2 0x100 SWAP1 SWAP2 DIV SWAP1 SWAP2 AND SWAP1 PUSH4 0x791AC947 SWAP1 PUSH2 0x33C9 SWAP1 DUP16 SWAP1 PUSH1 0x0 SWAP1 DUP7 SWAP1 ADDRESS SWAP1 TIMESTAMP SWAP1 PUSH1 0x4 ADD PUSH2 0x4A88 JUMP JUMPDEST PUSH1 0x0 PUSH1 0x40 MLOAD DUP1 DUP4 SUB DUP2 PUSH1 0x0 DUP8 DUP1 EXTCODESIZE ISZERO DUP1 ISZERO PUSH2 0x33E3 JUMPI PUSH1 0x0 DUP1 REVERT JUMPDEST POP GAS CALL ISZERO DUP1 ISZERO PUSH2 0x33F7 JUMPI RETURNDATASIZE PUSH1 0x0 DUP1 RETURNDATACOPY RETURNDATASIZE PUSH1 0x0 REVERT JUMPDEST POP POP POP POP PUSH1 0x0 DUP3 SELFBALANCE PUSH2 0x3409 SWAP2 SWAP1 PUSH2 0x4A31 JUMP JUMPDEST SWAP1 POP DUP10 ISZERO PUSH2 0x3476 JUMPI PUSH1 0x0 DUP5 PUSH2 0x341E DUP13 DUP5 PUSH2 0x47E6 JUMP JUMPDEST PUSH2 0x3428 SWAP2 SWAP1 PUSH2 0x48C0 JUMP JUMPDEST PUSH1 0xA3 SLOAD SWAP1 SWAP2 POP PUSH2 0x3441 SWAP1 PUSH1 0x1 PUSH1 0x1 PUSH1 0xA0 SHL SUB AND DUP3 PUSH2 0x3FB2 JUMP JUMPDEST PUSH1 0x40 MLOAD DUP2 DUP2 MSTORE PUSH32 0xDDCE3D5E4F18A9C2902704A38B56BAADD81A9AF59B8DED8A3220B6A6C1696B6B SWAP1 PUSH1 0x20 ADD PUSH1 0x40 MLOAD DUP1 SWAP2 SUB SWAP1 LOG1 POP JUMPDEST DUP9 ISZERO PUSH2 0x34E1 JUMPI PUSH1 0x0 DUP5 PUSH2 0x3489 DUP12 DUP5 PUSH2 0x47E6 JUMP JUMPDEST PUSH2 0x3493 SWAP2 SWAP1 PUSH2 0x48C0 JUMP JUMPDEST PUSH1 0xA4 SLOAD SWAP1 SWAP2 POP PUSH2 0x34AC SWAP1 PUSH1 0x1 PUSH1 0x1 PUSH1 0xA0 SHL SUB AND DUP3 PUSH2 0x3FB2 JUMP JUMPDEST PUSH1 0x40 MLOAD DUP2 DUP2 MSTORE PUSH32 0x59D84613F081326A5E426B911B5B8F5D47462357C27F406B97469E818ED8856E SWAP1 PUSH1 0x20 ADD PUSH1 0x40 MLOAD DUP1 SWAP2 SUB SWAP1 LOG1 POP JUMPDEST DUP8 ISZERO PUSH2 0x350B JUMPI PUSH1 0x0 DUP5 PUSH2 0x34F4 DUP11 DUP5 PUSH2 0x47E6 JUMP JUMPDEST PUSH2 0x34FE SWAP2 SWAP1 PUSH2 0x48C0 JUMP JUMPDEST SWAP1 POP PUSH2 0x3509 DUP2 PUSH2 0x40CB JUMP JUMPDEST POP JUMPDEST DUP6 ISZERO PUSH2 0x3577 JUMPI PUSH1 0x0 DUP5 PUSH2 0x351E DUP9 DUP5 PUSH2 0x47E6 JUMP JUMPDEST PUSH2 0x3528 SWAP2 SWAP1 PUSH2 0x48C0 JUMP JUMPDEST SWAP1 POP DUP1 PUSH1 0xA7 PUSH1 0x0 DUP3 DUP3 SLOAD PUSH2 0x353C SWAP2 SWAP1 PUSH2 0x4816 JUMP JUMPDEST SWAP1 SWAP2 SSTORE POP POP PUSH1 0xA6 SLOAD PUSH1 0xA7 SLOAD GT ISZERO PUSH2 0x3575 JUMPI PUSH1 0xA7 SLOAD SELFBALANCE LT PUSH2 0x3566 JUMPI PUSH2 0x3561 PUSH1 0xA7 SLOAD PUSH2 0x41B6 JUMP JUMPDEST PUSH2 0x356F JUMP JUMPDEST PUSH2 0x356F SELFBALANCE PUSH2 0x41B6 JUMP JUMPDEST PUSH1 0x0 PUSH1 0xA7 SSTORE JUMPDEST POP JUMPDEST POP POP POP JUMPDEST POP POP PUSH1 0xAA DUP1 SLOAD PUSH1 0xFF PUSH1 0xA0 SHL NOT AND SWAP1 SSTORE POP POP POP POP POP POP JUMPDEST PUSH1 0x1 PUSH1 0x1 PUSH1 0xA0 SHL SUB DUP6 AND PUSH1 0x0 SWAP1 DUP2 MSTORE PUSH1 0xAF PUSH1 0x20 MSTORE PUSH1 0x40 DUP2 KECCAK256 SLOAD PUSH1 0xFF AND DUP1 PUSH2 0x35D0 JUMPI POP PUSH1 0x1 PUSH1 0x1 PUSH1 0xA0 SHL SUB DUP6 AND PUSH1 0x0 SWAP1 DUP2 MSTORE PUSH1 0xAF PUSH1 0x20 MSTORE PUSH1 0x40 SWAP1 KECCAK256 SLOAD PUSH1 0xFF AND JUMPDEST DUP1 PUSH2 0x3610 JUMPI POP PUSH1 0xA8 SLOAD PUSH1 0xFF AND DUP1 ISZERO PUSH2 0x35F6 JUMPI POP PUSH1 0xA9 SLOAD PUSH1 0x1 PUSH1 0x1 PUSH1 0xA0 SHL SUB DUP8 DUP2 AND SWAP2 AND EQ ISZERO JUMPDEST DUP1 ISZERO PUSH2 0x3610 JUMPI POP PUSH1 0xA9 SLOAD PUSH1 0x1 PUSH1 0x1 PUSH1 0xA0 SHL SUB DUP7 DUP2 AND SWAP2 AND EQ ISZERO JUMPDEST DUP1 PUSH2 0x3624 JUMPI POP PUSH1 0xAA SLOAD PUSH1 0x1 PUSH1 0xA0 SHL SWAP1 DIV PUSH1 0xFF AND JUMPDEST ISZERO PUSH2 0x3631 JUMPI POP PUSH1 0x0 PUSH2 0x36FC JUMP JUMPDEST PUSH1 0xAE SLOAD PUSH1 0xFF AND DUP1 ISZERO PUSH2 0x364F JUMPI POP PUSH1 0xAD SLOAD PUSH2 0x364C PUSH1 0x12 TIMESTAMP PUSH2 0x4A31 JUMP JUMPDEST GT ISZERO JUMPDEST ISZERO PUSH2 0x365C JUMPI POP PUSH1 0x63 PUSH2 0x36FC JUMP JUMPDEST PUSH1 0xA9 SLOAD PUSH1 0x1 PUSH1 0x1 PUSH1 0xA0 SHL SUB SWAP1 DUP2 AND SWAP1 DUP8 AND SUB PUSH2 0x36B9 JUMPI PUSH1 0x1 PUSH1 0x1 PUSH1 0xA0 SHL SUB DUP6 AND PUSH1 0x0 SWAP1 DUP2 MSTORE PUSH1 0xB1 PUSH1 0x20 MSTORE PUSH1 0x40 SWAP1 KECCAK256 SLOAD ISZERO PUSH2 0x36AE JUMPI PUSH1 0x1 PUSH1 0x1 PUSH1 0xA0 SHL SUB DUP6 AND PUSH1 0x0 SWAP1 DUP2 MSTORE PUSH1 0xB1 PUSH1 0x20 MSTORE PUSH1 0x40 SWAP1 KECCAK256 SLOAD PUSH2 0x36B2 JUMP JUMPDEST PUSH1 0xA1 SLOAD JUMPDEST SWAP1 POP PUSH2 0x36FC JUMP JUMPDEST PUSH1 0x1 PUSH1 0x1 PUSH1 0xA0 SHL SUB DUP7 AND PUSH1 0x0 SWAP1 DUP2 MSTORE PUSH1 0xB1 PUSH1 0x20 MSTORE PUSH1 0x40 SWAP1 KECCAK256 SLOAD ISZERO PUSH2 0x36F5 JUMPI PUSH1 0x1 PUSH1 0x1 PUSH1 0xA0 SHL SUB DUP7 AND PUSH1 0x0 SWAP1 DUP2 MSTORE PUSH1 0xB1 PUSH1 0x20 MSTORE PUSH1 0x40 SWAP1 KECCAK256 SLOAD PUSH2 0x36F9 JUMP JUMPDEST PUSH1 0xA2 SLOAD JUMPDEST SWAP1 POP JUMPDEST DUP1 ISZERO PUSH2 0x374F JUMPI PUSH1 0x0 PUSH1 0x64 PUSH2 0x3710 DUP4 DUP8 PUSH2 0x47E6 JUMP JUMPDEST PUSH2 0x371A SWAP2 SWAP1 PUSH2 0x48C0 JUMP JUMPDEST SWAP1 POP PUSH2 0x3726 DUP2 DUP7 PUSH2 0x4A31 JUMP JUMPDEST SWAP5 POP PUSH2 0x374D DUP8 DUP4 PUSH1 0x63 EQ PUSH2 0x373A JUMPI ADDRESS PUSH2 0x3747 JUMP JUMPDEST PUSH1 0xA3 SLOAD PUSH1 0x1 PUSH1 0x1 PUSH1 0xA0 SHL SUB AND JUMPDEST DUP4 PUSH2 0x3C0C JUMP JUMPDEST POP JUMPDEST PUSH1 0xB6 SLOAD PUSH1 0xFF AND ISZERO PUSH2 0x384A JUMPI PUSH1 0x1 PUSH1 0x1 PUSH1 0xA0 SHL SUB DUP7 AND PUSH1 0x0 SWAP1 DUP2 MSTORE PUSH1 0xB5 PUSH1 0x20 MSTORE PUSH1 0x40 SWAP1 KECCAK256 SLOAD PUSH1 0xFF AND ISZERO DUP1 ISZERO PUSH2 0x379C JUMPI POP PUSH1 0x1 PUSH1 0x1 PUSH1 0xA0 SHL SUB DUP6 AND PUSH1 0x0 SWAP1 DUP2 MSTORE PUSH1 0xB5 PUSH1 0x20 MSTORE PUSH1 0x40 SWAP1 KECCAK256 SLOAD PUSH1 0xFF AND ISZERO JUMPDEST DUP1 ISZERO PUSH2 0x37B6 JUMPI POP PUSH1 0xA9 SLOAD PUSH1 0x1 PUSH1 0x1 PUSH1 0xA0 SHL SUB DUP7 DUP2 AND SWAP2 AND EQ ISZERO JUMPDEST ISZERO PUSH2 0x384A JUMPI PUSH1 0x1 PUSH1 0x1 PUSH1 0xA0 SHL SUB DUP6 AND PUSH1 0x0 SWAP1 DUP2 MSTORE PUSH1 0x33 PUSH1 0x20 MSTORE PUSH1 0x40 SWAP1 KECCAK256 SLOAD PUSH1 0xB7 SLOAD PUSH2 0x37E1 DUP7 DUP4 PUSH2 0x4816 JUMP JUMPDEST GT ISZERO PUSH2 0x3848 JUMPI PUSH1 0x40 MLOAD PUSH3 0x461BCD PUSH1 0xE5 SHL DUP2 MSTORE PUSH1 0x20 PUSH1 0x4 DUP3 ADD MSTORE PUSH1 0x30 PUSH1 0x24 DUP3 ADD MSTORE PUSH32 0x4D617857616C6C65743A20526563697069656E74206578636565647320746865 PUSH1 0x44 DUP3 ADD MSTORE PUSH16 0x81B585E15D85B1B195D105B5BDD5B9D PUSH1 0x82 SHL PUSH1 0x64 DUP3 ADD MSTORE PUSH1 0x84 ADD PUSH2 0x14EB JUMP JUMPDEST POP JUMPDEST PUSH2 0x3855 DUP7 DUP7 DUP7 PUSH2 0x3C0C JUMP JUMPDEST PUSH1 0xB2 SLOAD PUSH1 0x1 PUSH1 0x1 PUSH1 0xA0 SHL SUB AND PUSH4 0xE30443BC DUP8 PUSH2 0x3886 DUP2 PUSH1 0x1 PUSH1 0x1 PUSH1 0xA0 SHL SUB AND PUSH1 0x0 SWAP1 DUP2 MSTORE PUSH1 0x33 PUSH1 0x20 MSTORE PUSH1 0x40 SWAP1 KECCAK256 SLOAD SWAP1 JUMP JUMPDEST PUSH1 0x40 MLOAD PUSH1 0x1 PUSH1 0x1 PUSH1 0xE0 SHL SUB NOT PUSH1 0xE0 DUP6 SWAP1 SHL AND DUP2 MSTORE PUSH1 0x1 PUSH1 0x1 PUSH1 0xA0 SHL SUB SWAP1 SWAP3 AND PUSH1 0x4 DUP4 ADD MSTORE PUSH1 0x24 DUP3 ADD MSTORE PUSH1 0x44 ADD PUSH1 0x0 PUSH1 0x40 MLOAD DUP1 DUP4 SUB DUP2 PUSH1 0x0 DUP8 DUP1 EXTCODESIZE ISZERO DUP1 ISZERO PUSH2 0x38CC JUMPI PUSH1 0x0 DUP1 REVERT JUMPDEST POP GAS CALL SWAP3 POP POP POP DUP1 ISZERO PUSH2 0x38DD JUMPI POP PUSH1 0x1 JUMPDEST POP PUSH1 0xB2 SLOAD PUSH1 0x1 PUSH1 0x1 PUSH1 0xA0 SHL SUB AND PUSH4 0xE30443BC DUP7 PUSH2 0x390F DUP2 PUSH1 0x1 PUSH1 0x1 PUSH1 0xA0 SHL SUB AND PUSH1 0x0 SWAP1 DUP2 MSTORE PUSH1 0x33 PUSH1 0x20 MSTORE PUSH1 0x40 SWAP1 KECCAK256 SLOAD SWAP1 JUMP JUMPDEST PUSH1 0x40 MLOAD PUSH1 0x1 PUSH1 0x1 PUSH1 0xE0 SHL SUB NOT PUSH1 0xE0 DUP6 SWAP1 SHL AND DUP2 MSTORE PUSH1 0x1 PUSH1 0x1 PUSH1 0xA0 SHL SUB SWAP1 SWAP3 AND PUSH1 0x4 DUP4 ADD MSTORE PUSH1 0x24 DUP3 ADD MSTORE PUSH1 0x44 ADD PUSH1 0x0 PUSH1 0x40 MLOAD DUP1 DUP4 SUB DUP2 PUSH1 0x0 DUP8 DUP1 EXTCODESIZE ISZERO DUP1 ISZERO PUSH2 0x3955 JUMPI PUSH1 0x0 DUP1 REVERT JUMPDEST POP GAS CALL SWAP3 POP POP POP DUP1 ISZERO PUSH2 0x3966 JUMPI POP PUSH1 0x1 JUMPDEST POP PUSH1 0xAA SLOAD PUSH1 0x1 PUSH1 0xA0 SHL SWAP1 DIV PUSH1 0xFF AND PUSH2 0x3A3D JUMPI PUSH1 0xB4 SLOAD PUSH1 0xB2 SLOAD PUSH1 0x40 MLOAD PUSH1 0x1 PUSH3 0x4D3B87 PUSH1 0xE0 SHL SUB NOT DUP2 MSTORE PUSH1 0x4 DUP2 ADD DUP4 SWAP1 MSTORE PUSH1 0x1 PUSH1 0x1 PUSH1 0xA0 SHL SUB SWAP1 SWAP2 AND SWAP1 PUSH4 0xFFB2C479 SWAP1 PUSH1 0x24 ADD PUSH1 0x60 PUSH1 0x40 MLOAD DUP1 DUP4 SUB DUP2 PUSH1 0x0 DUP8 GAS CALL SWAP3 POP POP POP DUP1 ISZERO PUSH2 0x39E5 JUMPI POP PUSH1 0x40 DUP1 MLOAD PUSH1 0x1F RETURNDATASIZE SWAP1 DUP2 ADD PUSH1 0x1F NOT AND DUP3 ADD SWAP1 SWAP3 MSTORE PUSH2 0x39E2 SWAP2 DUP2 ADD SWAP1 PUSH2 0x4892 JUMP JUMPDEST PUSH1 0x1 JUMPDEST ISZERO PUSH2 0x3A3B JUMPI PUSH1 0x40 DUP1 MLOAD DUP5 DUP2 MSTORE PUSH1 0x20 DUP2 ADD DUP5 SWAP1 MSTORE SWAP1 DUP2 ADD DUP3 SWAP1 MSTORE PUSH1 0x60 DUP2 ADD DUP6 SWAP1 MSTORE ORIGIN SWAP1 PUSH1 0x1 SWAP1 PUSH32 0xC864333D6121033635AB41B29AE52F10A22CF4438C3E4F1C4C68518FEB2F8A98 SWAP1 PUSH1 0x80 ADD PUSH1 0x40 MLOAD DUP1 SWAP2 SUB SWAP1 LOG3 POP POP POP JUMPDEST POP JUMPDEST POP POP POP POP POP POP JUMP JUMPDEST PUSH1 0x65 DUP1 SLOAD PUSH1 0x1 PUSH1 0x1 PUSH1 0xA0 SHL SUB DUP4 DUP2 AND PUSH1 0x1 PUSH1 0x1 PUSH1 0xA0 SHL SUB NOT DUP4 AND DUP2 OR SWAP1 SWAP4 SSTORE PUSH1 0x40 MLOAD SWAP2 AND SWAP2 SWAP1 DUP3 SWAP1 PUSH32 0x8BE0079C531659141344CD1FD0A4F28419497F9722A3DAAFE3B4186F6B6457E0 SWAP1 PUSH1 0x0 SWAP1 LOG3 POP POP JUMP JUMPDEST PUSH1 0x0 SLOAD PUSH2 0x100 SWAP1 DIV PUSH1 0xFF AND PUSH2 0x3ABE JUMPI PUSH1 0x40 MLOAD PUSH3 0x461BCD PUSH1 0xE5 SHL DUP2 MSTORE PUSH1 0x4 ADD PUSH2 0x14EB SWAP1 PUSH2 0x4AC4 JUMP JUMPDEST PUSH2 0x19FD PUSH2 0x4346 JUMP JUMPDEST PUSH1 0x0 SLOAD PUSH2 0x100 SWAP1 DIV PUSH1 0xFF AND PUSH2 0x3AED JUMPI PUSH1 0x40 MLOAD PUSH3 0x461BCD PUSH1 0xE5 SHL DUP2 MSTORE PUSH1 0x4 ADD PUSH2 0x14EB SWAP1 PUSH2 0x4AC4 JUMP JUMPDEST PUSH2 0x14A0 DUP3 DUP3 PUSH2 0x4376 JUMP JUMPDEST PUSH1 0x1 PUSH1 0x1 PUSH1 0xA0 SHL SUB DUP3 AND PUSH2 0x3B4D JUMPI PUSH1 0x40 MLOAD PUSH3 0x461BCD PUSH1 0xE5 SHL DUP2 MSTORE PUSH1 0x20 PUSH1 0x4 DUP3 ADD MSTORE PUSH1 0x1F PUSH1 0x24 DUP3 ADD MSTORE PUSH32 0x45524332303A206D696E7420746F20746865207A65726F206164647265737300 PUSH1 0x44 DUP3 ADD MSTORE PUSH1 0x64 ADD PUSH2 0x14EB JUMP JUMPDEST DUP1 PUSH1 0x35 PUSH1 0x0 DUP3 DUP3 SLOAD PUSH2 0x3B5F SWAP2 SWAP1 PUSH2 0x4816 JUMP JUMPDEST SWAP1 SWAP2 SSTORE POP POP PUSH1 0x1 PUSH1 0x1 PUSH1 0xA0 SHL SUB DUP3 AND PUSH1 0x0 DUP2 DUP2 MSTORE PUSH1 0x33 PUSH1 0x20 SWAP1 DUP2 MSTORE PUSH1 0x40 DUP1 DUP4 KECCAK256 DUP1 SLOAD DUP7 ADD SWAP1 SSTORE MLOAD DUP5 DUP2 MSTORE PUSH32 0xDDF252AD1BE2C89B69C2B068FC378DAA952BA7F163C4A11628F55A4DF523B3EF SWAP2 ADD PUSH1 0x40 MLOAD DUP1 SWAP2 SUB SWAP1 LOG3 POP POP JUMP JUMPDEST PUSH1 0x1 PUSH1 0x1 PUSH1 0xA0 SHL SUB DUP3 AND PUSH1 0x0 DUP2 DUP2 MSTORE PUSH1 0xB0 PUSH1 0x20 MSTORE PUSH1 0x40 DUP1 DUP3 KECCAK256 DUP1 SLOAD PUSH1 0xFF NOT AND DUP6 ISZERO ISZERO SWAP1 DUP2 OR SWAP1 SWAP2 SSTORE SWAP1 MLOAD SWAP1 SWAP3 SWAP2 PUSH32 0xFFA9187BF1F18BF477BD0EA1BCBB64E93B6A98132473929EDFCE215CD9B16FAB SWAP2 LOG3 POP POP JUMP JUMPDEST PUSH1 0x1 PUSH1 0x1 PUSH1 0xA0 SHL SUB DUP4 AND PUSH2 0x3C32 JUMPI PUSH1 0x40 MLOAD PUSH3 0x461BCD PUSH1 0xE5 SHL DUP2 MSTORE PUSH1 0x4 ADD PUSH2 0x14EB SWAP1 PUSH2 0x494C JUMP JUMPDEST PUSH1 0x1 PUSH1 0x1 PUSH1 0xA0 SHL SUB DUP3 AND PUSH2 0x3C58 JUMPI PUSH1 0x40 MLOAD PUSH3 0x461BCD PUSH1 0xE5 SHL DUP2 MSTORE PUSH1 0x4 ADD PUSH2 0x14EB SWAP1 PUSH2 0x4991 JUMP JUMPDEST PUSH1 0x1 PUSH1 0x1 PUSH1 0xA0 SHL SUB DUP4 AND PUSH1 0x0 SWAP1 DUP2 MSTORE PUSH1 0x33 PUSH1 0x20 MSTORE PUSH1 0x40 SWAP1 KECCAK256 SLOAD DUP2 DUP2 LT ISZERO PUSH2 0x3CD0 JUMPI PUSH1 0x40 MLOAD PUSH3 0x461BCD PUSH1 0xE5 SHL DUP2 MSTORE PUSH1 0x20 PUSH1 0x4 DUP3 ADD MSTORE PUSH1 0x26 PUSH1 0x24 DUP3 ADD MSTORE PUSH32 0x45524332303A207472616E7366657220616D6F756E7420657863656564732062 PUSH1 0x44 DUP3 ADD MSTORE PUSH6 0x616C616E6365 PUSH1 0xD0 SHL PUSH1 0x64 DUP3 ADD MSTORE PUSH1 0x84 ADD PUSH2 0x14EB JUMP JUMPDEST PUSH1 0x1 PUSH1 0x1 PUSH1 0xA0 SHL SUB DUP1 DUP6 AND PUSH1 0x0 DUP2 DUP2 MSTORE PUSH1 0x33 PUSH1 0x20 MSTORE PUSH1 0x40 DUP1 DUP3 KECCAK256 DUP7 DUP7 SUB SWAP1 SSTORE SWAP3 DUP7 AND DUP1 DUP3 MSTORE SWAP1 DUP4 SWAP1 KECCAK256 DUP1 SLOAD DUP7 ADD SWAP1 SSTORE SWAP2 MLOAD PUSH32 0xDDF252AD1BE2C89B69C2B068FC378DAA952BA7F163C4A11628F55A4DF523B3EF SWAP1 PUSH2 0x3D30 SWAP1 DUP7 DUP2 MSTORE PUSH1 0x20 ADD SWAP1 JUMP JUMPDEST PUSH1 0x40 MLOAD DUP1 SWAP2 SUB SWAP1 LOG3 PUSH2 0x2C37 JUMP JUMPDEST PUSH1 0x0 PUSH2 0x3D4A PUSH1 0x2 DUP4 PUSH2 0x48C0 JUMP JUMPDEST SWAP1 POP PUSH1 0x0 PUSH2 0x3D58 DUP3 DUP5 PUSH2 0x4A31 JUMP JUMPDEST PUSH1 0x40 DUP1 MLOAD PUSH1 0x2 DUP1 DUP3 MSTORE PUSH1 0x60 DUP3 ADD DUP4 MSTORE SWAP3 SWAP4 POP SELFBALANCE SWAP3 PUSH1 0x0 SWAP3 PUSH1 0x20 DUP4 ADD SWAP1 DUP1 CALLDATASIZE DUP4 CALLDATACOPY ADD SWAP1 POP POP SWAP1 POP ADDRESS DUP2 PUSH1 0x0 DUP2 MLOAD DUP2 LT PUSH2 0x3D92 JUMPI PUSH2 0x3D92 PUSH2 0x4846 JUMP JUMPDEST PUSH1 0x20 MUL PUSH1 0x20 ADD ADD SWAP1 PUSH1 0x1 PUSH1 0x1 PUSH1 0xA0 SHL SUB AND SWAP1 DUP2 PUSH1 0x1 PUSH1 0x1 PUSH1 0xA0 SHL SUB AND DUP2 MSTORE POP POP PUSH1 0xA8 PUSH1 0x1 SWAP1 SLOAD SWAP1 PUSH2 0x100 EXP SWAP1 DIV PUSH1 0x1 PUSH1 0x1 PUSH1 0xA0 SHL SUB AND PUSH1 0x1 PUSH1 0x1 PUSH1 0xA0 SHL SUB AND PUSH4 0xAD5C4648 PUSH1 0x40 MLOAD DUP2 PUSH4 0xFFFFFFFF AND PUSH1 0xE0 SHL DUP2 MSTORE PUSH1 0x4 ADD PUSH1 0x20 PUSH1 0x40 MLOAD DUP1 DUP4 SUB DUP2 DUP7 GAS STATICCALL ISZERO DUP1 ISZERO PUSH2 0x3E05 JUMPI RETURNDATASIZE PUSH1 0x0 DUP1 RETURNDATACOPY RETURNDATASIZE PUSH1 0x0 REVERT JUMPDEST POP POP POP POP PUSH1 0x40 MLOAD RETURNDATASIZE PUSH1 0x1F NOT PUSH1 0x1F DUP3 ADD AND DUP3 ADD DUP1 PUSH1 0x40 MSTORE POP DUP2 ADD SWAP1 PUSH2 0x3E29 SWAP2 SWAP1 PUSH2 0x4875 JUMP JUMPDEST DUP2 PUSH1 0x1 DUP2 MLOAD DUP2 LT PUSH2 0x3E3C JUMPI PUSH2 0x3E3C PUSH2 0x4846 JUMP JUMPDEST PUSH1 0x1 PUSH1 0x1 PUSH1 0xA0 SHL SUB SWAP3 DUP4 AND PUSH1 0x20 SWAP2 DUP3 MUL SWAP3 SWAP1 SWAP3 ADD ADD MSTORE PUSH1 0xA8 SLOAD PUSH1 0x40 MLOAD PUSH4 0x791AC947 PUSH1 0xE0 SHL DUP2 MSTORE PUSH2 0x100 SWAP1 SWAP2 DIV SWAP1 SWAP2 AND SWAP1 PUSH4 0x791AC947 SWAP1 PUSH2 0x3E89 SWAP1 DUP8 SWAP1 PUSH1 0x0 SWAP1 DUP7 SWAP1 ADDRESS SWAP1 TIMESTAMP SWAP1 PUSH1 0x4 ADD PUSH2 0x4A88 JUMP JUMPDEST PUSH1 0x0 PUSH1 0x40 MLOAD DUP1 DUP4 SUB DUP2 PUSH1 0x0 DUP8 DUP1 EXTCODESIZE ISZERO DUP1 ISZERO PUSH2 0x3EA3 JUMPI PUSH1 0x0 DUP1 REVERT JUMPDEST POP GAS CALL ISZERO DUP1 ISZERO PUSH2 0x3EB7 JUMPI RETURNDATASIZE PUSH1 0x0 DUP1 RETURNDATACOPY RETURNDATASIZE PUSH1 0x0 REVERT JUMPDEST POP POP POP POP PUSH1 0x0 DUP3 SELFBALANCE PUSH2 0x3EC9 SWAP2 SWAP1 PUSH2 0x4A31 JUMP JUMPDEST PUSH1 0xA8 SLOAD PUSH1 0xAA SLOAD PUSH1 0x40 MLOAD PUSH4 0xF305D719 PUSH1 0xE0 SHL DUP2 MSTORE ADDRESS PUSH1 0x4 DUP3 ADD MSTORE PUSH1 0x24 DUP2 ADD DUP9 SWAP1 MSTORE PUSH1 0x0 PUSH1 0x44 DUP3 ADD DUP2 SWAP1 MSTORE PUSH1 0x64 DUP3 ADD MSTORE PUSH1 0x1 PUSH1 0x1 PUSH1 0xA0 SHL SUB SWAP2 DUP3 AND PUSH1 0x84 DUP3 ADD MSTORE TIMESTAMP PUSH1 0xA4 DUP3 ADD MSTORE SWAP3 SWAP4 POP PUSH2 0x100 SWAP1 SWAP2 DIV AND SWAP1 PUSH4 0xF305D719 SWAP1 DUP4 SWAP1 PUSH1 0xC4 ADD PUSH1 0x60 PUSH1 0x40 MLOAD DUP1 DUP4 SUB DUP2 DUP6 DUP9 GAS CALL ISZERO DUP1 ISZERO PUSH2 0x3F41 JUMPI RETURNDATASIZE PUSH1 0x0 DUP1 RETURNDATACOPY RETURNDATASIZE PUSH1 0x0 REVERT JUMPDEST POP POP POP POP POP PUSH1 0x40 MLOAD RETURNDATASIZE PUSH1 0x1F NOT PUSH1 0x1F DUP3 ADD AND DUP3 ADD DUP1 PUSH1 0x40 MSTORE POP DUP2 ADD SWAP1 PUSH2 0x3F66 SWAP2 SWAP1 PUSH2 0x4892 JUMP JUMPDEST POP POP PUSH1 0x40 DUP1 MLOAD DUP8 DUP2 MSTORE PUSH1 0x20 DUP2 ADD DUP5 SWAP1 MSTORE SWAP1 DUP2 ADD DUP7 SWAP1 MSTORE PUSH32 0x17BBFB9A6069321B6DED73BD96327C9E6B7212A5CD51FF219CD61370ACAFB561 SWAP2 POP PUSH1 0x60 ADD PUSH1 0x40 MLOAD DUP1 SWAP2 SUB SWAP1 LOG1 POP POP POP POP POP POP JUMP JUMPDEST DUP1 SELFBALANCE LT ISZERO PUSH2 0x4002 JUMPI PUSH1 0x40 MLOAD PUSH3 0x461BCD PUSH1 0xE5 SHL DUP2 MSTORE PUSH1 0x20 PUSH1 0x4 DUP3 ADD MSTORE PUSH1 0x1D PUSH1 0x24 DUP3 ADD MSTORE PUSH32 0x416464726573733A20696E73756666696369656E742062616C616E6365000000 PUSH1 0x44 DUP3 ADD MSTORE PUSH1 0x64 ADD PUSH2 0x14EB JUMP JUMPDEST PUSH1 0x0 DUP3 PUSH1 0x1 PUSH1 0x1 PUSH1 0xA0 SHL SUB AND DUP3 PUSH1 0x40 MLOAD PUSH1 0x0 PUSH1 0x40 MLOAD DUP1 DUP4 SUB DUP2 DUP6 DUP8 GAS CALL SWAP3 POP POP POP RETURNDATASIZE DUP1 PUSH1 0x0 DUP2 EQ PUSH2 0x404F JUMPI PUSH1 0x40 MLOAD SWAP2 POP PUSH1 0x1F NOT PUSH1 0x3F RETURNDATASIZE ADD AND DUP3 ADD PUSH1 0x40 MSTORE RETURNDATASIZE DUP3 MSTORE RETURNDATASIZE PUSH1 0x0 PUSH1 0x20 DUP5 ADD RETURNDATACOPY PUSH2 0x4054 JUMP JUMPDEST PUSH1 0x60 SWAP2 POP JUMPDEST POP POP SWAP1 POP DUP1 PUSH2 0x1556 JUMPI PUSH1 0x40 MLOAD PUSH3 0x461BCD PUSH1 0xE5 SHL DUP2 MSTORE PUSH1 0x20 PUSH1 0x4 DUP3 ADD MSTORE PUSH1 0x3A PUSH1 0x24 DUP3 ADD MSTORE PUSH32 0x416464726573733A20756E61626C6520746F2073656E642076616C75652C2072 PUSH1 0x44 DUP3 ADD MSTORE PUSH32 0x6563697069656E74206D61792068617665207265766572746564000000000000 PUSH1 0x64 DUP3 ADD MSTORE PUSH1 0x84 ADD PUSH2 0x14EB JUMP JUMPDEST PUSH1 0xB2 SLOAD PUSH1 0x40 MLOAD PUSH1 0x0 SWAP2 PUSH1 0x1 PUSH1 0x1 PUSH1 0xA0 SHL SUB AND SWAP1 DUP4 SWAP1 DUP4 DUP2 DUP2 DUP2 DUP6 DUP8 GAS CALL SWAP3 POP POP POP RETURNDATASIZE DUP1 PUSH1 0x0 DUP2 EQ PUSH2 0x4118 JUMPI PUSH1 0x40 MLOAD SWAP2 POP PUSH1 0x1F NOT PUSH1 0x3F RETURNDATASIZE ADD AND DUP3 ADD PUSH1 0x40 MSTORE RETURNDATASIZE DUP3 MSTORE RETURNDATASIZE PUSH1 0x0 PUSH1 0x20 DUP5 ADD RETURNDATACOPY PUSH2 0x411D JUMP JUMPDEST PUSH1 0x60 SWAP2 POP JUMPDEST POP POP SWAP1 POP DUP1 ISZERO PUSH2 0x14A0 JUMPI PUSH1 0xB2 SLOAD PUSH1 0x40 MLOAD PUSH4 0x3243C791 PUSH1 0xE0 SHL DUP2 MSTORE PUSH1 0x4 DUP2 ADD DUP5 SWAP1 MSTORE PUSH1 0x1 PUSH1 0x1 PUSH1 0xA0 SHL SUB SWAP1 SWAP2 AND SWAP1 PUSH4 0x3243C791 SWAP1 PUSH1 0x24 ADD PUSH1 0x0 PUSH1 0x40 MLOAD DUP1 DUP4 SUB DUP2 PUSH1 0x0 DUP8 DUP1 EXTCODESIZE ISZERO DUP1 ISZERO PUSH2 0x416D JUMPI PUSH1 0x0 DUP1 REVERT JUMPDEST POP GAS CALL ISZERO DUP1 ISZERO PUSH2 0x4181 JUMPI RETURNDATASIZE PUSH1 0x0 DUP1 RETURNDATACOPY RETURNDATASIZE PUSH1 0x0 REVERT JUMPDEST POP POP POP POP PUSH32 0xB0CC2628D6D644CF6BE9D8110E142297AC910D6D8026D795A99F272FD9AD60B1 DUP3 PUSH1 0x40 MLOAD PUSH2 0x26EF SWAP2 DUP2 MSTORE PUSH1 0x20 ADD SWAP1 JUMP JUMPDEST PUSH1 0x40 DUP1 MLOAD PUSH1 0x2 DUP1 DUP3 MSTORE PUSH1 0x60 DUP3 ADD DUP4 MSTORE PUSH1 0x0 SWAP3 PUSH1 0x20 DUP4 ADD SWAP1 DUP1 CALLDATASIZE DUP4 CALLDATACOPY ADD SWAP1 POP POP SWAP1 POP PUSH1 0xA8 PUSH1 0x1 SWAP1 SLOAD SWAP1 PUSH2 0x100 EXP SWAP1 DIV PUSH1 0x1 PUSH1 0x1 PUSH1 0xA0 SHL SUB AND PUSH1 0x1 PUSH1 0x1 PUSH1 0xA0 SHL SUB AND PUSH4 0xAD5C4648 PUSH1 0x40 MLOAD DUP2 PUSH4 0xFFFFFFFF AND PUSH1 0xE0 SHL DUP2 MSTORE PUSH1 0x4 ADD PUSH1 0x20 PUSH1 0x40 MLOAD DUP1 DUP4 SUB DUP2 DUP7 GAS STATICCALL ISZERO DUP1 ISZERO PUSH2 0x422A JUMPI RETURNDATASIZE PUSH1 0x0 DUP1 RETURNDATACOPY RETURNDATASIZE PUSH1 0x0 REVERT JUMPDEST POP POP POP POP PUSH1 0x40 MLOAD RETURNDATASIZE PUSH1 0x1F NOT PUSH1 0x1F DUP3 ADD AND DUP3 ADD DUP1 PUSH1 0x40 MSTORE POP DUP2 ADD SWAP1 PUSH2 0x424E SWAP2 SWAP1 PUSH2 0x4875 JUMP JUMPDEST DUP2 PUSH1 0x0 DUP2 MLOAD DUP2 LT PUSH2 0x4261 JUMPI PUSH2 0x4261 PUSH2 0x4846 JUMP JUMPDEST PUSH1 0x1 PUSH1 0x1 PUSH1 0xA0 SHL SUB SWAP3 DUP4 AND PUSH1 0x20 SWAP2 DUP3 MUL SWAP3 SWAP1 SWAP3 ADD ADD MSTORE PUSH1 0xA5 SLOAD DUP3 MLOAD SWAP2 AND SWAP1 DUP3 SWAP1 PUSH1 0x1 SWAP1 DUP2 LT PUSH2 0x4292 JUMPI PUSH2 0x4292 PUSH2 0x4846 JUMP JUMPDEST PUSH1 0x1 PUSH1 0x1 PUSH1 0xA0 SHL SUB SWAP3 DUP4 AND PUSH1 0x20 SWAP2 DUP3 MUL SWAP3 SWAP1 SWAP3 ADD ADD MSTORE PUSH1 0xA8 SLOAD PUSH1 0xAA SLOAD PUSH1 0x40 MLOAD PUSH4 0xB6F9DE95 PUSH1 0xE0 SHL DUP2 MSTORE PUSH2 0x100 SWAP1 SWAP3 DIV DUP4 AND SWAP3 PUSH4 0xB6F9DE95 SWAP3 DUP7 SWAP3 PUSH2 0x42E3 SWAP3 PUSH1 0x0 SWAP3 DUP9 SWAP3 SWAP1 SWAP2 AND SWAP1 TIMESTAMP SWAP1 PUSH1 0x4 ADD PUSH2 0x4B0F JUMP JUMPDEST PUSH1 0x0 PUSH1 0x40 MLOAD DUP1 DUP4 SUB DUP2 DUP6 DUP9 DUP1 EXTCODESIZE ISZERO DUP1 ISZERO PUSH2 0x42FC JUMPI PUSH1 0x0 DUP1 REVERT JUMPDEST POP GAS CALL ISZERO DUP1 ISZERO PUSH2 0x4310 JUMPI RETURNDATASIZE PUSH1 0x0 DUP1 RETURNDATACOPY RETURNDATASIZE PUSH1 0x0 REVERT JUMPDEST POP POP POP POP POP PUSH32 0xFCFA54313B92FCEED71362D6BFEC038726E592D2FA73D69C461986EEEDF74400 DUP3 PUSH1 0x40 MLOAD PUSH2 0x26EF SWAP2 DUP2 MSTORE PUSH1 0x20 ADD SWAP1 JUMP JUMPDEST PUSH1 0x0 SLOAD PUSH2 0x100 SWAP1 DIV PUSH1 0xFF AND PUSH2 0x436D JUMPI PUSH1 0x40 MLOAD PUSH3 0x461BCD PUSH1 0xE5 SHL DUP2 MSTORE PUSH1 0x4 ADD PUSH2 0x14EB SWAP1 PUSH2 0x4AC4 JUMP JUMPDEST PUSH2 0x19FD CALLER PUSH2 0x3A45 JUMP JUMPDEST PUSH1 0x0 SLOAD PUSH2 0x100 SWAP1 DIV PUSH1 0xFF AND PUSH2 0x439D JUMPI PUSH1 0x40 MLOAD PUSH3 0x461BCD PUSH1 0xE5 SHL DUP2 MSTORE PUSH1 0x4 ADD PUSH2 0x14EB SWAP1 PUSH2 0x4AC4 JUMP JUMPDEST PUSH1 0x36 PUSH2 0x43A9 DUP4 DUP3 PUSH2 0x4B8A JUMP JUMPDEST POP PUSH1 0x37 PUSH2 0x1556 DUP3 DUP3 PUSH2 0x4B8A JUMP JUMPDEST PUSH1 0x0 PUSH1 0x20 DUP1 DUP4 MSTORE DUP4 MLOAD DUP1 DUP3 DUP6 ADD MSTORE PUSH1 0x0 JUMPDEST DUP2 DUP2 LT ISZERO PUSH2 0x43E3 JUMPI DUP6 DUP2 ADD DUP4 ADD MLOAD DUP6 DUP3 ADD PUSH1 0x40 ADD MSTORE DUP3 ADD PUSH2 0x43C7 JUMP JUMPDEST POP PUSH1 0x0 PUSH1 0x40 DUP3 DUP7 ADD ADD MSTORE PUSH1 0x40 PUSH1 0x1F NOT PUSH1 0x1F DUP4 ADD AND DUP6 ADD ADD SWAP3 POP POP POP SWAP3 SWAP2 POP POP JUMP JUMPDEST PUSH1 0x1 PUSH1 0x1 PUSH1 0xA0 SHL SUB DUP2 AND DUP2 EQ PUSH2 0x15EF JUMPI PUSH1 0x0 DUP1 REVERT JUMPDEST DUP1 CALLDATALOAD PUSH2 0x4424 DUP2 PUSH2 0x4404 JUMP JUMPDEST SWAP2 SWAP1 POP JUMP JUMPDEST PUSH1 0x0 DUP1 PUSH1 0x40 DUP4 DUP6 SUB SLT ISZERO PUSH2 0x443C JUMPI PUSH1 0x0 DUP1 REVERT JUMPDEST DUP3 CALLDATALOAD PUSH2 0x4447 DUP2 PUSH2 0x4404 JUMP JUMPDEST SWAP5 PUSH1 0x20 SWAP4 SWAP1 SWAP4 ADD CALLDATALOAD SWAP4 POP POP POP JUMP JUMPDEST DUP1 ISZERO ISZERO DUP2 EQ PUSH2 0x15EF JUMPI PUSH1 0x0 DUP1 REVERT JUMPDEST PUSH1 0x0 DUP1 PUSH1 0x40 DUP4 DUP6 SUB SLT ISZERO PUSH2 0x4476 JUMPI PUSH1 0x0 DUP1 REVERT JUMPDEST DUP3 CALLDATALOAD PUSH2 0x4481 DUP2 PUSH2 0x4404 JUMP JUMPDEST SWAP2 POP PUSH1 0x20 DUP4 ADD CALLDATALOAD PUSH2 0x4491 DUP2 PUSH2 0x4455 JUMP JUMPDEST DUP1 SWAP2 POP POP SWAP3 POP SWAP3 SWAP1 POP JUMP JUMPDEST PUSH1 0x0 PUSH1 0x20 DUP3 DUP5 SUB SLT ISZERO PUSH2 0x44AE JUMPI PUSH1 0x0 DUP1 REVERT JUMPDEST DUP2 CALLDATALOAD PUSH2 0x44B9 DUP2 PUSH2 0x4404 JUMP JUMPDEST SWAP4 SWAP3 POP POP POP JUMP JUMPDEST PUSH1 0x0 DUP1 PUSH1 0x0 PUSH1 0x60 DUP5 DUP7 SUB SLT ISZERO PUSH2 0x44D5 JUMPI PUSH1 0x0 DUP1 REVERT JUMPDEST DUP4 CALLDATALOAD PUSH2 0x44E0 DUP2 PUSH2 0x4404 JUMP JUMPDEST SWAP3 POP PUSH1 0x20 DUP5 ADD CALLDATALOAD PUSH2 0x44F0 DUP2 PUSH2 0x4404 JUMP JUMPDEST SWAP3 SWAP6 SWAP3 SWAP5 POP POP POP PUSH1 0x40 SWAP2 SWAP1 SWAP2 ADD CALLDATALOAD SWAP1 JUMP JUMPDEST PUSH1 0x0 PUSH1 0x20 DUP3 DUP5 SUB SLT ISZERO PUSH2 0x4513 JUMPI PUSH1 0x0 DUP1 REVERT JUMPDEST POP CALLDATALOAD SWAP2 SWAP1 POP JUMP JUMPDEST PUSH1 0x0 PUSH1 0x20 DUP3 DUP5 SUB SLT ISZERO PUSH2 0x452C JUMPI PUSH1 0x0 DUP1 REVERT JUMPDEST DUP2 CALLDATALOAD PUSH2 0x44B9 DUP2 PUSH2 0x4455 JUMP JUMPDEST PUSH4 0x4E487B71 PUSH1 0xE0 SHL PUSH1 0x0 MSTORE PUSH1 0x41 PUSH1 0x4 MSTORE PUSH1 0x24 PUSH1 0x0 REVERT JUMPDEST PUSH1 0x0 DUP1 PUSH1 0x40 DUP4 DUP6 SUB SLT ISZERO PUSH2 0x4560 JUMPI PUSH1 0x0 DUP1 REVERT JUMPDEST DUP3 CALLDATALOAD PUSH8 0xFFFFFFFFFFFFFFFF DUP1 DUP3 GT ISZERO PUSH2 0x4578 JUMPI PUSH1 0x0 DUP1 REVERT JUMPDEST DUP2 DUP6 ADD SWAP2 POP DUP6 PUSH1 0x1F DUP4 ADD SLT PUSH2 0x458C JUMPI PUSH1 0x0 DUP1 REVERT JUMPDEST DUP2 CALLDATALOAD PUSH1 0x20 DUP3 DUP3 GT ISZERO PUSH2 0x45A0 JUMPI PUSH2 0x45A0 PUSH2 0x4537 JUMP JUMPDEST DUP2 PUSH1 0x5 SHL PUSH1 0x40 MLOAD PUSH1 0x1F NOT PUSH1 0x3F DUP4 ADD AND DUP2 ADD DUP2 DUP2 LT DUP7 DUP3 GT OR ISZERO PUSH2 0x45C5 JUMPI PUSH2 0x45C5 PUSH2 0x4537 JUMP JUMPDEST PUSH1 0x40 MSTORE SWAP3 DUP4 MSTORE DUP2 DUP4 ADD SWAP4 POP DUP5 DUP2 ADD DUP3 ADD SWAP3 DUP10 DUP5 GT ISZERO PUSH2 0x45E3 JUMPI PUSH1 0x0 DUP1 REVERT JUMPDEST SWAP5 DUP3 ADD SWAP5 JUMPDEST DUP4 DUP7 LT ISZERO PUSH2 0x4608 JUMPI PUSH2 0x45F9 DUP7 PUSH2 0x4419 JUMP JUMPDEST DUP6 MSTORE SWAP5 DUP3 ADD SWAP5 SWAP4 DUP3 ADD SWAP4 PUSH2 0x45E8 JUMP JUMPDEST SWAP10 SWAP8 SWAP1 SWAP2 ADD CALLDATALOAD SWAP8 POP POP POP POP POP POP POP JUMP JUMPDEST PUSH1 0x0 DUP1 PUSH1 0x40 DUP4 DUP6 SUB SLT ISZERO PUSH2 0x462B JUMPI PUSH1 0x0 DUP1 REVERT JUMPDEST POP POP DUP1 CALLDATALOAD SWAP3 PUSH1 0x20 SWAP1 SWAP2 ADD CALLDATALOAD SWAP2 POP JUMP JUMPDEST PUSH1 0x0 DUP1 PUSH1 0x40 DUP4 DUP6 SUB SLT ISZERO PUSH2 0x464D JUMPI PUSH1 0x0 DUP1 REVERT JUMPDEST DUP3 CALLDATALOAD PUSH2 0x4658 DUP2 PUSH2 0x4404 JUMP JUMPDEST SWAP2 POP PUSH1 0x20 DUP4 ADD CALLDATALOAD PUSH2 0x4491 DUP2 PUSH2 0x4404 JUMP JUMPDEST PUSH1 0x0 DUP1 PUSH1 0x0 DUP1 PUSH1 0x0 PUSH1 0xA0 DUP7 DUP9 SUB SLT ISZERO PUSH2 0x4680 JUMPI PUSH1 0x0 DUP1 REVERT JUMPDEST POP POP DUP4 CALLDATALOAD SWAP6 PUSH1 0x20 DUP6 ADD CALLDATALOAD SWAP6 POP PUSH1 0x40 DUP6 ADD CALLDATALOAD SWAP5 PUSH1 0x60 DUP2 ADD CALLDATALOAD SWAP5 POP PUSH1 0x80 ADD CALLDATALOAD SWAP3 POP SWAP1 POP JUMP JUMPDEST PUSH1 0x1 DUP2 DUP2 SHR SWAP1 DUP3 AND DUP1 PUSH2 0x46B7 JUMPI PUSH1 0x7F DUP3 AND SWAP2 POP JUMPDEST PUSH1 0x20 DUP3 LT DUP2 SUB PUSH2 0x46D7 JUMPI PUSH4 0x4E487B71 PUSH1 0xE0 SHL PUSH1 0x0 MSTORE PUSH1 0x22 PUSH1 0x4 MSTORE PUSH1 0x24 PUSH1 0x0 REVERT JUMPDEST POP SWAP2 SWAP1 POP JUMP JUMPDEST PUSH4 0x4E487B71 PUSH1 0xE0 SHL PUSH1 0x0 MSTORE PUSH1 0x11 PUSH1 0x4 MSTORE PUSH1 0x24 PUSH1 0x0 REVERT JUMPDEST PUSH1 0x1 DUP2 DUP2 JUMPDEST DUP1 DUP6 GT ISZERO PUSH2 0x472E JUMPI DUP2 PUSH1 0x0 NOT DIV DUP3 GT ISZERO PUSH2 0x4714 JUMPI PUSH2 0x4714 PUSH2 0x46DD JUMP JUMPDEST DUP1 DUP6 AND ISZERO PUSH2 0x4721 JUMPI SWAP2 DUP2 MUL SWAP2 JUMPDEST SWAP4 DUP5 SHR SWAP4 SWAP1 DUP1 MUL SWAP1 PUSH2 0x46F8 JUMP JUMPDEST POP SWAP3 POP SWAP3 SWAP1 POP JUMP JUMPDEST PUSH1 0x0 DUP3 PUSH2 0x4745 JUMPI POP PUSH1 0x1 PUSH2 0x1108 JUMP JUMPDEST DUP2 PUSH2 0x4752 JUMPI POP PUSH1 0x0 PUSH2 0x1108 JUMP JUMPDEST DUP2 PUSH1 0x1 DUP2 EQ PUSH2 0x4768 JUMPI PUSH1 0x2 DUP2 EQ PUSH2 0x4772 JUMPI PUSH2 0x478E JUMP JUMPDEST PUSH1 0x1 SWAP2 POP POP PUSH2 0x1108 JUMP JUMPDEST PUSH1 0xFF DUP5 GT ISZERO PUSH2 0x4783 JUMPI PUSH2 0x4783 PUSH2 0x46DD JUMP JUMPDEST POP POP PUSH1 0x1 DUP3 SHL PUSH2 0x1108 JUMP JUMPDEST POP PUSH1 0x20 DUP4 LT PUSH2 0x133 DUP4 LT AND PUSH1 0x4E DUP5 LT PUSH1 0xB DUP5 LT AND OR ISZERO PUSH2 0x47B1 JUMPI POP DUP2 DUP2 EXP PUSH2 0x1108 JUMP JUMPDEST PUSH2 0x47BB DUP4 DUP4 PUSH2 0x46F3 JUMP JUMPDEST DUP1 PUSH1 0x0 NOT DIV DUP3 GT ISZERO PUSH2 0x47CF JUMPI PUSH2 0x47CF PUSH2 0x46DD JUMP JUMPDEST MUL SWAP4 SWAP3 POP POP POP JUMP JUMPDEST PUSH1 0x0 PUSH2 0x44B9 PUSH1 0xFF DUP5 AND DUP4 PUSH2 0x4736 JUMP JUMPDEST DUP1 DUP3 MUL DUP2 ISZERO DUP3 DUP3 DIV DUP5 EQ OR PUSH2 0x1108 JUMPI PUSH2 0x1108 PUSH2 0x46DD JUMP JUMPDEST PUSH1 0x0 PUSH1 0x20 DUP3 DUP5 SUB SLT ISZERO PUSH2 0x480F JUMPI PUSH1 0x0 DUP1 REVERT JUMPDEST POP MLOAD SWAP2 SWAP1 POP JUMP JUMPDEST DUP1 DUP3 ADD DUP1 DUP3 GT ISZERO PUSH2 0x1108 JUMPI PUSH2 0x1108 PUSH2 0x46DD JUMP JUMPDEST PUSH1 0x0 PUSH1 0x20 DUP3 DUP5 SUB SLT ISZERO PUSH2 0x483B JUMPI PUSH1 0x0 DUP1 REVERT JUMPDEST DUP2 MLOAD PUSH2 0x44B9 DUP2 PUSH2 0x4455 JUMP JUMPDEST PUSH4 0x4E487B71 PUSH1 0xE0 SHL PUSH1 0x0 MSTORE PUSH1 0x32 PUSH1 0x4 MSTORE PUSH1 0x24 PUSH1 0x0 REVERT JUMPDEST PUSH1 0x0 PUSH1 0x1 DUP3 ADD PUSH2 0x486E JUMPI PUSH2 0x486E PUSH2 0x46DD JUMP JUMPDEST POP PUSH1 0x1 ADD SWAP1 JUMP JUMPDEST PUSH1 0x0 PUSH1 0x20 DUP3 DUP5 SUB SLT ISZERO PUSH2 0x4887 JUMPI PUSH1 0x0 DUP1 REVERT JUMPDEST DUP2 MLOAD PUSH2 0x44B9 DUP2 PUSH2 0x4404 JUMP JUMPDEST PUSH1 0x0 DUP1 PUSH1 0x0 PUSH1 0x60 DUP5 DUP7 SUB SLT ISZERO PUSH2 0x48A7 JUMPI PUSH1 0x0 DUP1 REVERT JUMPDEST DUP4 MLOAD SWAP3 POP PUSH1 0x20 DUP5 ADD MLOAD SWAP2 POP PUSH1 0x40 DUP5 ADD MLOAD SWAP1 POP SWAP3 POP SWAP3 POP SWAP3 JUMP JUMPDEST PUSH1 0x0 DUP3 PUSH2 0x48DD JUMPI PUSH4 0x4E487B71 PUSH1 0xE0 SHL PUSH1 0x0 MSTORE PUSH1 0x12 PUSH1 0x4 MSTORE PUSH1 0x24 PUSH1 0x0 REVERT JUMPDEST POP DIV SWAP1 JUMP JUMPDEST PUSH1 0x0 DUP1 PUSH1 0x0 DUP1 PUSH1 0x0 DUP1 PUSH1 0x0 DUP1 PUSH2 0x100 DUP10 DUP12 SUB SLT ISZERO PUSH2 0x48FF JUMPI PUSH1 0x0 DUP1 REVERT JUMPDEST DUP9 MLOAD PUSH2 0x490A DUP2 PUSH2 0x4404 JUMP JUMPDEST DUP1 SWAP9 POP POP PUSH1 0x20 DUP10 ADD MLOAD SWAP7 POP PUSH1 0x40 DUP10 ADD MLOAD SWAP6 POP PUSH1 0x60 DUP10 ADD MLOAD SWAP5 POP PUSH1 0x80 DUP10 ADD MLOAD SWAP4 POP PUSH1 0xA0 DUP10 ADD MLOAD SWAP3 POP PUSH1 0xC0 DUP10 ADD MLOAD SWAP2 POP PUSH1 0xE0 DUP10 ADD MLOAD SWAP1 POP SWAP3 SWAP6 SWAP9 POP SWAP3 SWAP6 SWAP9 SWAP1 SWAP4 SWAP7 POP JUMP JUMPDEST PUSH1 0x20 DUP1 DUP3 MSTORE PUSH1 0x25 SWAP1 DUP3 ADD MSTORE PUSH32 0x45524332303A207472616E736665722066726F6D20746865207A65726F206164 PUSH1 0x40 DUP3 ADD MSTORE PUSH5 0x6472657373 PUSH1 0xD8 SHL PUSH1 0x60 DUP3 ADD MSTORE PUSH1 0x80 ADD SWAP1 JUMP JUMPDEST PUSH1 0x20 DUP1 DUP3 MSTORE PUSH1 0x23 SWAP1 DUP3 ADD MSTORE PUSH32 0x45524332303A207472616E7366657220746F20746865207A65726F2061646472 PUSH1 0x40 DUP3 ADD MSTORE PUSH3 0x657373 PUSH1 0xE8 SHL PUSH1 0x60 DUP3 ADD MSTORE PUSH1 0x80 ADD SWAP1 JUMP JUMPDEST PUSH1 0x20 DUP1 DUP3 MSTORE PUSH1 0x3B SWAP1 DUP3 ADD MSTORE PUSH32 0x416E74695768616C653A205472616E7366657220616D6F756E74206578636565 PUSH1 0x40 DUP3 ADD MSTORE PUSH32 0x647320746865206D61785472616E73616374696F6E416D6F756E740000000000 PUSH1 0x60 DUP3 ADD MSTORE PUSH1 0x80 ADD SWAP1 JUMP JUMPDEST DUP2 DUP2 SUB DUP2 DUP2 GT ISZERO PUSH2 0x1108 JUMPI PUSH2 0x1108 PUSH2 0x46DD JUMP JUMPDEST PUSH1 0x0 DUP2 MLOAD DUP1 DUP5 MSTORE PUSH1 0x20 DUP1 DUP6 ADD SWAP5 POP DUP1 DUP5 ADD PUSH1 0x0 JUMPDEST DUP4 DUP2 LT ISZERO PUSH2 0x4A7D JUMPI DUP2 MLOAD PUSH1 0x1 PUSH1 0x1 PUSH1 0xA0 SHL SUB AND DUP8 MSTORE SWAP6 DUP3 ADD SWAP6 SWAP1 DUP3 ADD SWAP1 PUSH1 0x1 ADD PUSH2 0x4A58 JUMP JUMPDEST POP SWAP5 SWAP6 SWAP5 POP POP POP POP POP JUMP JUMPDEST DUP6 DUP2 MSTORE DUP5 PUSH1 0x20 DUP3 ADD MSTORE PUSH1 0xA0 PUSH1 0x40 DUP3 ADD MSTORE PUSH1 0x0 PUSH2 0x4AA7 PUSH1 0xA0 DUP4 ADD DUP7 PUSH2 0x4A44 JUMP JUMPDEST PUSH1 0x1 PUSH1 0x1 PUSH1 0xA0 SHL SUB SWAP5 SWAP1 SWAP5 AND PUSH1 0x60 DUP4 ADD MSTORE POP PUSH1 0x80 ADD MSTORE SWAP4 SWAP3 POP POP POP JUMP JUMPDEST PUSH1 0x20 DUP1 DUP3 MSTORE PUSH1 0x2B SWAP1 DUP3 ADD MSTORE PUSH32 0x496E697469616C697A61626C653A20636F6E7472616374206973206E6F742069 PUSH1 0x40 DUP3 ADD MSTORE PUSH11 0x6E697469616C697A696E67 PUSH1 0xA8 SHL PUSH1 0x60 DUP3 ADD MSTORE PUSH1 0x80 ADD SWAP1 JUMP JUMPDEST DUP5 DUP2 MSTORE PUSH1 0x80 PUSH1 0x20 DUP3 ADD MSTORE PUSH1 0x0 PUSH2 0x4B28 PUSH1 0x80 DUP4 ADD DUP7 PUSH2 0x4A44 JUMP JUMPDEST PUSH1 0x1 PUSH1 0x1 PUSH1 0xA0 SHL SUB SWAP5 SWAP1 SWAP5 AND PUSH1 0x40 DUP4 ADD MSTORE POP PUSH1 0x60 ADD MSTORE SWAP3 SWAP2 POP POP JUMP JUMPDEST PUSH1 0x1F DUP3 GT ISZERO PUSH2 0x1556 JUMPI PUSH1 0x0 DUP2 DUP2 MSTORE PUSH1 0x20 DUP2 KECCAK256 PUSH1 0x1F DUP6 ADD PUSH1 0x5 SHR DUP2 ADD PUSH1 0x20 DUP7 LT ISZERO PUSH2 0x4B6B JUMPI POP DUP1 JUMPDEST PUSH1 0x1F DUP6 ADD PUSH1 0x5 SHR DUP3 ADD SWAP2 POP JUMPDEST DUP2 DUP2 LT ISZERO PUSH2 0x3A3D JUMPI DUP3 DUP2 SSTORE PUSH1 0x1 ADD PUSH2 0x4B77 JUMP JUMPDEST DUP2 MLOAD PUSH8 0xFFFFFFFFFFFFFFFF DUP2 GT ISZERO PUSH2 0x4BA4 JUMPI PUSH2 0x4BA4 PUSH2 0x4537 JUMP JUMPDEST PUSH2 0x4BB8 DUP2 PUSH2 0x4BB2 DUP5 SLOAD PUSH2 0x46A3 JUMP JUMPDEST DUP5 PUSH2 0x4B44 JUMP JUMPDEST PUSH1 0x20 DUP1 PUSH1 0x1F DUP4 GT PUSH1 0x1 DUP2 EQ PUSH2 0x4BED JUMPI PUSH1 0x0 DUP5 ISZERO PUSH2 0x4BD5 JUMPI POP DUP6 DUP4 ADD MLOAD JUMPDEST PUSH1 0x0 NOT PUSH1 0x3 DUP7 SWAP1 SHL SHR NOT AND PUSH1 0x1 DUP6 SWAP1 SHL OR DUP6 SSTORE PUSH2 0x3A3D JUMP JUMPDEST PUSH1 0x0 DUP6 DUP2 MSTORE PUSH1 0x20 DUP2 KECCAK256 PUSH1 0x1F NOT DUP7 AND SWAP2 JUMPDEST DUP3 DUP2 LT ISZERO PUSH2 0x4C1C JUMPI DUP9 DUP7 ADD MLOAD DUP3 SSTORE SWAP5 DUP5 ADD SWAP5 PUSH1 0x1 SWAP1 SWAP2 ADD SWAP1 DUP5 ADD PUSH2 0x4BFD JUMP JUMPDEST POP DUP6 DUP3 LT ISZERO PUSH2 0x4C3A JUMPI DUP8 DUP6 ADD MLOAD PUSH1 0x0 NOT PUSH1 0x3 DUP9 SWAP1 SHL PUSH1 0xF8 AND SHR NOT AND DUP2 SSTORE JUMPDEST POP POP POP POP POP PUSH1 0x1 SWAP1 DUP2 SHL ADD SWAP1 SSTORE POP JUMP INVALID LOG2 PUSH5 0x6970667358 0x22 SLT KECCAK256 MLOAD SUB 0xE3 POP 0xD CALLVALUE SSTORE SWAP13 PUSH1 0x14 SWAP3 0xAC 0x5C 0xD4 0xDB 0x26 DUP16 PUSH21 0xD7A0107AA254B1613B5310C188C064736F6C634300 ADDMOD GT STOP CALLER "},"methodIdentifiers":{"accumulatedBuybackBNB()":"41ec9942","allowance(address,address)":"dd62ed3e","approve(address,uint256)":"095ea7b3","automatedMarketMakerPairs(address)":"b62496f5","balanceOf(address)":"70a08231","bnbValueForBuyBurn()":"db9f2ed6","buyBackFeeOnBuy()":"328b2d9f","buyBackFeeOnSell()":"43807c7f","buybackToken()":"02639001","changeBuybackToken(address)":"35d67daa","changeDevelopmentWallet(address)":"9a679cf6","changeMarketingWallet(address)":"bb85c6d1","claim()":"4e71d92d","claimAddress(address)":"3f249df0","claimStuckTokens(address)":"f9d0831a","decimals()":"313ce567","decreaseAllowance(address,uint256)":"a457c2d7","developmentFeeOnBuy()":"25ecca87","developmentFeeOnSell()":"1dac24d6","developmentWallet()":"c04a5414","disableTrading()":"17700f01","dividendTokenBalanceOf(address)":"6843cd84","dividendTracker()":"2c1f5216","enableTrading()":"8a8c523c","enableTradingWithAntiBot()":"42efad2c","enableWalletToWalletTransferWithoutFee(bool)":"5654d0b3","excludeFromDividends(address)":"31e79db0","excludeFromFees(address,bool)":"c0246668","gasForProcessing()":"9c1b8af5","getAccountDividendsInfo(address)":"ad56c13c","getAccountDividendsInfoAtIndex(uint256)":"f27fd254","getClaimWait()":"a26579ad","getLastProcessedIndex()":"e7841ec0","getNumberOfDividendTokenHolders()":"64b0f653","getTotalDividendsDistributed()":"30bb4cff","increaseAllowance(address,uint256)":"39509351","initialize()":"8129fc1c","isExcludedFromFees(address)":"4fbee193","isExcludedFromMaxTransaction(address)":"18d9ceae","isExcludedFromMaxWalletLimit(address)":"a8a69b9d","launchTime()":"790ca413","liquidityFeeOnBuy()":"7b3c83b1","liquidityFeeOnSell()":"2ce86fbf","marketingFeeOnBuy()":"5fc2e596","marketingFeeOnSell()":"dc4c7dbc","marketingWallet()":"75f0a874","maxTransactionAmountBuy()":"0105d0fd","maxTransactionAmountSell()":"59136fa5","maxTransactionLimitEnabled()":"2ba86bf2","maxWalletAmount()":"aa4bde28","maxWalletLimitEnabled()":"21a9d82a","name()":"06fdde03","owner()":"8da5cb5b","processDividendTracker(uint256)":"700bb191","renounceOwnership()":"715018a6","rewardFeeOnBuy()":"768b2a73","rewardFeeOnSell()":"05452b87","rewardToken()":"f7c618c1","setAntibotEnabled(bool)":"f2f3125f","setEnableMaxTransactionLimit(bool)":"56a6cabf","setEnableMaxWalletLimit(bool)":"2a6c7dba","setExcludeFromMaxTransactionLimit(address,bool)":"150c880c","setExcludeFromMaxWallet(address,bool)":"929f1360","setLastProcessedIndex(uint256)":"286b3aa0","setMaxTransactionAmounts(uint256,uint256)":"b6f7f681","setMaxWalletAmount(uint256)":"27a14fc2","setSpecialFees(address[],uint256)":"41b37c8e","setSwapEnabled(bool)":"e01af92c","setSwapTokensAtAmount(uint256)":"afa4f3b2","setSwapWithLimit(bool)":"988be118","setbnbValueForBuyBurn(uint256)":"aed970d5","specialFees(address)":"f81b6846","swapEnabled()":"6ddd1713","swapTokensAtAmount()":"e2f45605","swapWithLimit()":"488eb37f","symbol()":"95d89b41","totalRewardsEarned(address)":"e4f24cb0","totalSupply()":"18160ddd","tradingEnabled()":"4ada218b","transfer(address,uint256)":"a9059cbb","transferFrom(address,address,uint256)":"23b872dd","transferOwnership(address)":"f2fde38b","uniswapV2Pair()":"49bd5a5e","uniswapV2Router()":"1694505e","updateBuyFees(uint256,uint256,uint256,uint256,uint256)":"f170d7fd","updateClaimWait(uint256)":"e98030c7","updateDividendTracker(address)":"88bdd9be","updateGasForProcessing(uint256)":"871c128d","updateMinimumBalanceForDividends(uint256)":"3b364da8","updateSellFees(uint256,uint256,uint256,uint256,uint256)":"ff935af6","updateUniswapV2Router(address)":"65b8dbc0","walletToWalletTransferWithoutFee()":"1529fbbf","withdrawableDividendOf(address)":"a8b9d240"}},"storageLayout":{"storage":[{"astId":274,"contract":"contracts/CookieSaleTokenProxy.sol:COOKIE","label":"_initialized","offset":0,"slot":"0","type":"t_uint8"},{"astId":276,"contract":"contracts/CookieSaleTokenProxy.sol:COOKIE","label":"_initializing","offset":1,"slot":"0","type":"t_bool"},{"astId":448,"contract":"contracts/CookieSaleTokenProxy.sol:COOKIE","label":"__gap","offset":0,"slot":"1","type":"t_array(t_uint256)50_storage"},{"astId":2117,"contract":"contracts/CookieSaleTokenProxy.sol:COOKIE","label":"_balances","offset":0,"slot":"51","type":"t_mapping(t_address,t_uint256)"},{"astId":2123,"contract":"contracts/CookieSaleTokenProxy.sol:COOKIE","label":"_allowances","offset":0,"slot":"52","type":"t_mapping(t_address,t_mapping(t_address,t_uint256))"},{"astId":2125,"contract":"contracts/CookieSaleTokenProxy.sol:COOKIE","label":"_totalSupply","offset":0,"slot":"53","type":"t_uint256"},{"astId":2127,"contract":"contracts/CookieSaleTokenProxy.sol:COOKIE","label":"_name","offset":0,"slot":"54","type":"t_string_storage"},{"astId":2129,"contract":"contracts/CookieSaleTokenProxy.sol:COOKIE","label":"_symbol","offset":0,"slot":"55","type":"t_string_storage"},{"astId":2709,"contract":"contracts/CookieSaleTokenProxy.sol:COOKIE","label":"__gap","offset":0,"slot":"56","type":"t_array(t_uint256)45_storage"},{"astId":455,"contract":"contracts/CookieSaleTokenProxy.sol:COOKIE","label":"_owner","offset":0,"slot":"101","type":"t_address"},{"astId":567,"contract":"contracts/CookieSaleTokenProxy.sol:COOKIE","label":"__gap","offset":0,"slot":"102","type":"t_array(t_uint256)49_storage"},{"astId":3805,"contract":"contracts/CookieSaleTokenProxy.sol:COOKIE","label":"marketingFeeOnBuy","offset":0,"slot":"151","type":"t_uint256"},{"astId":3807,"contract":"contracts/CookieSaleTokenProxy.sol:COOKIE","label":"marketingFeeOnSell","offset":0,"slot":"152","type":"t_uint256"},{"astId":3809,"contract":"contracts/CookieSaleTokenProxy.sol:COOKIE","label":"developmentFeeOnBuy","offset":0,"slot":"153","type":"t_uint256"},{"astId":3811,"contract":"contracts/CookieSaleTokenProxy.sol:COOKIE","label":"developmentFeeOnSell","offset":0,"slot":"154","type":"t_uint256"},{"astId":3813,"contract":"contracts/CookieSaleTokenProxy.sol:COOKIE","label":"rewardFeeOnBuy","offset":0,"slot":"155","type":"t_uint256"},{"astId":3815,"contract":"contracts/CookieSaleTokenProxy.sol:COOKIE","label":"rewardFeeOnSell","offset":0,"slot":"156","type":"t_uint256"},{"astId":3817,"contract":"contracts/CookieSaleTokenProxy.sol:COOKIE","label":"liquidityFeeOnBuy","offset":0,"slot":"157","type":"t_uint256"},{"astId":3819,"contract":"contracts/CookieSaleTokenProxy.sol:COOKIE","label":"liquidityFeeOnSell","offset":0,"slot":"158","type":"t_uint256"},{"astId":3821,"contract":"contracts/CookieSaleTokenProxy.sol:COOKIE","label":"buyBackFeeOnBuy","offset":0,"slot":"159","type":"t_uint256"},{"astId":3823,"contract":"contracts/CookieSaleTokenProxy.sol:COOKIE","label":"buyBackFeeOnSell","offset":0,"slot":"160","type":"t_uint256"},{"astId":3825,"contract":"contracts/CookieSaleTokenProxy.sol:COOKIE","label":"_totalFeesOnBuy","offset":0,"slot":"161","type":"t_uint256"},{"astId":3827,"contract":"contracts/CookieSaleTokenProxy.sol:COOKIE","label":"_totalFeesOnSell","offset":0,"slot":"162","type":"t_uint256"},{"astId":3829,"contract":"contracts/CookieSaleTokenProxy.sol:COOKIE","label":"marketingWallet","offset":0,"slot":"163","type":"t_address"},{"astId":3831,"contract":"contracts/CookieSaleTokenProxy.sol:COOKIE","label":"developmentWallet","offset":0,"slot":"164","type":"t_address"},{"astId":3833,"contract":"contracts/CookieSaleTokenProxy.sol:COOKIE","label":"buybackToken","offset":0,"slot":"165","type":"t_address"},{"astId":3835,"contract":"contracts/CookieSaleTokenProxy.sol:COOKIE","label":"bnbValueForBuyBurn","offset":0,"slot":"166","type":"t_uint256"},{"astId":3837,"contract":"contracts/CookieSaleTokenProxy.sol:COOKIE","label":"accumulatedBuybackBNB","offset":0,"slot":"167","type":"t_uint256"},{"astId":3839,"contract":"contracts/CookieSaleTokenProxy.sol:COOKIE","label":"walletToWalletTransferWithoutFee","offset":0,"slot":"168","type":"t_bool"},{"astId":3842,"contract":"contracts/CookieSaleTokenProxy.sol:COOKIE","label":"uniswapV2Router","offset":1,"slot":"168","type":"t_contract(IUniswapV2Router02)2020"},{"astId":3844,"contract":"contracts/CookieSaleTokenProxy.sol:COOKIE","label":"uniswapV2Pair","offset":0,"slot":"169","type":"t_address"},{"astId":3846,"contract":"contracts/CookieSaleTokenProxy.sol:COOKIE","label":"DEAD","offset":0,"slot":"170","type":"t_address"},{"astId":3848,"contract":"contracts/CookieSaleTokenProxy.sol:COOKIE","label":"swapping","offset":20,"slot":"170","type":"t_bool"},{"astId":3850,"contract":"contracts/CookieSaleTokenProxy.sol:COOKIE","label":"swapTokensAtAmount","offset":0,"slot":"171","type":"t_uint256"},{"astId":3852,"contract":"contracts/CookieSaleTokenProxy.sol:COOKIE","label":"swapEnabled","offset":0,"slot":"172","type":"t_bool"},{"astId":3854,"contract":"contracts/CookieSaleTokenProxy.sol:COOKIE","label":"swapWithLimit","offset":1,"slot":"172","type":"t_bool"},{"astId":3856,"contract":"contracts/CookieSaleTokenProxy.sol:COOKIE","label":"tradingEnabled","offset":2,"slot":"172","type":"t_bool"},{"astId":3858,"contract":"contracts/CookieSaleTokenProxy.sol:COOKIE","label":"launchTime","offset":0,"slot":"173","type":"t_uint256"},{"astId":3860,"contract":"contracts/CookieSaleTokenProxy.sol:COOKIE","label":"antibotEnabled","offset":0,"slot":"174","type":"t_bool"},{"astId":3864,"contract":"contracts/CookieSaleTokenProxy.sol:COOKIE","label":"_isExcludedFromFees","offset":0,"slot":"175","type":"t_mapping(t_address,t_bool)"},{"astId":3868,"contract":"contracts/CookieSaleTokenProxy.sol:COOKIE","label":"automatedMarketMakerPairs","offset":0,"slot":"176","type":"t_mapping(t_address,t_bool)"},{"astId":3872,"contract":"contracts/CookieSaleTokenProxy.sol:COOKIE","label":"specialFees","offset":0,"slot":"177","type":"t_mapping(t_address,t_uint256)"},{"astId":3875,"contract":"contracts/CookieSaleTokenProxy.sol:COOKIE","label":"dividendTracker","offset":0,"slot":"178","type":"t_contract(DividendTracker)3797"},{"astId":3877,"contract":"contracts/CookieSaleTokenProxy.sol:COOKIE","label":"rewardToken","offset":0,"slot":"179","type":"t_address"},{"astId":3879,"contract":"contracts/CookieSaleTokenProxy.sol:COOKIE","label":"gasForProcessing","offset":0,"slot":"180","type":"t_uint256"},{"astId":5644,"contract":"contracts/CookieSaleTokenProxy.sol:COOKIE","label":"_isExcludedFromMaxWalletLimit","offset":0,"slot":"181","type":"t_mapping(t_address,t_bool)"},{"astId":5646,"contract":"contracts/CookieSaleTokenProxy.sol:COOKIE","label":"maxWalletLimitEnabled","offset":0,"slot":"182","type":"t_bool"},{"astId":5648,"contract":"contracts/CookieSaleTokenProxy.sol:COOKIE","label":"maxWalletAmount","offset":0,"slot":"183","type":"t_uint256"},{"astId":5723,"contract":"contracts/CookieSaleTokenProxy.sol:COOKIE","label":"_isExcludedFromMaxTxLimit","offset":0,"slot":"184","type":"t_mapping(t_address,t_bool)"},{"astId":5725,"contract":"contracts/CookieSaleTokenProxy.sol:COOKIE","label":"maxTransactionLimitEnabled","offset":0,"slot":"185","type":"t_bool"},{"astId":5727,"contract":"contracts/CookieSaleTokenProxy.sol:COOKIE","label":"maxTransactionAmountBuy","offset":0,"slot":"186","type":"t_uint256"},{"astId":5729,"contract":"contracts/CookieSaleTokenProxy.sol:COOKIE","label":"maxTransactionAmountSell","offset":0,"slot":"187","type":"t_uint256"},{"astId":5817,"contract":"contracts/CookieSaleTokenProxy.sol:COOKIE","label":"_isBlackListed","offset":0,"slot":"188","type":"t_mapping(t_address,t_bool)"}],"types":{"t_address":{"encoding":"inplace","label":"address","numberOfBytes":"20"},"t_array(t_uint256)45_storage":{"base":"t_uint256","encoding":"inplace","label":"uint256[45]","numberOfBytes":"1440"},"t_array(t_uint256)49_storage":{"base":"t_uint256","encoding":"inplace","label":"uint256[49]","numberOfBytes":"1568"},"t_array(t_uint256)50_storage":{"base":"t_uint256","encoding":"inplace","label":"uint256[50]","numberOfBytes":"1600"},"t_bool":{"encoding":"inplace","label":"bool","numberOfBytes":"1"},"t_contract(DividendTracker)3797":{"encoding":"inplace","label":"contract DividendTracker","numberOfBytes":"20"},"t_contract(IUniswapV2Router02)2020":{"encoding":"inplace","label":"contract IUniswapV2Router02","numberOfBytes":"20"},"t_mapping(t_address,t_bool)":{"encoding":"mapping","key":"t_address","label":"mapping(address => bool)","numberOfBytes":"32","value":"t_bool"},"t_mapping(t_address,t_mapping(t_address,t_uint256))":{"encoding":"mapping","key":"t_address","label":"mapping(address => mapping(address => uint256))","numberOfBytes":"32","value":"t_mapping(t_address,t_uint256)"},"t_mapping(t_address,t_uint256)":{"encoding":"mapping","key":"t_address","label":"mapping(address => uint256)","numberOfBytes":"32","value":"t_uint256"},"t_string_storage":{"encoding":"bytes","label":"string","numberOfBytes":"32"},"t_uint256":{"encoding":"inplace","label":"uint256","numberOfBytes":"32"},"t_uint8":{"encoding":"inplace","label":"uint8","numberOfBytes":"1"}}}}}}