{"contracts/CookieSaleTokenProxy.sol":{"DividendTracker":{"abi":[{"anonymous":false,"inputs":[{"indexed":true,"internalType":"address","name":"owner","type":"address"},{"indexed":true,"internalType":"address","name":"spender","type":"address"},{"indexed":false,"internalType":"uint256","name":"value","type":"uint256"}],"name":"Approval","type":"event"},{"anonymous":false,"inputs":[{"indexed":true,"internalType":"address","name":"account","type":"address"},{"indexed":false,"internalType":"uint256","name":"amount","type":"uint256"},{"indexed":true,"internalType":"bool","name":"automatic","type":"bool"}],"name":"Claim","type":"event"},{"anonymous":false,"inputs":[{"indexed":true,"internalType":"uint256","name":"newValue","type":"uint256"},{"indexed":true,"internalType":"uint256","name":"oldValue","type":"uint256"}],"name":"ClaimWaitUpdated","type":"event"},{"anonymous":false,"inputs":[{"indexed":true,"internalType":"address","name":"to","type":"address"},{"indexed":false,"internalType":"uint256","name":"weiAmount","type":"uint256"}],"name":"DividendWithdrawn","type":"event"},{"anonymous":false,"inputs":[{"indexed":true,"internalType":"address","name":"from","type":"address"},{"indexed":false,"internalType":"uint256","name":"weiAmount","type":"uint256"}],"name":"DividendsDistributed","type":"event"},{"anonymous":false,"inputs":[{"indexed":true,"internalType":"address","name":"account","type":"address"}],"name":"ExcludeFromDividends","type":"event"},{"anonymous":false,"inputs":[{"indexed":false,"internalType":"uint8","name":"version","type":"uint8"}],"name":"Initialized","type":"event"},{"anonymous":false,"inputs":[{"indexed":true,"internalType":"address","name":"previousOwner","type":"address"},{"indexed":true,"internalType":"address","name":"newOwner","type":"address"}],"name":"OwnershipTransferred","type":"event"},{"anonymous":false,"inputs":[{"indexed":true,"internalType":"address","name":"from","type":"address"},{"indexed":true,"internalType":"address","name":"to","type":"address"},{"indexed":false,"internalType":"uint256","name":"value","type":"uint256"}],"name":"Transfer","type":"event"},{"inputs":[{"internalType":"address","name":"_owner","type":"address"}],"name":"accumulativeDividendOf","outputs":[{"internalType":"uint256","name":"","type":"uint256"}],"stateMutability":"view","type":"function"},{"inputs":[{"internalType":"address","name":"owner","type":"address"},{"internalType":"address","name":"spender","type":"address"}],"name":"allowance","outputs":[{"internalType":"uint256","name":"","type":"uint256"}],"stateMutability":"view","type":"function"},{"inputs":[{"internalType":"address","name":"spender","type":"address"},{"internalType":"uint256","name":"amount","type":"uint256"}],"name":"approve","outputs":[{"internalType":"bool","name":"","type":"bool"}],"stateMutability":"nonpayable","type":"function"},{"inputs":[{"internalType":"address","name":"account","type":"address"}],"name":"balanceOf","outputs":[{"internalType":"uint256","name":"","type":"uint256"}],"stateMutability":"view","type":"function"},{"inputs":[],"name":"claimWait","outputs":[{"internalType":"uint256","name":"","type":"uint256"}],"stateMutability":"view","type":"function"},{"inputs":[],"name":"decimals","outputs":[{"internalType":"uint8","name":"","type":"uint8"}],"stateMutability":"view","type":"function"},{"inputs":[{"internalType":"address","name":"spender","type":"address"},{"internalType":"uint256","name":"subtractedValue","type":"uint256"}],"name":"decreaseAllowance","outputs":[{"internalType":"bool","name":"","type":"bool"}],"stateMutability":"nonpayable","type":"function"},{"inputs":[{"internalType":"uint256","name":"amount","type":"uint256"}],"name":"distributeDividends","outputs":[],"stateMutability":"nonpayable","type":"function"},{"inputs":[{"internalType":"address","name":"_owner","type":"address"}],"name":"dividendOf","outputs":[{"internalType":"uint256","name":"","type":"uint256"}],"stateMutability":"view","type":"function"},{"inputs":[{"internalType":"address","name":"account","type":"address"}],"name":"excludeFromDividends","outputs":[],"stateMutability":"nonpayable","type":"function"},{"inputs":[{"internalType":"address","name":"","type":"address"}],"name":"excludedFromDividends","outputs":[{"internalType":"bool","name":"","type":"bool"}],"stateMutability":"view","type":"function"},{"inputs":[{"internalType":"address","name":"_account","type":"address"}],"name":"getAccount","outputs":[{"internalType":"address","name":"account","type":"address"},{"internalType":"int256","name":"index","type":"int256"},{"internalType":"int256","name":"iterationsUntilProcessed","type":"int256"},{"internalType":"uint256","name":"withdrawableDividends","type":"uint256"},{"internalType":"uint256","name":"totalDividends","type":"uint256"},{"internalType":"uint256","name":"lastClaimTime","type":"uint256"},{"internalType":"uint256","name":"nextClaimTime","type":"uint256"},{"internalType":"uint256","name":"secondsUntilAutoClaimAvailable","type":"uint256"}],"stateMutability":"view","type":"function"},{"inputs":[{"internalType":"uint256","name":"index","type":"uint256"}],"name":"getAccountAtIndex","outputs":[{"internalType":"address","name":"","type":"address"},{"internalType":"int256","name":"","type":"int256"},{"internalType":"int256","name":"","type":"int256"},{"internalType":"uint256","name":"","type":"uint256"},{"internalType":"uint256","name":"","type":"uint256"},{"internalType":"uint256","name":"","type":"uint256"},{"internalType":"uint256","name":"","type":"uint256"},{"internalType":"uint256","name":"","type":"uint256"}],"stateMutability":"view","type":"function"},{"inputs":[],"name":"getLastProcessedIndex","outputs":[{"internalType":"uint256","name":"","type":"uint256"}],"stateMutability":"view","type":"function"},{"inputs":[],"name":"getNumberOfTokenHolders","outputs":[{"internalType":"uint256","name":"","type":"uint256"}],"stateMutability":"view","type":"function"},{"inputs":[{"internalType":"address","name":"spender","type":"address"},{"internalType":"uint256","name":"addedValue","type":"uint256"}],"name":"increaseAllowance","outputs":[{"internalType":"bool","name":"","type":"bool"}],"stateMutability":"nonpayable","type":"function"},{"inputs":[],"name":"initialize","outputs":[],"stateMutability":"nonpayable","type":"function"},{"inputs":[{"internalType":"address","name":"account","type":"address"}],"name":"isExcludedFromDividends","outputs":[{"internalType":"bool","name":"","type":"bool"}],"stateMutability":"view","type":"function"},{"inputs":[{"internalType":"address","name":"","type":"address"}],"name":"lastClaimTimes","outputs":[{"internalType":"uint256","name":"","type":"uint256"}],"stateMutability":"view","type":"function"},{"inputs":[],"name":"lastProcessedIndex","outputs":[{"internalType":"uint256","name":"","type":"uint256"}],"stateMutability":"view","type":"function"},{"inputs":[],"name":"minimumTokenBalanceForDividends","outputs":[{"internalType":"uint256","name":"","type":"uint256"}],"stateMutability":"view","type":"function"},{"inputs":[],"name":"name","outputs":[{"internalType":"string","name":"","type":"string"}],"stateMutability":"view","type":"function"},{"inputs":[],"name":"owner","outputs":[{"internalType":"address","name":"","type":"address"}],"stateMutability":"view","type":"function"},{"inputs":[{"internalType":"uint256","name":"gas","type":"uint256"}],"name":"process","outputs":[{"internalType":"uint256","name":"","type":"uint256"},{"internalType":"uint256","name":"","type":"uint256"},{"internalType":"uint256","name":"","type":"uint256"}],"stateMutability":"nonpayable","type":"function"},{"inputs":[{"internalType":"address payable","name":"account","type":"address"},{"internalType":"bool","name":"automatic","type":"bool"}],"name":"processAccount","outputs":[{"internalType":"bool","name":"","type":"bool"}],"stateMutability":"nonpayable","type":"function"},{"inputs":[],"name":"renounceOwnership","outputs":[],"stateMutability":"nonpayable","type":"function"},{"inputs":[{"internalType":"address payable","name":"account","type":"address"},{"internalType":"uint256","name":"newBalance","type":"uint256"}],"name":"setBalance","outputs":[],"stateMutability":"nonpayable","type":"function"},{"inputs":[{"internalType":"uint256","name":"index","type":"uint256"}],"name":"setLastProcessedIndex","outputs":[],"stateMutability":"nonpayable","type":"function"},{"inputs":[],"name":"symbol","outputs":[{"internalType":"string","name":"","type":"string"}],"stateMutability":"view","type":"function"},{"inputs":[],"name":"totalDividendsDistributed","outputs":[{"internalType":"uint256","name":"","type":"uint256"}],"stateMutability":"view","type":"function"},{"inputs":[],"name":"totalSupply","outputs":[{"internalType":"uint256","name":"","type":"uint256"}],"stateMutability":"view","type":"function"},{"inputs":[{"internalType":"address","name":"to","type":"address"},{"internalType":"uint256","name":"amount","type":"uint256"}],"name":"transfer","outputs":[{"internalType":"bool","name":"","type":"bool"}],"stateMutability":"nonpayable","type":"function"},{"inputs":[{"internalType":"address","name":"from","type":"address"},{"internalType":"address","name":"to","type":"address"},{"internalType":"uint256","name":"amount","type":"uint256"}],"name":"transferFrom","outputs":[{"internalType":"bool","name":"","type":"bool"}],"stateMutability":"nonpayable","type":"function"},{"inputs":[{"internalType":"address","name":"newOwner","type":"address"}],"name":"transferOwnership","outputs":[],"stateMutability":"nonpayable","type":"function"},{"inputs":[{"internalType":"uint256","name":"newClaimWait","type":"uint256"}],"name":"updateClaimWait","outputs":[],"stateMutability":"nonpayable","type":"function"},{"inputs":[{"internalType":"uint256","name":"amount","type":"uint256"}],"name":"updateMinimumTokenBalanceForDividends","outputs":[],"stateMutability":"nonpayable","type":"function"},{"inputs":[],"name":"withdrawDividend","outputs":[],"stateMutability":"pure","type":"function"},{"inputs":[{"internalType":"address","name":"_owner","type":"address"}],"name":"withdrawableDividendOf","outputs":[{"internalType":"uint256","name":"","type":"uint256"}],"stateMutability":"view","type":"function"},{"inputs":[{"internalType":"address","name":"_owner","type":"address"}],"name":"withdrawnDividendOf","outputs":[{"internalType":"uint256","name":"","type":"uint256"}],"stateMutability":"view","type":"function"},{"stateMutability":"payable","type":"receive"}],"evm":{"bytecode":{"linkReferences":{"contracts/CookieSaleTokenProxy.sol":{"IterableMappingUpgradeable":[{"length":20,"start":2432},{"length":20,"start":2770},{"length":20,"start":2960},{"length":20,"start":4071},{"length":20,"start":4201},{"length":20,"start":4795}]}},"object":"608060405234801561001057600080fd5b50612321806100206000396000f3fe6080604052600436106102345760003560e01c8063715018a61161012e578063bc4c4b37116100ab578063e7841ec01161006f578063e7841ec0146106e8578063e98030c7146106fd578063f2fde38b1461071d578063fbcbc0f11461073d578063ffb2c4791461075d57600080fd5b8063bc4c4b3714610639578063be10b61414610659578063c705c5691461066f578063dd62ed3e146106a8578063e30443bc146106c857600080fd5b806395d89b41116100f257806395d89b411461058e578063a457c2d7146105a3578063a8b9d240146105c3578063a9059cbb146105e3578063aafd847a1461060357600080fd5b8063715018a6146105065780638129fc1c1461051b57806385a6b3ae146105305780638da5cb5b1461054657806391b89fba1461056e57600080fd5b80633009a609116101bc5780634e7b827f116101805780634e7b827f146104105780635183d6fd146104405780636a474002146104a55780636f2789ec146104ba57806370a08231146104d057600080fd5b80633009a6091461037e578063313ce5671461039457806331e79db0146103b05780633243c791146103d057806339509351146103f057600080fd5b806318160ddd1161020357806318160ddd146102dc578063226cfa3d146102f157806323b872dd1461031e57806327ce01471461033e578063286b3aa01461035e57600080fd5b806306fdde0314610240578063095ea7b31461026b57806309bbedde1461029b5780630dcb2e89146102ba57600080fd5b3661023b57005b600080fd5b34801561024c57600080fd5b50610255610798565b6040516102629190611e60565b60405180910390f35b34801561027757600080fd5b5061028b610286366004611ec3565b61082a565b6040519015158152602001610262565b3480156102a757600080fd5b50609c545b604051908152602001610262565b3480156102c657600080fd5b506102da6102d5366004611eef565b610844565b005b3480156102e857600080fd5b506035546102ac565b3480156102fd57600080fd5b506102ac61030c366004611f08565b60a26020526000908152604090205481565b34801561032a57600080fd5b5061028b610339366004611f25565b610851565b34801561034a57600080fd5b506102ac610359366004611f08565b610875565b34801561036a57600080fd5b506102da610379366004611eef565b6108d2565b34801561038a57600080fd5b506102ac60a05481565b3480156103a057600080fd5b5060405160128152602001610262565b3480156103bc57600080fd5b506102da6103cb366004611f08565b6108df565b3480156103dc57600080fd5b506102da6103eb366004611eef565b6109e4565b3480156103fc57600080fd5b5061028b61040b366004611ec3565b610a80565b34801561041c57600080fd5b5061028b61042b366004611f08565b60a16020526000908152604090205460ff1681565b34801561044c57600080fd5b5061046061045b366004611eef565b610aa2565b604080516001600160a01b0390991689526020890197909752958701949094526060860192909252608085015260a084015260c083015260e082015261010001610262565b3480156104b157600080fd5b506102da610bf6565b3480156104c657600080fd5b506102ac60a35481565b3480156104dc57600080fd5b506102ac6104eb366004611f08565b6001600160a01b031660009081526033602052604090205490565b34801561051257600080fd5b506102da610c9b565b34801561052757600080fd5b506102da610cad565b34801561053c57600080fd5b506102ac609b5481565b34801561055257600080fd5b506065546040516001600160a01b039091168152602001610262565b34801561057a57600080fd5b506102ac610589366004611f08565b610ddb565b34801561059a57600080fd5b50610255610de6565b3480156105af57600080fd5b5061028b6105be366004611ec3565b610df5565b3480156105cf57600080fd5b506102ac6105de366004611f08565b610e70565b3480156105ef57600080fd5b5061028b6105fe366004611ec3565b610e9c565b34801561060f57600080fd5b506102ac61061e366004611f08565b6001600160a01b03166000908152609a602052604090205490565b34801561064557600080fd5b5061028b610654366004611f66565b610eaa565b34801561066557600080fd5b506102ac60a45481565b34801561067b57600080fd5b5061028b61068a366004611f08565b6001600160a01b0316600090815260a1602052604090205460ff1690565b3480156106b457600080fd5b506102ac6106c3366004611fa4565b610f35565b3480156106d457600080fd5b506102da6106e3366004611ec3565b610f60565b3480156106f457600080fd5b5060a0546102ac565b34801561070957600080fd5b506102da610718366004611eef565b6110a8565b34801561072957600080fd5b506102da610738366004611f08565b6111ef565b34801561074957600080fd5b50610460610758366004611f08565b611265565b34801561076957600080fd5b5061077d610778366004611eef565b6113ce565b60408051938452602084019290925290820152606001610262565b6060603680546107a790611fd2565b80601f01602080910402602001604051908101604052809291908181526020018280546107d390611fd2565b80156108205780601f106107f557610100808354040283529160200191610820565b820191906000526020600020905b81548152906001019060200180831161080357829003601f168201915b5050505050905090565b6000336108388185856114eb565b60019150505b92915050565b61084c61160f565b60a455565b60003361085f858285611669565b61086a8585856116e3565b506001949350505050565b6097546001600160a01b03821660009081526099602090815260408083205460339092528220549192916108c8916108c3916108bd906108b8906098549061173a565b61174d565b9061175d565b61179b565b61083e9190612022565b6108da61160f565b60a055565b6108e761160f565b6001600160a01b038116600090815260a1602052604090205460ff161561090d57600080fd5b6001600160a01b038116600090815260a160205260408120805460ff1916600117905561093b9082906117ae565b60405163256079df60e01b8152609c60048201526001600160a01b038216602482015273__$952d012a9ed02a1d79e081a2eb857e4bf2$__9063256079df9060440160006040518083038186803b15801561099557600080fd5b505af41580156109a9573d6000803e3d6000fd5b50506040516001600160a01b03841692507fa878b31040b2e6d0a9a3d3361209db3908ba62014b0dca52adbaee451d128b259150600090a250565b6109ec61160f565b60006109f760355490565b11610a0157600080fd5b8015610a7d57610a34610a1360355490565b609754610a2190849061173a565b610a2b9190612022565b6098549061180d565b60985560405181815233907fa493a9229478c3fcd73f66d2cdeb7f94fd0f341da924d1054236d784541165119060200160405180910390a2609b54610a79908261180d565b609b555b50565b600033610838818585610a938383610f35565b610a9d9190612044565b6114eb565b600080600080600080600080609c73__$952d012a9ed02a1d79e081a2eb857e4bf2$__6373be47ca90916040518263ffffffff1660e01b8152600401610aea91815260200190565b602060405180830381865af4158015610b07573d6000803e3d6000fd5b505050506040513d601f19601f82011682018060405250810190610b2b9190612057565b8910610b50575060009650600019955085945086935083925082915081905080610beb565b604051634a9208a960e11b8152609c6004820152602481018a905260009073__$952d012a9ed02a1d79e081a2eb857e4bf2$__90639524115290604401602060405180830381865af4158015610baa573d6000803e3d6000fd5b505050506040513d601f19601f82011682018060405250810190610bce9190612070565b9050610bd981611265565b98509850985098509850985098509850505b919395975091939597565b60405162461bcd60e51b815260206004820152606160248201527f4469766964656e645f547261636b65723a20776974686472617744697669646560448201527f6e642064697361626c65642e20557365207468652027636c61696d272066756e60648201527f6374696f6e206f6e20746865206d61696e20546f6b656e20636f6e74726163746084820152601760f91b60a482015260c4015b60405180910390fd5b565b610ca361160f565b610c996000611819565b600054610100900460ff1615808015610ccd5750600054600160ff909116105b80610ce75750303b158015610ce7575060005460ff166001145b610d035760405162461bcd60e51b8152600401610c909061208d565b6000805460ff191660011790558015610d26576000805461ff0019166101001790555b610d806040518060400160405280601081526020016f2224ab24a222a7222faa2920a1a5a2a960811b8152506040518060400160405280601081526020016f2224ab24a222a7222faa2920a1a5a2a960811b81525061186b565b610e1060a355686c6b935b8bbd40000060a4558015610a7d576000805461ff0019169055604051600181527f7f26b83ff96e1f2b6a682f133852f6798a09c465da95921460cefb38474024989060200160405180910390a150565b600061083e82610e70565b6060603780546107a790611fd2565b60003381610e038286610f35565b905083811015610e635760405162461bcd60e51b815260206004820152602560248201527f45524332303a2064656372656173656420616c6c6f77616e63652062656c6f77604482015264207a65726f60d81b6064820152608401610c90565b61086a82868684036114eb565b6001600160a01b0381166000908152609a602052604081205461083e90610e9684610875565b90611948565b6000336108388185856116e3565b6000610eb461160f565b6000610ebf84611954565b90508015610f2b576001600160a01b038416600081815260a26020526040908190204290555184151591907fa2c38e2d2fb7e3e1912d937fd1ca11ed6d51864dee4cfa7a7bf02becd7acf09290610f199085815260200190565b60405180910390a3600191505061083e565b5060009392505050565b6001600160a01b03918216600090815260346020908152604080832093909416825291909152205490565b610f6861160f565b6001600160a01b038216600090815260a1602052604090205460ff166110a45760a454811061101957610f9b82826117ae565b60405163060aa8bb60e51b8152609c60048201526001600160a01b03831660248201526044810182905273__$952d012a9ed02a1d79e081a2eb857e4bf2$__9063c15517609060640160006040518083038186803b158015610ffc57600080fd5b505af4158015611010573d6000803e3d6000fd5b50505050611097565b6110248260006117ae565b60405163256079df60e01b8152609c60048201526001600160a01b038316602482015273__$952d012a9ed02a1d79e081a2eb857e4bf2$__9063256079df9060440160006040518083038186803b15801561107e57600080fd5b505af4158015611092573d6000803e3d6000fd5b505050505b6110a2826001610eaa565b505b5050565b6110b061160f565b610e1081101580156110c55750620151808111155b6111455760405162461bcd60e51b815260206004820152604560248201527f4469766964656e645f547261636b65723a20636c61696d57616974206d75737460448201527f206265207570646174656420746f206265747765656e203120616e6420323420606482015264686f75727360d81b608482015260a401610c90565b60a35481036111bc5760405162461bcd60e51b815260206004820152603760248201527f4469766964656e645f547261636b65723a2043616e6e6f74207570646174652060448201527f636c61696d5761697420746f2073616d652076616c75650000000000000000006064820152608401610c90565b60a35460405182907f474ea64804364a1e29a4487ddb63c3342a2dd826ccd8acf48825e680a0e6f20f90600090a360a355565b6111f761160f565b6001600160a01b03811661125c5760405162461bcd60e51b815260206004820152602660248201527f4f776e61626c653a206e6577206f776e657220697320746865207a65726f206160448201526564647265737360d01b6064820152608401610c90565b610a7d81611819565b604051630645b53560e41b8152609c60048201526001600160a01b0382166024820152819060009081908190819081908190819073__$952d012a9ed02a1d79e081a2eb857e4bf2$__9063645b535090604401602060405180830381865af41580156112d5573d6000803e3d6000fd5b505050506040513d601f19601f820116820180604052508101906112f99190612057565b965060001995506000871261135b5760a0548711156113275760a054611320908890611a68565b955061135b565b60a054609c546000911061133c57600061134b565b60a054609c5461134b91611948565b9050611357888261175d565b9650505b61136488610e70565b945061136f88610875565b6001600160a01b038916600090815260a260205260409020549094509250826113995760006113a7565b60a3546113a790849061180d565b91504282116113b75760006113c1565b6113c18242611948565b9050919395975091939597565b609c54600090819081908082036113f057505060a054600092508291506114e4565b60a0546000805a90506000805b898410801561140b57508582105b156114d3578461141a816120db565b609c549096508610905061142d57600094505b6000609c6000018681548110611445576114456120f4565b60009182526020808320909101546001600160a01b031680835260a290915260409091205490915061147690611aa5565b1561149957611486816001610eaa565b156114995781611495816120db565b9250505b826114a3816120db565b93505060005a9050808511156114ca576114c76114c08683611948565b879061180d565b95505b93506113fd9050565b60a085905590975095509193505050505b9193909250565b6001600160a01b03831661154d5760405162461bcd60e51b8152602060048201526024808201527f45524332303a20617070726f76652066726f6d20746865207a65726f206164646044820152637265737360e01b6064820152608401610c90565b6001600160a01b0382166115ae5760405162461bcd60e51b815260206004820152602260248201527f45524332303a20617070726f766520746f20746865207a65726f206164647265604482015261737360f01b6064820152608401610c90565b6001600160a01b0383811660008181526034602090815260408083209487168084529482529182902085905590518481527f8c5be1e5ebec7d5bd14f71427d1e84f3dd0314c0f7b2291e5b200ac8c7c3b925910160405180910390a3505050565b6065546001600160a01b03163314610c995760405162461bcd60e51b815260206004820181905260248201527f4f776e61626c653a2063616c6c6572206973206e6f7420746865206f776e65726044820152606401610c90565b60006116758484610f35565b905060001981146116dd57818110156116d05760405162461bcd60e51b815260206004820152601d60248201527f45524332303a20696e73756666696369656e7420616c6c6f77616e63650000006044820152606401610c90565b6116dd84848484036114eb565b50505050565b60405162461bcd60e51b815260206004820152602660248201527f4469766964656e645f547261636b65723a204e6f207472616e736665727320616044820152651b1b1bddd95960d21b6064820152608401610c90565b6000611746828461210a565b9392505050565b6000818181121561083e57600080fd5b60008061176a8385612121565b90506000831215801561177d5750838112155b80611792575060008312801561179257508381125b61174657600080fd5b6000808212156117aa57600080fd5b5090565b6001600160a01b038216600090815260336020526040902054808211156117ed5760006117db8383611948565b90506117e78482611acc565b506110a2565b808210156110a25760006118018284611948565b90506116dd8482611b30565b60006117468284612044565b606580546001600160a01b038381166001600160a01b0319831681179093556040519116919082907f8be0079c531659141344cd1fd0a4f28419497f9722a3daafe3b4186f6b6457e090600090a35050565b600054610100900460ff161580801561188b5750600054600160ff909116105b806118a55750303b1580156118a5575060005460ff166001145b6118c15760405162461bcd60e51b8152600401610c909061208d565b6000805460ff1916600117905580156118e4576000805461ff0019166101001790555b6118ec611b74565b6118f68383611ba3565b600160801b60975580156110a2576000805461ff0019169055604051600181527f7f26b83ff96e1f2b6a682f133852f6798a09c465da95921460cefb38474024989060200160405180910390a1505050565b60006117468284612149565b60008061196083610e70565b90508015611a5f576001600160a01b0383166000908152609a602052604090205461198b908261180d565b6001600160a01b0384166000818152609a6020526040908190209290925590517fee503bee2bb6a87e57bc57db795f98137327401a0e7b7ce42e37926cc1a9ca4d906119da9084815260200190565b60405180910390a26040516000906001600160a01b0385169083156108fc0290849084818181858888f19350505050905080611a58576001600160a01b0384166000908152609a6020526040902054611a339083611948565b6001600160a01b039094166000908152609a6020526040812094909455509192915050565b5092915050565b50600092915050565b600080611a75838561215c565b905060008312158015611a885750838113155b806117925750600083128015611792575083811361174657600080fd5b600042821115611ab757506000919050565b60a354611ac44284611948565b101592915050565b611ad68282611bd4565b611b10611af16108b88360985461173a90919063ffffffff16565b6001600160a01b03841660009081526099602052604090205490611a68565b6001600160a01b0390921660009081526099602052604090209190915550565b611b3a8282611ca9565b611b10611b556108b88360985461173a90919063ffffffff16565b6001600160a01b0384166000908152609960205260409020549061175d565b600054610100900460ff16611b9b5760405162461bcd60e51b8152600401610c909061217c565b610c99611df0565b600054610100900460ff16611bca5760405162461bcd60e51b8152600401610c909061217c565b6110a48282611e20565b6001600160a01b038216611c2a5760405162461bcd60e51b815260206004820152601f60248201527f45524332303a206d696e7420746f20746865207a65726f2061646472657373006044820152606401610c90565b611c36600083836110a2565b8060356000828254611c489190612044565b90915550506001600160a01b0382166000818152603360209081526040808320805486019055518481527fddf252ad1be2c89b69c2b068fc378daa952ba7f163c4a11628f55a4df523b3ef910160405180910390a36110a4600083836110a2565b6001600160a01b038216611d095760405162461bcd60e51b815260206004820152602160248201527f45524332303a206275726e2066726f6d20746865207a65726f206164647265736044820152607360f81b6064820152608401610c90565b611d15826000836110a2565b6001600160a01b03821660009081526033602052604090205481811015611d895760405162461bcd60e51b815260206004820152602260248201527f45524332303a206275726e20616d6f756e7420657863656564732062616c616e604482015261636560f01b6064820152608401610c90565b6001600160a01b03831660008181526033602090815260408083208686039055603580548790039055518581529192917fddf252ad1be2c89b69c2b068fc378daa952ba7f163c4a11628f55a4df523b3ef910160405180910390a36110a2836000846110a2565b600054610100900460ff16611e175760405162461bcd60e51b8152600401610c909061217c565b610c9933611819565b600054610100900460ff16611e475760405162461bcd60e51b8152600401610c909061217c565b6036611e53838261222b565b5060376110a2828261222b565b600060208083528351808285015260005b81811015611e8d57858101830151858201604001528201611e71565b506000604082860101526040601f19601f8301168501019250505092915050565b6001600160a01b0381168114610a7d57600080fd5b60008060408385031215611ed657600080fd5b8235611ee181611eae565b946020939093013593505050565b600060208284031215611f0157600080fd5b5035919050565b600060208284031215611f1a57600080fd5b813561174681611eae565b600080600060608486031215611f3a57600080fd5b8335611f4581611eae565b92506020840135611f5581611eae565b929592945050506040919091013590565b60008060408385031215611f7957600080fd5b8235611f8481611eae565b915060208301358015158114611f9957600080fd5b809150509250929050565b60008060408385031215611fb757600080fd5b8235611fc281611eae565b91506020830135611f9981611eae565b600181811c90821680611fe657607f821691505b60208210810361200657634e487b7160e01b600052602260045260246000fd5b50919050565b634e487b7160e01b600052601160045260246000fd5b60008261203f57634e487b7160e01b600052601260045260246000fd5b500490565b8082018082111561083e5761083e61200c565b60006020828403121561206957600080fd5b5051919050565b60006020828403121561208257600080fd5b815161174681611eae565b6020808252602e908201527f496e697469616c697a61626c653a20636f6e747261637420697320616c72656160408201526d191e481a5b9a5d1a585b1a5e995960921b606082015260800190565b6000600182016120ed576120ed61200c565b5060010190565b634e487b7160e01b600052603260045260246000fd5b808202811582820484141761083e5761083e61200c565b80820182811260008312801582168215821617156121415761214161200c565b505092915050565b8181038181111561083e5761083e61200c565b8181036000831280158383131683831282161715611a5857611a5861200c565b6020808252602b908201527f496e697469616c697a61626c653a20636f6e7472616374206973206e6f74206960408201526a6e697469616c697a696e6760a81b606082015260800190565b634e487b7160e01b600052604160045260246000fd5b601f8211156110a257600081815260208120601f850160051c810160208610156122045750805b601f850160051c820191505b8181101561222357828155600101612210565b505050505050565b815167ffffffffffffffff811115612245576122456121c7565b612259816122538454611fd2565b846121dd565b602080601f83116001811461228e57600084156122765750858301515b600019600386901b1c1916600185901b178555612223565b600085815260208120601f198616915b828110156122bd5788860151825594840194600190910190840161229e565b50858210156122db5787850151600019600388901b60f8161c191681555b5050505050600190811b0190555056fea264697066735822122036fe994dc9d328e2742b1f7f03f5b625b7acedcc0321187030b9f5f348bff25664736f6c63430008110033","opcodes":"PUSH1 0x80 PUSH1 0x40 MSTORE CALLVALUE DUP1 ISZERO PUSH2 0x10 JUMPI PUSH1 0x0 DUP1 REVERT JUMPDEST POP PUSH2 0x2321 DUP1 PUSH2 0x20 PUSH1 0x0 CODECOPY PUSH1 0x0 RETURN INVALID PUSH1 0x80 PUSH1 0x40 MSTORE PUSH1 0x4 CALLDATASIZE LT PUSH2 0x234 JUMPI PUSH1 0x0 CALLDATALOAD PUSH1 0xE0 SHR DUP1 PUSH4 0x715018A6 GT PUSH2 0x12E JUMPI DUP1 PUSH4 0xBC4C4B37 GT PUSH2 0xAB JUMPI DUP1 PUSH4 0xE7841EC0 GT PUSH2 0x6F JUMPI DUP1 PUSH4 0xE7841EC0 EQ PUSH2 0x6E8 JUMPI DUP1 PUSH4 0xE98030C7 EQ PUSH2 0x6FD JUMPI DUP1 PUSH4 0xF2FDE38B EQ PUSH2 0x71D JUMPI DUP1 PUSH4 0xFBCBC0F1 EQ PUSH2 0x73D JUMPI DUP1 PUSH4 0xFFB2C479 EQ PUSH2 0x75D JUMPI PUSH1 0x0 DUP1 REVERT JUMPDEST DUP1 PUSH4 0xBC4C4B37 EQ PUSH2 0x639 JUMPI DUP1 PUSH4 0xBE10B614 EQ PUSH2 0x659 JUMPI DUP1 PUSH4 0xC705C569 EQ PUSH2 0x66F JUMPI DUP1 PUSH4 0xDD62ED3E EQ PUSH2 0x6A8 JUMPI DUP1 PUSH4 0xE30443BC EQ PUSH2 0x6C8 JUMPI PUSH1 0x0 DUP1 REVERT JUMPDEST DUP1 PUSH4 0x95D89B41 GT PUSH2 0xF2 JUMPI DUP1 PUSH4 0x95D89B41 EQ PUSH2 0x58E JUMPI DUP1 PUSH4 0xA457C2D7 EQ PUSH2 0x5A3 JUMPI DUP1 PUSH4 0xA8B9D240 EQ PUSH2 0x5C3 JUMPI DUP1 PUSH4 0xA9059CBB EQ PUSH2 0x5E3 JUMPI DUP1 PUSH4 0xAAFD847A EQ PUSH2 0x603 JUMPI PUSH1 0x0 DUP1 REVERT JUMPDEST DUP1 PUSH4 0x715018A6 EQ PUSH2 0x506 JUMPI DUP1 PUSH4 0x8129FC1C EQ PUSH2 0x51B JUMPI DUP1 PUSH4 0x85A6B3AE EQ PUSH2 0x530 JUMPI DUP1 PUSH4 0x8DA5CB5B EQ PUSH2 0x546 JUMPI DUP1 PUSH4 0x91B89FBA EQ PUSH2 0x56E JUMPI PUSH1 0x0 DUP1 REVERT JUMPDEST DUP1 PUSH4 0x3009A609 GT PUSH2 0x1BC JUMPI DUP1 PUSH4 0x4E7B827F GT PUSH2 0x180 JUMPI DUP1 PUSH4 0x4E7B827F EQ PUSH2 0x410 JUMPI DUP1 PUSH4 0x5183D6FD EQ PUSH2 0x440 JUMPI DUP1 PUSH4 0x6A474002 EQ PUSH2 0x4A5 JUMPI DUP1 PUSH4 0x6F2789EC EQ PUSH2 0x4BA JUMPI DUP1 PUSH4 0x70A08231 EQ PUSH2 0x4D0 JUMPI PUSH1 0x0 DUP1 REVERT JUMPDEST DUP1 PUSH4 0x3009A609 EQ PUSH2 0x37E JUMPI DUP1 PUSH4 0x313CE567 EQ PUSH2 0x394 JUMPI DUP1 PUSH4 0x31E79DB0 EQ PUSH2 0x3B0 JUMPI DUP1 PUSH4 0x3243C791 EQ PUSH2 0x3D0 JUMPI DUP1 PUSH4 0x39509351 EQ PUSH2 0x3F0 JUMPI PUSH1 0x0 DUP1 REVERT JUMPDEST DUP1 PUSH4 0x18160DDD GT PUSH2 0x203 JUMPI DUP1 PUSH4 0x18160DDD EQ PUSH2 0x2DC JUMPI DUP1 PUSH4 0x226CFA3D EQ PUSH2 0x2F1 JUMPI DUP1 PUSH4 0x23B872DD EQ PUSH2 0x31E JUMPI DUP1 PUSH4 0x27CE0147 EQ PUSH2 0x33E JUMPI DUP1 PUSH4 0x286B3AA0 EQ PUSH2 0x35E JUMPI PUSH1 0x0 DUP1 REVERT JUMPDEST DUP1 PUSH4 0x6FDDE03 EQ PUSH2 0x240 JUMPI DUP1 PUSH4 0x95EA7B3 EQ PUSH2 0x26B JUMPI DUP1 PUSH4 0x9BBEDDE EQ PUSH2 0x29B JUMPI DUP1 PUSH4 0xDCB2E89 EQ PUSH2 0x2BA JUMPI PUSH1 0x0 DUP1 REVERT JUMPDEST CALLDATASIZE PUSH2 0x23B JUMPI STOP JUMPDEST PUSH1 0x0 DUP1 REVERT JUMPDEST CALLVALUE DUP1 ISZERO PUSH2 0x24C JUMPI PUSH1 0x0 DUP1 REVERT JUMPDEST POP PUSH2 0x255 PUSH2 0x798 JUMP JUMPDEST PUSH1 0x40 MLOAD PUSH2 0x262 SWAP2 SWAP1 PUSH2 0x1E60 JUMP JUMPDEST PUSH1 0x40 MLOAD DUP1 SWAP2 SUB SWAP1 RETURN JUMPDEST CALLVALUE DUP1 ISZERO PUSH2 0x277 JUMPI PUSH1 0x0 DUP1 REVERT JUMPDEST POP PUSH2 0x28B PUSH2 0x286 CALLDATASIZE PUSH1 0x4 PUSH2 0x1EC3 JUMP JUMPDEST PUSH2 0x82A JUMP JUMPDEST PUSH1 0x40 MLOAD SWAP1 ISZERO ISZERO DUP2 MSTORE PUSH1 0x20 ADD PUSH2 0x262 JUMP JUMPDEST CALLVALUE DUP1 ISZERO PUSH2 0x2A7 JUMPI PUSH1 0x0 DUP1 REVERT JUMPDEST POP PUSH1 0x9C SLOAD JUMPDEST PUSH1 0x40 MLOAD SWAP1 DUP2 MSTORE PUSH1 0x20 ADD PUSH2 0x262 JUMP JUMPDEST CALLVALUE DUP1 ISZERO PUSH2 0x2C6 JUMPI PUSH1 0x0 DUP1 REVERT JUMPDEST POP PUSH2 0x2DA PUSH2 0x2D5 CALLDATASIZE PUSH1 0x4 PUSH2 0x1EEF JUMP JUMPDEST PUSH2 0x844 JUMP JUMPDEST STOP JUMPDEST CALLVALUE DUP1 ISZERO PUSH2 0x2E8 JUMPI PUSH1 0x0 DUP1 REVERT JUMPDEST POP PUSH1 0x35 SLOAD PUSH2 0x2AC JUMP JUMPDEST CALLVALUE DUP1 ISZERO PUSH2 0x2FD JUMPI PUSH1 0x0 DUP1 REVERT JUMPDEST POP PUSH2 0x2AC PUSH2 0x30C CALLDATASIZE PUSH1 0x4 PUSH2 0x1F08 JUMP JUMPDEST PUSH1 0xA2 PUSH1 0x20 MSTORE PUSH1 0x0 SWAP1 DUP2 MSTORE PUSH1 0x40 SWAP1 KECCAK256 SLOAD DUP2 JUMP JUMPDEST CALLVALUE DUP1 ISZERO PUSH2 0x32A JUMPI PUSH1 0x0 DUP1 REVERT JUMPDEST POP PUSH2 0x28B PUSH2 0x339 CALLDATASIZE PUSH1 0x4 PUSH2 0x1F25 JUMP JUMPDEST PUSH2 0x851 JUMP JUMPDEST CALLVALUE DUP1 ISZERO PUSH2 0x34A JUMPI PUSH1 0x0 DUP1 REVERT JUMPDEST POP PUSH2 0x2AC PUSH2 0x359 CALLDATASIZE PUSH1 0x4 PUSH2 0x1F08 JUMP JUMPDEST PUSH2 0x875 JUMP JUMPDEST CALLVALUE DUP1 ISZERO PUSH2 0x36A JUMPI PUSH1 0x0 DUP1 REVERT JUMPDEST POP PUSH2 0x2DA PUSH2 0x379 CALLDATASIZE PUSH1 0x4 PUSH2 0x1EEF JUMP JUMPDEST PUSH2 0x8D2 JUMP JUMPDEST CALLVALUE DUP1 ISZERO PUSH2 0x38A JUMPI PUSH1 0x0 DUP1 REVERT JUMPDEST POP PUSH2 0x2AC PUSH1 0xA0 SLOAD DUP2 JUMP JUMPDEST CALLVALUE DUP1 ISZERO PUSH2 0x3A0 JUMPI PUSH1 0x0 DUP1 REVERT JUMPDEST POP PUSH1 0x40 MLOAD PUSH1 0x12 DUP2 MSTORE PUSH1 0x20 ADD PUSH2 0x262 JUMP JUMPDEST CALLVALUE DUP1 ISZERO PUSH2 0x3BC JUMPI PUSH1 0x0 DUP1 REVERT JUMPDEST POP PUSH2 0x2DA PUSH2 0x3CB CALLDATASIZE PUSH1 0x4 PUSH2 0x1F08 JUMP JUMPDEST PUSH2 0x8DF JUMP JUMPDEST CALLVALUE DUP1 ISZERO PUSH2 0x3DC JUMPI PUSH1 0x0 DUP1 REVERT JUMPDEST POP PUSH2 0x2DA PUSH2 0x3EB CALLDATASIZE PUSH1 0x4 PUSH2 0x1EEF JUMP JUMPDEST PUSH2 0x9E4 JUMP JUMPDEST CALLVALUE DUP1 ISZERO PUSH2 0x3FC JUMPI PUSH1 0x0 DUP1 REVERT JUMPDEST POP PUSH2 0x28B PUSH2 0x40B CALLDATASIZE PUSH1 0x4 PUSH2 0x1EC3 JUMP JUMPDEST PUSH2 0xA80 JUMP JUMPDEST CALLVALUE DUP1 ISZERO PUSH2 0x41C JUMPI PUSH1 0x0 DUP1 REVERT JUMPDEST POP PUSH2 0x28B PUSH2 0x42B CALLDATASIZE PUSH1 0x4 PUSH2 0x1F08 JUMP JUMPDEST PUSH1 0xA1 PUSH1 0x20 MSTORE PUSH1 0x0 SWAP1 DUP2 MSTORE PUSH1 0x40 SWAP1 KECCAK256 SLOAD PUSH1 0xFF AND DUP2 JUMP JUMPDEST CALLVALUE DUP1 ISZERO PUSH2 0x44C JUMPI PUSH1 0x0 DUP1 REVERT JUMPDEST POP PUSH2 0x460 PUSH2 0x45B CALLDATASIZE PUSH1 0x4 PUSH2 0x1EEF JUMP JUMPDEST PUSH2 0xAA2 JUMP JUMPDEST PUSH1 0x40 DUP1 MLOAD PUSH1 0x1 PUSH1 0x1 PUSH1 0xA0 SHL SUB SWAP1 SWAP10 AND DUP10 MSTORE PUSH1 0x20 DUP10 ADD SWAP8 SWAP1 SWAP8 MSTORE SWAP6 DUP8 ADD SWAP5 SWAP1 SWAP5 MSTORE PUSH1 0x60 DUP7 ADD SWAP3 SWAP1 SWAP3 MSTORE PUSH1 0x80 DUP6 ADD MSTORE PUSH1 0xA0 DUP5 ADD MSTORE PUSH1 0xC0 DUP4 ADD MSTORE PUSH1 0xE0 DUP3 ADD MSTORE PUSH2 0x100 ADD PUSH2 0x262 JUMP JUMPDEST CALLVALUE DUP1 ISZERO PUSH2 0x4B1 JUMPI PUSH1 0x0 DUP1 REVERT JUMPDEST POP PUSH2 0x2DA PUSH2 0xBF6 JUMP JUMPDEST CALLVALUE DUP1 ISZERO PUSH2 0x4C6 JUMPI PUSH1 0x0 DUP1 REVERT JUMPDEST POP PUSH2 0x2AC PUSH1 0xA3 SLOAD DUP2 JUMP JUMPDEST CALLVALUE DUP1 ISZERO PUSH2 0x4DC JUMPI PUSH1 0x0 DUP1 REVERT JUMPDEST POP PUSH2 0x2AC PUSH2 0x4EB CALLDATASIZE PUSH1 0x4 PUSH2 0x1F08 JUMP JUMPDEST PUSH1 0x1 PUSH1 0x1 PUSH1 0xA0 SHL SUB AND PUSH1 0x0 SWAP1 DUP2 MSTORE PUSH1 0x33 PUSH1 0x20 MSTORE PUSH1 0x40 SWAP1 KECCAK256 SLOAD SWAP1 JUMP JUMPDEST CALLVALUE DUP1 ISZERO PUSH2 0x512 JUMPI PUSH1 0x0 DUP1 REVERT JUMPDEST POP PUSH2 0x2DA PUSH2 0xC9B JUMP JUMPDEST CALLVALUE DUP1 ISZERO PUSH2 0x527 JUMPI PUSH1 0x0 DUP1 REVERT JUMPDEST POP PUSH2 0x2DA PUSH2 0xCAD JUMP JUMPDEST CALLVALUE DUP1 ISZERO PUSH2 0x53C JUMPI PUSH1 0x0 DUP1 REVERT JUMPDEST POP PUSH2 0x2AC PUSH1 0x9B SLOAD DUP2 JUMP JUMPDEST CALLVALUE DUP1 ISZERO PUSH2 0x552 JUMPI PUSH1 0x0 DUP1 REVERT JUMPDEST POP PUSH1 0x65 SLOAD PUSH1 0x40 MLOAD PUSH1 0x1 PUSH1 0x1 PUSH1 0xA0 SHL SUB SWAP1 SWAP2 AND DUP2 MSTORE PUSH1 0x20 ADD PUSH2 0x262 JUMP JUMPDEST CALLVALUE DUP1 ISZERO PUSH2 0x57A JUMPI PUSH1 0x0 DUP1 REVERT JUMPDEST POP PUSH2 0x2AC PUSH2 0x589 CALLDATASIZE PUSH1 0x4 PUSH2 0x1F08 JUMP JUMPDEST PUSH2 0xDDB JUMP JUMPDEST CALLVALUE DUP1 ISZERO PUSH2 0x59A JUMPI PUSH1 0x0 DUP1 REVERT JUMPDEST POP PUSH2 0x255 PUSH2 0xDE6 JUMP JUMPDEST CALLVALUE DUP1 ISZERO PUSH2 0x5AF JUMPI PUSH1 0x0 DUP1 REVERT JUMPDEST POP PUSH2 0x28B PUSH2 0x5BE CALLDATASIZE PUSH1 0x4 PUSH2 0x1EC3 JUMP JUMPDEST PUSH2 0xDF5 JUMP JUMPDEST CALLVALUE DUP1 ISZERO PUSH2 0x5CF JUMPI PUSH1 0x0 DUP1 REVERT JUMPDEST POP PUSH2 0x2AC PUSH2 0x5DE CALLDATASIZE PUSH1 0x4 PUSH2 0x1F08 JUMP JUMPDEST PUSH2 0xE70 JUMP JUMPDEST CALLVALUE DUP1 ISZERO PUSH2 0x5EF JUMPI PUSH1 0x0 DUP1 REVERT JUMPDEST POP PUSH2 0x28B PUSH2 0x5FE CALLDATASIZE PUSH1 0x4 PUSH2 0x1EC3 JUMP JUMPDEST PUSH2 0xE9C JUMP JUMPDEST CALLVALUE DUP1 ISZERO PUSH2 0x60F JUMPI PUSH1 0x0 DUP1 REVERT JUMPDEST POP PUSH2 0x2AC PUSH2 0x61E CALLDATASIZE PUSH1 0x4 PUSH2 0x1F08 JUMP JUMPDEST PUSH1 0x1 PUSH1 0x1 PUSH1 0xA0 SHL SUB AND PUSH1 0x0 SWAP1 DUP2 MSTORE PUSH1 0x9A PUSH1 0x20 MSTORE PUSH1 0x40 SWAP1 KECCAK256 SLOAD SWAP1 JUMP JUMPDEST CALLVALUE DUP1 ISZERO PUSH2 0x645 JUMPI PUSH1 0x0 DUP1 REVERT JUMPDEST POP PUSH2 0x28B PUSH2 0x654 CALLDATASIZE PUSH1 0x4 PUSH2 0x1F66 JUMP JUMPDEST PUSH2 0xEAA JUMP JUMPDEST CALLVALUE DUP1 ISZERO PUSH2 0x665 JUMPI PUSH1 0x0 DUP1 REVERT JUMPDEST POP PUSH2 0x2AC PUSH1 0xA4 SLOAD DUP2 JUMP JUMPDEST CALLVALUE DUP1 ISZERO PUSH2 0x67B JUMPI PUSH1 0x0 DUP1 REVERT JUMPDEST POP PUSH2 0x28B PUSH2 0x68A CALLDATASIZE PUSH1 0x4 PUSH2 0x1F08 JUMP JUMPDEST PUSH1 0x1 PUSH1 0x1 PUSH1 0xA0 SHL SUB AND PUSH1 0x0 SWAP1 DUP2 MSTORE PUSH1 0xA1 PUSH1 0x20 MSTORE PUSH1 0x40 SWAP1 KECCAK256 SLOAD PUSH1 0xFF AND SWAP1 JUMP JUMPDEST CALLVALUE DUP1 ISZERO PUSH2 0x6B4 JUMPI PUSH1 0x0 DUP1 REVERT JUMPDEST POP PUSH2 0x2AC PUSH2 0x6C3 CALLDATASIZE PUSH1 0x4 PUSH2 0x1FA4 JUMP JUMPDEST PUSH2 0xF35 JUMP JUMPDEST CALLVALUE DUP1 ISZERO PUSH2 0x6D4 JUMPI PUSH1 0x0 DUP1 REVERT JUMPDEST POP PUSH2 0x2DA PUSH2 0x6E3 CALLDATASIZE PUSH1 0x4 PUSH2 0x1EC3 JUMP JUMPDEST PUSH2 0xF60 JUMP JUMPDEST CALLVALUE DUP1 ISZERO PUSH2 0x6F4 JUMPI PUSH1 0x0 DUP1 REVERT JUMPDEST POP PUSH1 0xA0 SLOAD PUSH2 0x2AC JUMP JUMPDEST CALLVALUE DUP1 ISZERO PUSH2 0x709 JUMPI PUSH1 0x0 DUP1 REVERT JUMPDEST POP PUSH2 0x2DA PUSH2 0x718 CALLDATASIZE PUSH1 0x4 PUSH2 0x1EEF JUMP JUMPDEST PUSH2 0x10A8 JUMP JUMPDEST CALLVALUE DUP1 ISZERO PUSH2 0x729 JUMPI PUSH1 0x0 DUP1 REVERT JUMPDEST POP PUSH2 0x2DA PUSH2 0x738 CALLDATASIZE PUSH1 0x4 PUSH2 0x1F08 JUMP JUMPDEST PUSH2 0x11EF JUMP JUMPDEST CALLVALUE DUP1 ISZERO PUSH2 0x749 JUMPI PUSH1 0x0 DUP1 REVERT JUMPDEST POP PUSH2 0x460 PUSH2 0x758 CALLDATASIZE PUSH1 0x4 PUSH2 0x1F08 JUMP JUMPDEST PUSH2 0x1265 JUMP JUMPDEST CALLVALUE DUP1 ISZERO PUSH2 0x769 JUMPI PUSH1 0x0 DUP1 REVERT JUMPDEST POP PUSH2 0x77D PUSH2 0x778 CALLDATASIZE PUSH1 0x4 PUSH2 0x1EEF JUMP JUMPDEST PUSH2 0x13CE JUMP JUMPDEST PUSH1 0x40 DUP1 MLOAD SWAP4 DUP5 MSTORE PUSH1 0x20 DUP5 ADD SWAP3 SWAP1 SWAP3 MSTORE SWAP1 DUP3 ADD MSTORE PUSH1 0x60 ADD PUSH2 0x262 JUMP JUMPDEST PUSH1 0x60 PUSH1 0x36 DUP1 SLOAD PUSH2 0x7A7 SWAP1 PUSH2 0x1FD2 JUMP JUMPDEST DUP1 PUSH1 0x1F ADD PUSH1 0x20 DUP1 SWAP2 DIV MUL PUSH1 0x20 ADD PUSH1 0x40 MLOAD SWAP1 DUP2 ADD PUSH1 0x40 MSTORE DUP1 SWAP3 SWAP2 SWAP1 DUP2 DUP2 MSTORE PUSH1 0x20 ADD DUP3 DUP1 SLOAD PUSH2 0x7D3 SWAP1 PUSH2 0x1FD2 JUMP JUMPDEST DUP1 ISZERO PUSH2 0x820 JUMPI DUP1 PUSH1 0x1F LT PUSH2 0x7F5 JUMPI PUSH2 0x100 DUP1 DUP4 SLOAD DIV MUL DUP4 MSTORE SWAP2 PUSH1 0x20 ADD SWAP2 PUSH2 0x820 JUMP JUMPDEST DUP3 ADD SWAP2 SWAP1 PUSH1 0x0 MSTORE PUSH1 0x20 PUSH1 0x0 KECCAK256 SWAP1 JUMPDEST DUP2 SLOAD DUP2 MSTORE SWAP1 PUSH1 0x1 ADD SWAP1 PUSH1 0x20 ADD DUP1 DUP4 GT PUSH2 0x803 JUMPI DUP3 SWAP1 SUB PUSH1 0x1F AND DUP3 ADD SWAP2 JUMPDEST POP POP POP POP POP SWAP1 POP SWAP1 JUMP JUMPDEST PUSH1 0x0 CALLER PUSH2 0x838 DUP2 DUP6 DUP6 PUSH2 0x14EB JUMP JUMPDEST PUSH1 0x1 SWAP2 POP POP JUMPDEST SWAP3 SWAP2 POP POP JUMP JUMPDEST PUSH2 0x84C PUSH2 0x160F JUMP JUMPDEST PUSH1 0xA4 SSTORE JUMP JUMPDEST PUSH1 0x0 CALLER PUSH2 0x85F DUP6 DUP3 DUP6 PUSH2 0x1669 JUMP JUMPDEST PUSH2 0x86A DUP6 DUP6 DUP6 PUSH2 0x16E3 JUMP JUMPDEST POP PUSH1 0x1 SWAP5 SWAP4 POP POP POP POP JUMP JUMPDEST PUSH1 0x97 SLOAD PUSH1 0x1 PUSH1 0x1 PUSH1 0xA0 SHL SUB DUP3 AND PUSH1 0x0 SWAP1 DUP2 MSTORE PUSH1 0x99 PUSH1 0x20 SWAP1 DUP2 MSTORE PUSH1 0x40 DUP1 DUP4 KECCAK256 SLOAD PUSH1 0x33 SWAP1 SWAP3 MSTORE DUP3 KECCAK256 SLOAD SWAP2 SWAP3 SWAP2 PUSH2 0x8C8 SWAP2 PUSH2 0x8C3 SWAP2 PUSH2 0x8BD SWAP1 PUSH2 0x8B8 SWAP1 PUSH1 0x98 SLOAD SWAP1 PUSH2 0x173A JUMP JUMPDEST PUSH2 0x174D JUMP JUMPDEST SWAP1 PUSH2 0x175D JUMP JUMPDEST PUSH2 0x179B JUMP JUMPDEST PUSH2 0x83E SWAP2 SWAP1 PUSH2 0x2022 JUMP JUMPDEST PUSH2 0x8DA PUSH2 0x160F JUMP JUMPDEST PUSH1 0xA0 SSTORE JUMP JUMPDEST PUSH2 0x8E7 PUSH2 0x160F JUMP JUMPDEST PUSH1 0x1 PUSH1 0x1 PUSH1 0xA0 SHL SUB DUP2 AND PUSH1 0x0 SWAP1 DUP2 MSTORE PUSH1 0xA1 PUSH1 0x20 MSTORE PUSH1 0x40 SWAP1 KECCAK256 SLOAD PUSH1 0xFF AND ISZERO PUSH2 0x90D JUMPI PUSH1 0x0 DUP1 REVERT JUMPDEST PUSH1 0x1 PUSH1 0x1 PUSH1 0xA0 SHL SUB DUP2 AND PUSH1 0x0 SWAP1 DUP2 MSTORE PUSH1 0xA1 PUSH1 0x20 MSTORE PUSH1 0x40 DUP2 KECCAK256 DUP1 SLOAD PUSH1 0xFF NOT AND PUSH1 0x1 OR SWAP1 SSTORE PUSH2 0x93B SWAP1 DUP3 SWAP1 PUSH2 0x17AE JUMP JUMPDEST PUSH1 0x40 MLOAD PUSH4 0x256079DF PUSH1 0xE0 SHL DUP2 MSTORE PUSH1 0x9C PUSH1 0x4 DUP3 ADD MSTORE PUSH1 0x1 PUSH1 0x1 PUSH1 0xA0 SHL SUB DUP3 AND PUSH1 0x24 DUP3 ADD MSTORE PUSH20 0x0 SWAP1 PUSH4 0x256079DF SWAP1 PUSH1 0x44 ADD PUSH1 0x0 PUSH1 0x40 MLOAD DUP1 DUP4 SUB DUP2 DUP7 DUP1 EXTCODESIZE ISZERO DUP1 ISZERO PUSH2 0x995 JUMPI PUSH1 0x0 DUP1 REVERT JUMPDEST POP GAS DELEGATECALL ISZERO DUP1 ISZERO PUSH2 0x9A9 JUMPI RETURNDATASIZE PUSH1 0x0 DUP1 RETURNDATACOPY RETURNDATASIZE PUSH1 0x0 REVERT JUMPDEST POP POP PUSH1 0x40 MLOAD PUSH1 0x1 PUSH1 0x1 PUSH1 0xA0 SHL SUB DUP5 AND SWAP3 POP PUSH32 0xA878B31040B2E6D0A9A3D3361209DB3908BA62014B0DCA52ADBAEE451D128B25 SWAP2 POP PUSH1 0x0 SWAP1 LOG2 POP JUMP JUMPDEST PUSH2 0x9EC PUSH2 0x160F JUMP JUMPDEST PUSH1 0x0 PUSH2 0x9F7 PUSH1 0x35 SLOAD SWAP1 JUMP JUMPDEST GT PUSH2 0xA01 JUMPI PUSH1 0x0 DUP1 REVERT JUMPDEST DUP1 ISZERO PUSH2 0xA7D JUMPI PUSH2 0xA34 PUSH2 0xA13 PUSH1 0x35 SLOAD SWAP1 JUMP JUMPDEST PUSH1 0x97 SLOAD PUSH2 0xA21 SWAP1 DUP5 SWAP1 PUSH2 0x173A JUMP JUMPDEST PUSH2 0xA2B SWAP2 SWAP1 PUSH2 0x2022 JUMP JUMPDEST PUSH1 0x98 SLOAD SWAP1 PUSH2 0x180D JUMP JUMPDEST PUSH1 0x98 SSTORE PUSH1 0x40 MLOAD DUP2 DUP2 MSTORE CALLER SWAP1 PUSH32 0xA493A9229478C3FCD73F66D2CDEB7F94FD0F341DA924D1054236D78454116511 SWAP1 PUSH1 0x20 ADD PUSH1 0x40 MLOAD DUP1 SWAP2 SUB SWAP1 LOG2 PUSH1 0x9B SLOAD PUSH2 0xA79 SWAP1 DUP3 PUSH2 0x180D JUMP JUMPDEST PUSH1 0x9B SSTORE JUMPDEST POP JUMP JUMPDEST PUSH1 0x0 CALLER PUSH2 0x838 DUP2 DUP6 DUP6 PUSH2 0xA93 DUP4 DUP4 PUSH2 0xF35 JUMP JUMPDEST PUSH2 0xA9D SWAP2 SWAP1 PUSH2 0x2044 JUMP JUMPDEST PUSH2 0x14EB JUMP JUMPDEST PUSH1 0x0 DUP1 PUSH1 0x0 DUP1 PUSH1 0x0 DUP1 PUSH1 0x0 DUP1 PUSH1 0x9C PUSH20 0x0 PUSH4 0x73BE47CA SWAP1 SWAP2 PUSH1 0x40 MLOAD DUP3 PUSH4 0xFFFFFFFF AND PUSH1 0xE0 SHL DUP2 MSTORE PUSH1 0x4 ADD PUSH2 0xAEA SWAP2 DUP2 MSTORE PUSH1 0x20 ADD SWAP1 JUMP JUMPDEST PUSH1 0x20 PUSH1 0x40 MLOAD DUP1 DUP4 SUB DUP2 DUP7 GAS DELEGATECALL ISZERO DUP1 ISZERO PUSH2 0xB07 JUMPI RETURNDATASIZE PUSH1 0x0 DUP1 RETURNDATACOPY RETURNDATASIZE PUSH1 0x0 REVERT JUMPDEST POP POP POP POP PUSH1 0x40 MLOAD RETURNDATASIZE PUSH1 0x1F NOT PUSH1 0x1F DUP3 ADD AND DUP3 ADD DUP1 PUSH1 0x40 MSTORE POP DUP2 ADD SWAP1 PUSH2 0xB2B SWAP2 SWAP1 PUSH2 0x2057 JUMP JUMPDEST DUP10 LT PUSH2 0xB50 JUMPI POP PUSH1 0x0 SWAP7 POP PUSH1 0x0 NOT SWAP6 POP DUP6 SWAP5 POP DUP7 SWAP4 POP DUP4 SWAP3 POP DUP3 SWAP2 POP DUP2 SWAP1 POP DUP1 PUSH2 0xBEB JUMP JUMPDEST PUSH1 0x40 MLOAD PUSH4 0x4A9208A9 PUSH1 0xE1 SHL DUP2 MSTORE PUSH1 0x9C PUSH1 0x4 DUP3 ADD MSTORE PUSH1 0x24 DUP2 ADD DUP11 SWAP1 MSTORE PUSH1 0x0 SWAP1 PUSH20 0x0 SWAP1 PUSH4 0x95241152 SWAP1 PUSH1 0x44 ADD PUSH1 0x20 PUSH1 0x40 MLOAD DUP1 DUP4 SUB DUP2 DUP7 GAS DELEGATECALL ISZERO DUP1 ISZERO PUSH2 0xBAA JUMPI RETURNDATASIZE PUSH1 0x0 DUP1 RETURNDATACOPY RETURNDATASIZE PUSH1 0x0 REVERT JUMPDEST POP POP POP POP PUSH1 0x40 MLOAD RETURNDATASIZE PUSH1 0x1F NOT PUSH1 0x1F DUP3 ADD AND DUP3 ADD DUP1 PUSH1 0x40 MSTORE POP DUP2 ADD SWAP1 PUSH2 0xBCE SWAP2 SWAP1 PUSH2 0x2070 JUMP JUMPDEST SWAP1 POP PUSH2 0xBD9 DUP2 PUSH2 0x1265 JUMP JUMPDEST SWAP9 POP SWAP9 POP SWAP9 POP SWAP9 POP SWAP9 POP SWAP9 POP SWAP9 POP SWAP9 POP POP JUMPDEST SWAP2 SWAP4 SWAP6 SWAP8 POP SWAP2 SWAP4 SWAP6 SWAP8 JUMP JUMPDEST PUSH1 0x40 MLOAD PUSH3 0x461BCD PUSH1 0xE5 SHL DUP2 MSTORE PUSH1 0x20 PUSH1 0x4 DUP3 ADD MSTORE PUSH1 0x61 PUSH1 0x24 DUP3 ADD MSTORE PUSH32 0x4469766964656E645F547261636B65723A207769746864726177446976696465 PUSH1 0x44 DUP3 ADD MSTORE PUSH32 0x6E642064697361626C65642E20557365207468652027636C61696D272066756E PUSH1 0x64 DUP3 ADD MSTORE PUSH32 0x6374696F6E206F6E20746865206D61696E20546F6B656E20636F6E7472616374 PUSH1 0x84 DUP3 ADD MSTORE PUSH1 0x17 PUSH1 0xF9 SHL PUSH1 0xA4 DUP3 ADD MSTORE PUSH1 0xC4 ADD JUMPDEST PUSH1 0x40 MLOAD DUP1 SWAP2 SUB SWAP1 REVERT JUMPDEST JUMP JUMPDEST PUSH2 0xCA3 PUSH2 0x160F JUMP JUMPDEST PUSH2 0xC99 PUSH1 0x0 PUSH2 0x1819 JUMP JUMPDEST PUSH1 0x0 SLOAD PUSH2 0x100 SWAP1 DIV PUSH1 0xFF AND ISZERO DUP1 DUP1 ISZERO PUSH2 0xCCD JUMPI POP PUSH1 0x0 SLOAD PUSH1 0x1 PUSH1 0xFF SWAP1 SWAP2 AND LT JUMPDEST DUP1 PUSH2 0xCE7 JUMPI POP ADDRESS EXTCODESIZE ISZERO DUP1 ISZERO PUSH2 0xCE7 JUMPI POP PUSH1 0x0 SLOAD PUSH1 0xFF AND PUSH1 0x1 EQ JUMPDEST PUSH2 0xD03 JUMPI PUSH1 0x40 MLOAD PUSH3 0x461BCD PUSH1 0xE5 SHL DUP2 MSTORE PUSH1 0x4 ADD PUSH2 0xC90 SWAP1 PUSH2 0x208D JUMP JUMPDEST PUSH1 0x0 DUP1 SLOAD PUSH1 0xFF NOT AND PUSH1 0x1 OR SWAP1 SSTORE DUP1 ISZERO PUSH2 0xD26 JUMPI PUSH1 0x0 DUP1 SLOAD PUSH2 0xFF00 NOT AND PUSH2 0x100 OR SWAP1 SSTORE JUMPDEST PUSH2 0xD80 PUSH1 0x40 MLOAD DUP1 PUSH1 0x40 ADD PUSH1 0x40 MSTORE DUP1 PUSH1 0x10 DUP2 MSTORE PUSH1 0x20 ADD PUSH16 0x2224AB24A222A7222FAA2920A1A5A2A9 PUSH1 0x81 SHL DUP2 MSTORE POP PUSH1 0x40 MLOAD DUP1 PUSH1 0x40 ADD PUSH1 0x40 MSTORE DUP1 PUSH1 0x10 DUP2 MSTORE PUSH1 0x20 ADD PUSH16 0x2224AB24A222A7222FAA2920A1A5A2A9 PUSH1 0x81 SHL DUP2 MSTORE POP PUSH2 0x186B JUMP JUMPDEST PUSH2 0xE10 PUSH1 0xA3 SSTORE PUSH9 0x6C6B935B8BBD400000 PUSH1 0xA4 SSTORE DUP1 ISZERO PUSH2 0xA7D JUMPI PUSH1 0x0 DUP1 SLOAD PUSH2 0xFF00 NOT AND SWAP1 SSTORE PUSH1 0x40 MLOAD PUSH1 0x1 DUP2 MSTORE PUSH32 0x7F26B83FF96E1F2B6A682F133852F6798A09C465DA95921460CEFB3847402498 SWAP1 PUSH1 0x20 ADD PUSH1 0x40 MLOAD DUP1 SWAP2 SUB SWAP1 LOG1 POP JUMP JUMPDEST PUSH1 0x0 PUSH2 0x83E DUP3 PUSH2 0xE70 JUMP JUMPDEST PUSH1 0x60 PUSH1 0x37 DUP1 SLOAD PUSH2 0x7A7 SWAP1 PUSH2 0x1FD2 JUMP JUMPDEST PUSH1 0x0 CALLER DUP2 PUSH2 0xE03 DUP3 DUP7 PUSH2 0xF35 JUMP JUMPDEST SWAP1 POP DUP4 DUP2 LT ISZERO PUSH2 0xE63 JUMPI PUSH1 0x40 MLOAD PUSH3 0x461BCD PUSH1 0xE5 SHL DUP2 MSTORE PUSH1 0x20 PUSH1 0x4 DUP3 ADD MSTORE PUSH1 0x25 PUSH1 0x24 DUP3 ADD MSTORE PUSH32 0x45524332303A2064656372656173656420616C6C6F77616E63652062656C6F77 PUSH1 0x44 DUP3 ADD MSTORE PUSH5 0x207A65726F PUSH1 0xD8 SHL PUSH1 0x64 DUP3 ADD MSTORE PUSH1 0x84 ADD PUSH2 0xC90 JUMP JUMPDEST PUSH2 0x86A DUP3 DUP7 DUP7 DUP5 SUB PUSH2 0x14EB JUMP JUMPDEST PUSH1 0x1 PUSH1 0x1 PUSH1 0xA0 SHL SUB DUP2 AND PUSH1 0x0 SWAP1 DUP2 MSTORE PUSH1 0x9A PUSH1 0x20 MSTORE PUSH1 0x40 DUP2 KECCAK256 SLOAD PUSH2 0x83E SWAP1 PUSH2 0xE96 DUP5 PUSH2 0x875 JUMP JUMPDEST SWAP1 PUSH2 0x1948 JUMP JUMPDEST PUSH1 0x0 CALLER PUSH2 0x838 DUP2 DUP6 DUP6 PUSH2 0x16E3 JUMP JUMPDEST PUSH1 0x0 PUSH2 0xEB4 PUSH2 0x160F JUMP JUMPDEST PUSH1 0x0 PUSH2 0xEBF DUP5 PUSH2 0x1954 JUMP JUMPDEST SWAP1 POP DUP1 ISZERO PUSH2 0xF2B JUMPI PUSH1 0x1 PUSH1 0x1 PUSH1 0xA0 SHL SUB DUP5 AND PUSH1 0x0 DUP2 DUP2 MSTORE PUSH1 0xA2 PUSH1 0x20 MSTORE PUSH1 0x40 SWAP1 DUP2 SWAP1 KECCAK256 TIMESTAMP SWAP1 SSTORE MLOAD DUP5 ISZERO ISZERO SWAP2 SWAP1 PUSH32 0xA2C38E2D2FB7E3E1912D937FD1CA11ED6D51864DEE4CFA7A7BF02BECD7ACF092 SWAP1 PUSH2 0xF19 SWAP1 DUP6 DUP2 MSTORE PUSH1 0x20 ADD SWAP1 JUMP JUMPDEST PUSH1 0x40 MLOAD DUP1 SWAP2 SUB SWAP1 LOG3 PUSH1 0x1 SWAP2 POP POP PUSH2 0x83E JUMP JUMPDEST POP PUSH1 0x0 SWAP4 SWAP3 POP POP POP JUMP JUMPDEST PUSH1 0x1 PUSH1 0x1 PUSH1 0xA0 SHL SUB SWAP2 DUP3 AND PUSH1 0x0 SWAP1 DUP2 MSTORE PUSH1 0x34 PUSH1 0x20 SWAP1 DUP2 MSTORE PUSH1 0x40 DUP1 DUP4 KECCAK256 SWAP4 SWAP1 SWAP5 AND DUP3 MSTORE SWAP2 SWAP1 SWAP2 MSTORE KECCAK256 SLOAD SWAP1 JUMP JUMPDEST PUSH2 0xF68 PUSH2 0x160F JUMP JUMPDEST PUSH1 0x1 PUSH1 0x1 PUSH1 0xA0 SHL SUB DUP3 AND PUSH1 0x0 SWAP1 DUP2 MSTORE PUSH1 0xA1 PUSH1 0x20 MSTORE PUSH1 0x40 SWAP1 KECCAK256 SLOAD PUSH1 0xFF AND PUSH2 0x10A4 JUMPI PUSH1 0xA4 SLOAD DUP2 LT PUSH2 0x1019 JUMPI PUSH2 0xF9B DUP3 DUP3 PUSH2 0x17AE JUMP JUMPDEST PUSH1 0x40 MLOAD PUSH4 0x60AA8BB PUSH1 0xE5 SHL DUP2 MSTORE PUSH1 0x9C PUSH1 0x4 DUP3 ADD MSTORE PUSH1 0x1 PUSH1 0x1 PUSH1 0xA0 SHL SUB DUP4 AND PUSH1 0x24 DUP3 ADD MSTORE PUSH1 0x44 DUP2 ADD DUP3 SWAP1 MSTORE PUSH20 0x0 SWAP1 PUSH4 0xC1551760 SWAP1 PUSH1 0x64 ADD PUSH1 0x0 PUSH1 0x40 MLOAD DUP1 DUP4 SUB DUP2 DUP7 DUP1 EXTCODESIZE ISZERO DUP1 ISZERO PUSH2 0xFFC JUMPI PUSH1 0x0 DUP1 REVERT JUMPDEST POP GAS DELEGATECALL ISZERO DUP1 ISZERO PUSH2 0x1010 JUMPI RETURNDATASIZE PUSH1 0x0 DUP1 RETURNDATACOPY RETURNDATASIZE PUSH1 0x0 REVERT JUMPDEST POP POP POP POP PUSH2 0x1097 JUMP JUMPDEST PUSH2 0x1024 DUP3 PUSH1 0x0 PUSH2 0x17AE JUMP JUMPDEST PUSH1 0x40 MLOAD PUSH4 0x256079DF PUSH1 0xE0 SHL DUP2 MSTORE PUSH1 0x9C PUSH1 0x4 DUP3 ADD MSTORE PUSH1 0x1 PUSH1 0x1 PUSH1 0xA0 SHL SUB DUP4 AND PUSH1 0x24 DUP3 ADD MSTORE PUSH20 0x0 SWAP1 PUSH4 0x256079DF SWAP1 PUSH1 0x44 ADD PUSH1 0x0 PUSH1 0x40 MLOAD DUP1 DUP4 SUB DUP2 DUP7 DUP1 EXTCODESIZE ISZERO DUP1 ISZERO PUSH2 0x107E JUMPI PUSH1 0x0 DUP1 REVERT JUMPDEST POP GAS DELEGATECALL ISZERO DUP1 ISZERO PUSH2 0x1092 JUMPI RETURNDATASIZE PUSH1 0x0 DUP1 RETURNDATACOPY RETURNDATASIZE PUSH1 0x0 REVERT JUMPDEST POP POP POP POP JUMPDEST PUSH2 0x10A2 DUP3 PUSH1 0x1 PUSH2 0xEAA JUMP JUMPDEST POP JUMPDEST POP POP JUMP JUMPDEST PUSH2 0x10B0 PUSH2 0x160F JUMP JUMPDEST PUSH2 0xE10 DUP2 LT ISZERO DUP1 ISZERO PUSH2 0x10C5 JUMPI POP PUSH3 0x15180 DUP2 GT ISZERO JUMPDEST PUSH2 0x1145 JUMPI PUSH1 0x40 MLOAD PUSH3 0x461BCD PUSH1 0xE5 SHL DUP2 MSTORE PUSH1 0x20 PUSH1 0x4 DUP3 ADD MSTORE PUSH1 0x45 PUSH1 0x24 DUP3 ADD MSTORE PUSH32 0x4469766964656E645F547261636B65723A20636C61696D57616974206D757374 PUSH1 0x44 DUP3 ADD MSTORE PUSH32 0x206265207570646174656420746F206265747765656E203120616E6420323420 PUSH1 0x64 DUP3 ADD MSTORE PUSH5 0x686F757273 PUSH1 0xD8 SHL PUSH1 0x84 DUP3 ADD MSTORE PUSH1 0xA4 ADD PUSH2 0xC90 JUMP JUMPDEST PUSH1 0xA3 SLOAD DUP2 SUB PUSH2 0x11BC JUMPI PUSH1 0x40 MLOAD PUSH3 0x461BCD PUSH1 0xE5 SHL DUP2 MSTORE PUSH1 0x20 PUSH1 0x4 DUP3 ADD MSTORE PUSH1 0x37 PUSH1 0x24 DUP3 ADD MSTORE PUSH32 0x4469766964656E645F547261636B65723A2043616E6E6F742075706461746520 PUSH1 0x44 DUP3 ADD MSTORE PUSH32 0x636C61696D5761697420746F2073616D652076616C7565000000000000000000 PUSH1 0x64 DUP3 ADD MSTORE PUSH1 0x84 ADD PUSH2 0xC90 JUMP JUMPDEST PUSH1 0xA3 SLOAD PUSH1 0x40 MLOAD DUP3 SWAP1 PUSH32 0x474EA64804364A1E29A4487DDB63C3342A2DD826CCD8ACF48825E680A0E6F20F SWAP1 PUSH1 0x0 SWAP1 LOG3 PUSH1 0xA3 SSTORE JUMP JUMPDEST PUSH2 0x11F7 PUSH2 0x160F JUMP JUMPDEST PUSH1 0x1 PUSH1 0x1 PUSH1 0xA0 SHL SUB DUP2 AND PUSH2 0x125C JUMPI PUSH1 0x40 MLOAD PUSH3 0x461BCD PUSH1 0xE5 SHL DUP2 MSTORE PUSH1 0x20 PUSH1 0x4 DUP3 ADD MSTORE PUSH1 0x26 PUSH1 0x24 DUP3 ADD MSTORE PUSH32 0x4F776E61626C653A206E6577206F776E657220697320746865207A65726F2061 PUSH1 0x44 DUP3 ADD MSTORE PUSH6 0x646472657373 PUSH1 0xD0 SHL PUSH1 0x64 DUP3 ADD MSTORE PUSH1 0x84 ADD PUSH2 0xC90 JUMP JUMPDEST PUSH2 0xA7D DUP2 PUSH2 0x1819 JUMP JUMPDEST PUSH1 0x40 MLOAD PUSH4 0x645B535 PUSH1 0xE4 SHL DUP2 MSTORE PUSH1 0x9C PUSH1 0x4 DUP3 ADD MSTORE PUSH1 0x1 PUSH1 0x1 PUSH1 0xA0 SHL SUB DUP3 AND PUSH1 0x24 DUP3 ADD MSTORE DUP2 SWAP1 PUSH1 0x0 SWAP1 DUP2 SWAP1 DUP2 SWAP1 DUP2 SWAP1 DUP2 SWAP1 DUP2 SWAP1 DUP2 SWAP1 PUSH20 0x0 SWAP1 PUSH4 0x645B5350 SWAP1 PUSH1 0x44 ADD PUSH1 0x20 PUSH1 0x40 MLOAD DUP1 DUP4 SUB DUP2 DUP7 GAS DELEGATECALL ISZERO DUP1 ISZERO PUSH2 0x12D5 JUMPI RETURNDATASIZE PUSH1 0x0 DUP1 RETURNDATACOPY RETURNDATASIZE PUSH1 0x0 REVERT JUMPDEST POP POP POP POP PUSH1 0x40 MLOAD RETURNDATASIZE PUSH1 0x1F NOT PUSH1 0x1F DUP3 ADD AND DUP3 ADD DUP1 PUSH1 0x40 MSTORE POP DUP2 ADD SWAP1 PUSH2 0x12F9 SWAP2 SWAP1 PUSH2 0x2057 JUMP JUMPDEST SWAP7 POP PUSH1 0x0 NOT SWAP6 POP PUSH1 0x0 DUP8 SLT PUSH2 0x135B JUMPI PUSH1 0xA0 SLOAD DUP8 GT ISZERO PUSH2 0x1327 JUMPI PUSH1 0xA0 SLOAD PUSH2 0x1320 SWAP1 DUP9 SWAP1 PUSH2 0x1A68 JUMP JUMPDEST SWAP6 POP PUSH2 0x135B JUMP JUMPDEST PUSH1 0xA0 SLOAD PUSH1 0x9C SLOAD PUSH1 0x0 SWAP2 LT PUSH2 0x133C JUMPI PUSH1 0x0 PUSH2 0x134B JUMP JUMPDEST PUSH1 0xA0 SLOAD PUSH1 0x9C SLOAD PUSH2 0x134B SWAP2 PUSH2 0x1948 JUMP JUMPDEST SWAP1 POP PUSH2 0x1357 DUP9 DUP3 PUSH2 0x175D JUMP JUMPDEST SWAP7 POP POP JUMPDEST PUSH2 0x1364 DUP9 PUSH2 0xE70 JUMP JUMPDEST SWAP5 POP PUSH2 0x136F DUP9 PUSH2 0x875 JUMP JUMPDEST PUSH1 0x1 PUSH1 0x1 PUSH1 0xA0 SHL SUB DUP10 AND PUSH1 0x0 SWAP1 DUP2 MSTORE PUSH1 0xA2 PUSH1 0x20 MSTORE PUSH1 0x40 SWAP1 KECCAK256 SLOAD SWAP1 SWAP5 POP SWAP3 POP DUP3 PUSH2 0x1399 JUMPI PUSH1 0x0 PUSH2 0x13A7 JUMP JUMPDEST PUSH1 0xA3 SLOAD PUSH2 0x13A7 SWAP1 DUP5 SWAP1 PUSH2 0x180D JUMP JUMPDEST SWAP2 POP TIMESTAMP DUP3 GT PUSH2 0x13B7 JUMPI PUSH1 0x0 PUSH2 0x13C1 JUMP JUMPDEST PUSH2 0x13C1 DUP3 TIMESTAMP PUSH2 0x1948 JUMP JUMPDEST SWAP1 POP SWAP2 SWAP4 SWAP6 SWAP8 POP SWAP2 SWAP4 SWAP6 SWAP8 JUMP JUMPDEST PUSH1 0x9C SLOAD PUSH1 0x0 SWAP1 DUP2 SWAP1 DUP2 SWAP1 DUP1 DUP3 SUB PUSH2 0x13F0 JUMPI POP POP PUSH1 0xA0 SLOAD PUSH1 0x0 SWAP3 POP DUP3 SWAP2 POP PUSH2 0x14E4 JUMP JUMPDEST PUSH1 0xA0 SLOAD PUSH1 0x0 DUP1 GAS SWAP1 POP PUSH1 0x0 DUP1 JUMPDEST DUP10 DUP5 LT DUP1 ISZERO PUSH2 0x140B JUMPI POP DUP6 DUP3 LT JUMPDEST ISZERO PUSH2 0x14D3 JUMPI DUP5 PUSH2 0x141A DUP2 PUSH2 0x20DB JUMP JUMPDEST PUSH1 0x9C SLOAD SWAP1 SWAP7 POP DUP7 LT SWAP1 POP PUSH2 0x142D JUMPI PUSH1 0x0 SWAP5 POP JUMPDEST PUSH1 0x0 PUSH1 0x9C PUSH1 0x0 ADD DUP7 DUP2 SLOAD DUP2 LT PUSH2 0x1445 JUMPI PUSH2 0x1445 PUSH2 0x20F4 JUMP JUMPDEST PUSH1 0x0 SWAP2 DUP3 MSTORE PUSH1 0x20 DUP1 DUP4 KECCAK256 SWAP1 SWAP2 ADD SLOAD PUSH1 0x1 PUSH1 0x1 PUSH1 0xA0 SHL SUB AND DUP1 DUP4 MSTORE PUSH1 0xA2 SWAP1 SWAP2 MSTORE PUSH1 0x40 SWAP1 SWAP2 KECCAK256 SLOAD SWAP1 SWAP2 POP PUSH2 0x1476 SWAP1 PUSH2 0x1AA5 JUMP JUMPDEST ISZERO PUSH2 0x1499 JUMPI PUSH2 0x1486 DUP2 PUSH1 0x1 PUSH2 0xEAA JUMP JUMPDEST ISZERO PUSH2 0x1499 JUMPI DUP2 PUSH2 0x1495 DUP2 PUSH2 0x20DB JUMP JUMPDEST SWAP3 POP POP JUMPDEST DUP3 PUSH2 0x14A3 DUP2 PUSH2 0x20DB JUMP JUMPDEST SWAP4 POP POP PUSH1 0x0 GAS SWAP1 POP DUP1 DUP6 GT ISZERO PUSH2 0x14CA JUMPI PUSH2 0x14C7 PUSH2 0x14C0 DUP7 DUP4 PUSH2 0x1948 JUMP JUMPDEST DUP8 SWAP1 PUSH2 0x180D JUMP JUMPDEST SWAP6 POP JUMPDEST SWAP4 POP PUSH2 0x13FD SWAP1 POP JUMP JUMPDEST PUSH1 0xA0 DUP6 SWAP1 SSTORE SWAP1 SWAP8 POP SWAP6 POP SWAP2 SWAP4 POP POP POP POP JUMPDEST SWAP2 SWAP4 SWAP1 SWAP3 POP JUMP JUMPDEST PUSH1 0x1 PUSH1 0x1 PUSH1 0xA0 SHL SUB DUP4 AND PUSH2 0x154D JUMPI PUSH1 0x40 MLOAD PUSH3 0x461BCD PUSH1 0xE5 SHL DUP2 MSTORE PUSH1 0x20 PUSH1 0x4 DUP3 ADD MSTORE PUSH1 0x24 DUP1 DUP3 ADD MSTORE PUSH32 0x45524332303A20617070726F76652066726F6D20746865207A65726F20616464 PUSH1 0x44 DUP3 ADD MSTORE PUSH4 0x72657373 PUSH1 0xE0 SHL PUSH1 0x64 DUP3 ADD MSTORE PUSH1 0x84 ADD PUSH2 0xC90 JUMP JUMPDEST PUSH1 0x1 PUSH1 0x1 PUSH1 0xA0 SHL SUB DUP3 AND PUSH2 0x15AE JUMPI PUSH1 0x40 MLOAD PUSH3 0x461BCD PUSH1 0xE5 SHL DUP2 MSTORE PUSH1 0x20 PUSH1 0x4 DUP3 ADD MSTORE PUSH1 0x22 PUSH1 0x24 DUP3 ADD MSTORE PUSH32 0x45524332303A20617070726F766520746F20746865207A65726F206164647265 PUSH1 0x44 DUP3 ADD MSTORE PUSH2 0x7373 PUSH1 0xF0 SHL PUSH1 0x64 DUP3 ADD MSTORE PUSH1 0x84 ADD PUSH2 0xC90 JUMP JUMPDEST PUSH1 0x1 PUSH1 0x1 PUSH1 0xA0 SHL SUB DUP4 DUP2 AND PUSH1 0x0 DUP2 DUP2 MSTORE PUSH1 0x34 PUSH1 0x20 SWAP1 DUP2 MSTORE PUSH1 0x40 DUP1 DUP4 KECCAK256 SWAP5 DUP8 AND DUP1 DUP5 MSTORE SWAP5 DUP3 MSTORE SWAP2 DUP3 SWAP1 KECCAK256 DUP6 SWAP1 SSTORE SWAP1 MLOAD DUP5 DUP2 MSTORE PUSH32 0x8C5BE1E5EBEC7D5BD14F71427D1E84F3DD0314C0F7B2291E5B200AC8C7C3B925 SWAP2 ADD PUSH1 0x40 MLOAD DUP1 SWAP2 SUB SWAP1 LOG3 POP POP POP JUMP JUMPDEST PUSH1 0x65 SLOAD PUSH1 0x1 PUSH1 0x1 PUSH1 0xA0 SHL SUB AND CALLER EQ PUSH2 0xC99 JUMPI PUSH1 0x40 MLOAD PUSH3 0x461BCD PUSH1 0xE5 SHL DUP2 MSTORE PUSH1 0x20 PUSH1 0x4 DUP3 ADD DUP2 SWAP1 MSTORE PUSH1 0x24 DUP3 ADD MSTORE PUSH32 0x4F776E61626C653A2063616C6C6572206973206E6F7420746865206F776E6572 PUSH1 0x44 DUP3 ADD MSTORE PUSH1 0x64 ADD PUSH2 0xC90 JUMP JUMPDEST PUSH1 0x0 PUSH2 0x1675 DUP5 DUP5 PUSH2 0xF35 JUMP JUMPDEST SWAP1 POP PUSH1 0x0 NOT DUP2 EQ PUSH2 0x16DD JUMPI DUP2 DUP2 LT ISZERO PUSH2 0x16D0 JUMPI PUSH1 0x40 MLOAD PUSH3 0x461BCD PUSH1 0xE5 SHL DUP2 MSTORE PUSH1 0x20 PUSH1 0x4 DUP3 ADD MSTORE PUSH1 0x1D PUSH1 0x24 DUP3 ADD MSTORE PUSH32 0x45524332303A20696E73756666696369656E7420616C6C6F77616E6365000000 PUSH1 0x44 DUP3 ADD MSTORE PUSH1 0x64 ADD PUSH2 0xC90 JUMP JUMPDEST PUSH2 0x16DD DUP5 DUP5 DUP5 DUP5 SUB PUSH2 0x14EB JUMP JUMPDEST POP POP POP POP JUMP JUMPDEST PUSH1 0x40 MLOAD PUSH3 0x461BCD PUSH1 0xE5 SHL DUP2 MSTORE PUSH1 0x20 PUSH1 0x4 DUP3 ADD MSTORE PUSH1 0x26 PUSH1 0x24 DUP3 ADD MSTORE PUSH32 0x4469766964656E645F547261636B65723A204E6F207472616E73666572732061 PUSH1 0x44 DUP3 ADD MSTORE PUSH6 0x1B1B1BDDD959 PUSH1 0xD2 SHL PUSH1 0x64 DUP3 ADD MSTORE PUSH1 0x84 ADD PUSH2 0xC90 JUMP JUMPDEST PUSH1 0x0 PUSH2 0x1746 DUP3 DUP5 PUSH2 0x210A JUMP JUMPDEST SWAP4 SWAP3 POP POP POP JUMP JUMPDEST PUSH1 0x0 DUP2 DUP2 DUP2 SLT ISZERO PUSH2 0x83E JUMPI PUSH1 0x0 DUP1 REVERT JUMPDEST PUSH1 0x0 DUP1 PUSH2 0x176A DUP4 DUP6 PUSH2 0x2121 JUMP JUMPDEST SWAP1 POP PUSH1 0x0 DUP4 SLT ISZERO DUP1 ISZERO PUSH2 0x177D JUMPI POP DUP4 DUP2 SLT ISZERO JUMPDEST DUP1 PUSH2 0x1792 JUMPI POP PUSH1 0x0 DUP4 SLT DUP1 ISZERO PUSH2 0x1792 JUMPI POP DUP4 DUP2 SLT JUMPDEST PUSH2 0x1746 JUMPI PUSH1 0x0 DUP1 REVERT JUMPDEST PUSH1 0x0 DUP1 DUP3 SLT ISZERO PUSH2 0x17AA JUMPI PUSH1 0x0 DUP1 REVERT JUMPDEST POP SWAP1 JUMP JUMPDEST PUSH1 0x1 PUSH1 0x1 PUSH1 0xA0 SHL SUB DUP3 AND PUSH1 0x0 SWAP1 DUP2 MSTORE PUSH1 0x33 PUSH1 0x20 MSTORE PUSH1 0x40 SWAP1 KECCAK256 SLOAD DUP1 DUP3 GT ISZERO PUSH2 0x17ED JUMPI PUSH1 0x0 PUSH2 0x17DB DUP4 DUP4 PUSH2 0x1948 JUMP JUMPDEST SWAP1 POP PUSH2 0x17E7 DUP5 DUP3 PUSH2 0x1ACC JUMP JUMPDEST POP PUSH2 0x10A2 JUMP JUMPDEST DUP1 DUP3 LT ISZERO PUSH2 0x10A2 JUMPI PUSH1 0x0 PUSH2 0x1801 DUP3 DUP5 PUSH2 0x1948 JUMP JUMPDEST SWAP1 POP PUSH2 0x16DD DUP5 DUP3 PUSH2 0x1B30 JUMP JUMPDEST PUSH1 0x0 PUSH2 0x1746 DUP3 DUP5 PUSH2 0x2044 JUMP JUMPDEST PUSH1 0x65 DUP1 SLOAD PUSH1 0x1 PUSH1 0x1 PUSH1 0xA0 SHL SUB DUP4 DUP2 AND PUSH1 0x1 PUSH1 0x1 PUSH1 0xA0 SHL SUB NOT DUP4 AND DUP2 OR SWAP1 SWAP4 SSTORE PUSH1 0x40 MLOAD SWAP2 AND SWAP2 SWAP1 DUP3 SWAP1 PUSH32 0x8BE0079C531659141344CD1FD0A4F28419497F9722A3DAAFE3B4186F6B6457E0 SWAP1 PUSH1 0x0 SWAP1 LOG3 POP POP JUMP JUMPDEST PUSH1 0x0 SLOAD PUSH2 0x100 SWAP1 DIV PUSH1 0xFF AND ISZERO DUP1 DUP1 ISZERO PUSH2 0x188B JUMPI POP PUSH1 0x0 SLOAD PUSH1 0x1 PUSH1 0xFF SWAP1 SWAP2 AND LT JUMPDEST DUP1 PUSH2 0x18A5 JUMPI POP ADDRESS EXTCODESIZE ISZERO DUP1 ISZERO PUSH2 0x18A5 JUMPI POP PUSH1 0x0 SLOAD PUSH1 0xFF AND PUSH1 0x1 EQ JUMPDEST PUSH2 0x18C1 JUMPI PUSH1 0x40 MLOAD PUSH3 0x461BCD PUSH1 0xE5 SHL DUP2 MSTORE PUSH1 0x4 ADD PUSH2 0xC90 SWAP1 PUSH2 0x208D JUMP JUMPDEST PUSH1 0x0 DUP1 SLOAD PUSH1 0xFF NOT AND PUSH1 0x1 OR SWAP1 SSTORE DUP1 ISZERO PUSH2 0x18E4 JUMPI PUSH1 0x0 DUP1 SLOAD PUSH2 0xFF00 NOT AND PUSH2 0x100 OR SWAP1 SSTORE JUMPDEST PUSH2 0x18EC PUSH2 0x1B74 JUMP JUMPDEST PUSH2 0x18F6 DUP4 DUP4 PUSH2 0x1BA3 JUMP JUMPDEST PUSH1 0x1 PUSH1 0x80 SHL PUSH1 0x97 SSTORE DUP1 ISZERO PUSH2 0x10A2 JUMPI PUSH1 0x0 DUP1 SLOAD PUSH2 0xFF00 NOT AND SWAP1 SSTORE PUSH1 0x40 MLOAD PUSH1 0x1 DUP2 MSTORE PUSH32 0x7F26B83FF96E1F2B6A682F133852F6798A09C465DA95921460CEFB3847402498 SWAP1 PUSH1 0x20 ADD PUSH1 0x40 MLOAD DUP1 SWAP2 SUB SWAP1 LOG1 POP POP POP JUMP JUMPDEST PUSH1 0x0 PUSH2 0x1746 DUP3 DUP5 PUSH2 0x2149 JUMP JUMPDEST PUSH1 0x0 DUP1 PUSH2 0x1960 DUP4 PUSH2 0xE70 JUMP JUMPDEST SWAP1 POP DUP1 ISZERO PUSH2 0x1A5F JUMPI PUSH1 0x1 PUSH1 0x1 PUSH1 0xA0 SHL SUB DUP4 AND PUSH1 0x0 SWAP1 DUP2 MSTORE PUSH1 0x9A PUSH1 0x20 MSTORE PUSH1 0x40 SWAP1 KECCAK256 SLOAD PUSH2 0x198B SWAP1 DUP3 PUSH2 0x180D JUMP JUMPDEST PUSH1 0x1 PUSH1 0x1 PUSH1 0xA0 SHL SUB DUP5 AND PUSH1 0x0 DUP2 DUP2 MSTORE PUSH1 0x9A PUSH1 0x20 MSTORE PUSH1 0x40 SWAP1 DUP2 SWAP1 KECCAK256 SWAP3 SWAP1 SWAP3 SSTORE SWAP1 MLOAD PUSH32 0xEE503BEE2BB6A87E57BC57DB795F98137327401A0E7B7CE42E37926CC1A9CA4D SWAP1 PUSH2 0x19DA SWAP1 DUP5 DUP2 MSTORE PUSH1 0x20 ADD SWAP1 JUMP JUMPDEST PUSH1 0x40 MLOAD DUP1 SWAP2 SUB SWAP1 LOG2 PUSH1 0x40 MLOAD PUSH1 0x0 SWAP1 PUSH1 0x1 PUSH1 0x1 PUSH1 0xA0 SHL SUB DUP6 AND SWAP1 DUP4 ISZERO PUSH2 0x8FC MUL SWAP1 DUP5 SWAP1 DUP5 DUP2 DUP2 DUP2 DUP6 DUP9 DUP9 CALL SWAP4 POP POP POP POP SWAP1 POP DUP1 PUSH2 0x1A58 JUMPI PUSH1 0x1 PUSH1 0x1 PUSH1 0xA0 SHL SUB DUP5 AND PUSH1 0x0 SWAP1 DUP2 MSTORE PUSH1 0x9A PUSH1 0x20 MSTORE PUSH1 0x40 SWAP1 KECCAK256 SLOAD PUSH2 0x1A33 SWAP1 DUP4 PUSH2 0x1948 JUMP JUMPDEST PUSH1 0x1 PUSH1 0x1 PUSH1 0xA0 SHL SUB SWAP1 SWAP5 AND PUSH1 0x0 SWAP1 DUP2 MSTORE PUSH1 0x9A PUSH1 0x20 MSTORE PUSH1 0x40 DUP2 KECCAK256 SWAP5 SWAP1 SWAP5 SSTORE POP SWAP2 SWAP3 SWAP2 POP POP JUMP JUMPDEST POP SWAP3 SWAP2 POP POP JUMP JUMPDEST POP PUSH1 0x0 SWAP3 SWAP2 POP POP JUMP JUMPDEST PUSH1 0x0 DUP1 PUSH2 0x1A75 DUP4 DUP6 PUSH2 0x215C JUMP JUMPDEST SWAP1 POP PUSH1 0x0 DUP4 SLT ISZERO DUP1 ISZERO PUSH2 0x1A88 JUMPI POP DUP4 DUP2 SGT ISZERO JUMPDEST DUP1 PUSH2 0x1792 JUMPI POP PUSH1 0x0 DUP4 SLT DUP1 ISZERO PUSH2 0x1792 JUMPI POP DUP4 DUP2 SGT PUSH2 0x1746 JUMPI PUSH1 0x0 DUP1 REVERT JUMPDEST PUSH1 0x0 TIMESTAMP DUP3 GT ISZERO PUSH2 0x1AB7 JUMPI POP PUSH1 0x0 SWAP2 SWAP1 POP JUMP JUMPDEST PUSH1 0xA3 SLOAD PUSH2 0x1AC4 TIMESTAMP DUP5 PUSH2 0x1948 JUMP JUMPDEST LT ISZERO SWAP3 SWAP2 POP POP JUMP JUMPDEST PUSH2 0x1AD6 DUP3 DUP3 PUSH2 0x1BD4 JUMP JUMPDEST PUSH2 0x1B10 PUSH2 0x1AF1 PUSH2 0x8B8 DUP4 PUSH1 0x98 SLOAD PUSH2 0x173A SWAP1 SWAP2 SWAP1 PUSH4 0xFFFFFFFF AND JUMP JUMPDEST PUSH1 0x1 PUSH1 0x1 PUSH1 0xA0 SHL SUB DUP5 AND PUSH1 0x0 SWAP1 DUP2 MSTORE PUSH1 0x99 PUSH1 0x20 MSTORE PUSH1 0x40 SWAP1 KECCAK256 SLOAD SWAP1 PUSH2 0x1A68 JUMP JUMPDEST PUSH1 0x1 PUSH1 0x1 PUSH1 0xA0 SHL SUB SWAP1 SWAP3 AND PUSH1 0x0 SWAP1 DUP2 MSTORE PUSH1 0x99 PUSH1 0x20 MSTORE PUSH1 0x40 SWAP1 KECCAK256 SWAP2 SWAP1 SWAP2 SSTORE POP JUMP JUMPDEST PUSH2 0x1B3A DUP3 DUP3 PUSH2 0x1CA9 JUMP JUMPDEST PUSH2 0x1B10 PUSH2 0x1B55 PUSH2 0x8B8 DUP4 PUSH1 0x98 SLOAD PUSH2 0x173A SWAP1 SWAP2 SWAP1 PUSH4 0xFFFFFFFF AND JUMP JUMPDEST PUSH1 0x1 PUSH1 0x1 PUSH1 0xA0 SHL SUB DUP5 AND PUSH1 0x0 SWAP1 DUP2 MSTORE PUSH1 0x99 PUSH1 0x20 MSTORE PUSH1 0x40 SWAP1 KECCAK256 SLOAD SWAP1 PUSH2 0x175D JUMP JUMPDEST PUSH1 0x0 SLOAD PUSH2 0x100 SWAP1 DIV PUSH1 0xFF AND PUSH2 0x1B9B JUMPI PUSH1 0x40 MLOAD PUSH3 0x461BCD PUSH1 0xE5 SHL DUP2 MSTORE PUSH1 0x4 ADD PUSH2 0xC90 SWAP1 PUSH2 0x217C JUMP JUMPDEST PUSH2 0xC99 PUSH2 0x1DF0 JUMP JUMPDEST PUSH1 0x0 SLOAD PUSH2 0x100 SWAP1 DIV PUSH1 0xFF AND PUSH2 0x1BCA JUMPI PUSH1 0x40 MLOAD PUSH3 0x461BCD PUSH1 0xE5 SHL DUP2 MSTORE PUSH1 0x4 ADD PUSH2 0xC90 SWAP1 PUSH2 0x217C JUMP JUMPDEST PUSH2 0x10A4 DUP3 DUP3 PUSH2 0x1E20 JUMP JUMPDEST PUSH1 0x1 PUSH1 0x1 PUSH1 0xA0 SHL SUB DUP3 AND PUSH2 0x1C2A JUMPI PUSH1 0x40 MLOAD PUSH3 0x461BCD PUSH1 0xE5 SHL DUP2 MSTORE PUSH1 0x20 PUSH1 0x4 DUP3 ADD MSTORE PUSH1 0x1F PUSH1 0x24 DUP3 ADD MSTORE PUSH32 0x45524332303A206D696E7420746F20746865207A65726F206164647265737300 PUSH1 0x44 DUP3 ADD MSTORE PUSH1 0x64 ADD PUSH2 0xC90 JUMP JUMPDEST PUSH2 0x1C36 PUSH1 0x0 DUP4 DUP4 PUSH2 0x10A2 JUMP JUMPDEST DUP1 PUSH1 0x35 PUSH1 0x0 DUP3 DUP3 SLOAD PUSH2 0x1C48 SWAP2 SWAP1 PUSH2 0x2044 JUMP JUMPDEST SWAP1 SWAP2 SSTORE POP POP PUSH1 0x1 PUSH1 0x1 PUSH1 0xA0 SHL SUB DUP3 AND PUSH1 0x0 DUP2 DUP2 MSTORE PUSH1 0x33 PUSH1 0x20 SWAP1 DUP2 MSTORE PUSH1 0x40 DUP1 DUP4 KECCAK256 DUP1 SLOAD DUP7 ADD SWAP1 SSTORE MLOAD DUP5 DUP2 MSTORE PUSH32 0xDDF252AD1BE2C89B69C2B068FC378DAA952BA7F163C4A11628F55A4DF523B3EF SWAP2 ADD PUSH1 0x40 MLOAD DUP1 SWAP2 SUB SWAP1 LOG3 PUSH2 0x10A4 PUSH1 0x0 DUP4 DUP4 PUSH2 0x10A2 JUMP JUMPDEST PUSH1 0x1 PUSH1 0x1 PUSH1 0xA0 SHL SUB DUP3 AND PUSH2 0x1D09 JUMPI PUSH1 0x40 MLOAD PUSH3 0x461BCD PUSH1 0xE5 SHL DUP2 MSTORE PUSH1 0x20 PUSH1 0x4 DUP3 ADD MSTORE PUSH1 0x21 PUSH1 0x24 DUP3 ADD MSTORE PUSH32 0x45524332303A206275726E2066726F6D20746865207A65726F20616464726573 PUSH1 0x44 DUP3 ADD MSTORE PUSH1 0x73 PUSH1 0xF8 SHL PUSH1 0x64 DUP3 ADD MSTORE PUSH1 0x84 ADD PUSH2 0xC90 JUMP JUMPDEST PUSH2 0x1D15 DUP3 PUSH1 0x0 DUP4 PUSH2 0x10A2 JUMP JUMPDEST PUSH1 0x1 PUSH1 0x1 PUSH1 0xA0 SHL SUB DUP3 AND PUSH1 0x0 SWAP1 DUP2 MSTORE PUSH1 0x33 PUSH1 0x20 MSTORE PUSH1 0x40 SWAP1 KECCAK256 SLOAD DUP2 DUP2 LT ISZERO PUSH2 0x1D89 JUMPI PUSH1 0x40 MLOAD PUSH3 0x461BCD PUSH1 0xE5 SHL DUP2 MSTORE PUSH1 0x20 PUSH1 0x4 DUP3 ADD MSTORE PUSH1 0x22 PUSH1 0x24 DUP3 ADD MSTORE PUSH32 0x45524332303A206275726E20616D6F756E7420657863656564732062616C616E PUSH1 0x44 DUP3 ADD MSTORE PUSH2 0x6365 PUSH1 0xF0 SHL PUSH1 0x64 DUP3 ADD MSTORE PUSH1 0x84 ADD PUSH2 0xC90 JUMP JUMPDEST PUSH1 0x1 PUSH1 0x1 PUSH1 0xA0 SHL SUB DUP4 AND PUSH1 0x0 DUP2 DUP2 MSTORE PUSH1 0x33 PUSH1 0x20 SWAP1 DUP2 MSTORE PUSH1 0x40 DUP1 DUP4 KECCAK256 DUP7 DUP7 SUB SWAP1 SSTORE PUSH1 0x35 DUP1 SLOAD DUP8 SWAP1 SUB SWAP1 SSTORE MLOAD DUP6 DUP2 MSTORE SWAP2 SWAP3 SWAP2 PUSH32 0xDDF252AD1BE2C89B69C2B068FC378DAA952BA7F163C4A11628F55A4DF523B3EF SWAP2 ADD PUSH1 0x40 MLOAD DUP1 SWAP2 SUB SWAP1 LOG3 PUSH2 0x10A2 DUP4 PUSH1 0x0 DUP5 PUSH2 0x10A2 JUMP JUMPDEST PUSH1 0x0 SLOAD PUSH2 0x100 SWAP1 DIV PUSH1 0xFF AND PUSH2 0x1E17 JUMPI PUSH1 0x40 MLOAD PUSH3 0x461BCD PUSH1 0xE5 SHL DUP2 MSTORE PUSH1 0x4 ADD PUSH2 0xC90 SWAP1 PUSH2 0x217C JUMP JUMPDEST PUSH2 0xC99 CALLER PUSH2 0x1819 JUMP JUMPDEST PUSH1 0x0 SLOAD PUSH2 0x100 SWAP1 DIV PUSH1 0xFF AND PUSH2 0x1E47 JUMPI PUSH1 0x40 MLOAD PUSH3 0x461BCD PUSH1 0xE5 SHL DUP2 MSTORE PUSH1 0x4 ADD PUSH2 0xC90 SWAP1 PUSH2 0x217C JUMP JUMPDEST PUSH1 0x36 PUSH2 0x1E53 DUP4 DUP3 PUSH2 0x222B JUMP JUMPDEST POP PUSH1 0x37 PUSH2 0x10A2 DUP3 DUP3 PUSH2 0x222B JUMP JUMPDEST PUSH1 0x0 PUSH1 0x20 DUP1 DUP4 MSTORE DUP4 MLOAD DUP1 DUP3 DUP6 ADD MSTORE PUSH1 0x0 JUMPDEST DUP2 DUP2 LT ISZERO PUSH2 0x1E8D JUMPI DUP6 DUP2 ADD DUP4 ADD MLOAD DUP6 DUP3 ADD PUSH1 0x40 ADD MSTORE DUP3 ADD PUSH2 0x1E71 JUMP JUMPDEST POP PUSH1 0x0 PUSH1 0x40 DUP3 DUP7 ADD ADD MSTORE PUSH1 0x40 PUSH1 0x1F NOT PUSH1 0x1F DUP4 ADD AND DUP6 ADD ADD SWAP3 POP POP POP SWAP3 SWAP2 POP POP JUMP JUMPDEST PUSH1 0x1 PUSH1 0x1 PUSH1 0xA0 SHL SUB DUP2 AND DUP2 EQ PUSH2 0xA7D JUMPI PUSH1 0x0 DUP1 REVERT JUMPDEST PUSH1 0x0 DUP1 PUSH1 0x40 DUP4 DUP6 SUB SLT ISZERO PUSH2 0x1ED6 JUMPI PUSH1 0x0 DUP1 REVERT JUMPDEST DUP3 CALLDATALOAD PUSH2 0x1EE1 DUP2 PUSH2 0x1EAE JUMP JUMPDEST SWAP5 PUSH1 0x20 SWAP4 SWAP1 SWAP4 ADD CALLDATALOAD SWAP4 POP POP POP JUMP JUMPDEST PUSH1 0x0 PUSH1 0x20 DUP3 DUP5 SUB SLT ISZERO PUSH2 0x1F01 JUMPI PUSH1 0x0 DUP1 REVERT JUMPDEST POP CALLDATALOAD SWAP2 SWAP1 POP JUMP JUMPDEST PUSH1 0x0 PUSH1 0x20 DUP3 DUP5 SUB SLT ISZERO PUSH2 0x1F1A JUMPI PUSH1 0x0 DUP1 REVERT JUMPDEST DUP2 CALLDATALOAD PUSH2 0x1746 DUP2 PUSH2 0x1EAE JUMP JUMPDEST PUSH1 0x0 DUP1 PUSH1 0x0 PUSH1 0x60 DUP5 DUP7 SUB SLT ISZERO PUSH2 0x1F3A JUMPI PUSH1 0x0 DUP1 REVERT JUMPDEST DUP4 CALLDATALOAD PUSH2 0x1F45 DUP2 PUSH2 0x1EAE JUMP JUMPDEST SWAP3 POP PUSH1 0x20 DUP5 ADD CALLDATALOAD PUSH2 0x1F55 DUP2 PUSH2 0x1EAE JUMP JUMPDEST SWAP3 SWAP6 SWAP3 SWAP5 POP POP POP PUSH1 0x40 SWAP2 SWAP1 SWAP2 ADD CALLDATALOAD SWAP1 JUMP JUMPDEST PUSH1 0x0 DUP1 PUSH1 0x40 DUP4 DUP6 SUB SLT ISZERO PUSH2 0x1F79 JUMPI PUSH1 0x0 DUP1 REVERT JUMPDEST DUP3 CALLDATALOAD PUSH2 0x1F84 DUP2 PUSH2 0x1EAE JUMP JUMPDEST SWAP2 POP PUSH1 0x20 DUP4 ADD CALLDATALOAD DUP1 ISZERO ISZERO DUP2 EQ PUSH2 0x1F99 JUMPI PUSH1 0x0 DUP1 REVERT JUMPDEST DUP1 SWAP2 POP POP SWAP3 POP SWAP3 SWAP1 POP JUMP JUMPDEST PUSH1 0x0 DUP1 PUSH1 0x40 DUP4 DUP6 SUB SLT ISZERO PUSH2 0x1FB7 JUMPI PUSH1 0x0 DUP1 REVERT JUMPDEST DUP3 CALLDATALOAD PUSH2 0x1FC2 DUP2 PUSH2 0x1EAE JUMP JUMPDEST SWAP2 POP PUSH1 0x20 DUP4 ADD CALLDATALOAD PUSH2 0x1F99 DUP2 PUSH2 0x1EAE JUMP JUMPDEST PUSH1 0x1 DUP2 DUP2 SHR SWAP1 DUP3 AND DUP1 PUSH2 0x1FE6 JUMPI PUSH1 0x7F DUP3 AND SWAP2 POP JUMPDEST PUSH1 0x20 DUP3 LT DUP2 SUB PUSH2 0x2006 JUMPI PUSH4 0x4E487B71 PUSH1 0xE0 SHL PUSH1 0x0 MSTORE PUSH1 0x22 PUSH1 0x4 MSTORE PUSH1 0x24 PUSH1 0x0 REVERT JUMPDEST POP SWAP2 SWAP1 POP JUMP JUMPDEST PUSH4 0x4E487B71 PUSH1 0xE0 SHL PUSH1 0x0 MSTORE PUSH1 0x11 PUSH1 0x4 MSTORE PUSH1 0x24 PUSH1 0x0 REVERT JUMPDEST PUSH1 0x0 DUP3 PUSH2 0x203F JUMPI PUSH4 0x4E487B71 PUSH1 0xE0 SHL PUSH1 0x0 MSTORE PUSH1 0x12 PUSH1 0x4 MSTORE PUSH1 0x24 PUSH1 0x0 REVERT JUMPDEST POP DIV SWAP1 JUMP JUMPDEST DUP1 DUP3 ADD DUP1 DUP3 GT ISZERO PUSH2 0x83E JUMPI PUSH2 0x83E PUSH2 0x200C JUMP JUMPDEST PUSH1 0x0 PUSH1 0x20 DUP3 DUP5 SUB SLT ISZERO PUSH2 0x2069 JUMPI PUSH1 0x0 DUP1 REVERT JUMPDEST POP MLOAD SWAP2 SWAP1 POP JUMP JUMPDEST PUSH1 0x0 PUSH1 0x20 DUP3 DUP5 SUB SLT ISZERO PUSH2 0x2082 JUMPI PUSH1 0x0 DUP1 REVERT JUMPDEST DUP2 MLOAD PUSH2 0x1746 DUP2 PUSH2 0x1EAE JUMP JUMPDEST PUSH1 0x20 DUP1 DUP3 MSTORE PUSH1 0x2E SWAP1 DUP3 ADD MSTORE PUSH32 0x496E697469616C697A61626C653A20636F6E747261637420697320616C726561 PUSH1 0x40 DUP3 ADD MSTORE PUSH14 0x191E481A5B9A5D1A585B1A5E9959 PUSH1 0x92 SHL PUSH1 0x60 DUP3 ADD MSTORE PUSH1 0x80 ADD SWAP1 JUMP JUMPDEST PUSH1 0x0 PUSH1 0x1 DUP3 ADD PUSH2 0x20ED JUMPI PUSH2 0x20ED PUSH2 0x200C JUMP JUMPDEST POP PUSH1 0x1 ADD SWAP1 JUMP JUMPDEST PUSH4 0x4E487B71 PUSH1 0xE0 SHL PUSH1 0x0 MSTORE PUSH1 0x32 PUSH1 0x4 MSTORE PUSH1 0x24 PUSH1 0x0 REVERT JUMPDEST DUP1 DUP3 MUL DUP2 ISZERO DUP3 DUP3 DIV DUP5 EQ OR PUSH2 0x83E JUMPI PUSH2 0x83E PUSH2 0x200C JUMP JUMPDEST DUP1 DUP3 ADD DUP3 DUP2 SLT PUSH1 0x0 DUP4 SLT DUP1 ISZERO DUP3 AND DUP3 ISZERO DUP3 AND OR ISZERO PUSH2 0x2141 JUMPI PUSH2 0x2141 PUSH2 0x200C JUMP JUMPDEST POP POP SWAP3 SWAP2 POP POP JUMP JUMPDEST DUP2 DUP2 SUB DUP2 DUP2 GT ISZERO PUSH2 0x83E JUMPI PUSH2 0x83E PUSH2 0x200C JUMP JUMPDEST DUP2 DUP2 SUB PUSH1 0x0 DUP4 SLT DUP1 ISZERO DUP4 DUP4 SGT AND DUP4 DUP4 SLT DUP3 AND OR ISZERO PUSH2 0x1A58 JUMPI PUSH2 0x1A58 PUSH2 0x200C JUMP JUMPDEST PUSH1 0x20 DUP1 DUP3 MSTORE PUSH1 0x2B SWAP1 DUP3 ADD MSTORE PUSH32 0x496E697469616C697A61626C653A20636F6E7472616374206973206E6F742069 PUSH1 0x40 DUP3 ADD MSTORE PUSH11 0x6E697469616C697A696E67 PUSH1 0xA8 SHL PUSH1 0x60 DUP3 ADD MSTORE PUSH1 0x80 ADD SWAP1 JUMP JUMPDEST PUSH4 0x4E487B71 PUSH1 0xE0 SHL PUSH1 0x0 MSTORE PUSH1 0x41 PUSH1 0x4 MSTORE PUSH1 0x24 PUSH1 0x0 REVERT JUMPDEST PUSH1 0x1F DUP3 GT ISZERO PUSH2 0x10A2 JUMPI PUSH1 0x0 DUP2 DUP2 MSTORE PUSH1 0x20 DUP2 KECCAK256 PUSH1 0x1F DUP6 ADD PUSH1 0x5 SHR DUP2 ADD PUSH1 0x20 DUP7 LT ISZERO PUSH2 0x2204 JUMPI POP DUP1 JUMPDEST PUSH1 0x1F DUP6 ADD PUSH1 0x5 SHR DUP3 ADD SWAP2 POP JUMPDEST DUP2 DUP2 LT ISZERO PUSH2 0x2223 JUMPI DUP3 DUP2 SSTORE PUSH1 0x1 ADD PUSH2 0x2210 JUMP JUMPDEST POP POP POP POP POP POP JUMP JUMPDEST DUP2 MLOAD PUSH8 0xFFFFFFFFFFFFFFFF DUP2 GT ISZERO PUSH2 0x2245 JUMPI PUSH2 0x2245 PUSH2 0x21C7 JUMP JUMPDEST PUSH2 0x2259 DUP2 PUSH2 0x2253 DUP5 SLOAD PUSH2 0x1FD2 JUMP JUMPDEST DUP5 PUSH2 0x21DD JUMP JUMPDEST PUSH1 0x20 DUP1 PUSH1 0x1F DUP4 GT PUSH1 0x1 DUP2 EQ PUSH2 0x228E JUMPI PUSH1 0x0 DUP5 ISZERO PUSH2 0x2276 JUMPI POP DUP6 DUP4 ADD MLOAD JUMPDEST PUSH1 0x0 NOT PUSH1 0x3 DUP7 SWAP1 SHL SHR NOT AND PUSH1 0x1 DUP6 SWAP1 SHL OR DUP6 SSTORE PUSH2 0x2223 JUMP JUMPDEST PUSH1 0x0 DUP6 DUP2 MSTORE PUSH1 0x20 DUP2 KECCAK256 PUSH1 0x1F NOT DUP7 AND SWAP2 JUMPDEST DUP3 DUP2 LT ISZERO PUSH2 0x22BD JUMPI DUP9 DUP7 ADD MLOAD DUP3 SSTORE SWAP5 DUP5 ADD SWAP5 PUSH1 0x1 SWAP1 SWAP2 ADD SWAP1 DUP5 ADD PUSH2 0x229E JUMP JUMPDEST POP DUP6 DUP3 LT ISZERO PUSH2 0x22DB JUMPI DUP8 DUP6 ADD MLOAD PUSH1 0x0 NOT PUSH1 0x3 DUP9 SWAP1 SHL PUSH1 0xF8 AND SHR NOT AND DUP2 SSTORE JUMPDEST POP POP POP POP POP PUSH1 0x1 SWAP1 DUP2 SHL ADD SWAP1 SSTORE POP JUMP INVALID LOG2 PUSH5 0x6970667358 0x22 SLT KECCAK256 CALLDATASIZE INVALID SWAP10 0x4D 0xC9 0xD3 0x28 0xE2 PUSH21 0x2B1F7F03F5B625B7ACEDCC0321187030B9F5F348BF CALLCODE JUMP PUSH5 0x736F6C6343 STOP ADDMOD GT STOP CALLER "},"methodIdentifiers":{"accumulativeDividendOf(address)":"27ce0147","allowance(address,address)":"dd62ed3e","approve(address,uint256)":"095ea7b3","balanceOf(address)":"70a08231","claimWait()":"6f2789ec","decimals()":"313ce567","decreaseAllowance(address,uint256)":"a457c2d7","distributeDividends(uint256)":"3243c791","dividendOf(address)":"91b89fba","excludeFromDividends(address)":"31e79db0","excludedFromDividends(address)":"4e7b827f","getAccount(address)":"fbcbc0f1","getAccountAtIndex(uint256)":"5183d6fd","getLastProcessedIndex()":"e7841ec0","getNumberOfTokenHolders()":"09bbedde","increaseAllowance(address,uint256)":"39509351","initialize()":"8129fc1c","isExcludedFromDividends(address)":"c705c569","lastClaimTimes(address)":"226cfa3d","lastProcessedIndex()":"3009a609","minimumTokenBalanceForDividends()":"be10b614","name()":"06fdde03","owner()":"8da5cb5b","process(uint256)":"ffb2c479","processAccount(address,bool)":"bc4c4b37","renounceOwnership()":"715018a6","setBalance(address,uint256)":"e30443bc","setLastProcessedIndex(uint256)":"286b3aa0","symbol()":"95d89b41","totalDividendsDistributed()":"85a6b3ae","totalSupply()":"18160ddd","transfer(address,uint256)":"a9059cbb","transferFrom(address,address,uint256)":"23b872dd","transferOwnership(address)":"f2fde38b","updateClaimWait(uint256)":"e98030c7","updateMinimumTokenBalanceForDividends(uint256)":"0dcb2e89","withdrawDividend()":"6a474002","withdrawableDividendOf(address)":"a8b9d240","withdrawnDividendOf(address)":"aafd847a"}},"storageLayout":{"storage":[{"astId":274,"contract":"contracts/CookieSaleTokenProxy.sol:DividendTracker","label":"_initialized","offset":0,"slot":"0","type":"t_uint8"},{"astId":276,"contract":"contracts/CookieSaleTokenProxy.sol:DividendTracker","label":"_initializing","offset":1,"slot":"0","type":"t_bool"},{"astId":448,"contract":"contracts/CookieSaleTokenProxy.sol:DividendTracker","label":"__gap","offset":0,"slot":"1","type":"t_array(t_uint256)50_storage"},{"astId":2117,"contract":"contracts/CookieSaleTokenProxy.sol:DividendTracker","label":"_balances","offset":0,"slot":"51","type":"t_mapping(t_address,t_uint256)"},{"astId":2123,"contract":"contracts/CookieSaleTokenProxy.sol:DividendTracker","label":"_allowances","offset":0,"slot":"52","type":"t_mapping(t_address,t_mapping(t_address,t_uint256))"},{"astId":2125,"contract":"contracts/CookieSaleTokenProxy.sol:DividendTracker","label":"_totalSupply","offset":0,"slot":"53","type":"t_uint256"},{"astId":2127,"contract":"contracts/CookieSaleTokenProxy.sol:DividendTracker","label":"_name","offset":0,"slot":"54","type":"t_string_storage"},{"astId":2129,"contract":"contracts/CookieSaleTokenProxy.sol:DividendTracker","label":"_symbol","offset":0,"slot":"55","type":"t_string_storage"},{"astId":2709,"contract":"contracts/CookieSaleTokenProxy.sol:DividendTracker","label":"__gap","offset":0,"slot":"56","type":"t_array(t_uint256)45_storage"},{"astId":455,"contract":"contracts/CookieSaleTokenProxy.sol:DividendTracker","label":"_owner","offset":0,"slot":"101","type":"t_address"},{"astId":567,"contract":"contracts/CookieSaleTokenProxy.sol:DividendTracker","label":"__gap","offset":0,"slot":"102","type":"t_array(t_uint256)49_storage"},{"astId":2774,"contract":"contracts/CookieSaleTokenProxy.sol:DividendTracker","label":"magnitude","offset":0,"slot":"151","type":"t_uint256"},{"astId":2776,"contract":"contracts/CookieSaleTokenProxy.sol:DividendTracker","label":"magnifiedDividendPerShare","offset":0,"slot":"152","type":"t_uint256"},{"astId":2780,"contract":"contracts/CookieSaleTokenProxy.sol:DividendTracker","label":"magnifiedDividendCorrections","offset":0,"slot":"153","type":"t_mapping(t_address,t_int256)"},{"astId":2784,"contract":"contracts/CookieSaleTokenProxy.sol:DividendTracker","label":"withdrawnDividends","offset":0,"slot":"154","type":"t_mapping(t_address,t_uint256)"},{"astId":2786,"contract":"contracts/CookieSaleTokenProxy.sol:DividendTracker","label":"totalDividendsDistributed","offset":0,"slot":"155","type":"t_uint256"},{"astId":3151,"contract":"contracts/CookieSaleTokenProxy.sol:DividendTracker","label":"tokenHoldersMap","offset":0,"slot":"156","type":"t_struct(Map)1113_storage"},{"astId":3153,"contract":"contracts/CookieSaleTokenProxy.sol:DividendTracker","label":"lastProcessedIndex","offset":0,"slot":"160","type":"t_uint256"},{"astId":3157,"contract":"contracts/CookieSaleTokenProxy.sol:DividendTracker","label":"excludedFromDividends","offset":0,"slot":"161","type":"t_mapping(t_address,t_bool)"},{"astId":3161,"contract":"contracts/CookieSaleTokenProxy.sol:DividendTracker","label":"lastClaimTimes","offset":0,"slot":"162","type":"t_mapping(t_address,t_uint256)"},{"astId":3163,"contract":"contracts/CookieSaleTokenProxy.sol:DividendTracker","label":"claimWait","offset":0,"slot":"163","type":"t_uint256"},{"astId":3165,"contract":"contracts/CookieSaleTokenProxy.sol:DividendTracker","label":"minimumTokenBalanceForDividends","offset":0,"slot":"164","type":"t_uint256"}],"types":{"t_address":{"encoding":"inplace","label":"address","numberOfBytes":"20"},"t_array(t_address)dyn_storage":{"base":"t_address","encoding":"dynamic_array","label":"address[]","numberOfBytes":"32"},"t_array(t_uint256)45_storage":{"base":"t_uint256","encoding":"inplace","label":"uint256[45]","numberOfBytes":"1440"},"t_array(t_uint256)49_storage":{"base":"t_uint256","encoding":"inplace","label":"uint256[49]","numberOfBytes":"1568"},"t_array(t_uint256)50_storage":{"base":"t_uint256","encoding":"inplace","label":"uint256[50]","numberOfBytes":"1600"},"t_bool":{"encoding":"inplace","label":"bool","numberOfBytes":"1"},"t_int256":{"encoding":"inplace","label":"int256","numberOfBytes":"32"},"t_mapping(t_address,t_bool)":{"encoding":"mapping","key":"t_address","label":"mapping(address => bool)","numberOfBytes":"32","value":"t_bool"},"t_mapping(t_address,t_int256)":{"encoding":"mapping","key":"t_address","label":"mapping(address => int256)","numberOfBytes":"32","value":"t_int256"},"t_mapping(t_address,t_mapping(t_address,t_uint256))":{"encoding":"mapping","key":"t_address","label":"mapping(address => mapping(address => uint256))","numberOfBytes":"32","value":"t_mapping(t_address,t_uint256)"},"t_mapping(t_address,t_uint256)":{"encoding":"mapping","key":"t_address","label":"mapping(address => uint256)","numberOfBytes":"32","value":"t_uint256"},"t_string_storage":{"encoding":"bytes","label":"string","numberOfBytes":"32"},"t_struct(Map)1113_storage":{"encoding":"inplace","label":"struct IterableMappingUpgradeable.Map","members":[{"astId":1100,"contract":"contracts/CookieSaleTokenProxy.sol:DividendTracker","label":"keys","offset":0,"slot":"0","type":"t_array(t_address)dyn_storage"},{"astId":1104,"contract":"contracts/CookieSaleTokenProxy.sol:DividendTracker","label":"values","offset":0,"slot":"1","type":"t_mapping(t_address,t_uint256)"},{"astId":1108,"contract":"contracts/CookieSaleTokenProxy.sol:DividendTracker","label":"indexOf","offset":0,"slot":"2","type":"t_mapping(t_address,t_uint256)"},{"astId":1112,"contract":"contracts/CookieSaleTokenProxy.sol:DividendTracker","label":"inserted","offset":0,"slot":"3","type":"t_mapping(t_address,t_bool)"}],"numberOfBytes":"128"},"t_uint256":{"encoding":"inplace","label":"uint256","numberOfBytes":"32"},"t_uint8":{"encoding":"inplace","label":"uint8","numberOfBytes":"1"}}}}}}